{
  "contractName": "NFTReservalManager",
  "abi": [
    {
      "inputs": [
        {
          "internalType": "address[]",
          "name": "_tokens",
          "type": "address[]"
        },
        {
          "internalType": "address",
          "name": "_nftVault",
          "type": "address"
        },
        {
          "internalType": "address",
          "name": "_priceOracle",
          "type": "address"
        }
      ],
      "stateMutability": "nonpayable",
      "type": "constructor"
    },
    {
      "anonymous": false,
      "inputs": [
        {
          "indexed": false,
          "internalType": "bool",
          "name": "assigned",
          "type": "bool"
        },
        {
          "indexed": false,
          "internalType": "uint256",
          "name": "reservalID",
          "type": "uint256"
        },
        {
          "indexed": false,
          "internalType": "uint256",
          "name": "offerID",
          "type": "uint256"
        }
      ],
      "name": "Assigned",
      "type": "event"
    },
    {
      "anonymous": false,
      "inputs": [
        {
          "indexed": false,
          "internalType": "address",
          "name": "buyer",
          "type": "address"
        },
        {
          "indexed": false,
          "internalType": "uint256",
          "name": "reservalID",
          "type": "uint256"
        },
        {
          "indexed": false,
          "internalType": "address",
          "name": "nft",
          "type": "address"
        },
        {
          "indexed": false,
          "internalType": "uint256",
          "name": "expiry",
          "type": "uint256"
        },
        {
          "indexed": false,
          "internalType": "address",
          "name": "token",
          "type": "address"
        },
        {
          "indexed": false,
          "internalType": "uint256",
          "name": "price",
          "type": "uint256"
        },
        {
          "indexed": false,
          "internalType": "uint256",
          "name": "pct",
          "type": "uint256"
        },
        {
          "indexed": false,
          "internalType": "uint256",
          "name": "offerID",
          "type": "uint256"
        }
      ],
      "name": "BOfferCreated",
      "type": "event"
    },
    {
      "anonymous": false,
      "inputs": [
        {
          "indexed": false,
          "internalType": "uint256",
          "name": "offerID",
          "type": "uint256"
        },
        {
          "indexed": false,
          "internalType": "address",
          "name": "token",
          "type": "address"
        },
        {
          "indexed": false,
          "internalType": "uint256",
          "name": "amount",
          "type": "uint256"
        },
        {
          "indexed": false,
          "internalType": "bool",
          "name": "isDeposit",
          "type": "bool"
        }
      ],
      "name": "CollateralDeposit",
      "type": "event"
    },
    {
      "anonymous": false,
      "inputs": [
        {
          "indexed": false,
          "internalType": "uint256",
          "name": "offerID",
          "type": "uint256"
        }
      ],
      "name": "OOfferAccepted",
      "type": "event"
    },
    {
      "anonymous": false,
      "inputs": [
        {
          "indexed": false,
          "internalType": "address",
          "name": "owner",
          "type": "address"
        },
        {
          "indexed": false,
          "internalType": "uint256",
          "name": "reservalID",
          "type": "uint256"
        }
      ],
      "name": "OReservalCanceled",
      "type": "event"
    },
    {
      "anonymous": false,
      "inputs": [
        {
          "indexed": false,
          "internalType": "address",
          "name": "owner",
          "type": "address"
        },
        {
          "indexed": false,
          "internalType": "address",
          "name": "nft",
          "type": "address"
        },
        {
          "indexed": false,
          "internalType": "uint256",
          "name": "expiry",
          "type": "uint256"
        },
        {
          "indexed": false,
          "internalType": "address",
          "name": "token",
          "type": "address"
        },
        {
          "indexed": false,
          "internalType": "uint256",
          "name": "price",
          "type": "uint256"
        },
        {
          "indexed": false,
          "internalType": "uint256",
          "name": "pct",
          "type": "uint256"
        },
        {
          "indexed": false,
          "internalType": "uint256",
          "name": "reservalID",
          "type": "uint256"
        }
      ],
      "name": "OReservalCreated",
      "type": "event"
    },
    {
      "anonymous": false,
      "inputs": [
        {
          "indexed": false,
          "internalType": "uint256",
          "name": "offerID",
          "type": "uint256"
        }
      ],
      "name": "ReservePayed",
      "type": "event"
    },
    {
      "inputs": [
        {
          "internalType": "address",
          "name": "nft",
          "type": "address"
        },
        {
          "internalType": "uint256",
          "name": "expiry",
          "type": "uint256"
        },
        {
          "internalType": "address",
          "name": "token",
          "type": "address"
        },
        {
          "internalType": "uint256",
          "name": "price",
          "type": "uint256"
        },
        {
          "internalType": "uint256",
          "name": "pct",
          "type": "uint256"
        }
      ],
      "name": "createReserval",
      "outputs": [
        {
          "internalType": "uint256",
          "name": "reservalID",
          "type": "uint256"
        }
      ],
      "stateMutability": "nonpayable",
      "type": "function"
    },
    {
      "inputs": [
        {
          "internalType": "uint256",
          "name": "reservalID",
          "type": "uint256"
        }
      ],
      "name": "cancelReserval",
      "outputs": [],
      "stateMutability": "nonpayable",
      "type": "function"
    },
    {
      "inputs": [
        {
          "internalType": "uint256",
          "name": "reservalID",
          "type": "uint256"
        }
      ],
      "name": "createOffer",
      "outputs": [
        {
          "internalType": "uint256",
          "name": "offerID",
          "type": "uint256"
        }
      ],
      "stateMutability": "nonpayable",
      "type": "function"
    },
    {
      "inputs": [
        {
          "internalType": "uint256",
          "name": "offerID",
          "type": "uint256"
        }
      ],
      "name": "acceptOffer",
      "outputs": [],
      "stateMutability": "nonpayable",
      "type": "function"
    },
    {
      "inputs": [
        {
          "internalType": "uint256",
          "name": "offerID",
          "type": "uint256"
        }
      ],
      "name": "assignOffer",
      "outputs": [],
      "stateMutability": "nonpayable",
      "type": "function"
    },
    {
      "inputs": [
        {
          "internalType": "uint256",
          "name": "offerID",
          "type": "uint256"
        }
      ],
      "name": "payReserve",
      "outputs": [],
      "stateMutability": "nonpayable",
      "type": "function"
    },
    {
      "inputs": [
        {
          "internalType": "uint256",
          "name": "offerID",
          "type": "uint256"
        },
        {
          "internalType": "address",
          "name": "token",
          "type": "address"
        },
        {
          "internalType": "uint256",
          "name": "amount",
          "type": "uint256"
        }
      ],
      "name": "depositCollateral",
      "outputs": [],
      "stateMutability": "nonpayable",
      "type": "function"
    },
    {
      "inputs": [
        {
          "internalType": "uint256",
          "name": "offerID",
          "type": "uint256"
        },
        {
          "internalType": "address",
          "name": "token",
          "type": "address"
        },
        {
          "internalType": "uint256",
          "name": "amount",
          "type": "uint256"
        }
      ],
      "name": "withdrawCollateral",
      "outputs": [],
      "stateMutability": "nonpayable",
      "type": "function"
    },
    {
      "inputs": [
        {
          "internalType": "address",
          "name": "owner",
          "type": "address"
        }
      ],
      "name": "getNFTReservals",
      "outputs": [
        {
          "internalType": "uint256[]",
          "name": "reservalIDs",
          "type": "uint256[]"
        }
      ],
      "stateMutability": "nonpayable",
      "type": "function"
    },
    {
      "inputs": [
        {
          "internalType": "address",
          "name": "buyer",
          "type": "address"
        }
      ],
      "name": "getOffers",
      "outputs": [
        {
          "internalType": "uint256[]",
          "name": "offerIDs",
          "type": "uint256[]"
        }
      ],
      "stateMutability": "nonpayable",
      "type": "function"
    },
    {
      "inputs": [
        {
          "internalType": "address",
          "name": "owner",
          "type": "address"
        }
      ],
      "name": "getOfferReqs",
      "outputs": [
        {
          "internalType": "uint256[]",
          "name": "offerIDs",
          "type": "uint256[]"
        }
      ],
      "stateMutability": "nonpayable",
      "type": "function"
    },
    {
      "inputs": [],
      "name": "checkAssign",
      "outputs": [],
      "stateMutability": "nonpayable",
      "type": "function"
    },
    {
      "inputs": [
        {
          "internalType": "uint256",
          "name": "reservalID",
          "type": "uint256"
        }
      ],
      "name": "getReserval",
      "outputs": [
        {
          "components": [
            {
              "internalType": "address",
              "name": "owner",
              "type": "address"
            },
            {
              "internalType": "address",
              "name": "nft",
              "type": "address"
            },
            {
              "internalType": "uint256",
              "name": "expiry",
              "type": "uint256"
            },
            {
              "internalType": "address",
              "name": "token",
              "type": "address"
            },
            {
              "internalType": "uint256",
              "name": "price",
              "type": "uint256"
            },
            {
              "internalType": "uint256",
              "name": "pct",
              "type": "uint256"
            },
            {
              "internalType": "uint256",
              "name": "reservalID",
              "type": "uint256"
            },
            {
              "internalType": "uint256",
              "name": "acceptedOfferID",
              "type": "uint256"
            }
          ],
          "internalType": "struct NFTReservalManager.NFTReserval",
          "name": "reserval",
          "type": "tuple"
        }
      ],
      "stateMutability": "nonpayable",
      "type": "function"
    },
    {
      "inputs": [
        {
          "internalType": "uint256",
          "name": "offerID",
          "type": "uint256"
        }
      ],
      "name": "getOffer",
      "outputs": [
        {
          "components": [
            {
              "internalType": "address",
              "name": "buyer",
              "type": "address"
            },
            {
              "internalType": "uint256",
              "name": "reservalID",
              "type": "uint256"
            },
            {
              "internalType": "address",
              "name": "nft",
              "type": "address"
            },
            {
              "internalType": "uint256",
              "name": "expiry",
              "type": "uint256"
            },
            {
              "internalType": "address",
              "name": "token",
              "type": "address"
            },
            {
              "internalType": "uint256",
              "name": "price",
              "type": "uint256"
            },
            {
              "internalType": "uint256",
              "name": "pct",
              "type": "uint256"
            },
            {
              "internalType": "address[]",
              "name": "colTokens",
              "type": "address[]"
            },
            {
              "internalType": "uint256[]",
              "name": "colAmounts",
              "type": "uint256[]"
            },
            {
              "internalType": "uint256",
              "name": "offerID",
              "type": "uint256"
            },
            {
              "internalType": "bool",
              "name": "accepted",
              "type": "bool"
            },
            {
              "internalType": "bool",
              "name": "reservePayed",
              "type": "bool"
            }
          ],
          "internalType": "struct NFTReservalManager.Offer",
          "name": "offer",
          "type": "tuple"
        }
      ],
      "stateMutability": "nonpayable",
      "type": "function"
    }
  ],
  "bytecode": "0x60806040523480156200001157600080fd5b506040516200232e3803806200232e8339810160408190526200003491620001c1565b8251620000499060029060208601906200010d565b50600480546001600160a01b038085166001600160a01b03199283161790925560058054928416928216929092179091556006805490911630179055825160035560005b600354811015620000fa57600160096000868481518110620000b357620000b3620002b9565b6020908102919091018101516001600160a01b03168252810191909152604001600020805460ff191691151591909117905580620000f181620002cf565b9150506200008d565b5050600080805560015550620002f99050565b82805482825590600052602060002090810192821562000165579160200282015b828111156200016557825182546001600160a01b0319166001600160a01b039091161782556020909201916001909101906200012e565b506200017392915062000177565b5090565b5b8082111562000173576000815560010162000178565b634e487b7160e01b600052604160045260246000fd5b80516001600160a01b0381168114620001bc57600080fd5b919050565b600080600060608486031215620001d757600080fd5b83516001600160401b0380821115620001ef57600080fd5b818601915086601f8301126200020457600080fd5b81516020828211156200021b576200021b6200018e565b8160051b604051601f19603f830116810181811086821117156200024357620002436200018e565b60405292835281830193508481018201928a8411156200026257600080fd5b948201945b838610156200028b576200027b86620001a4565b8552948201949382019362000267565b97506200029c9050888201620001a4565b955050505050620002b060408501620001a4565b90509250925092565b634e487b7160e01b600052603260045260246000fd5b6000600019821415620002f257634e487b7160e01b600052601160045260246000fd5b5060010190565b61202580620003096000396000f3fe608060405234801561001057600080fd5b50600436106100ea5760003560e01c8063a269993d1161008c578063c815729d11610066578063c815729d1461022a578063cbd322181461023d578063de9d62de146101a2578063ebea51b41461025057600080fd5b8063a269993d146101f6578063b13258e714610102578063c6f3ed8b1461021757600080fd5b80632a74aa95116100c85780632a74aa95146101a25780632d86c000146101a25780634579268a146101c357806399ea56b0146101e357600080fd5b806306a7ad64146100ef57806319752d251461010457806324af54b61461018f575b600080fd5b6101026100fd366004611b9d565b610263565b005b610117610112366004611b9d565b61037e565b604051610186919060006101008201905060018060a01b0380845116835280602085015116602084015260408401516040840152806060850151166060840152506080830151608083015260a083015160a083015260c083015160c083015260e083015160e083015292915050565b60405180910390f35b61010261019d366004611b9d565b610484565b6101b66101b0366004611bd2565b50606090565b6040516101869190611bed565b6101d66101d1366004611b9d565b610690565b6040516101869190611ca5565b6101026101f1366004611d95565b610892565b610209610204366004611b9d565b610b3d565b604051908152602001610186565b610209610225366004611dca565b610d34565b610102610238366004611b9d565b610eef565b61010261024b366004611b9d565b61116d565b61010261025e366004611d95565b6111fb565b600081815260076020526040902080546001600160a01b03166102a15760405162461bcd60e51b815260040161029890611e18565b60405180910390fd5b80546001600160a01b031633146102ca5760405162461bcd60e51b815260040161029890611e4f565b80546102df906001600160a01b03168361147a565b600082815260076020818152604080842080546001600160a01b031990811682556001820180548216905560028201869055600382018054909116905560048101859055600581018590556006810185905590920192909255825481516001600160a01b0390911681529182018490527fc54196fb89f0de06064e8350a77850230e5fc554d1d593a76d12c352deadcdde910160405180910390a15050565b6103e160405180610100016040528060006001600160a01b0316815260200160006001600160a01b031681526020016000815260200160006001600160a01b03168152602001600081526020016000815260200160008152602001600081525090565b600082815260076020526040902080546001600160a01b03166104165760405162461bcd60e51b815260040161029890611e18565b604080516101008101825282546001600160a01b0390811682526001840154811660208301526002840154928201929092526003830154909116606082015260048201546080820152600582015460a0820152600682015460c082015260079091015460e082015292915050565b600081815260086020526040902080546001600160a01b03166104b95760405162461bcd60e51b815260040161029890611e7e565b6001810154600090815260076020526040902080546001600160a01b031633146104f55760405162461bcd60e51b815260040161029890611e4f565b600a820154610100900460ff161561052a5760038101548154600483015461052a926001600160a01b039081169216906114a1565b80546006820154610544916001600160a01b03169061147a565b8154610559906001600160a01b0316846115e3565b600083815260086020526040812080546001600160a01b0319908116825560018201839055600282018054821690556003820183905560048201805490911690556005810182905560068101829055906105b66007830182611b6b565b6105c4600883016000611b6b565b50600060098201819055600a918201805461ffff19169055600683810154825260076020818152604080852080546001600160a01b031990811682556001828101805483169055600283018890556003830180549092169091556004820187905560058201879055948101869055909201939093559285015490850154835161010090920460ff1615158252918101919091529081018490527f7c9e91160ddf7baf7154c690eb878e3db5767822c1109de4b4fca9c864e47986906060015b60405180910390a1505050565b61071360405180610180016040528060006001600160a01b031681526020016000815260200160006001600160a01b031681526020016000815260200160006001600160a01b0316815260200160008152602001600081526020016060815260200160608152602001600081526020016000151581526020016000151581525090565b600082815260086020526040902080546001600160a01b03166107485760405162461bcd60e51b815260040161029890611e7e565b604080516101808101825282546001600160a01b039081168252600184015460208084019190915260028501548216838501526003850154606084015260048501549091166080830152600584015460a0830152600684015460c08301526007840180548451818402810184019095528085529293859360e086019391929183018282801561080057602002820191906000526020600020905b81546001600160a01b031681526001909101906020018083116107e2575b505050505081526020016008820180548060200260200160405190810160405280929190818152602001828054801561085857602002820191906000526020600020905b815481526020019060010190808311610844575b505050918352505060098201546020820152600a9091015460ff808216151560408401526101009091041615156060909101529392505050565b6001600160a01b03821660009081526009602052604090205460ff166108ec5760405162461bcd60e51b815260206004820152600f60248201526e2737ba103b30b4b632103a37b5b2b760891b6044820152606401610298565b600083815260086020526040902080546001600160a01b03166109215760405162461bcd60e51b815260040161029890611e7e565b80546001600160a01b0316331461096f5760405162461bcd60e51b81526020600482015260126024820152712737ba10313abcb2b91037b31037b33332b960711b6044820152606401610298565b600082116109bb5760405162461bcd60e51b8152602060048201526019602482015278125394d551919250d251539517d25394155517d05353d55395603a1b6044820152606401610298565b60005b6007820154811015610a1b57836001600160a01b03168260070182815481106109e9576109e9611eac565b6000918252602090912001546001600160a01b03161415610a0957610a1b565b80610a1381611ed8565b9150506109be565b600782015481108015610a4d575082826008018281548110610a3f57610a3f611eac565b906000526020600020015410155b610a995760405162461bcd60e51b815260206004820152601b60248201527f4e6f7420656e6f75676820616d6f756e74206465706f736974656400000000006044820152606401610298565b600a82015460ff1615610ab157610ab1843385611605565b82826008018281548110610ac757610ac7611eac565b906000526020600020016000828254610ae09190611ef3565b9091555050604080518681526001600160a01b0386166020820152908101849052600060608201527f1dfdcce523ed63eed2c7395d37868b4f7a225655e2e6e7fcd0eb7133034adad5906080015b60405180910390a15050505050565b600081815260076020526040812080546001600160a01b0316610b725760405162461bcd60e51b815260040161029890611e18565b60018054906000610b8283611ed8565b91905055506001549150600060035467ffffffffffffffff811115610ba957610ba9611f0a565b604051908082528060200260200182016040528015610bd2578160200160208202803683370190505b509050600060035467ffffffffffffffff811115610bf257610bf2611f0a565b604051908082528060200260200182016040528015610c1b578160200160208202803683370190505b506040805161018081018252338082526020820189905260018701546001600160a01b0390811683850181905260028901546060850181905260038a01549092166080850181905260048a015460a0860181905260058b015460c0870181905260e087018b9052610100870189905261012087018d905260006101408801819052610160880152965197985094967fda307974aa86f27035cd8c81073664a91b815a537e36377f0f15965e277bfc3696610d23968e9593929091908e906001600160a01b0398891681526020810197909752948716604087015260608601939093529416608084015260a083019390935260c082019290925260e08101919091526101000190565b60405180910390a150505050919050565b60003315610d775760405162461bcd60e51b815260206004820152601060248201526f139bdd0813dddb995c881bd98813919560821b6044820152606401610298565b600080549080610d8683611ed8565b919050555060005490506000604051806101000160405280336001600160a01b03168152602001886001600160a01b03168152602001878152602001866001600160a01b0316815260200185815260200184815260200183815260200160008152509050610df881600001518361169a565b600082815260076020818152604092839020845181546001600160a01b03199081166001600160a01b03928316908117845587850151600185018054841691851691909117905587870151600285015560608089015160038601805490941690851617909255608080890151600486015560a0808a0151600587015560c0808b0151600688015560e0808c0151979099019690965588519283528f8516968301969096529681018d9052918b169082015293840188905290830186905282018490527fc05e5aabf413dd21ad2fc2ddf043c7cf8b15fac2b9377e04eb257b24a2af3c12910160405180910390a15095945050505050565b600081815260086020526040902080546001600160a01b0316610f245760405162461bcd60e51b815260040161029890611e7e565b6001810154600090815260076020526040902080546001600160a01b03163314610f605760405162461bcd60e51b815260040161029890611e4f565b600a82015460ff1615610fb55760405162461bcd60e51b815260206004820152601d60248201527f546865206f6666657220697320616c72656164792061636365707465640000006044820152606401610298565b6007810154156110075760405162461bcd60e51b815260206004820152601f60248201527f54686520726573657276616c20697320616c7265616479206d617463686564006044820152606401610298565b611010826116bc565b6110545760405162461bcd60e51b8152602060048201526015602482015274139bdd08195b9bdd59da0818dbdb1b185d195c985b605a1b6044820152606401610298565b61105d82611793565b61109e5760405162461bcd60e51b815260206004820152601260248201527109cdee840c2d8d8deeecac840cadcdeeaced60731b6044820152606401610298565b60005b6007830154811015611124578254600784018054611112926001600160a01b03169190849081106110d4576110d4611eac565b6000918252602090912001546008860180546001600160a01b03909216918590811061110257611102611eac565b906000526020600020015461189e565b8061111c81611ed8565b9150506110a1565b5060078101839055600a8201805460ff191660011790556040517f849b9c9365baf4ef2403308ee92d15dd1da4de6add8ca2ffeacf4358cbe0a757906106839085815260200190565b600081815260086020526040902080546001600160a01b03166111a25760405162461bcd60e51b815260040161029890611e7e565b60018101546000908152600760205260408120600a8301805461ff0019166101001790556040519091507f3ad5ff1b4352fbcb9c7e0967bf0cf2387cdd444e6c531f94ac7e411f7404625d906106839085815260200190565b6001600160a01b03821660009081526009602052604090205460ff166112555760405162461bcd60e51b815260206004820152600f60248201526e2737ba103b30b4b632103a37b5b2b760891b6044820152606401610298565b600083815260086020526040902080546001600160a01b031661128a5760405162461bcd60e51b815260040161029890611e7e565b80546001600160a01b031633146112d85760405162461bcd60e51b81526020600482015260126024820152712737ba10313abcb2b91037b31037b33332b960711b6044820152606401610298565b600082116113245760405162461bcd60e51b8152602060048201526019602482015278125394d551919250d251539517d25394155517d05353d55395603a1b6044820152606401610298565b60005b600782015481101561138457836001600160a01b031682600701828154811061135257611352611eac565b6000918252602090912001546001600160a01b0316141561137257611384565b8061137c81611ed8565b915050611327565b60078201548114156113d657600782018054600180820183556000928352602080842090920180546001600160a01b0319166001600160a01b0389161790556008850180549182018155835290822001555b600a82015460ff16156113f95781546113f9906001600160a01b0316858561189e565b8282600801828154811061140f5761140f611eac565b9060005260206000200160008282546114289190611f20565b9091555050604080518681526001600160a01b0386166020820152908101849052600160608201527f1dfdcce523ed63eed2c7395d37868b4f7a225655e2e6e7fcd0eb7133034adad590608001610b2e565b6001600160a01b0382166000908152600a6020526040902061149c90826118e2565b505050565b604080518082018252601981527f7472616e7366657228616464726573732c75696e74323536290000000000000060209182015281516001600160a01b0385811660248301526044808301869052845180840390910181526064909201845291810180516001600160e01b031663a9059cbb60e01b1790529151600092839287169161152d9190611f38565b6000604051808303816000865af19150503d806000811461156a576040519150601f19603f3d011682016040523d82523d6000602084013e61156f565b606091505b50915091508180156115995750805115806115995750808060200190518101906115999190611f73565b6115dc5760405162461bcd60e51b81526020600482015260146024820152731053534e881514905394d1915497d1905253115160621b6044820152606401610298565b5050505050565b6001600160a01b0382166000908152600b6020526040902061149c90826118e2565b6006546040516323b872dd60e01b81526001600160a01b039182166004820152848216602482015260448101839052908316906323b872dd906064015b602060405180830381600087803b15801561165c57600080fd5b505af1158015611670573d6000803e3d6000fd5b505050506040513d601f19601f820116820180604052508101906116949190611f73565b50505050565b6001600160a01b0382166000908152600a6020526040902061149c908261197f565b600080805b600784015481101561173d578360080181815481106116e2576116e2611eac565b906000526020600020015461171f85600701838154811061170557611705611eac565b6000918252602090912001546001600160a01b0316611994565b6117299190611f95565b91508061173581611ed8565b9150506116c1565b50600683015460058401546004850154600092620186a0929091611769906001600160a01b0316611994565b6117739190611f95565b61177d9190611f95565b6117879190611fb4565b91909111159392505050565b600080805b60078401548110156118945760008460070182815481106117bb576117bb611eac565b6000918252602090912001548554600654604051636eb1769f60e11b81526001600160a01b039283166004820152908216602482015291169063dd62ed3e9060440160206040518083038186803b15801561181557600080fd5b505afa158015611829573d6000803e3d6000fd5b505050506040513d601f19601f8201168201806040525081019061184d9190611fd6565b905084600801828154811061186457611864611eac565b906000526020600020015481101561188157506000949350505050565b508061188c81611ed8565b915050611798565b5060019392505050565b6006546040516323b872dd60e01b81526001600160a01b038581166004830152918216602482015260448101839052908316906323b872dd90606401611642565b50565b60008115806118f857506118f68383611a12565b155b1561190557506000611979565b600082815260018481016020908152604080842084805290915280832054828452922054611937928692909190611a96565b60008281526001848101602090815260408084208480529091528083208390558183528220829055845490918591611970908490611ef3565b90915550829150505b92915050565b600061198d83836000611acb565b9392505050565b6005546040516315d5220f60e31b81526001600160a01b038381166004830152600092169063aea910789060240160206040518083038186803b1580156119da57600080fd5b505afa1580156119ee573d6000803e3d6000fd5b505050506040513d601f19601f820116820180604052508101906119799190611fd6565b60008181526001830160209081526040808320838052909152812054158015611a5557506000828152600180850160209081526040808420928452919052902054155b15611a8e576000808052600180850160209081526040808420928452919052902054821415611a8657506001611979565b506000611979565b506001611979565b600082815260019094016020818152604080872093158088529382528087208690559486529081528385209115855252912055565b6000611ada8460008585611ae2565b949350505050565b6000611aee8584611a12565b158015611b005750611b008585611a12565b15611b6057600084815260018601602090815260408083208515158452909152902054611b2f86868686611a96565b611b3b86858386611a96565b6001866000016000828254611b509190611f20565b9091555060019250611ada915050565b506000949350505050565b50805460008255906000526020600020908101906118df91905b80821115611b995760008155600101611b85565b5090565b600060208284031215611baf57600080fd5b5035919050565b80356001600160a01b0381168114611bcd57600080fd5b919050565b600060208284031215611be457600080fd5b61198d82611bb6565b6020808252825182820181905260009190848201906040850190845b81811015611c2557835183529284019291840191600101611c09565b50909695505050505050565b600081518084526020808501945080840160005b83811015611c6a5781516001600160a01b031687529582019590820190600101611c45565b509495945050505050565b600081518084526020808501945080840160005b83811015611c6a57815187529582019590820190600101611c89565b60208152611cbf6020820183516001600160a01b03169052565b6020820151604082015260006040830151611ce560608401826001600160a01b03169052565b50606083015160808301526080830151611d0a60a08401826001600160a01b03169052565b5060a083015160c083015260c083015160e083015260e08301516101806101008181860152611d3d6101a0860184611c31565b9250808601519050610120601f198685030181870152611d5d8483611c75565b90870151610140878101919091528701519093509050610160611d838187018315159052565b90950151151593019290925250919050565b600080600060608486031215611daa57600080fd5b83359250611dba60208501611bb6565b9150604084013590509250925092565b600080600080600060a08688031215611de257600080fd5b611deb86611bb6565b945060208601359350611e0060408701611bb6565b94979396509394606081013594506080013592915050565b60208082526017908201527f4e6f207375636820726573657276616c20657869737473000000000000000000604082015260600190565b602080825260159082015274139bdd081bdddb995c881bd9881c995cd95c9d985b605a1b604082015260600190565b6020808252601490820152734e6f2073756368206f666665722065786973747360601b604082015260600190565b634e487b7160e01b600052603260045260246000fd5b634e487b7160e01b600052601160045260246000fd5b6000600019821415611eec57611eec611ec2565b5060010190565b600082821015611f0557611f05611ec2565b500390565b634e487b7160e01b600052604160045260246000fd5b60008219821115611f3357611f33611ec2565b500190565b6000825160005b81811015611f595760208186018101518583015201611f3f565b81811115611f68576000828501525b509190910192915050565b600060208284031215611f8557600080fd5b8151801515811461198d57600080fd5b6000816000190483118215151615611faf57611faf611ec2565b500290565b600082611fd157634e487b7160e01b600052601260045260246000fd5b500490565b600060208284031215611fe857600080fd5b505191905056fea26469706673582212205687b72df6b2072e8cac67b6d2614eca11c6db8fdbf4042c566950a8e603dcab64736f6c63430008090033",
  "immutableReferences": {},
  "source": "// SPDX-License-Identifier: MIT\r\npragma solidity >=0.8.0 <0.9.0;\r\n\r\nimport {IERC721} from \"@openzeppelin/contracts/token/ERC721/IERC721.sol\";\r\nimport {IERC20} from \"@openzeppelin/contracts/token/ERC20/IERC20.sol\";\r\nimport {IERC721Metadata} from \"@openzeppelin/contracts/token/ERC721/extensions/IERC721Metadata.sol\";\r\nimport {IERC20Metadata} from \"@openzeppelin/contracts/token/ERC20/extensions/IERC20Metadata.sol\";\r\nimport \"@openzeppelin/contracts/token/ERC20/ERC20.sol\";\r\nimport \"solidity-linked-list/contracts/StructuredLinkedList.sol\";\r\nimport {IPriceOracle} from \"./interface/IPriceOracle.sol\";\r\nimport {NFTVault} from \"./NFTVault.sol\";\r\n\r\n/*\r\nOWNER:\r\n-  Whitelist asset to be open to receive Reserval Offers. He may (start with his own initial offer). IMPORTANT: if the owner sets an offer you get only the approval of the Owner ffor the NFT to the contract but the NFT is NOT LOCKED at this stage\r\n-  Owner can remove from whitelist without any cost as long as no offer has been accepted first.\r\n-  Owner can accept an offer. At this stage NFT is locked on the contract\r\n-  (modified, can't withdraw) Owner can withdraw collateral deposited by the buyer at any moment\r\n-  If owner wants to cancel the Reserval (Reserval), he needs to payback what he withdrawn +a fee\r\nBUYER:\r\n-  Buyer can set offers for whitelisted NFTs. IMPORTANT: the offer does not lock the collateral of the buyer. It only gets the proposal for that toekns aand amoiunt to the contrract. For example if i propose 10K SHIB, I approve the contract but i do not lock them.\r\n-  Buyer can reserve NFT directly if the owner has some offer\r\n-  Buyer needs to keep a level of collateral. Otherwise can be liquidaated and lose it.\r\n-  If collateral goes below the ratio, buyer needs to deposit more collateral.\r\n-  At future (expiration) the buyer needs to pay the Reserve Price within a period of 5 days max. If not, he loses the Reserval of buying\r\n*/\r\n\r\ncontract NFTReservalManager {\r\n  using StructuredLinkedList for StructuredLinkedList.List;\r\n  uint256 private constant PCT_DIVIDER = 100000;\r\n  bytes4 private constant SELECTOR = bytes4(keccak256(bytes('transfer(address,uint256)')));\r\n\r\n  event OReservalCreated(\r\n    address owner,\r\n    address nft,\r\n    uint256 expiry,\r\n    address token,\r\n    uint256 price,\r\n    uint256 pct,\r\n    uint256 reservalID\r\n  );\r\n\r\n  event OReservalCanceled(\r\n    address owner,\r\n    uint256 reservalID\r\n  );\r\n\r\n  event BOfferCreated(\r\n    address buyer,\r\n    uint256 reservalID,\r\n    address nft,\r\n    uint256 expiry,\r\n    address token,\r\n    uint256 price,\r\n    uint256 pct,\r\n    uint256 offerID\r\n  );\r\n\r\n  event OOfferAccepted(\r\n    uint256 offerID\r\n  );\r\n\r\n  event Assigned(\r\n    bool assigned,\r\n    uint256 reservalID,\r\n    uint256 offerID\r\n  );\r\n  \r\n  event CollateralDeposit(\r\n    uint256 offerID,\r\n    address token,\r\n    uint256 amount,\r\n    bool isDeposit\r\n  );\r\n\r\n  event ReservePayed(\r\n    uint256 offerID\r\n  );\r\n  \r\n  struct NFTReserval {\r\n    address owner;\r\n    address nft;\r\n    uint256 expiry;\r\n    address token;\r\n    uint256 price;\r\n    uint256 pct;\r\n    uint256 reservalID;\r\n    uint256 acceptedOfferID;\r\n  }\r\n\r\n  struct Offer {\r\n    address buyer;\r\n    uint256 reservalID;\r\n    address nft;\r\n    uint256 expiry;\r\n    address token;\r\n    uint256 price;\r\n    uint256 pct;\r\n    address[] colTokens;\r\n    uint256[] colAmounts;\r\n    uint256 offerID;\r\n    bool accepted;\r\n    bool reservePayed;\r\n  }\r\n\r\n  uint256 cntReserval;\r\n  uint256 cntOffer;\r\n  address[] tokens;\r\n  uint256 TOKEN_CNT;\r\n  address nftVault;\r\n  address priceOracle;\r\n  address admin;\r\n\r\n  mapping(uint256 => NFTReserval) reservals;\r\n  mapping(uint256 => Offer) offers;\r\n\r\n  mapping(address => bool) validToken;\r\n\r\n  mapping(address => StructuredLinkedList.List) listReserval;\r\n  mapping(address => StructuredLinkedList.List) listOffer;\r\n  mapping(uint256 => StructuredLinkedList.List) listOfferReq;\r\n\r\n  constructor(\r\n    address[] memory _tokens,\r\n    address _nftVault,\r\n    address _priceOracle\r\n  ) public {\r\n    tokens = _tokens;\r\n    nftVault = _nftVault;\r\n    priceOracle = _priceOracle;\r\n    admin = address(this);\r\n    TOKEN_CNT = _tokens.length;\r\n    for (uint i = 0; i < TOKEN_CNT; i++) {\r\n        validToken[_tokens[i]] = true;\r\n    }\r\n    cntReserval = 0;\r\n    cntOffer = 0;\r\n  }\r\n  \r\n  function createReserval(\r\n    address nft,\r\n    uint256 expiry,\r\n    address token,\r\n    uint256 price,\r\n    uint256 pct\r\n  ) external returns (uint256 reservalID) {\r\n    require(msg.sender == _nftOwner(nft), \"Not Owner of NFT\");\r\n    cntReserval++;\r\n    reservalID = cntReserval;\r\n    NFTReserval memory reserval = NFTReserval(msg.sender, nft, expiry, token, price, pct, reservalID, 0);\r\n\r\n    _reserval_add(reserval.owner, reservalID);\r\n    reservals[reservalID] = reserval;\r\n    \r\n    emit OReservalCreated(reserval.owner, nft, expiry, token, price, pct, reservalID);\r\n  }\r\n  \r\n  function cancelReserval(\r\n    uint256 reservalID\r\n  ) external {\r\n    NFTReserval storage reserval = _getReserval(reservalID);\r\n    require(reserval.owner != address(0), \"No such reserval exists\");\r\n    require(reserval.owner == msg.sender, \"Not owner of reserval\");\r\n\r\n    _reserval_remove(reserval.owner, reservalID);\r\n    delete reservals[reservalID];\r\n    \r\n    emit OReservalCanceled(reserval.owner, reservalID);\r\n  }\r\n  \r\n  function createOffer(\r\n    uint256 reservalID\r\n  ) external returns (uint256 offerID) {\r\n    NFTReserval storage reserval = _getReserval(reservalID);\r\n    require(reserval.owner != address(0), \"No such reserval exists\");\r\n\r\n    cntOffer++;\r\n    offerID = cntOffer;\r\n    address[] memory colTokens = new address[](TOKEN_CNT);\r\n    uint256[] memory colAmounts = new uint256[](TOKEN_CNT);\r\n\r\n    Offer memory offer = Offer(\r\n      msg.sender,\r\n      reservalID,\r\n      reserval.nft,\r\n      reserval.expiry,\r\n      reserval.token,\r\n      reserval.price,\r\n      reserval.pct,\r\n      colTokens,\r\n      colAmounts,\r\n      offerID,\r\n      false,\r\n      false\r\n      );\r\n\r\n    emit BOfferCreated(\r\n      offer.buyer,\r\n      reservalID,\r\n      reserval.nft,\r\n      reserval.expiry,\r\n      reserval.token,\r\n      reserval.price,\r\n      reserval.pct,\r\n      offerID\r\n      );\r\n  }\r\n\r\n  function acceptOffer(\r\n    uint256 offerID\r\n  ) external {\r\n    Offer storage offer = _getOffer(offerID);\r\n    require(offer.buyer != address(0), \"No such offer exists\");\r\n    \r\n    NFTReserval storage reserval = _getReserval(offer.reservalID);\r\n    require(msg.sender == reserval.owner, \"Not owner of reserval\");\r\n    \r\n    require(!offer.accepted, \"The offer is already accepted\");\r\n    require(reserval.acceptedOfferID == 0, \"The reserval is already matched\");\r\n\r\n    require(_checkCollateral(offer), \"Not enough collateral\");\r\n    require(_checkAllowance(offer), \"Not allowed enough\");\r\n    for (uint i = 0; i < offer.colTokens.length; i++) {\r\n      _putInCollateral(offer.buyer, offer.colTokens[i], offer.colAmounts[i]);\r\n    }\r\n    _lockNFT(reserval.nft);\r\n\r\n    reserval.acceptedOfferID = offerID;\r\n    offer.accepted = true;\r\n\r\n    emit OOfferAccepted(offerID);\r\n  }\r\n\r\n  function assignOffer(\r\n    uint256 offerID\r\n  ) external {\r\n    Offer storage offer = _getOffer(offerID);\r\n    require(offer.buyer != address(0), \"No such offer exists\");\r\n    \r\n    NFTReserval storage reserval = _getReserval(offer.reservalID);\r\n    require(msg.sender == reserval.owner, \"Not owner of reserval\");\r\n\r\n    if (offer.reservePayed) {\r\n      _safeTransfer(reserval.token, reserval.owner, reserval.price);\r\n      _transferNFT(reserval.nft, reserval.owner, offer.buyer);\r\n    }\r\n    else {\r\n      /*      --------------------------------------------------------------------------------\r\n      there are several tokens for collaterals\r\n      but owner should take part of them\r\n      who select it?\r\n      */\r\n\r\n    }\r\n\r\n    _reserval_remove(reserval.owner, reserval.reservalID);\r\n    _offer_remove(offer.buyer, offerID);\r\n\r\n    delete offers[offerID];\r\n    delete reservals[reserval.reservalID];\r\n\r\n    emit Assigned(offer.reservePayed, offer.reservalID, offerID);\r\n  }\r\n\r\n  function payReserve(\r\n    uint256 offerID\r\n  ) external {\r\n    Offer storage offer = _getOffer(offerID);\r\n    require(offer.buyer != address(0), \"No such offer exists\");\r\n    \r\n    NFTReserval storage reserval = _getReserval(offer.reservalID);\r\n\r\n    offer.reservePayed = true;\r\n\r\n    emit ReservePayed(offerID);\r\n  }\r\n\r\n  function depositCollateral(\r\n    uint256 offerID,\r\n    address token,\r\n    uint256 amount\r\n  ) external {\r\n    require(validToken[token], \"Not vaild token\");\r\n    Offer storage offer = _getOffer(offerID);\r\n    require(offer.buyer != address(0), \"No such offer exists\");\r\n    require(msg.sender == offer.buyer, \"Not buyer of offer\");\r\n\r\n    require(amount > 0, \"INSUFFICIENT_INPUT_AMOUNT\");\r\n\r\n    uint id = 0;\r\n    for (id = 0; id < offer.colTokens.length; id++) {\r\n      if (offer.colTokens[id] == token) break;\r\n    }\r\n    if (offer.colTokens.length == id) {\r\n      offer.colTokens.push(token);\r\n      offer.colAmounts.push(0);\r\n    }\r\n    if (offer.accepted) {\r\n      _putInCollateral(offer.buyer, token, amount);\r\n    }\r\n    offer.colAmounts[id] += amount;\r\n\r\n    emit CollateralDeposit(offerID, token, amount, true);\r\n  }\r\n\r\n  function withdrawCollateral(\r\n    uint256 offerID,\r\n    address token,\r\n    uint256 amount\r\n  ) external {\r\n    require(validToken[token], \"Not vaild token\");\r\n    Offer storage offer = _getOffer(offerID);\r\n    require(offer.buyer != address(0), \"No such offer exists\");\r\n    require(msg.sender == offer.buyer, \"Not buyer of offer\");\r\n\r\n    require(amount > 0, \"INSUFFICIENT_INPUT_AMOUNT\");\r\n    \r\n    uint id = 0;\r\n    for (id = 0; id < offer.colTokens.length; id++) {\r\n      if (offer.colTokens[id] == token) break;\r\n    }\r\n    require((offer.colTokens.length > id) && (offer.colAmounts[id] >= amount), \"Not enough amount deposited\");\r\n\r\n    if (offer.accepted) {\r\n      _putOutCollateral(token, msg.sender, amount);\r\n    }\r\n    offer.colAmounts[id] -= amount;\r\n\r\n    emit CollateralDeposit(offerID, token, amount, false);\r\n  }\r\n\r\n  function getNFTReservals(address owner) external returns (uint256[] memory reservalIDs) {\r\n\r\n  }\r\n\r\n  function getOffers(address buyer) external returns (uint256[] memory offerIDs) {\r\n\r\n  }\r\n\r\n  function getOfferReqs(address owner) external returns (uint256[] memory offerIDs) {\r\n\r\n  }\r\n\r\n  function checkAssign() external {\r\n  }\r\n\r\n  function getReserval(uint256 reservalID) external returns (NFTReserval memory reserval) {\r\n    NFTReserval storage _reserval = _getReserval(reservalID);\r\n    require(_reserval.owner != address(0), \"No such reserval exists\");\r\n    reserval = _reserval;\r\n  }\r\n\r\n  function getOffer(uint256 offerID) external returns (Offer memory offer) {\r\n    Offer storage _offer = _getOffer(offerID);\r\n    require(_offer.buyer != address(0), \"No such offer exists\");\r\n    offer = _offer;\r\n  }\r\n\r\n  function _getReserval(uint256 reservalID) private returns (NFTReserval storage) {\r\n    return reservals[reservalID];\r\n  }\r\n\r\n  function _getOffer(uint256 offerID) private returns (Offer storage) {\r\n    return offers[offerID];\r\n  }\r\n\r\n  function _nftOwner(address nft) private returns (address) {\r\n    // not completed yet\r\n\r\n    return address(0);\r\n  }\r\n\r\n  function _lockNFT(address nft) private {\r\n    // not completed yet\r\n  }\r\n\r\n  function _transferNFT(address nft, address from, address to) private {\r\n    // not completed yet\r\n  }\r\n\r\n  function _tokenToUSD(address token) private returns (uint256) {\r\n    // not completed yet\r\n    return IPriceOracle(priceOracle).price(token);\r\n  }\r\n\r\n  function _checkCollateral(Offer storage offer) private returns (bool) {\r\n    uint256 totalUSD = 0;\r\n    for (uint i = 0; i < offer.colTokens.length; i++) {\r\n      totalUSD = _tokenToUSD(offer.colTokens[i]) * offer.colAmounts[i];\r\n    }\r\n    uint256 requiredUSD = _tokenToUSD(offer.token) * offer.price * offer.pct / PCT_DIVIDER;\r\n    return requiredUSD <= totalUSD;\r\n  }\r\n\r\n  function _checkAllowance(Offer storage offer) private returns (bool) {\r\n    uint256 totalUSD = 0;\r\n    for (uint i = 0; i < offer.colTokens.length; i++) {\r\n      uint256 allownce = IERC20(offer.colTokens[i]).allowance(offer.buyer, admin);\r\n      if (allownce < offer.colAmounts[i]) return false;\r\n    }\r\n    return true;\r\n  }\r\n\r\n  function _putInCollateral(address account, address token, uint256 amount) private {\r\n    IERC20(token).transferFrom(account, admin, amount);\r\n  }\r\n\r\n  function _putOutCollateral(address account, address token, uint256 amount) private {\r\n    IERC20(token).transferFrom(admin, account, amount);\r\n  }\r\n\r\n  function _safeTransfer(\r\n      address token,\r\n      address to,\r\n      uint value\r\n  ) private {\r\n      (bool success, bytes memory data) = token.call(\r\n          abi.encodeWithSelector(SELECTOR, to, value)\r\n      );\r\n      require(\r\n          success && (data.length == 0 || abi.decode(data, (bool))),\r\n          \"AMM: TRANSFER_FAILED\"\r\n      );\r\n  }\r\n\r\n  //-------------------------------------------------------------------------------//\r\n  //--------------------------- Linked List functions -----------------------------//\r\n  //-------------------------------------------------------------------------------//\r\n  function _reserval_add(address owner, uint256 reservalID) private {\r\n    StructuredLinkedList.pushBack(listReserval[owner], reservalID);\r\n  }\r\n\r\n  function _reserval_remove(address owner, uint256 reservalID) private {\r\n    StructuredLinkedList.remove(listReserval[owner], reservalID);\r\n  }\r\n\r\n  function _offer_add(address buyer, uint256 offerID) private {\r\n    StructuredLinkedList.pushBack(listOffer[buyer], offerID);\r\n  }\r\n\r\n  function _offer_remove(address buyer, uint256 offerID) private {\r\n    StructuredLinkedList.remove(listOffer[buyer], offerID);\r\n  }\r\n\r\n  function _offerReq_add(uint256 reservalID, uint256 offerID) private {\r\n    StructuredLinkedList.pushBack(listOfferReq[reservalID], offerID);\r\n  }\r\n\r\n  function _offerReq_remove(uint256 reservalID, uint256 offerID) private {\r\n    StructuredLinkedList.remove(listOfferReq[reservalID], offerID);\r\n  }\r\n  //-------------------------------------------------------------------------------//\r\n}\r\n",
  "sourcePath": "E:\\Projects\\Privi2\\PriviNFTOptions\\privi-NFT-buying\\contracts\\NFTReservalManager.sol",
  "compiler": {
    "name": "solc",
    "version": "0.8.9+commit.e5eed63a.Emscripten.clang"
  },
  "schemaVersion": "3.4.3",
  "updatedAt": "2021-11-09T14:40:43.955Z",
  "networkType": "ethereum",
  "devdoc": {
    "kind": "dev",
    "methods": {},
    "version": 1
  },
  "userdoc": {
    "kind": "user",
    "methods": {},
    "version": 1
  }
}