{
  "contractName": "NFTReservalManager",
  "abi": [
    {
      "inputs": [
        {
          "internalType": "address[]",
          "name": "_tokens",
          "type": "address[]"
        },
        {
          "internalType": "address",
          "name": "_nftVault",
          "type": "address"
        },
        {
          "internalType": "address",
          "name": "_priceOracle",
          "type": "address"
        }
      ],
      "stateMutability": "nonpayable",
      "type": "constructor"
    },
    {
      "anonymous": false,
      "inputs": [
        {
          "indexed": false,
          "internalType": "bool",
          "name": "assigned",
          "type": "bool"
        },
        {
          "indexed": false,
          "internalType": "uint256",
          "name": "reservalID",
          "type": "uint256"
        },
        {
          "indexed": false,
          "internalType": "uint256",
          "name": "offerID",
          "type": "uint256"
        }
      ],
      "name": "Assigned",
      "type": "event"
    },
    {
      "anonymous": false,
      "inputs": [
        {
          "indexed": false,
          "internalType": "address",
          "name": "buyer",
          "type": "address"
        },
        {
          "indexed": false,
          "internalType": "uint256",
          "name": "reservalID",
          "type": "uint256"
        },
        {
          "indexed": false,
          "internalType": "address",
          "name": "nft",
          "type": "address"
        },
        {
          "indexed": false,
          "internalType": "uint256",
          "name": "expiry",
          "type": "uint256"
        },
        {
          "indexed": false,
          "internalType": "address",
          "name": "token",
          "type": "address"
        },
        {
          "indexed": false,
          "internalType": "uint256",
          "name": "price",
          "type": "uint256"
        },
        {
          "indexed": false,
          "internalType": "uint256",
          "name": "pct",
          "type": "uint256"
        },
        {
          "indexed": false,
          "internalType": "uint256",
          "name": "offerID",
          "type": "uint256"
        }
      ],
      "name": "BOfferCreated",
      "type": "event"
    },
    {
      "anonymous": false,
      "inputs": [
        {
          "indexed": false,
          "internalType": "uint256",
          "name": "offerID",
          "type": "uint256"
        },
        {
          "indexed": false,
          "internalType": "address",
          "name": "token",
          "type": "address"
        },
        {
          "indexed": false,
          "internalType": "uint256",
          "name": "amount",
          "type": "uint256"
        },
        {
          "indexed": false,
          "internalType": "bool",
          "name": "isDeposit",
          "type": "bool"
        }
      ],
      "name": "CollateralDeposit",
      "type": "event"
    },
    {
      "anonymous": false,
      "inputs": [
        {
          "indexed": false,
          "internalType": "uint256",
          "name": "offerID",
          "type": "uint256"
        }
      ],
      "name": "OOfferAccepted",
      "type": "event"
    },
    {
      "anonymous": false,
      "inputs": [
        {
          "indexed": false,
          "internalType": "address",
          "name": "owner",
          "type": "address"
        },
        {
          "indexed": false,
          "internalType": "uint256",
          "name": "reservalID",
          "type": "uint256"
        }
      ],
      "name": "OReservalCanceled",
      "type": "event"
    },
    {
      "anonymous": false,
      "inputs": [
        {
          "indexed": false,
          "internalType": "address",
          "name": "owner",
          "type": "address"
        },
        {
          "indexed": false,
          "internalType": "address",
          "name": "nft",
          "type": "address"
        },
        {
          "indexed": false,
          "internalType": "uint256",
          "name": "expiry",
          "type": "uint256"
        },
        {
          "indexed": false,
          "internalType": "address",
          "name": "token",
          "type": "address"
        },
        {
          "indexed": false,
          "internalType": "uint256",
          "name": "price",
          "type": "uint256"
        },
        {
          "indexed": false,
          "internalType": "uint256",
          "name": "pct",
          "type": "uint256"
        },
        {
          "indexed": false,
          "internalType": "uint256",
          "name": "reservalID",
          "type": "uint256"
        }
      ],
      "name": "OReservalCreated",
      "type": "event"
    },
    {
      "anonymous": false,
      "inputs": [
        {
          "indexed": false,
          "internalType": "uint256",
          "name": "offerID",
          "type": "uint256"
        }
      ],
      "name": "ReservePayed",
      "type": "event"
    },
    {
      "inputs": [
        {
          "internalType": "address",
          "name": "nft",
          "type": "address"
        },
        {
          "internalType": "uint256",
          "name": "expiry",
          "type": "uint256"
        },
        {
          "internalType": "address",
          "name": "token",
          "type": "address"
        },
        {
          "internalType": "uint256",
          "name": "price",
          "type": "uint256"
        },
        {
          "internalType": "uint256",
          "name": "pct",
          "type": "uint256"
        }
      ],
      "name": "createReserval",
      "outputs": [
        {
          "internalType": "uint256",
          "name": "reservalID",
          "type": "uint256"
        }
      ],
      "stateMutability": "nonpayable",
      "type": "function"
    },
    {
      "inputs": [
        {
          "internalType": "uint256",
          "name": "reservalID",
          "type": "uint256"
        }
      ],
      "name": "cancelReserval",
      "outputs": [],
      "stateMutability": "nonpayable",
      "type": "function"
    },
    {
      "inputs": [
        {
          "internalType": "uint256",
          "name": "reservalID",
          "type": "uint256"
        }
      ],
      "name": "createOffer",
      "outputs": [
        {
          "internalType": "uint256",
          "name": "offerID",
          "type": "uint256"
        }
      ],
      "stateMutability": "nonpayable",
      "type": "function"
    },
    {
      "inputs": [
        {
          "internalType": "uint256",
          "name": "offerID",
          "type": "uint256"
        }
      ],
      "name": "acceptOffer",
      "outputs": [],
      "stateMutability": "nonpayable",
      "type": "function"
    },
    {
      "inputs": [
        {
          "internalType": "uint256",
          "name": "offerID",
          "type": "uint256"
        }
      ],
      "name": "assignOffer",
      "outputs": [],
      "stateMutability": "nonpayable",
      "type": "function"
    },
    {
      "inputs": [
        {
          "internalType": "uint256",
          "name": "offerID",
          "type": "uint256"
        }
      ],
      "name": "payReserve",
      "outputs": [],
      "stateMutability": "nonpayable",
      "type": "function"
    },
    {
      "inputs": [
        {
          "internalType": "uint256",
          "name": "offerID",
          "type": "uint256"
        },
        {
          "internalType": "address",
          "name": "token",
          "type": "address"
        },
        {
          "internalType": "uint256",
          "name": "amount",
          "type": "uint256"
        }
      ],
      "name": "depositCollateral",
      "outputs": [],
      "stateMutability": "nonpayable",
      "type": "function"
    },
    {
      "inputs": [
        {
          "internalType": "uint256",
          "name": "offerID",
          "type": "uint256"
        },
        {
          "internalType": "address",
          "name": "token",
          "type": "address"
        },
        {
          "internalType": "uint256",
          "name": "amount",
          "type": "uint256"
        }
      ],
      "name": "withdrawCollateral",
      "outputs": [],
      "stateMutability": "nonpayable",
      "type": "function"
    },
    {
      "inputs": [
        {
          "internalType": "address",
          "name": "owner",
          "type": "address"
        }
      ],
      "name": "getNFTReservals",
      "outputs": [
        {
          "internalType": "uint256[]",
          "name": "",
          "type": "uint256[]"
        }
      ],
      "stateMutability": "nonpayable",
      "type": "function"
    },
    {
      "inputs": [
        {
          "internalType": "address",
          "name": "buyer",
          "type": "address"
        }
      ],
      "name": "getOffers",
      "outputs": [
        {
          "internalType": "uint256[]",
          "name": "",
          "type": "uint256[]"
        }
      ],
      "stateMutability": "nonpayable",
      "type": "function"
    },
    {
      "inputs": [
        {
          "internalType": "uint256",
          "name": "reservalID",
          "type": "uint256"
        }
      ],
      "name": "getOfferReqs",
      "outputs": [
        {
          "internalType": "uint256[]",
          "name": "",
          "type": "uint256[]"
        }
      ],
      "stateMutability": "nonpayable",
      "type": "function"
    },
    {
      "inputs": [
        {
          "internalType": "uint256",
          "name": "reservalID",
          "type": "uint256"
        }
      ],
      "name": "getReserval",
      "outputs": [
        {
          "components": [
            {
              "internalType": "address",
              "name": "owner",
              "type": "address"
            },
            {
              "internalType": "address",
              "name": "nft",
              "type": "address"
            },
            {
              "internalType": "uint256",
              "name": "expiry",
              "type": "uint256"
            },
            {
              "internalType": "address",
              "name": "token",
              "type": "address"
            },
            {
              "internalType": "uint256",
              "name": "price",
              "type": "uint256"
            },
            {
              "internalType": "uint256",
              "name": "pct",
              "type": "uint256"
            },
            {
              "internalType": "uint256",
              "name": "reservalID",
              "type": "uint256"
            },
            {
              "internalType": "uint256",
              "name": "acceptedOfferID",
              "type": "uint256"
            }
          ],
          "internalType": "struct NFTReservalManager.NFTReserval",
          "name": "reserval",
          "type": "tuple"
        }
      ],
      "stateMutability": "nonpayable",
      "type": "function"
    },
    {
      "inputs": [
        {
          "internalType": "uint256",
          "name": "offerID",
          "type": "uint256"
        }
      ],
      "name": "getOffer",
      "outputs": [
        {
          "components": [
            {
              "internalType": "address",
              "name": "buyer",
              "type": "address"
            },
            {
              "internalType": "uint256",
              "name": "reservalID",
              "type": "uint256"
            },
            {
              "internalType": "address",
              "name": "nft",
              "type": "address"
            },
            {
              "internalType": "uint256",
              "name": "expiry",
              "type": "uint256"
            },
            {
              "internalType": "address",
              "name": "token",
              "type": "address"
            },
            {
              "internalType": "uint256",
              "name": "price",
              "type": "uint256"
            },
            {
              "internalType": "uint256",
              "name": "pct",
              "type": "uint256"
            },
            {
              "internalType": "address[]",
              "name": "colTokens",
              "type": "address[]"
            },
            {
              "internalType": "uint256[]",
              "name": "colAmounts",
              "type": "uint256[]"
            },
            {
              "internalType": "uint256",
              "name": "offerID",
              "type": "uint256"
            },
            {
              "internalType": "bool",
              "name": "accepted",
              "type": "bool"
            },
            {
              "internalType": "bool",
              "name": "reservePayed",
              "type": "bool"
            }
          ],
          "internalType": "struct NFTReservalManager.Offer",
          "name": "offer",
          "type": "tuple"
        }
      ],
      "stateMutability": "nonpayable",
      "type": "function"
    }
  ],
  "bytecode": "0x60806040523480156200001157600080fd5b50604051620029b8380380620029b88339810160408190526200003491620001c1565b8251620000499060029060208601906200010d565b50600480546001600160a01b038085166001600160a01b03199283161790925560058054928416928216929092179091556006805490911630179055825160035560005b600354811015620000fa57600160096000868481518110620000b357620000b3620002b9565b6020908102919091018101516001600160a01b03168252810191909152604001600020805460ff191691151591909117905580620000f181620002cf565b9150506200008d565b5050600080805560015550620002f99050565b82805482825590600052602060002090810192821562000165579160200282015b828111156200016557825182546001600160a01b0319166001600160a01b039091161782556020909201916001909101906200012e565b506200017392915062000177565b5090565b5b8082111562000173576000815560010162000178565b634e487b7160e01b600052604160045260246000fd5b80516001600160a01b0381168114620001bc57600080fd5b919050565b600080600060608486031215620001d757600080fd5b83516001600160401b0380821115620001ef57600080fd5b818601915086601f8301126200020457600080fd5b81516020828211156200021b576200021b6200018e565b8160051b604051601f19603f830116810181811086821117156200024357620002436200018e565b60405292835281830193508481018201928a8411156200026257600080fd5b948201945b838610156200028b576200027b86620001a4565b8552948201949382019362000267565b97506200029c9050888201620001a4565b955050505050620002b060408501620001a4565b90509250925092565b634e487b7160e01b600052603260045260246000fd5b6000600019821415620002f257634e487b7160e01b600052601160045260246000fd5b5060010190565b6126af80620003096000396000f3fe608060405234801561001057600080fd5b50600436106100cf5760003560e01c8063a269993d1161008c578063c815729d11610066578063c815729d14610221578063cbd3221814610234578063de9d62de14610247578063ebea51b41461025a57600080fd5b8063a269993d146101da578063b0364b67146101fb578063c6f3ed8b1461020e57600080fd5b806306a7ad64146100d457806319752d25146100e957806324af54b6146101745780632d86c000146101875780634579268a146101a757806399ea56b0146101c7575b600080fd5b6100e76100e23660046121dc565b61026d565b005b6100fc6100f73660046121dc565b610388565b60405161016b919060006101008201905060018060a01b0380845116835280602085015116602084015260408401516040840152806060850151166060840152506080830151608083015260a083015160a083015260c083015160c083015260e083015160e083015292915050565b60405180910390f35b6100e76101823660046121dc565b61048e565b61019a61019536600461220a565b6108c9565b60405161016b9190612227565b6101ba6101b53660046121dc565b6108f3565b60405161016b91906122df565b6100e76101d53660046123cf565b610af5565b6101ed6101e83660046121dc565b610dc4565b60405190815260200161016b565b61019a6102093660046121dc565b610fbb565b6101ed61021c366004612407565b610fd5565b6100e761022f3660046121dc565b6111ab565b6100e76102423660046121dc565b61144d565b61019a61025536600461220a565b6115f6565b6100e76102683660046123cf565b61161a565b600081815260076020526040902080546001600160a01b03166102ab5760405162461bcd60e51b81526004016102a290612459565b60405180910390fd5b80546001600160a01b031633146102d45760405162461bcd60e51b81526004016102a290612490565b80546102e9906001600160a01b0316836118bd565b600082815260076020818152604080842080546001600160a01b031990811682556001820180548216905560028201869055600382018054909116905560048101859055600581018590556006810185905590920192909255825481516001600160a01b0390911681529182018490527fc54196fb89f0de06064e8350a77850230e5fc554d1d593a76d12c352deadcdde910160405180910390a15050565b6103eb60405180610100016040528060006001600160a01b0316815260200160006001600160a01b031681526020016000815260200160006001600160a01b03168152602001600081526020016000815260200160008152602001600081525090565b600082815260076020526040902080546001600160a01b03166104205760405162461bcd60e51b81526004016102a290612459565b604080516101008101825282546001600160a01b0390811682526001840154811660208301526002840154928201929092526003830154909116606082015260048201546080820152600582015460a0820152600682015460c082015260079091015460e082015292915050565b600081815260086020526040902080546001600160a01b03166104c35760405162461bcd60e51b81526004016102a2906124bf565b600a81015460ff166104e75760405162461bcd60e51b81526004016102a2906124ed565b6001810154600090815260076020526040902080546001600160a01b031633146105235760405162461bcd60e51b81526004016102a290612490565b600a820154610100900460ff161561057a57805460038201546004830154610558926001600160a01b039081169216906118e4565b60018101548254610575916001600160a01b039081169116611a26565b610766565b600682015460058301546004840154600092620186a09290916105a5906001600160a01b0316611a91565b6105af919061252f565b6105b9919061252f565b6105c3919061254e565b905060005b60078401548110156107635760006106088560070183815481106105ee576105ee612570565b6000918252602090912001546001600160a01b0316611a91565b610612908461254e565b905084600801828154811061062957610629612570565b906000526020600020015481111561065e5784600801828154811061065057610650612570565b906000526020600020015490505b60008186600801848154811061067657610676612570565b906000526020600020015461068b9190612586565b9050811561070657816106ac8760070185815481106105ee576105ee612570565b6106b6919061252f565b6106c09085612586565b8554600788018054929650610706926001600160a01b0390921691869081106106eb576106eb612570565b6000918252602090912001546001600160a01b0316846118e4565b801561074e57855460078701805461074e926001600160a01b031691908690811061073357610733612570565b6000918252602090912001546001600160a01b0316836118e4565b5050808061075b9061259d565b9150506105c8565b50505b80546006820154610780916001600160a01b0316906118bd565b8154610795906001600160a01b031684611b0f565b600a82015460018301546040805161010090930460ff1615158352602083019190915281018490527f7c9e91160ddf7baf7154c690eb878e3db5767822c1109de4b4fca9c864e479869060600160405180910390a1600083815260086020526040812080546001600160a01b03199081168255600182018390556002820180548216905560038201839055600482018054909116905560058101829055600681018290559061084760078301826121a2565b6108556008830160006121a2565b50600060098201819055600a909101805461ffff191690556006918201548152600760208190526040822080546001600160a01b0319908116825560018201805482169055600282018490556003820180549091169055600481018390556005810183905592830182905591909101555050565b6001600160a01b0381166000908152600b602052604090206060906108ed90611b31565b92915050565b61097660405180610180016040528060006001600160a01b031681526020016000815260200160006001600160a01b031681526020016000815260200160006001600160a01b0316815260200160008152602001600081526020016060815260200160608152602001600081526020016000151581526020016000151581525090565b600082815260086020526040902080546001600160a01b03166109ab5760405162461bcd60e51b81526004016102a2906124bf565b604080516101808101825282546001600160a01b039081168252600184015460208084019190915260028501548216838501526003850154606084015260048501549091166080830152600584015460a0830152600684015460c08301526007840180548451818402810184019095528085529293859360e0860193919291830182828015610a6357602002820191906000526020600020905b81546001600160a01b03168152600190910190602001808311610a45575b5050505050815260200160088201805480602002602001604051908101604052809291908181526020018280548015610abb57602002820191906000526020600020905b815481526020019060010190808311610aa7575b505050918352505060098201546020820152600a9091015460ff808216151560408401526101009091041615156060909101529392505050565b6001600160a01b03821660009081526009602052604090205460ff16610b4f5760405162461bcd60e51b815260206004820152600f60248201526e2737ba103b30b4b632103a37b5b2b760891b60448201526064016102a2565b600083815260086020526040902080546001600160a01b0316610b845760405162461bcd60e51b81526004016102a2906124bf565b80546001600160a01b03163314610bd25760405162461bcd60e51b81526020600482015260126024820152712737ba10313abcb2b91037b31037b33332b960711b60448201526064016102a2565b600a81015460ff16610bf65760405162461bcd60e51b81526004016102a2906124ed565b60008211610c425760405162461bcd60e51b8152602060048201526019602482015278125394d551919250d251539517d25394155517d05353d55395603a1b60448201526064016102a2565b60005b6007820154811015610ca257836001600160a01b0316826007018281548110610c7057610c70612570565b6000918252602090912001546001600160a01b03161415610c9057610ca2565b80610c9a8161259d565b915050610c45565b600782015481108015610cd4575082826008018281548110610cc657610cc6612570565b906000526020600020015410155b610d205760405162461bcd60e51b815260206004820152601b60248201527f4e6f7420656e6f75676820616d6f756e74206465706f7369746564000000000060448201526064016102a2565b600a82015460ff1615610d3857610d383385856118e4565b82826008018281548110610d4e57610d4e612570565b906000526020600020016000828254610d679190612586565b9091555050604080518681526001600160a01b0386166020820152908101849052600060608201527f1dfdcce523ed63eed2c7395d37868b4f7a225655e2e6e7fcd0eb7133034adad5906080015b60405180910390a15050505050565b600081815260076020526040812080546001600160a01b0316610df95760405162461bcd60e51b81526004016102a290612459565b60018054906000610e098361259d565b91905055506001549150600060035467ffffffffffffffff811115610e3057610e306125b8565b604051908082528060200260200182016040528015610e59578160200160208202803683370190505b509050600060035467ffffffffffffffff811115610e7957610e796125b8565b604051908082528060200260200182016040528015610ea2578160200160208202803683370190505b506040805161018081018252338082526020820189905260018701546001600160a01b0390811683850181905260028901546060850181905260038a01549092166080850181905260048a015460a0860181905260058b015460c0870181905260e087018b9052610100870189905261012087018d905260006101408801819052610160880152965197985094967fda307974aa86f27035cd8c81073664a91b815a537e36377f0f15965e277bfc3696610faa968e9593929091908e906001600160a01b0398891681526020810197909752948716604087015260608601939093529416608084015260a083019390935260c082019290925260e08101919091526101000190565b60405180910390a150505050919050565b6000818152600c602052604090206060906108ed90611b31565b6000610fe086611bdd565b6001600160a01b0316336001600160a01b0316146110335760405162461bcd60e51b815260206004820152601060248201526f139bdd0813dddb995c881bd98813919560821b60448201526064016102a2565b6000805490806110428361259d565b919050555060005490506000604051806101000160405280336001600160a01b03168152602001886001600160a01b03168152602001878152602001866001600160a01b03168152602001858152602001848152602001838152602001600081525090506110b4816000015183611c60565b600082815260076020818152604092839020845181546001600160a01b03199081166001600160a01b03928316908117845587850151600185018054841691851691909117905587870151600285015560608089015160038601805490941690851617909255608080890151600486015560a0808a0151600587015560c0808b0151600688015560e0808c0151979099019690965588519283528f8516968301969096529681018d9052918b169082015293840188905290830186905282018490527fc05e5aabf413dd21ad2fc2ddf043c7cf8b15fac2b9377e04eb257b24a2af3c12910160405180910390a15095945050505050565b600081815260086020526040902080546001600160a01b03166111e05760405162461bcd60e51b81526004016102a2906124bf565b6001810154600090815260076020526040902080546001600160a01b0316331461121c5760405162461bcd60e51b81526004016102a290612490565b600a82015460ff16156112715760405162461bcd60e51b815260206004820152601d60248201527f546865206f6666657220697320616c726561647920616363657074656400000060448201526064016102a2565b6007810154156112c35760405162461bcd60e51b815260206004820152601f60248201527f54686520726573657276616c20697320616c7265616479206d6174636865640060448201526064016102a2565b6112cc82611c82565b6113105760405162461bcd60e51b8152602060048201526015602482015274139bdd08195b9bdd59da0818dbdb1b185d195c985b605a1b60448201526064016102a2565b61131982611d3f565b61135a5760405162461bcd60e51b815260206004820152601260248201527109cdee840c2d8d8deeecac840cadcdeeaced60731b60448201526064016102a2565b60005b60078301548110156113e05782546007840180546113ce926001600160a01b031691908490811061139057611390612570565b6000918252602090912001546008860180546001600160a01b0390921691859081106113be576113be612570565b9060005260206000200154611e4a565b806113d88161259d565b91505061135d565b5060018101546113f8906001600160a01b0316611ede565b60078101839055600a8201805460ff191660011790556040517f849b9c9365baf4ef2403308ee92d15dd1da4de6add8ca2ffeacf4358cbe0a757906114409085815260200190565b60405180910390a1505050565b600081815260086020526040902080546001600160a01b03166114825760405162461bcd60e51b81526004016102a2906124bf565b600a81015460ff166114a65760405162461bcd60e51b81526004016102a2906124ed565b600a810154610100900460ff16156114f65760405162461bcd60e51b8152602060048201526013602482015272105b1c9958591e481c185e54995cd95c9d9959606a1b60448201526064016102a2565b6001810154600090815260076020526040902081546004830154600584015461152c926001600160a01b03908116921690611e4a565b60005b60078301548110156115b25782546007840180546115a0926001600160a01b031691908490811061156257611562612570565b6000918252602090912001546008860180546001600160a01b03909216918590811061159057611590612570565b90600052602060002001546118e4565b806115aa8161259d565b91505061152f565b50600a8201805461ff0019166101001790556040517f3ad5ff1b4352fbcb9c7e0967bf0cf2387cdd444e6c531f94ac7e411f7404625d906114409085815260200190565b6001600160a01b0381166000908152600a602052604090206060906108ed90611b31565b6001600160a01b03821660009081526009602052604090205460ff166116745760405162461bcd60e51b815260206004820152600f60248201526e2737ba103b30b4b632103a37b5b2b760891b60448201526064016102a2565b600083815260086020526040902080546001600160a01b03166116a95760405162461bcd60e51b81526004016102a2906124bf565b80546001600160a01b031633146116f75760405162461bcd60e51b81526020600482015260126024820152712737ba10313abcb2b91037b31037b33332b960711b60448201526064016102a2565b600a81015460ff1661171b5760405162461bcd60e51b81526004016102a2906124ed565b600082116117675760405162461bcd60e51b8152602060048201526019602482015278125394d551919250d251539517d25394155517d05353d55395603a1b60448201526064016102a2565b60005b60078201548110156117c757836001600160a01b031682600701828154811061179557611795612570565b6000918252602090912001546001600160a01b031614156117b5576117c7565b806117bf8161259d565b91505061176a565b600782015481141561181957600782018054600180820183556000928352602080842090920180546001600160a01b0319166001600160a01b0389161790556008850180549182018155835290822001555b600a82015460ff161561183c57815461183c906001600160a01b03168585611e4a565b8282600801828154811061185257611852612570565b90600052602060002001600082825461186b91906125ce565b9091555050604080518681526001600160a01b0386166020820152908101849052600160608201527f1dfdcce523ed63eed2c7395d37868b4f7a225655e2e6e7fcd0eb7133034adad590608001610db5565b6001600160a01b0382166000908152600a602052604090206118df9082611f39565b505050565b604080518082018252601981527f7472616e7366657228616464726573732c75696e74323536290000000000000060209182015281516001600160a01b0386811660248301526044808301869052845180840390910181526064909201845291810180516001600160e01b031663a9059cbb60e01b1790529151600092839286169161197091906125e6565b6000604051808303816000865af19150503d80600081146119ad576040519150601f19603f3d011682016040523d82523d6000602084013e6119b2565b606091505b50915091508180156119dc5750805115806119dc5750808060200190518101906119dc9190612621565b611a1f5760405162461bcd60e51b81526020600482015260146024820152731053534e881514905394d1915497d1905253115160621b60448201526064016102a2565b5050505050565b6004805460405163e1268d6f60e01b81526001600160a01b0385811693820193909352838316602482015291169063e1268d6f9060440160006040518083038186803b158015611a7557600080fd5b505afa158015611a89573d6000803e3d6000fd5b505050505050565b6005546040516315d5220f60e31b81526001600160a01b038381166004830152600092169063aea910789060240160206040518083038186803b158015611ad757600080fd5b505afa158015611aeb573d6000803e3d6000fd5b505050506040513d601f19601f820116820180604052508101906108ed9190612643565b6001600160a01b0382166000908152600b602052604090206118df9082611f39565b60606000826000015467ffffffffffffffff811115611b5257611b526125b8565b604051908082528060200260200182016040528015611b7b578160200160208202803683370190505b5090506000805b6001611b8e8683611fd3565b925090508015611bc85781848481518110611bab57611bab612570565b602090810291909101015282611bc08161259d565b935050611bce565b50611bd4565b50611b82565b50909392505050565b6004805460405163666e1b3960e01b81526001600160a01b03848116938201939093526000929091169063666e1b399060240160206040518083038186803b158015611c2857600080fd5b505afa158015611c3c573d6000803e3d6000fd5b505050506040513d601f19601f820116820180604052508101906108ed919061265c565b6001600160a01b0382166000908152600a602052604090206118df9082611fed565b600080805b6007840154811015611ce957836008018181548110611ca857611ca8612570565b9060005260206000200154611ccb8560070183815481106105ee576105ee612570565b611cd5919061252f565b915080611ce18161259d565b915050611c87565b50600683015460058401546004850154600092620186a0929091611d15906001600160a01b0316611a91565b611d1f919061252f565b611d29919061252f565b611d33919061254e565b91909111159392505050565b600080805b6007840154811015611e40576000846007018281548110611d6757611d67612570565b6000918252602090912001548554600654604051636eb1769f60e11b81526001600160a01b039283166004820152908216602482015291169063dd62ed3e9060440160206040518083038186803b158015611dc157600080fd5b505afa158015611dd5573d6000803e3d6000fd5b505050506040513d601f19601f82011682018060405250810190611df99190612643565b9050846008018281548110611e1057611e10612570565b9060005260206000200154811015611e2d57506000949350505050565b5080611e388161259d565b915050611d44565b5060019392505050565b6006546040516323b872dd60e01b81526001600160a01b038581166004830152918216602482015260448101839052908316906323b872dd90606401602060405180830381600087803b158015611ea057600080fd5b505af1158015611eb4573d6000803e3d6000fd5b505050506040513d601f19601f82011682018060405250810190611ed89190612621565b50505050565b6004805460405163206d827760e11b81526001600160a01b03848116938201939093529116906340db04ee9060240160006040518083038186803b158015611f2557600080fd5b505afa158015611a1f573d6000803e3d6000fd5b6000811580611f4f5750611f4d8383612002565b155b15611f5c575060006108ed565b600082815260018481016020908152604080842084805290915280832054828452922054611f8e928692909190612086565b60008281526001848101602090815260408084208480529091528083208390558183528220829055845490918591611fc7908490612586565b90915550919392505050565b600080611fe2848460016120bb565b915091509250929050565b6000611ffb83836000612102565b9392505050565b6000818152600183016020908152604080832083805290915281205415801561204557506000828152600180850160209081526040808420928452919052902054155b1561207e576000808052600180850160209081526040808420928452919052902054821415612076575060016108ed565b5060006108ed565b5060016108ed565b600082815260019094016020818152604080872093158088529382528087208690559486529081528385209115855252912055565b6000806120c88585612002565b6120d7575060009050806120fa565b505060008281526001848101602090815260408084208515158552909152909120545b935093915050565b60006121118460008585612119565b949350505050565b60006121258584612002565b15801561213757506121378585612002565b156121975760008481526001860160209081526040808320851515845290915290205461216686868686612086565b61217286858386612086565b600186600001600082825461218791906125ce565b9091555060019250612111915050565b506000949350505050565b50805460008255906000526020600020908101906121c091906121c3565b50565b5b808211156121d857600081556001016121c4565b5090565b6000602082840312156121ee57600080fd5b5035919050565b6001600160a01b03811681146121c057600080fd5b60006020828403121561221c57600080fd5b8135611ffb816121f5565b6020808252825182820181905260009190848201906040850190845b8181101561225f57835183529284019291840191600101612243565b50909695505050505050565b600081518084526020808501945080840160005b838110156122a45781516001600160a01b03168752958201959082019060010161227f565b509495945050505050565b600081518084526020808501945080840160005b838110156122a4578151875295820195908201906001016122c3565b602081526122f96020820183516001600160a01b03169052565b602082015160408201526000604083015161231f60608401826001600160a01b03169052565b5060608301516080830152608083015161234460a08401826001600160a01b03169052565b5060a083015160c083015260c083015160e083015260e083015161018061010081818601526123776101a086018461226b565b9250808601519050610120601f19868503018187015261239784836122af565b908701516101408781019190915287015190935090506101606123bd8187018315159052565b90950151151593019290925250919050565b6000806000606084860312156123e457600080fd5b8335925060208401356123f6816121f5565b929592945050506040919091013590565b600080600080600060a0868803121561241f57600080fd5b853561242a816121f5565b9450602086013593506040860135612441816121f5565b94979396509394606081013594506080013592915050565b60208082526017908201527f4e6f207375636820726573657276616c20657869737473000000000000000000604082015260600190565b602080825260159082015274139bdd081bdddb995c881bd9881c995cd95c9d985b605a1b604082015260600190565b6020808252601490820152734e6f2073756368206f666665722065786973747360601b604082015260600190565b6020808252601290820152712737ba1030b1b1b2b83a32b21037b33332b960711b604082015260600190565b634e487b7160e01b600052601160045260246000fd5b600081600019048311821515161561254957612549612519565b500290565b60008261256b57634e487b7160e01b600052601260045260246000fd5b500490565b634e487b7160e01b600052603260045260246000fd5b60008282101561259857612598612519565b500390565b60006000198214156125b1576125b1612519565b5060010190565b634e487b7160e01b600052604160045260246000fd5b600082198211156125e1576125e1612519565b500190565b6000825160005b8181101561260757602081860181015185830152016125ed565b81811115612616576000828501525b509190910192915050565b60006020828403121561263357600080fd5b81518015158114611ffb57600080fd5b60006020828403121561265557600080fd5b5051919050565b60006020828403121561266e57600080fd5b8151611ffb816121f556fea26469706673582212206792abe9535e488e3d13e607cb7d7ef502aff588371a65531e6202023c26b15664736f6c63430008090033",
  "immutableReferences": {},
  "source": "// SPDX-License-Identifier: MIT\r\npragma solidity >=0.8.0 <0.9.0;\r\n\r\nimport {IERC721} from \"@openzeppelin/contracts/token/ERC721/IERC721.sol\";\r\nimport {IERC20} from \"@openzeppelin/contracts/token/ERC20/IERC20.sol\";\r\nimport {IERC721Metadata} from \"@openzeppelin/contracts/token/ERC721/extensions/IERC721Metadata.sol\";\r\nimport {IERC20Metadata} from \"@openzeppelin/contracts/token/ERC20/extensions/IERC20Metadata.sol\";\r\nimport \"@openzeppelin/contracts/token/ERC20/ERC20.sol\";\r\nimport \"solidity-linked-list/contracts/StructuredLinkedList.sol\";\r\nimport {IPriceOracle} from \"./interface/IPriceOracle.sol\";\r\nimport {INFTVault} from \"./interface/INFTVault.sol\";\r\n\r\n\r\ncontract NFTReservalManager {\r\n  using StructuredLinkedList for StructuredLinkedList.List;\r\n  uint256 private constant PCT_DIVIDER = 100000;\r\n  bytes4 private constant SELECTOR = bytes4(keccak256(bytes('transfer(address,uint256)')));\r\n\r\n  event OReservalCreated(\r\n    address owner,\r\n    address nft,\r\n    uint256 expiry,\r\n    address token,\r\n    uint256 price,\r\n    uint256 pct,\r\n    uint256 reservalID\r\n  );\r\n\r\n  event OReservalCanceled(\r\n    address owner,\r\n    uint256 reservalID\r\n  );\r\n\r\n  event BOfferCreated(\r\n    address buyer,\r\n    uint256 reservalID,\r\n    address nft,\r\n    uint256 expiry,\r\n    address token,\r\n    uint256 price,\r\n    uint256 pct,\r\n    uint256 offerID\r\n  );\r\n\r\n  event OOfferAccepted(\r\n    uint256 offerID\r\n  );\r\n\r\n  event Assigned(\r\n    bool assigned,\r\n    uint256 reservalID,\r\n    uint256 offerID\r\n  );\r\n  \r\n  event CollateralDeposit(\r\n    uint256 offerID,\r\n    address token,\r\n    uint256 amount,\r\n    bool isDeposit\r\n  );\r\n\r\n  event ReservePayed(\r\n    uint256 offerID\r\n  );\r\n  \r\n  struct NFTReserval {\r\n    address owner;\r\n    address nft;\r\n    uint256 expiry;\r\n    address token;\r\n    uint256 price;\r\n    uint256 pct;\r\n    uint256 reservalID;\r\n    uint256 acceptedOfferID;\r\n  }\r\n\r\n  struct Offer {\r\n    address buyer;\r\n    uint256 reservalID;\r\n    address nft;\r\n    uint256 expiry;\r\n    address token;\r\n    uint256 price;\r\n    uint256 pct;\r\n    address[] colTokens;\r\n    uint256[] colAmounts;\r\n    uint256 offerID;\r\n    bool accepted;\r\n    bool reservePayed;\r\n  }\r\n\r\n  uint256 cntReserval;\r\n  uint256 cntOffer;\r\n  address[] tokens;\r\n  uint256 TOKEN_CNT;\r\n  address nftVault;\r\n  address priceOracle;\r\n  address admin;\r\n\r\n  mapping(uint256 => NFTReserval) reservals;\r\n  mapping(uint256 => Offer) offers;\r\n\r\n  mapping(address => bool) validToken;\r\n\r\n  mapping(address => StructuredLinkedList.List) listReserval;\r\n  mapping(address => StructuredLinkedList.List) listOffer;\r\n  mapping(uint256 => StructuredLinkedList.List) listOfferReq;\r\n\r\n  constructor(\r\n    address[] memory _tokens,\r\n    address _nftVault,\r\n    address _priceOracle\r\n  ) public {\r\n    tokens = _tokens;\r\n    nftVault = _nftVault;\r\n    priceOracle = _priceOracle;\r\n    admin = address(this);\r\n    TOKEN_CNT = _tokens.length;\r\n    for (uint i = 0; i < TOKEN_CNT; i++) {\r\n        validToken[_tokens[i]] = true;\r\n    }\r\n    cntReserval = 0;\r\n    cntOffer = 0;\r\n  }\r\n  \r\n  function createReserval(\r\n    address nft,\r\n    uint256 expiry,\r\n    address token,\r\n    uint256 price,\r\n    uint256 pct\r\n  ) external returns (uint256 reservalID) {\r\n    require(msg.sender == _nftOwner(nft), \"Not Owner of NFT\");\r\n    cntReserval++;\r\n    reservalID = cntReserval;\r\n    NFTReserval memory reserval = NFTReserval(msg.sender, nft, expiry, token, price, pct, reservalID, 0);\r\n\r\n    _reserval_add(reserval.owner, reservalID);\r\n    reservals[reservalID] = reserval;\r\n    \r\n    emit OReservalCreated(reserval.owner, nft, expiry, token, price, pct, reservalID);\r\n  }\r\n  \r\n  function cancelReserval(\r\n    uint256 reservalID\r\n  ) external {\r\n    NFTReserval storage reserval = _getReserval(reservalID);\r\n    require(reserval.owner != address(0), \"No such reserval exists\");\r\n    require(reserval.owner == msg.sender, \"Not owner of reserval\");\r\n\r\n    _reserval_remove(reserval.owner, reservalID);\r\n    delete reservals[reservalID];\r\n    \r\n    emit OReservalCanceled(reserval.owner, reservalID);\r\n  }\r\n  \r\n  function createOffer(\r\n    uint256 reservalID\r\n  ) external returns (uint256 offerID) {\r\n    NFTReserval storage reserval = _getReserval(reservalID);\r\n    require(reserval.owner != address(0), \"No such reserval exists\");\r\n\r\n    cntOffer++;\r\n    offerID = cntOffer;\r\n    address[] memory colTokens = new address[](TOKEN_CNT);\r\n    uint256[] memory colAmounts = new uint256[](TOKEN_CNT);\r\n\r\n    Offer memory offer = Offer(\r\n      msg.sender,\r\n      reservalID,\r\n      reserval.nft,\r\n      reserval.expiry,\r\n      reserval.token,\r\n      reserval.price,\r\n      reserval.pct,\r\n      colTokens,\r\n      colAmounts,\r\n      offerID,\r\n      false,\r\n      false\r\n      );\r\n\r\n    emit BOfferCreated(\r\n      offer.buyer,\r\n      reservalID,\r\n      reserval.nft,\r\n      reserval.expiry,\r\n      reserval.token,\r\n      reserval.price,\r\n      reserval.pct,\r\n      offerID\r\n      );\r\n  }\r\n\r\n  function acceptOffer(\r\n    uint256 offerID\r\n  ) external {\r\n    Offer storage offer = _getOffer(offerID);\r\n    require(offer.buyer != address(0), \"No such offer exists\");\r\n    \r\n    NFTReserval storage reserval = _getReserval(offer.reservalID);\r\n    require(msg.sender == reserval.owner, \"Not owner of reserval\");\r\n    \r\n    require(!offer.accepted, \"The offer is already accepted\");\r\n    require(reserval.acceptedOfferID == 0, \"The reserval is already matched\");\r\n\r\n    require(_checkCollateral(offer), \"Not enough collateral\");\r\n    require(_checkAllowance(offer), \"Not allowed enough\");\r\n    for (uint i = 0; i < offer.colTokens.length; i++) {\r\n      _putIn(offer.buyer, offer.colTokens[i], offer.colAmounts[i]);\r\n    }\r\n    _lockNFT(reserval.nft);\r\n\r\n    reserval.acceptedOfferID = offerID;\r\n    offer.accepted = true;\r\n\r\n    emit OOfferAccepted(offerID);\r\n  }\r\n\r\n  function assignOffer(\r\n    uint256 offerID\r\n  ) external {\r\n    Offer storage offer = _getOffer(offerID);\r\n    require(offer.buyer != address(0), \"No such offer exists\");\r\n    require(offer.accepted, \"Not accepted offer\");\r\n    \r\n    NFTReserval storage reserval = _getReserval(offer.reservalID);\r\n    require(msg.sender == reserval.owner, \"Not owner of reserval\");\r\n\r\n    if (offer.reservePayed) {\r\n      _putOut(reserval.owner, reserval.token, reserval.price);\r\n      _transferNFT(reserval.nft, offer.buyer);\r\n    }\r\n    else {\r\n      uint256 unpayed = _tokenToUSD(offer.token) * offer.price * offer.pct / PCT_DIVIDER;\r\n      for (uint i = 0; i < offer.colTokens.length; i++) {\r\n        uint256 amountToOwner = unpayed / _tokenToUSD(offer.colTokens[i]);\r\n        if (amountToOwner > offer.colAmounts[i]) amountToOwner = offer.colAmounts[i];\r\n        uint256 amountToBuyer = offer.colAmounts[i] - amountToOwner;\r\n        if (amountToOwner > 0) {\r\n          unpayed = unpayed - _tokenToUSD(offer.colTokens[i]) * amountToOwner;\r\n          _putOut(reserval.owner, offer.colTokens[i], amountToOwner);\r\n        }\r\n        if (amountToBuyer > 0) {\r\n          _putOut(offer.buyer, offer.colTokens[i], amountToBuyer);\r\n        }\r\n      }\r\n    }\r\n\r\n    _reserval_remove(reserval.owner, reserval.reservalID);\r\n    _offer_remove(offer.buyer, offerID);\r\n    emit Assigned(offer.reservePayed, offer.reservalID, offerID);\r\n\r\n    delete offers[offerID];\r\n    delete reservals[reserval.reservalID];\r\n  }\r\n\r\n  function payReserve(\r\n    uint256 offerID\r\n  ) external {\r\n    Offer storage offer = _getOffer(offerID);\r\n    require(offer.buyer != address(0), \"No such offer exists\");\r\n    require(offer.accepted, \"Not accepted offer\");\r\n    require(!offer.reservePayed, \"Already payReserved\");\r\n    \r\n    NFTReserval storage reserval = _getReserval(offer.reservalID);\r\n\r\n    _putIn(offer.buyer, offer.token, offer.price);\r\n    for (uint i = 0; i < offer.colTokens.length; i++) {\r\n      _putOut(offer.buyer, offer.colTokens[i], offer.colAmounts[i]);\r\n    }\r\n\r\n    offer.reservePayed = true;\r\n\r\n    emit ReservePayed(offerID);\r\n  }\r\n\r\n  function depositCollateral(\r\n    uint256 offerID,\r\n    address token,\r\n    uint256 amount\r\n  ) external {\r\n    require(validToken[token], \"Not vaild token\");\r\n    Offer storage offer = _getOffer(offerID);\r\n    require(offer.buyer != address(0), \"No such offer exists\");\r\n    require(msg.sender == offer.buyer, \"Not buyer of offer\");\r\n    require(offer.accepted, \"Not accepted offer\");\r\n\r\n    require(amount > 0, \"INSUFFICIENT_INPUT_AMOUNT\");\r\n\r\n    uint id = 0;\r\n    for (id = 0; id < offer.colTokens.length; id++) {\r\n      if (offer.colTokens[id] == token) break;\r\n    }\r\n    if (offer.colTokens.length == id) {\r\n      offer.colTokens.push(token);\r\n      offer.colAmounts.push(0);\r\n    }\r\n    if (offer.accepted) {\r\n      _putIn(offer.buyer, token, amount);\r\n    }\r\n    offer.colAmounts[id] += amount;\r\n\r\n    emit CollateralDeposit(offerID, token, amount, true);\r\n  }\r\n\r\n  function withdrawCollateral(\r\n    uint256 offerID,\r\n    address token,\r\n    uint256 amount\r\n  ) external {\r\n    require(validToken[token], \"Not vaild token\");\r\n    Offer storage offer = _getOffer(offerID);\r\n    require(offer.buyer != address(0), \"No such offer exists\");\r\n    require(msg.sender == offer.buyer, \"Not buyer of offer\");\r\n    require(offer.accepted, \"Not accepted offer\");\r\n\r\n    require(amount > 0, \"INSUFFICIENT_INPUT_AMOUNT\");\r\n    \r\n    uint id = 0;\r\n    for (id = 0; id < offer.colTokens.length; id++) {\r\n      if (offer.colTokens[id] == token) break;\r\n    }\r\n    require((offer.colTokens.length > id) && (offer.colAmounts[id] >= amount), \"Not enough amount deposited\");\r\n\r\n    if (offer.accepted) {\r\n      _putOut(msg.sender, token, amount);\r\n    }\r\n    offer.colAmounts[id] -= amount;\r\n\r\n    emit CollateralDeposit(offerID, token, amount, false);\r\n  }\r\n\r\n  function getNFTReservals(address owner) external returns (uint256[] memory) {\r\n    return _getFullList(listReserval[owner]);\r\n  }\r\n\r\n  function getOffers(address buyer) external returns (uint256[] memory) {\r\n    return _getFullList(listOffer[buyer]);\r\n  }\r\n\r\n  function getOfferReqs(uint256 reservalID) external returns (uint256[] memory) {\r\n    return _getFullList(listOfferReq[reservalID]);\r\n  }\r\n\r\n  function getReserval(uint256 reservalID) external returns (NFTReserval memory reserval) {\r\n    NFTReserval storage _reserval = _getReserval(reservalID);\r\n    require(_reserval.owner != address(0), \"No such reserval exists\");\r\n    reserval = _reserval;\r\n  }\r\n\r\n  function getOffer(uint256 offerID) external returns (Offer memory offer) {\r\n    Offer storage _offer = _getOffer(offerID);\r\n    require(_offer.buyer != address(0), \"No such offer exists\");\r\n    offer = _offer;\r\n  }\r\n\r\n  //-------------------------------------------------------------------------------//\r\n  //---------------------------- private functions ------------------------------//\r\n  //-------------------------------------------------------------------------------//\r\n  function _getReserval(uint256 reservalID) private returns (NFTReserval storage) {\r\n    return reservals[reservalID];\r\n  }\r\n\r\n  function _getOffer(uint256 offerID) private returns (Offer storage) {\r\n    return offers[offerID];\r\n  }\r\n\r\n  function _checkCollateral(Offer storage offer) private returns (bool) {\r\n    uint256 totalUSD = 0;\r\n    for (uint i = 0; i < offer.colTokens.length; i++) {\r\n      totalUSD = _tokenToUSD(offer.colTokens[i]) * offer.colAmounts[i];\r\n    }\r\n    uint256 requiredUSD = _tokenToUSD(offer.token) * offer.price * offer.pct / PCT_DIVIDER;\r\n    return requiredUSD <= totalUSD;\r\n  }\r\n\r\n  function _checkAllowance(Offer storage offer) private returns (bool) {\r\n    uint256 totalUSD = 0;\r\n    for (uint i = 0; i < offer.colTokens.length; i++) {\r\n      uint256 allownce = IERC20(offer.colTokens[i]).allowance(offer.buyer, admin);\r\n      if (allownce < offer.colAmounts[i]) return false;\r\n    }\r\n    return true;\r\n  }\r\n\r\n  function _putIn(address account, address token, uint256 amount) private {\r\n    IERC20(token).transferFrom(account, admin, amount);\r\n  }\r\n\r\n  function _putOut(address account, address token, uint256 amount) private {\r\n    (bool success, bytes memory data) = token.call(\r\n        abi.encodeWithSelector(SELECTOR, account, amount)\r\n    );\r\n    require(\r\n        success && (data.length == 0 || abi.decode(data, (bool))),\r\n        \"AMM: TRANSFER_FAILED\"\r\n    );\r\n  }\r\n  //-------------------------------------------------------------------------------//\r\n\r\n\r\n  //-------------------------------------------------------------------------------//\r\n  //---------------------------- Interface functions ------------------------------//\r\n  //-------------------------------------------------------------------------------//\r\n  function _nftOwner(address nft) private returns (address) {\r\n    return INFTVault(nftVault).owner(nft);\r\n  }\r\n\r\n  function _lockNFT(address nft) private {\r\n    INFTVault(nftVault).lockNFT(nft);\r\n  }\r\n\r\n  function _unlockNFT(address nft) private {\r\n    INFTVault(nftVault).unlockNFT(nft);\r\n  }\r\n\r\n  function _transferNFT(address nft, address to) private {\r\n    INFTVault(nftVault).transferNFT(nft, to);\r\n  }\r\n\r\n  function _tokenToUSD(address token) private returns (uint256) {\r\n    return IPriceOracle(priceOracle).price(token);\r\n  }\r\n  //-------------------------------------------------------------------------------//\r\n\r\n\r\n  //-------------------------------------------------------------------------------//\r\n  //--------------------------- Linked List functions -----------------------------//\r\n  //-------------------------------------------------------------------------------//\r\n  function _reserval_add(address owner, uint256 reservalID) private {\r\n    StructuredLinkedList.pushBack(listReserval[owner], reservalID);\r\n  }\r\n\r\n  function _reserval_remove(address owner, uint256 reservalID) private {\r\n    StructuredLinkedList.remove(listReserval[owner], reservalID);\r\n  }\r\n\r\n  function _offer_add(address buyer, uint256 offerID) private {\r\n    StructuredLinkedList.pushBack(listOffer[buyer], offerID);\r\n  }\r\n\r\n  function _offer_remove(address buyer, uint256 offerID) private {\r\n    StructuredLinkedList.remove(listOffer[buyer], offerID);\r\n  }\r\n\r\n  function _offerReq_add(uint256 reservalID, uint256 offerID) private {\r\n    StructuredLinkedList.pushBack(listOfferReq[reservalID], offerID);\r\n  }\r\n\r\n  function _offerReq_remove(uint256 reservalID, uint256 offerID) private {\r\n    StructuredLinkedList.remove(listOfferReq[reservalID], offerID);\r\n  }\r\n\r\n  function _getFullList(StructuredLinkedList.List storage list) private returns (uint256[] memory) {\r\n    uint256[] memory ids = new uint256[](list.size);\r\n    uint cnt = 0;\r\n    for (uint256 cur = 0; ; ) {\r\n      bool exists = true;\r\n      (exists, cur) = StructuredLinkedList.getNextNode(list, cur);\r\n      if (exists) {\r\n        ids[cnt] = cur;\r\n        cnt++;\r\n      }\r\n      else {\r\n        break;\r\n      }\r\n    }\r\n    return ids;\r\n  }\r\n  //-------------------------------------------------------------------------------//\r\n}\r\n",
  "sourcePath": "E:\\Projects\\Privi2\\PriviNFTOptions\\privi-NFT-buying\\contracts\\NFTReservalManager.sol",
  "compiler": {
    "name": "solc",
    "version": "0.8.9+commit.e5eed63a.Emscripten.clang"
  },
  "schemaVersion": "3.4.3",
  "updatedAt": "2021-11-09T17:38:12.589Z",
  "networkType": "ethereum",
  "devdoc": {
    "kind": "dev",
    "methods": {},
    "version": 1
  },
  "userdoc": {
    "kind": "user",
    "methods": {},
    "version": 1
  }
}