{
  "contractName": "NFTReservalManager",
  "abi": [
    {
      "inputs": [
        {
          "internalType": "address[]",
          "name": "_tokens",
          "type": "address[]"
        },
        {
          "internalType": "address",
          "name": "_nftVault",
          "type": "address"
        },
        {
          "internalType": "address",
          "name": "_priceOracle",
          "type": "address"
        }
      ],
      "stateMutability": "nonpayable",
      "type": "constructor"
    },
    {
      "anonymous": false,
      "inputs": [
        {
          "indexed": false,
          "internalType": "bool",
          "name": "assigned",
          "type": "bool"
        },
        {
          "indexed": false,
          "internalType": "uint256",
          "name": "reservalID",
          "type": "uint256"
        },
        {
          "indexed": false,
          "internalType": "uint256",
          "name": "offerID",
          "type": "uint256"
        }
      ],
      "name": "Assigned",
      "type": "event"
    },
    {
      "anonymous": false,
      "inputs": [
        {
          "indexed": false,
          "internalType": "address",
          "name": "buyer",
          "type": "address"
        },
        {
          "indexed": false,
          "internalType": "uint256",
          "name": "reservalID",
          "type": "uint256"
        },
        {
          "indexed": false,
          "internalType": "address",
          "name": "nft",
          "type": "address"
        },
        {
          "indexed": false,
          "internalType": "uint256",
          "name": "expiry",
          "type": "uint256"
        },
        {
          "indexed": false,
          "internalType": "address",
          "name": "token",
          "type": "address"
        },
        {
          "indexed": false,
          "internalType": "uint256",
          "name": "price",
          "type": "uint256"
        },
        {
          "indexed": false,
          "internalType": "uint256",
          "name": "pct",
          "type": "uint256"
        },
        {
          "indexed": false,
          "internalType": "uint256",
          "name": "offerID",
          "type": "uint256"
        }
      ],
      "name": "BOfferCreated",
      "type": "event"
    },
    {
      "anonymous": false,
      "inputs": [
        {
          "indexed": false,
          "internalType": "uint256",
          "name": "offerID",
          "type": "uint256"
        },
        {
          "indexed": false,
          "internalType": "address",
          "name": "token",
          "type": "address"
        },
        {
          "indexed": false,
          "internalType": "uint256",
          "name": "amount",
          "type": "uint256"
        },
        {
          "indexed": false,
          "internalType": "bool",
          "name": "isDeposit",
          "type": "bool"
        }
      ],
      "name": "CollateralDepost",
      "type": "event"
    },
    {
      "anonymous": false,
      "inputs": [
        {
          "indexed": false,
          "internalType": "uint256",
          "name": "offerID",
          "type": "uint256"
        }
      ],
      "name": "OOfferAccepted",
      "type": "event"
    },
    {
      "anonymous": false,
      "inputs": [
        {
          "indexed": false,
          "internalType": "address",
          "name": "owner",
          "type": "address"
        },
        {
          "indexed": false,
          "internalType": "uint256",
          "name": "reservalID",
          "type": "uint256"
        }
      ],
      "name": "OReservalCanceled",
      "type": "event"
    },
    {
      "anonymous": false,
      "inputs": [
        {
          "indexed": false,
          "internalType": "address",
          "name": "owner",
          "type": "address"
        },
        {
          "indexed": false,
          "internalType": "address",
          "name": "nft",
          "type": "address"
        },
        {
          "indexed": false,
          "internalType": "uint256",
          "name": "expiry",
          "type": "uint256"
        },
        {
          "indexed": false,
          "internalType": "address",
          "name": "token",
          "type": "address"
        },
        {
          "indexed": false,
          "internalType": "uint256",
          "name": "price",
          "type": "uint256"
        },
        {
          "indexed": false,
          "internalType": "uint256",
          "name": "pct",
          "type": "uint256"
        },
        {
          "indexed": false,
          "internalType": "uint256",
          "name": "reservalID",
          "type": "uint256"
        }
      ],
      "name": "OReservalCreated",
      "type": "event"
    },
    {
      "inputs": [
        {
          "internalType": "address",
          "name": "nft",
          "type": "address"
        },
        {
          "internalType": "uint256",
          "name": "expiry",
          "type": "uint256"
        },
        {
          "internalType": "address",
          "name": "token",
          "type": "address"
        },
        {
          "internalType": "uint256",
          "name": "price",
          "type": "uint256"
        },
        {
          "internalType": "uint256",
          "name": "pct",
          "type": "uint256"
        }
      ],
      "name": "createReserval",
      "outputs": [
        {
          "internalType": "uint256",
          "name": "reservalID",
          "type": "uint256"
        }
      ],
      "stateMutability": "nonpayable",
      "type": "function"
    },
    {
      "inputs": [
        {
          "internalType": "uint256",
          "name": "reservalID",
          "type": "uint256"
        }
      ],
      "name": "cancelReserval",
      "outputs": [],
      "stateMutability": "nonpayable",
      "type": "function"
    },
    {
      "inputs": [
        {
          "internalType": "uint256",
          "name": "reservalID",
          "type": "uint256"
        }
      ],
      "name": "createOffer",
      "outputs": [
        {
          "internalType": "uint256",
          "name": "offerID",
          "type": "uint256"
        }
      ],
      "stateMutability": "nonpayable",
      "type": "function"
    },
    {
      "inputs": [
        {
          "internalType": "uint256",
          "name": "offerID",
          "type": "uint256"
        }
      ],
      "name": "acceptOffer",
      "outputs": [],
      "stateMutability": "nonpayable",
      "type": "function"
    },
    {
      "inputs": [
        {
          "internalType": "uint256",
          "name": "offerID",
          "type": "uint256"
        }
      ],
      "name": "assignOffer",
      "outputs": [],
      "stateMutability": "nonpayable",
      "type": "function"
    },
    {
      "inputs": [
        {
          "internalType": "uint256",
          "name": "offerID",
          "type": "uint256"
        }
      ],
      "name": "unassignOffer",
      "outputs": [],
      "stateMutability": "nonpayable",
      "type": "function"
    },
    {
      "inputs": [
        {
          "internalType": "uint256",
          "name": "offerID",
          "type": "uint256"
        },
        {
          "internalType": "address",
          "name": "token",
          "type": "address"
        },
        {
          "internalType": "uint256",
          "name": "amount",
          "type": "uint256"
        }
      ],
      "name": "depositCollateral",
      "outputs": [],
      "stateMutability": "nonpayable",
      "type": "function"
    },
    {
      "inputs": [
        {
          "internalType": "uint256",
          "name": "offerID",
          "type": "uint256"
        },
        {
          "internalType": "address",
          "name": "token",
          "type": "address"
        },
        {
          "internalType": "uint256",
          "name": "amount",
          "type": "uint256"
        }
      ],
      "name": "withdrawCollateral",
      "outputs": [],
      "stateMutability": "nonpayable",
      "type": "function"
    },
    {
      "inputs": [],
      "name": "recover",
      "outputs": [],
      "stateMutability": "nonpayable",
      "type": "function"
    },
    {
      "inputs": [
        {
          "internalType": "address",
          "name": "user",
          "type": "address"
        }
      ],
      "name": "totalAssetUSD",
      "outputs": [
        {
          "internalType": "uint256",
          "name": "",
          "type": "uint256"
        }
      ],
      "stateMutability": "nonpayable",
      "type": "function"
    },
    {
      "inputs": [
        {
          "internalType": "address",
          "name": "owner",
          "type": "address"
        }
      ],
      "name": "getNFTReservals",
      "outputs": [
        {
          "internalType": "uint256[]",
          "name": "reservalIDs",
          "type": "uint256[]"
        }
      ],
      "stateMutability": "nonpayable",
      "type": "function"
    },
    {
      "inputs": [
        {
          "internalType": "address",
          "name": "buyer",
          "type": "address"
        }
      ],
      "name": "getOffers",
      "outputs": [
        {
          "internalType": "uint256[]",
          "name": "offerIDs",
          "type": "uint256[]"
        }
      ],
      "stateMutability": "nonpayable",
      "type": "function"
    },
    {
      "inputs": [
        {
          "internalType": "address",
          "name": "owner",
          "type": "address"
        }
      ],
      "name": "getOfferReqs",
      "outputs": [
        {
          "internalType": "uint256[]",
          "name": "offerIDs",
          "type": "uint256[]"
        }
      ],
      "stateMutability": "nonpayable",
      "type": "function"
    },
    {
      "inputs": [],
      "name": "checkAssign",
      "outputs": [],
      "stateMutability": "nonpayable",
      "type": "function"
    }
  ],
  "bytecode": "0x60806040523480156200001157600080fd5b5060405162001984380380620019848339810160408190526200003491620001c1565b8251620000499060029060208601906200010d565b50600480546001600160a01b038085166001600160a01b03199283161790925560058054928416928216929092179091556006805490911630179055825160035560005b600354811015620000fa576001600a6000868481518110620000b357620000b3620002b9565b6020908102919091018101516001600160a01b03168252810191909152604001600020805460ff191691151591909117905580620000f181620002cf565b9150506200008d565b5050600080805560015550620002f99050565b82805482825590600052602060002090810192821562000165579160200282015b828111156200016557825182546001600160a01b0319166001600160a01b039091161782556020909201916001909101906200012e565b506200017392915062000177565b5090565b5b8082111562000173576000815560010162000178565b634e487b7160e01b600052604160045260246000fd5b80516001600160a01b0381168114620001bc57600080fd5b919050565b600080600060608486031215620001d757600080fd5b83516001600160401b0380821115620001ef57600080fd5b818601915086601f8301126200020457600080fd5b81516020828211156200021b576200021b6200018e565b8160051b604051601f19603f830116810181811086821117156200024357620002436200018e565b60405292835281830193508481018201928a8411156200026257600080fd5b948201945b838610156200028b576200027b86620001a4565b8552948201949382019362000267565b97506200029c9050888201620001a4565b955050505050620002b060408501620001a4565b90509250925092565b634e487b7160e01b600052603260045260246000fd5b6000600019821415620002f257634e487b7160e01b600052601160045260246000fd5b5060010190565b61167b80620003096000396000f3fe608060405234801561001057600080fd5b50600436106100ea5760003560e01c8063a93e1f581161008c578063c815729d11610066578063c815729d146101aa578063ce74602414610102578063de9d62de1461013d578063ebea51b4146101bd57600080fd5b8063a93e1f5814610184578063b13258e714610102578063c6f3ed8b1461019757600080fd5b80632a74aa95116100c85780632a74aa951461013d5780632d86c0001461013d57806399ea56b01461015e578063a269993d1461017157600080fd5b806306a7ad64146100ef57806324af54b61461010457806328ec102c14610117575b600080fd5b6101026100fd3660046113c9565b6101d0565b005b6101026101123660046113c9565b610311565b61012a6101253660046113fe565b6103cf565b6040519081526020015b60405180910390f35b61015161014b3660046113fe565b50606090565b6040516101349190611419565b61010261016c36600461145d565b610457565b61012a61017f3660046113c9565b61062f565b6101026101923660046113c9565b61084a565b61012a6101a5366004611492565b6108ff565b6101026101b83660046113c9565b610aba565b6101026101cb36600461145d565b610d14565b600081815260076020526040902080546001600160a01b03166102345760405162461bcd60e51b81526020600482015260176024820152764e6f207375636820726573657276616c2065786973747360481b60448201526064015b60405180910390fd5b80546001600160a01b0316331461025d5760405162461bcd60e51b815260040161022b906114e0565b8054610272906001600160a01b031683610f15565b600082815260076020818152604080842080546001600160a01b031990811682556001820180548216905560028201869055600382018054909116905560048101859055600581018590556006810185905590920192909255825481516001600160a01b0390911681529182018490527fc54196fb89f0de06064e8350a77850230e5fc554d1d593a76d12c352deadcdde910160405180910390a15050565b600081815260086020526040902080546001600160a01b03166103465760405162461bcd60e51b815260040161022b9061150f565b6001810154600090815260076020526040902080546001600160a01b031633146103825760405162461bcd60e51b815260040161022b906114e0565b60018281015460408051928352602083019190915281018490527f7c9e91160ddf7baf7154c690eb878e3db5767822c1109de4b4fca9c864e47986906060015b60405180910390a1505050565b600080805b600254811015610450576001600160a01b0384166000908152600960205260408120600280549192918490811061040d5761040d61153d565b60009182526020808320909101546001600160a01b0316835282019290925260400190205461043c9083611569565b91508061044881611581565b9150506103d4565b5092915050565b600081116104a35760405162461bcd60e51b8152602060048201526019602482015278125394d551919250d251539517d25394155517d05353d55395603a1b604482015260640161022b565b3360009081526009602090815260408083206001600160a01b03861684529091529020548111156105095760405162461bcd60e51b815260206004820152601060248201526f139bdd08195b9bdd59da08185cdcd95d60821b604482015260640161022b565b6006546040516323b872dd60e01b81526001600160a01b03918216600482015233602482015260448101839052908316906323b872dd90606401602060405180830381600087803b15801561055d57600080fd5b505af1158015610571573d6000803e3d6000fd5b505050506040513d601f19601f82011682018060405250810190610595919061159c565b503360009081526009602090815260408083206001600160a01b03861684529091529020546105c59082906115be565b3360009081526009602090815260408083206001600160a01b0387168085529083528184209490945580518781529182019390935291820183905260608201527fcb2f4eaca7a319a60e74cc256b1936c05597395e14bb3d2b27a3186be8bcc274906080016103c2565b600081815260076020526040812080546001600160a01b031661068e5760405162461bcd60e51b81526020600482015260176024820152764e6f207375636820726573657276616c2065786973747360481b604482015260640161022b565b6001805490600061069e83611581565b91905055506001549150600060035467ffffffffffffffff8111156106c5576106c56115d5565b6040519080825280602002602001820160405280156106ee578160200160208202803683370190505b509050600060035467ffffffffffffffff81111561070e5761070e6115d5565b604051908082528060200260200182016040528015610737578160200160208202803683370190505b50604080516101608101825233808252602082018990526001808801546001600160a01b0390811684860181905260028a01546060860181905260038b01549092166080860181905260048b015460a0870181905260058c015460c0880181905260e088018c905261010088018a905261012088018e9052610140880195909552965197985094967fda307974aa86f27035cd8c81073664a91b815a537e36377f0f15965e277bfc3696610839968e9593949390928e906001600160a01b0398891681526020810197909752948716604087015260608601939093529416608084015260a083019390935260c082019290925260e08101919091526101000190565b60405180910390a150505050919050565b600081815260086020526040902080546001600160a01b031661087f5760405162461bcd60e51b815260040161022b9061150f565b6001810154600090815260076020526040902080546001600160a01b031633146108bb5760405162461bcd60e51b815260040161022b906114e0565b60018201546040805160008152602081019290925281018490527f7c9e91160ddf7baf7154c690eb878e3db5767822c1109de4b4fca9c864e47986906060016103c2565b600033156109425760405162461bcd60e51b815260206004820152601060248201526f139bdd0813dddb995c881bd98813919560821b604482015260640161022b565b60008054908061095183611581565b919050555060005490506000604051806101000160405280336001600160a01b03168152602001886001600160a01b03168152602001878152602001866001600160a01b03168152602001858152602001848152602001838152602001600081525090506109c3816000015183610f3c565b600082815260076020818152604092839020845181546001600160a01b03199081166001600160a01b03928316908117845587850151600185018054841691851691909117905587870151600285015560608089015160038601805490941690851617909255608080890151600486015560a0808a0151600587015560c0808b0151600688015560e0808c0151979099019690965588519283528f8516968301969096529681018d9052918b169082015293840188905290830186905282018490527fc05e5aabf413dd21ad2fc2ddf043c7cf8b15fac2b9377e04eb257b24a2af3c12910160405180910390a15095945050505050565b600081815260086020526040902080546001600160a01b0316610aef5760405162461bcd60e51b815260040161022b9061150f565b6001810154600090815260076020526040902080546001600160a01b03163314610b2b5760405162461bcd60e51b815260040161022b906114e0565b610b3482610f5e565b610b785760405162461bcd60e51b8152602060048201526015602482015274139bdd08195b9bdd59da0818dbdb1b185d195c985b605a1b604482015260640161022b565b610b8182611035565b610bc25760405162461bcd60e51b815260206004820152601260248201527109cdee840c2d8d8deeecac840cadcdeeaced60731b604482015260640161022b565b60005b6007830154811015610ccb57826007018181548110610be657610be661153d565b60009182526020909120015483546006546008860180546001600160a01b03948516946323b872dd9481169316919086908110610c2557610c2561153d565b6000918252602090912001546040516001600160e01b031960e086901b1681526001600160a01b0393841660048201529290911660248301526044820152606401602060405180830381600087803b158015610c8057600080fd5b505af1158015610c94573d6000803e3d6000fd5b505050506040513d601f19601f82011682018060405250810190610cb8919061159c565b5080610cc381611581565b915050610bc5565b5060078101839055600a8201805460ff191660011790556040517f849b9c9365baf4ef2403308ee92d15dd1da4de6add8ca2ffeacf4358cbe0a757906103c29085815260200190565b600083815260086020526040902080546001600160a01b0316610d495760405162461bcd60e51b815260040161022b9061150f565b80546001600160a01b03163314610d975760405162461bcd60e51b81526020600482015260126024820152712737ba10313abcb2b91037b31037b33332b960711b604482015260640161022b565b60008211610de35760405162461bcd60e51b8152602060048201526019602482015278125394d551919250d251539517d25394155517d05353d55395603a1b604482015260640161022b565b6006546040516323b872dd60e01b81523360048201526001600160a01b03918216602482015260448101849052908416906323b872dd90606401602060405180830381600087803b158015610e3757600080fd5b505af1158015610e4b573d6000803e3d6000fd5b505050506040513d601f19601f82011682018060405250810190610e6f919061159c565b503360009081526009602090815260408083206001600160a01b0387168452909152902054610e9f908390611569565b3360009081526009602090815260408083206001600160a01b0388168085529083529281902093909355825187815290810191909152908101839052600160608201527fcb2f4eaca7a319a60e74cc256b1936c05597395e14bb3d2b27a3186be8bcc2749060800160405180910390a150505050565b6001600160a01b0382166000908152600b60205260409020610f379082611140565b505050565b6001600160a01b0382166000908152600b60205260409020610f3790826111dd565b600080805b6007840154811015610fdf57836008018181548110610f8457610f8461153d565b9060005260206000200154610fc1856007018381548110610fa757610fa761153d565b6000918252602090912001546001600160a01b03166111f2565b610fcb91906115eb565b915080610fd781611581565b915050610f63565b50600683015460058401546004850154600092620186a092909161100b906001600160a01b03166111f2565b61101591906115eb565b61101f91906115eb565b611029919061160a565b91909111159392505050565b600080805b600784015481101561113657600084600701828154811061105d5761105d61153d565b6000918252602090912001548554600654604051636eb1769f60e11b81526001600160a01b039283166004820152908216602482015291169063dd62ed3e9060440160206040518083038186803b1580156110b757600080fd5b505afa1580156110cb573d6000803e3d6000fd5b505050506040513d601f19601f820116820180604052508101906110ef919061162c565b90508460080182815481106111065761110661153d565b906000526020600020015481101561112357506000949350505050565b508061112e81611581565b91505061103a565b5060019392505050565b600081158061115657506111548383611270565b155b15611163575060006111d7565b6000828152600184810160209081526040808420848052909152808320548284529220546111959286929091906112f4565b600082815260018481016020908152604080842084805290915280832083905581835282208290558454909185916111ce9084906115be565b90915550829150505b92915050565b60006111eb83836000611329565b9392505050565b6005546040516315d5220f60e31b81526001600160a01b038381166004830152600092169063aea910789060240160206040518083038186803b15801561123857600080fd5b505afa15801561124c573d6000803e3d6000fd5b505050506040513d601f19601f820116820180604052508101906111d7919061162c565b600081815260018301602090815260408083208380529091528120541580156112b357506000828152600180850160209081526040808420928452919052902054155b156112ec5760008080526001808501602090815260408084209284529190529020548214156112e4575060016111d7565b5060006111d7565b5060016111d7565b600082815260019094016020818152604080872093158088529382528087208690559486529081528385209115855252912055565b60006113388460008585611340565b949350505050565b600061134c8584611270565b15801561135e575061135e8585611270565b156113be5760008481526001860160209081526040808320851515845290915290205461138d868686866112f4565b611399868583866112f4565b60018660000160008282546113ae9190611569565b9091555060019250611338915050565b506000949350505050565b6000602082840312156113db57600080fd5b5035919050565b80356001600160a01b03811681146113f957600080fd5b919050565b60006020828403121561141057600080fd5b6111eb826113e2565b6020808252825182820181905260009190848201906040850190845b8181101561145157835183529284019291840191600101611435565b50909695505050505050565b60008060006060848603121561147257600080fd5b83359250611482602085016113e2565b9150604084013590509250925092565b600080600080600060a086880312156114aa57600080fd5b6114b3866113e2565b9450602086013593506114c8604087016113e2565b94979396509394606081013594506080013592915050565b602080825260159082015274139bdd081bdddb995c881bd9881c995cd95c9d985b605a1b604082015260600190565b6020808252601490820152734e6f2073756368206f666665722065786973747360601b604082015260600190565b634e487b7160e01b600052603260045260246000fd5b634e487b7160e01b600052601160045260246000fd5b6000821982111561157c5761157c611553565b500190565b600060001982141561159557611595611553565b5060010190565b6000602082840312156115ae57600080fd5b815180151581146111eb57600080fd5b6000828210156115d0576115d0611553565b500390565b634e487b7160e01b600052604160045260246000fd5b600081600019048311821515161561160557611605611553565b500290565b60008261162757634e487b7160e01b600052601260045260246000fd5b500490565b60006020828403121561163e57600080fd5b505191905056fea264697066735822122005156391102923635ba68960adbfa30eb0a68be4def24d4a2ec91edd785c7f7a64736f6c63430008090033",
  "immutableReferences": {},
  "source": "// SPDX-License-Identifier: MIT\r\npragma solidity >=0.8.0 <0.9.0;\r\n\r\nimport {IERC721} from \"@openzeppelin/contracts/token/ERC721/IERC721.sol\";\r\nimport {IERC20} from \"@openzeppelin/contracts/token/ERC20/IERC20.sol\";\r\nimport {IERC721Metadata} from \"@openzeppelin/contracts/token/ERC721/extensions/IERC721Metadata.sol\";\r\nimport {IERC20Metadata} from \"@openzeppelin/contracts/token/ERC20/extensions/IERC20Metadata.sol\";\r\nimport \"@openzeppelin/contracts/token/ERC20/ERC20.sol\";\r\nimport \"solidity-linked-list/contracts/StructuredLinkedList.sol\";\r\nimport {IPriceOracle} from \"./interface/IPriceOracle.sol\";\r\nimport {NFTVault} from \"./NFTVault.sol\";\r\n\r\n/*\r\nOWNER:\r\n-  Whitelist asset to be open to receive Reserval Offers. He may (start with his own initial offer). IMPORTANT: if the owner sets an offer you get only the approval of the Owner ffor the NFT to the contract but the NFT is NOT LOCKED at this stage\r\n-  Owner can remove from whitelist without any cost as long as no offer has been accepted first.\r\n-  Owner can accept an offer. At this stage NFT is locked on the contract\r\n-  Owner can withdraw collateral deposited by the buyer at any moment\r\n-  If owner wants to cancel the Reserval (Reserval), he needs to payback what he withdrawn +a fee\r\nBUYER:\r\n-  Buyer can set offers for whitelisted NFTs. IMPORTANT: the offer does not lock the collateral of the buyer. It only gets the proposal for that toekns aand amoiunt to the contrract. For example if i propose 10K SHIB, I approve the contract but i do not lock them.\r\n-  Buyer can reserve NFT directly if the owner has some offer\r\n-  Buyer needs to keep a level of collateral. Otherwise can be liquidaated and lose it.\r\n-  If collateral goes below the ratio, buyer needs to deposit more collateral.\r\n-  At future (expiration) the buyer needs to pay the Reserve Price within a period of 5 days max. If not, he loses the Reserval of buying\r\n*/\r\n\r\ncontract NFTReservalManager {\r\n  using StructuredLinkedList for StructuredLinkedList.List;\r\n  uint256 private constant PCT_DIVIDER = 100000;\r\n\r\n  event OReservalCreated(\r\n    address owner,\r\n    address nft,\r\n    uint256 expiry,\r\n    address token,\r\n    uint256 price,\r\n    uint256 pct,\r\n    uint256 reservalID\r\n  );\r\n\r\n  event OReservalCanceled(\r\n    address owner,\r\n    uint256 reservalID\r\n  );\r\n\r\n  event BOfferCreated(\r\n    address buyer,\r\n    uint256 reservalID,\r\n    address nft,\r\n    uint256 expiry,\r\n    address token,\r\n    uint256 price,\r\n    uint256 pct,\r\n    uint256 offerID\r\n  );\r\n\r\n  event OOfferAccepted(\r\n    uint256 offerID\r\n  );\r\n\r\n  event Assigned(\r\n    bool assigned,\r\n    uint256 reservalID,\r\n    uint256 offerID\r\n  );\r\n  \r\n  event CollateralDepost(\r\n    uint256 offerID,\r\n    address token,\r\n    uint256 amount,\r\n    bool isDeposit\r\n  );\r\n  \r\n  struct NFTReserval {\r\n    address owner;\r\n    address nft;\r\n    uint256 expiry;\r\n    address token;\r\n    uint256 price;\r\n    uint256 pct;\r\n    uint256 reservalID;\r\n    uint256 acceptedOfferID;\r\n  }\r\n\r\n  struct Offer {\r\n    address buyer;\r\n    uint256 reservalID;\r\n    address nft;\r\n    uint256 expiry;\r\n    address token;\r\n    uint256 price;\r\n    uint256 pct;\r\n    address[] colTokens;\r\n    uint256[] colAmounts;\r\n    uint256 offerID;\r\n    bool accepted;\r\n  }\r\n\r\n  uint256 cntReserval;\r\n  uint256 cntOffer;\r\n  address[] tokens;\r\n  uint256 TOKEN_CNT;\r\n  address nftVault;\r\n  address priceOracle;\r\n  address admin;\r\n\r\n  mapping(uint256 => NFTReserval) reservals;\r\n  mapping(uint256 => Offer) offers;\r\n\r\n  mapping(address => mapping (address => uint256)) reserves;\r\n  mapping(address => bool) validToken;\r\n\r\n  mapping(address => StructuredLinkedList.List) listReserval;\r\n  mapping(address => StructuredLinkedList.List) listOffer;\r\n  mapping(uint256 => StructuredLinkedList.List) listOfferReq;\r\n\r\n  constructor(\r\n    address[] memory _tokens,\r\n    address _nftVault,\r\n    address _priceOracle\r\n  ) public {\r\n    tokens = _tokens;\r\n    nftVault = _nftVault;\r\n    priceOracle = _priceOracle;\r\n    admin = address(this);\r\n    TOKEN_CNT = _tokens.length;\r\n    for (uint i = 0; i < TOKEN_CNT; i++) {\r\n        validToken[_tokens[i]] = true;\r\n    }\r\n    cntReserval = 0;\r\n    cntOffer = 0;\r\n  }\r\n  \r\n  function createReserval(\r\n    address nft,\r\n    uint256 expiry,\r\n    address token,\r\n    uint256 price,\r\n    uint256 pct\r\n  ) external returns (uint256 reservalID) {\r\n    require(msg.sender == _nftOwner(nft), \"Not Owner of NFT\");\r\n    cntReserval++;\r\n    reservalID = cntReserval;\r\n    NFTReserval memory reserval = NFTReserval(msg.sender, nft, expiry, token, price, pct, reservalID, 0);\r\n\r\n    _reserval_add(reserval.owner, reservalID);\r\n    reservals[reservalID] = reserval;\r\n    \r\n    emit OReservalCreated(reserval.owner, nft, expiry, token, price, pct, reservalID);\r\n  }\r\n  \r\n  function cancelReserval(\r\n    uint256 reservalID\r\n  ) external {\r\n    NFTReserval storage reserval = _getReserval(reservalID);\r\n    require(reserval.owner != address(0), \"No such reserval exists\");\r\n    require(reserval.owner == msg.sender, \"Not owner of reserval\");\r\n\r\n    _reserval_remove(reserval.owner, reservalID);\r\n    delete reservals[reservalID];\r\n    \r\n    emit OReservalCanceled(reserval.owner, reservalID);\r\n  }\r\n  \r\n  function createOffer(\r\n    uint256 reservalID\r\n  ) external returns (uint256 offerID) {\r\n    NFTReserval storage reserval = _getReserval(reservalID);\r\n    require(reserval.owner != address(0), \"No such reserval exists\");\r\n\r\n    cntOffer++;\r\n    offerID = cntOffer;\r\n    address[] memory colTokens = new address[](TOKEN_CNT);\r\n    uint256[] memory colAmounts = new uint256[](TOKEN_CNT);\r\n\r\n    Offer memory offer = Offer(\r\n      msg.sender,\r\n      reservalID,\r\n      reserval.nft,\r\n      reserval.expiry,\r\n      reserval.token,\r\n      reserval.price,\r\n      reserval.pct,\r\n      colTokens,\r\n      colAmounts,\r\n      offerID,\r\n      true\r\n      );\r\n\r\n    emit BOfferCreated(\r\n      offer.buyer,\r\n      reservalID,\r\n      reserval.nft,\r\n      reserval.expiry,\r\n      reserval.token,\r\n      reserval.price,\r\n      reserval.pct,\r\n      offerID\r\n      );\r\n  }\r\n\r\n  function acceptOffer(\r\n    uint256 offerID\r\n  ) external {\r\n    Offer storage offer = _getOffer(offerID);\r\n    require(offer.buyer != address(0), \"No such offer exists\");\r\n    \r\n    NFTReserval storage reserval = _getReserval(offer.reservalID);\r\n    require(msg.sender == reserval.owner, \"Not owner of reserval\");\r\n\r\n    require(_checkCollateral(offer), \"Not enough collateral\");\r\n    require(_checkAllownce(offer), \"Not allowed enough\"); \r\n    for (uint i = 0; i < offer.colTokens.length; i++) {\r\n      IERC20(offer.colTokens[i]).transferFrom(offer.buyer, admin, offer.colAmounts[i]);\r\n    }\r\n    _lockNFT(reserval.nft);\r\n\r\n    reserval.acceptedOfferID = offerID;\r\n    offer.accepted = true;\r\n\r\n    emit OOfferAccepted(offerID);\r\n  }\r\n\r\n  function assignOffer(\r\n    uint256 offerID\r\n  ) external {\r\n    Offer storage offer = _getOffer(offerID);\r\n    require(offer.buyer != address(0), \"No such offer exists\");\r\n    \r\n    NFTReserval storage reserval = _getReserval(offer.reservalID);\r\n    require(msg.sender == reserval.owner, \"Not owner of reserval\");\r\n\r\n    //_processAssign(true);\r\n\r\n    emit Assigned(true, offer.reservalID, offerID);\r\n  }\r\n\r\n  function unassignOffer(\r\n    uint256 offerID\r\n  ) external {\r\n    Offer storage offer = _getOffer(offerID);\r\n    require(offer.buyer != address(0), \"No such offer exists\");\r\n    \r\n    NFTReserval storage reserval = _getReserval(offer.reservalID);\r\n    require(msg.sender == reserval.owner, \"Not owner of reserval\");\r\n\r\n    //_processAssign(false);\r\n\r\n    emit Assigned(false, offer.reservalID, offerID);\r\n  }\r\n\r\n  function depositCollateral(\r\n    uint256 offerID,\r\n    address token,\r\n    uint256 amount\r\n  ) external {\r\n    Offer storage offer = _getOffer(offerID);\r\n    require(offer.buyer != address(0), \"No such offer exists\");\r\n    require(msg.sender == offer.buyer, \"Not buyer of offer\");\r\n\r\n    require(amount > 0, \"INSUFFICIENT_INPUT_AMOUNT\");\r\n    IERC20(token).transferFrom(msg.sender, admin, amount);\r\n    reserves[msg.sender][token] = reserves[msg.sender][token] + amount;\r\n\r\n    emit CollateralDepost(offerID, token, amount, true);\r\n  }\r\n\r\n  function withdrawCollateral(\r\n    uint256 offerID,\r\n    address token,\r\n    uint256 amount\r\n  ) external {\r\n    require(amount > 0, \"INSUFFICIENT_INPUT_AMOUNT\");\r\n\r\n    require(reserves[msg.sender][token] >= amount, \"Not enough asset\");\r\n    IERC20(token).transferFrom(admin, msg.sender, amount);\r\n    reserves[msg.sender][token] = reserves[msg.sender][token] - amount;\r\n\r\n    emit CollateralDepost(offerID, token, amount, false);\r\n  }\r\n\r\n  function recover(\r\n  ) external {\r\n  }\r\n\r\n  function totalAssetUSD(\r\n    address user\r\n  ) external returns (uint256) {\r\n    uint256 total = 0;\r\n    for (uint i = 0; i < tokens.length; i++) {\r\n      total += reserves[user][tokens[i]];\r\n    }\r\n    return total;\r\n  }\r\n\r\n  function getNFTReservals(address owner) external returns (uint256[] memory reservalIDs) {\r\n\r\n  }\r\n\r\n  function getOffers(address buyer) external returns (uint256[] memory offerIDs) {\r\n\r\n  }\r\n\r\n  function getOfferReqs(address owner) external returns (uint256[] memory offerIDs) {\r\n\r\n  }\r\n\r\n  function checkAssign() external {\r\n  }\r\n\r\n  function _getReserval(uint256 reservalID) private returns (NFTReserval storage) {\r\n    return reservals[reservalID];\r\n  }\r\n\r\n  function _getOffer(uint256 offerID) private returns (Offer storage) {\r\n    return offers[offerID];\r\n  }\r\n\r\n  function _nftOwner(address nft) private returns (address) {\r\n    // not completed yet\r\n\r\n    return address(0);\r\n  }\r\n\r\n  function _lockNFT(address nft) private {\r\n    // not completed yet\r\n  }\r\n\r\n  function _tokenToUSD(address token) private returns (uint256) {\r\n    // not completed yet\r\n    return IPriceOracle(priceOracle).price(token);\r\n  }\r\n\r\n  function _checkCollateral(Offer storage offer) private returns (bool) {\r\n    uint256 totalUSD = 0;\r\n    for (uint i = 0; i < offer.colTokens.length; i++) {\r\n      totalUSD = _tokenToUSD(offer.colTokens[i]) * offer.colAmounts[i];\r\n    }\r\n    uint256 requiredUSD = _tokenToUSD(offer.token) * offer.price * offer.pct / PCT_DIVIDER;\r\n    return requiredUSD <= totalUSD;\r\n  }\r\n\r\n  function _checkAllownce(Offer storage offer) private returns (bool) {\r\n    uint256 totalUSD = 0;\r\n    for (uint i = 0; i < offer.colTokens.length; i++) {\r\n      uint256 allownce = IERC20(offer.colTokens[i]).allowance(offer.buyer, admin);\r\n      if (allownce < offer.colAmounts[i]) return false;\r\n    }\r\n    return true;\r\n  }\r\n\r\n  //-------------------------------------------------------------------------------//\r\n  //--------------------------- Linked List functions -----------------------------//\r\n  //-------------------------------------------------------------------------------//\r\n  function _reserval_add(address owner, uint256 reservalID) private {\r\n    StructuredLinkedList.pushBack(listReserval[owner], reservalID);\r\n  }\r\n\r\n  function _reserval_remove(address owner, uint256 reservalID) private {\r\n    StructuredLinkedList.remove(listReserval[owner], reservalID);\r\n  }\r\n\r\n  function _offer_add(address buyer, uint256 offerID) private {\r\n    StructuredLinkedList.pushBack(listOffer[buyer], offerID);\r\n  }\r\n\r\n  function _offer_remove(address buyer, uint256 offerID) private {\r\n    StructuredLinkedList.remove(listOffer[buyer], offerID);\r\n  }\r\n\r\n  function _offerReq_add(uint256 reservalID, uint256 offerID) private {\r\n    StructuredLinkedList.pushBack(listOfferReq[reservalID], offerID);\r\n  }\r\n\r\n  function _offerReq_remove(uint256 reservalID, uint256 offerID) private {\r\n    StructuredLinkedList.remove(listOfferReq[reservalID], offerID);\r\n  }\r\n  //-------------------------------------------------------------------------------//\r\n}\r\n",
  "sourcePath": "E:\\Projects\\Privi2\\PriviNFTOptions\\privi-NFT-buying\\contracts\\NFTReservalManager.sol",
  "compiler": {
    "name": "solc",
    "version": "0.8.9+commit.e5eed63a.Emscripten.clang"
  },
  "schemaVersion": "3.4.3",
  "updatedAt": "2021-11-04T15:21:49.906Z",
  "devdoc": {
    "kind": "dev",
    "methods": {},
    "version": 1
  },
  "userdoc": {
    "kind": "user",
    "methods": {},
    "version": 1
  }
}