{
  "contractName": "NFTReservalManager",
  "abi": [
    {
      "inputs": [
        {
          "internalType": "address",
          "name": "_priceOracle",
          "type": "address"
        }
      ],
      "stateMutability": "nonpayable",
      "type": "constructor"
    },
    {
      "anonymous": false,
      "inputs": [
        {
          "indexed": false,
          "internalType": "bool",
          "name": "assigned",
          "type": "bool"
        },
        {
          "indexed": false,
          "internalType": "uint256",
          "name": "reservalID",
          "type": "uint256"
        },
        {
          "indexed": false,
          "internalType": "uint256",
          "name": "offerID",
          "type": "uint256"
        }
      ],
      "name": "EAssigned",
      "type": "event"
    },
    {
      "anonymous": false,
      "inputs": [
        {
          "indexed": false,
          "internalType": "uint256",
          "name": "offerID",
          "type": "uint256"
        },
        {
          "indexed": false,
          "internalType": "address",
          "name": "token",
          "type": "address"
        },
        {
          "indexed": false,
          "internalType": "uint256",
          "name": "amount",
          "type": "uint256"
        },
        {
          "indexed": false,
          "internalType": "bool",
          "name": "isDeposit",
          "type": "bool"
        }
      ],
      "name": "ECollateralDeposit",
      "type": "event"
    },
    {
      "anonymous": false,
      "inputs": [
        {
          "indexed": false,
          "internalType": "uint256",
          "name": "offerID",
          "type": "uint256"
        }
      ],
      "name": "EOfferAccepted",
      "type": "event"
    },
    {
      "anonymous": false,
      "inputs": [
        {
          "indexed": false,
          "internalType": "address",
          "name": "buyer",
          "type": "address"
        },
        {
          "indexed": false,
          "internalType": "uint256",
          "name": "offerID",
          "type": "uint256"
        }
      ],
      "name": "EOfferCanceled",
      "type": "event"
    },
    {
      "anonymous": false,
      "inputs": [
        {
          "indexed": false,
          "internalType": "address",
          "name": "buyer",
          "type": "address"
        },
        {
          "indexed": false,
          "internalType": "uint256",
          "name": "reservalID",
          "type": "uint256"
        },
        {
          "indexed": false,
          "internalType": "address",
          "name": "nft",
          "type": "address"
        },
        {
          "indexed": false,
          "internalType": "uint256",
          "name": "nftID",
          "type": "uint256"
        },
        {
          "indexed": false,
          "internalType": "uint256",
          "name": "expiry",
          "type": "uint256"
        },
        {
          "indexed": false,
          "internalType": "address",
          "name": "token",
          "type": "address"
        },
        {
          "indexed": false,
          "internalType": "uint256",
          "name": "price",
          "type": "uint256"
        },
        {
          "indexed": false,
          "internalType": "uint256",
          "name": "pct",
          "type": "uint256"
        },
        {
          "indexed": false,
          "internalType": "uint256",
          "name": "offerID",
          "type": "uint256"
        }
      ],
      "name": "EOfferUpdated",
      "type": "event"
    },
    {
      "anonymous": false,
      "inputs": [
        {
          "indexed": false,
          "internalType": "address",
          "name": "owner",
          "type": "address"
        },
        {
          "indexed": false,
          "internalType": "uint256",
          "name": "reservalID",
          "type": "uint256"
        }
      ],
      "name": "EReservalCanceled",
      "type": "event"
    },
    {
      "anonymous": false,
      "inputs": [
        {
          "indexed": false,
          "internalType": "address",
          "name": "owner",
          "type": "address"
        },
        {
          "indexed": false,
          "internalType": "address",
          "name": "nft",
          "type": "address"
        },
        {
          "indexed": false,
          "internalType": "uint256",
          "name": "nftID",
          "type": "uint256"
        },
        {
          "indexed": false,
          "internalType": "uint256",
          "name": "expiry",
          "type": "uint256"
        },
        {
          "indexed": false,
          "internalType": "address",
          "name": "token",
          "type": "address"
        },
        {
          "indexed": false,
          "internalType": "uint256",
          "name": "price",
          "type": "uint256"
        },
        {
          "indexed": false,
          "internalType": "uint256",
          "name": "pct",
          "type": "uint256"
        },
        {
          "indexed": false,
          "internalType": "uint256",
          "name": "reservalID",
          "type": "uint256"
        }
      ],
      "name": "EReservalUpdated",
      "type": "event"
    },
    {
      "anonymous": false,
      "inputs": [
        {
          "indexed": false,
          "internalType": "uint256",
          "name": "offerID",
          "type": "uint256"
        }
      ],
      "name": "EReservePayed",
      "type": "event"
    },
    {
      "inputs": [
        {
          "internalType": "address[]",
          "name": "_tokens",
          "type": "address[]"
        }
      ],
      "name": "registerValidToken",
      "outputs": [],
      "stateMutability": "nonpayable",
      "type": "function"
    },
    {
      "inputs": [
        {
          "internalType": "address",
          "name": "nft",
          "type": "address"
        },
        {
          "internalType": "uint256",
          "name": "nftID",
          "type": "uint256"
        },
        {
          "internalType": "uint256",
          "name": "expiry",
          "type": "uint256"
        },
        {
          "internalType": "address",
          "name": "token",
          "type": "address"
        },
        {
          "internalType": "uint256",
          "name": "price",
          "type": "uint256"
        },
        {
          "internalType": "uint256",
          "name": "pct",
          "type": "uint256"
        },
        {
          "internalType": "uint256",
          "name": "id",
          "type": "uint256"
        }
      ],
      "name": "updateReserval",
      "outputs": [
        {
          "internalType": "uint256",
          "name": "reservalID",
          "type": "uint256"
        }
      ],
      "stateMutability": "nonpayable",
      "type": "function"
    },
    {
      "inputs": [
        {
          "internalType": "uint256",
          "name": "reservalID",
          "type": "uint256"
        }
      ],
      "name": "cancelReserval",
      "outputs": [],
      "stateMutability": "nonpayable",
      "type": "function"
    },
    {
      "inputs": [
        {
          "internalType": "uint256",
          "name": "reservalID",
          "type": "uint256"
        },
        {
          "internalType": "address",
          "name": "nft",
          "type": "address"
        },
        {
          "internalType": "uint256",
          "name": "nftID",
          "type": "uint256"
        },
        {
          "internalType": "uint256",
          "name": "expiry",
          "type": "uint256"
        },
        {
          "internalType": "address",
          "name": "token",
          "type": "address"
        },
        {
          "internalType": "uint256",
          "name": "price",
          "type": "uint256"
        },
        {
          "internalType": "uint256",
          "name": "pct",
          "type": "uint256"
        },
        {
          "internalType": "uint256",
          "name": "id",
          "type": "uint256"
        }
      ],
      "name": "updateOffer",
      "outputs": [
        {
          "internalType": "uint256",
          "name": "offerID",
          "type": "uint256"
        }
      ],
      "stateMutability": "nonpayable",
      "type": "function"
    },
    {
      "inputs": [
        {
          "internalType": "uint256",
          "name": "offerID",
          "type": "uint256"
        }
      ],
      "name": "cancelOffer",
      "outputs": [],
      "stateMutability": "nonpayable",
      "type": "function"
    },
    {
      "inputs": [
        {
          "internalType": "uint256",
          "name": "offerID",
          "type": "uint256"
        }
      ],
      "name": "acceptOffer",
      "outputs": [],
      "stateMutability": "nonpayable",
      "type": "function"
    },
    {
      "inputs": [
        {
          "internalType": "uint256",
          "name": "offerID",
          "type": "uint256"
        }
      ],
      "name": "assignOffer",
      "outputs": [],
      "stateMutability": "nonpayable",
      "type": "function"
    },
    {
      "inputs": [
        {
          "internalType": "uint256",
          "name": "offerID",
          "type": "uint256"
        }
      ],
      "name": "payReserve",
      "outputs": [],
      "stateMutability": "nonpayable",
      "type": "function"
    },
    {
      "inputs": [
        {
          "internalType": "uint256",
          "name": "offerID",
          "type": "uint256"
        },
        {
          "internalType": "address",
          "name": "token",
          "type": "address"
        },
        {
          "internalType": "uint256",
          "name": "amount",
          "type": "uint256"
        }
      ],
      "name": "depositCollateral",
      "outputs": [],
      "stateMutability": "nonpayable",
      "type": "function"
    },
    {
      "inputs": [
        {
          "internalType": "uint256",
          "name": "offerID",
          "type": "uint256"
        },
        {
          "internalType": "address",
          "name": "token",
          "type": "address"
        },
        {
          "internalType": "uint256",
          "name": "amount",
          "type": "uint256"
        }
      ],
      "name": "withdrawCollateral",
      "outputs": [],
      "stateMutability": "nonpayable",
      "type": "function"
    },
    {
      "inputs": [
        {
          "internalType": "address",
          "name": "owner",
          "type": "address"
        }
      ],
      "name": "getNFTReservals",
      "outputs": [
        {
          "internalType": "uint256[]",
          "name": "",
          "type": "uint256[]"
        }
      ],
      "stateMutability": "nonpayable",
      "type": "function"
    },
    {
      "inputs": [
        {
          "internalType": "address",
          "name": "buyer",
          "type": "address"
        }
      ],
      "name": "getOffers",
      "outputs": [
        {
          "internalType": "uint256[]",
          "name": "",
          "type": "uint256[]"
        }
      ],
      "stateMutability": "nonpayable",
      "type": "function"
    },
    {
      "inputs": [
        {
          "internalType": "uint256",
          "name": "reservalID",
          "type": "uint256"
        }
      ],
      "name": "getOfferReqs",
      "outputs": [
        {
          "internalType": "uint256[]",
          "name": "",
          "type": "uint256[]"
        }
      ],
      "stateMutability": "nonpayable",
      "type": "function"
    },
    {
      "inputs": [
        {
          "internalType": "uint256",
          "name": "reservalID",
          "type": "uint256"
        }
      ],
      "name": "getReserval",
      "outputs": [
        {
          "components": [
            {
              "internalType": "address",
              "name": "owner",
              "type": "address"
            },
            {
              "internalType": "address",
              "name": "nft",
              "type": "address"
            },
            {
              "internalType": "uint256",
              "name": "nftID",
              "type": "uint256"
            },
            {
              "internalType": "uint256",
              "name": "expiry",
              "type": "uint256"
            },
            {
              "internalType": "address",
              "name": "token",
              "type": "address"
            },
            {
              "internalType": "uint256",
              "name": "price",
              "type": "uint256"
            },
            {
              "internalType": "uint256",
              "name": "pct",
              "type": "uint256"
            },
            {
              "internalType": "uint256",
              "name": "reservalID",
              "type": "uint256"
            },
            {
              "internalType": "uint256",
              "name": "acceptedOfferID",
              "type": "uint256"
            }
          ],
          "internalType": "struct NFTReservalManager.NFTReserval",
          "name": "reserval",
          "type": "tuple"
        }
      ],
      "stateMutability": "nonpayable",
      "type": "function"
    },
    {
      "inputs": [
        {
          "internalType": "uint256",
          "name": "offerID",
          "type": "uint256"
        }
      ],
      "name": "getOffer",
      "outputs": [
        {
          "components": [
            {
              "internalType": "address",
              "name": "buyer",
              "type": "address"
            },
            {
              "internalType": "uint256",
              "name": "reservalID",
              "type": "uint256"
            },
            {
              "internalType": "address",
              "name": "nft",
              "type": "address"
            },
            {
              "internalType": "uint256",
              "name": "nftID",
              "type": "uint256"
            },
            {
              "internalType": "uint256",
              "name": "expiry",
              "type": "uint256"
            },
            {
              "internalType": "address",
              "name": "token",
              "type": "address"
            },
            {
              "internalType": "uint256",
              "name": "price",
              "type": "uint256"
            },
            {
              "internalType": "uint256",
              "name": "pct",
              "type": "uint256"
            },
            {
              "internalType": "address[]",
              "name": "colTokens",
              "type": "address[]"
            },
            {
              "internalType": "uint256[]",
              "name": "colAmounts",
              "type": "uint256[]"
            },
            {
              "internalType": "uint256",
              "name": "offerID",
              "type": "uint256"
            },
            {
              "internalType": "bool",
              "name": "accepted",
              "type": "bool"
            },
            {
              "internalType": "bool",
              "name": "reservePayed",
              "type": "bool"
            }
          ],
          "internalType": "struct NFTReservalManager.Offer",
          "name": "offer",
          "type": "tuple"
        }
      ],
      "stateMutability": "nonpayable",
      "type": "function"
    }
  ],
  "bytecode": "0x60806040523480156200001157600080fd5b506040516200379938038062003799833981016040819052620000349162000171565b60408051600081526020810191829052516200005391600291620000e2565b50600680546001600160a01b0319163090811790915560405162000077906200014c565b6001600160a01b039091168152602001604051809103906000f080158015620000a4573d6000803e3d6000fd5b50600480546001600160a01b039283166001600160a01b031991821617909155600580549390921692169190911790556000808055600155620001a3565b8280548282559060005260206000209081019282156200013a579160200282015b828111156200013a57825182546001600160a01b0319166001600160a01b0390911617825560209092019160019091019062000103565b50620001489291506200015a565b5090565b6105e580620031b483390190565b5b808211156200014857600081556001016200015b565b6000602082840312156200018457600080fd5b81516001600160a01b03811681146200019c57600080fd5b9392505050565b61300180620001b36000396000f3fe608060405234801561001057600080fd5b50600436106100f55760003560e01c8063b0364b6711610097578063de9d62de11610066578063de9d62de14610275578063ebea51b414610288578063ef706adf1461029b578063f61d5e88146102ae57600080fd5b8063b0364b6714610229578063c815729d1461023c578063cbd322181461024f578063d2ac6c441461026257600080fd5b80632d86c000116100d35780632d86c000146101b55780634579268a146101d55780637d9fb077146101f557806399ea56b01461021657600080fd5b806306a7ad64146100fa57806319752d251461010f57806324af54b6146101a2575b600080fd5b61010d61010836600461299c565b6102c1565b005b61012261011d36600461299c565b6103d9565b604051610199919081516001600160a01b03908116825260208084015182169083015260408084015190830152606080840151908301526080808401519091169082015260a0808301519082015260c0808301519082015260e0808301519082015261010091820151918101919091526101200190565b60405180910390f35b61010d6101b036600461299c565b6104f1565b6101c86101c33660046129da565b61094f565b60405161019991906129f7565b6101e86101e336600461299c565b610979565b6040516101999190612aaf565b610208610203366004612bae565b610b8d565b604051908152602001610199565b61010d610224366004612c13565b610e72565b6101c861023736600461299c565b61111c565b61010d61024a36600461299c565b611136565b61010d61025d36600461299c565b6113de565b61010d610270366004612c61565b611587565b6101c86102833660046129da565b61160d565b61010d610296366004612c13565b611631565b61010d6102a936600461299c565b6118af565b6102086102bc366004612d26565b611a43565b600081815260076020526040902080546001600160a01b03166102ff5760405162461bcd60e51b81526004016102f690612d95565b60405180910390fd5b80546001600160a01b031633146103285760405162461bcd60e51b81526004016102f690612dcc565b805461033d906001600160a01b031683611f6b565b600082815260076020818152604080842080546001600160a01b031990811682556001820180548216905560028201869055600382018690556004820180549091169055600581018590556006810185905592830184905560089092019290925580513381529182018490527f9217e92f1b3644099e21b80e65d8f8287f3e6bb0cbf70fd7db40abc2e308254291015b60405180910390a15050565b61044360405180610120016040528060006001600160a01b0316815260200160006001600160a01b03168152602001600081526020016000815260200160006001600160a01b03168152602001600081526020016000815260200160008152602001600081525090565b600082815260076020526040902080546001600160a01b03166104785760405162461bcd60e51b81526004016102f690612d95565b604080516101208101825282546001600160a01b0390811682526001840154811660208301526002840154928201929092526003830154606082015260048301549091166080820152600582015460a0820152600682015460c0820152600782015460e082015260089091015461010082015292915050565b600081815260086020526040902080546001600160a01b03166105265760405162461bcd60e51b81526004016102f690612dfb565b600b81015460ff1661054a5760405162461bcd60e51b81526004016102f690612e29565b6001810154600090815260076020526040902080546001600160a01b031633146105865760405162461bcd60e51b81526004016102f690612dcc565b600b820154610100900460ff16156105e3578054600583015460068401546105bb926001600160a01b03908116921690611f92565b6002820154600383015483546105de926001600160a01b039081169291166120d4565b6107cf565b600782015460068301546005840154600092620186a092909161060e906001600160a01b0316612149565b6106189190612e6b565b6106229190612e6b565b61062c9190612e8a565b905060005b60088401548110156107cc57600061067185600801838154811061065757610657612eac565b6000918252602090912001546001600160a01b0316612149565b61067b9084612e8a565b905084600901828154811061069257610692612eac565b90600052602060002001548111156106c7578460090182815481106106b9576106b9612eac565b906000526020600020015490505b6000818660090184815481106106df576106df612eac565b90600052602060002001546106f49190612ec2565b9050811561076f578161071587600801858154811061065757610657612eac565b61071f9190612e6b565b6107299085612ec2565b855460088801805492965061076f926001600160a01b03909216918690811061075457610754612eac565b6000918252602090912001546001600160a01b031684611f92565b80156107b75785546008870180546107b7926001600160a01b031691908690811061079c5761079c612eac565b6000918252602090912001546001600160a01b031683611f92565b505080806107c490612ed9565b915050610631565b50505b805460078201546107e9916001600160a01b031690611f6b565b81546107fe906001600160a01b0316846121c7565b61080c8260010154846121e9565b600b82015460018301546040805161010090930460ff1615158352602083019190915281018490527fe73d115bebeed704ea17fe3828b1ba9467a8b3e93f71fb62ade207db831569249060600160405180910390a16000838152600860208190526040822080546001600160a01b03199081168255600182018490556002820180548216905560038201849055600482018490556005820180549091169055600681018390556007810183905591906108c7908301826128c6565b6108d56009830160006128c6565b506000600a8201819055600b909101805461ffff19169055600791820154815260208290526040812080546001600160a01b03199081168255600182018054821690556002820183905560038201839055600482018054909116905560058101829055600681018290559182018190556008909101555050565b6001600160a01b0381166000908152600b6020526040902060609061097390612201565b92915050565b610a03604051806101a0016040528060006001600160a01b031681526020016000815260200160006001600160a01b03168152602001600081526020016000815260200160006001600160a01b0316815260200160008152602001600081526020016060815260200160608152602001600081526020016000151581526020016000151581525090565b600082815260086020526040902080546001600160a01b0316610a385760405162461bcd60e51b81526004016102f690612dfb565b604080516101a08101825282546001600160a01b039081168252600184015460208084019190915260028501548216838501526003850154606084015260048501546080840152600585015490911660a0830152600684015460c0830152600784015460e083015260088401805484518184028101840190955280855292938593610100860193919291830182828015610afb57602002820191906000526020600020905b81546001600160a01b03168152600190910190602001808311610add575b5050505050815260200160098201805480602002602001604051908101604052809291908181526020018280548015610b5357602002820191906000526020600020905b815481526020019060010190808311610b3f575b5050509183525050600a8201546020820152600b9091015460ff808216151560408401526101009091041615156060909101529392505050565b6000610b9988886122ad565b6001600160a01b0316336001600160a01b031614610bec5760405162461bcd60e51b815260206004820152601060248201526f139bdd0813dddb995c881bd98813919560821b60448201526064016102f6565b8115610cca5750600081815260076020526040902080548291906001600160a01b0316610c2b5760405162461bcd60e51b81526004016102f690612d95565b80546001600160a01b03163314610c545760405162461bcd60e51b81526004016102f690612dcc565b8054610c69906001600160a01b031683611f6b565b506000818152600760208190526040822080546001600160a01b031990811682556001820180548216905560028201849055600382018490556004820180549091169055600581018390556006810183905590810182905560080155610ce4565b600080549080610cd983612ed9565b919050555060005490505b6040805161012081018252338082526001600160a01b038b811660208401529282018a905260608201899052918716608082015260a0810186905260c0810185905260e08101839052600061010082015290610d409083612340565b600082815260076020818152604092839020845181546001600160a01b038083166001600160a01b0319928316178455938701516001840180549186169183169190911790558587015160028401556060870151600384015560808701516004840180549190951691161790925560a0850151600582015560c0850151600682015560e08501519281019290925561010084015160089092019190915590517f6068566d60f5a8eab652915d10b90bb6b734e149863fde2a0b57dbbc9aa9f78991610e5e918c908c908c908c908c908c908b906001600160a01b0398891681529688166020880152604087019590955260608601939093529416608084015260a083019390935260c082019290925260e08101919091526101000190565b60405180910390a150979650505050505050565b6001600160a01b03821660009081526009602052604090205460ff16610ecc5760405162461bcd60e51b815260206004820152600f60248201526e2737ba103b30b4b632103a37b5b2b760891b60448201526064016102f6565b600083815260086020526040902080546001600160a01b0316610f015760405162461bcd60e51b81526004016102f690612dfb565b80546001600160a01b03163314610f2a5760405162461bcd60e51b81526004016102f690612ef4565b600b81015460ff16610f4e5760405162461bcd60e51b81526004016102f690612e29565b60008211610f9a5760405162461bcd60e51b8152602060048201526019602482015278125394d551919250d251539517d25394155517d05353d55395603a1b60448201526064016102f6565b60005b6008820154811015610ffa57836001600160a01b0316826008018281548110610fc857610fc8612eac565b6000918252602090912001546001600160a01b03161415610fe857610ffa565b80610ff281612ed9565b915050610f9d565b60088201548110801561102c57508282600901828154811061101e5761101e612eac565b906000526020600020015410155b6110785760405162461bcd60e51b815260206004820152601b60248201527f4e6f7420656e6f75676820616d6f756e74206465706f7369746564000000000060448201526064016102f6565b600b82015460ff161561109057611090338585611f92565b828260090182815481106110a6576110a6612eac565b9060005260206000200160008282546110bf9190612ec2565b9091555050604080518681526001600160a01b0386166020820152908101849052600060608201527f2a88be962965895c4b957ab19d9efe6f6b3acc2a5de11dea4b8bb06e0dd718a1906080015b60405180910390a15050505050565b6000818152600c6020526040902060609061097390612201565b600081815260086020526040902080546001600160a01b031661116b5760405162461bcd60e51b81526004016102f690612dfb565b6001810154600090815260076020526040902080546001600160a01b031633146111a75760405162461bcd60e51b81526004016102f690612dcc565b600b82015460ff16156111fc5760405162461bcd60e51b815260206004820152601d60248201527f546865206f6666657220697320616c726561647920616363657074656400000060448201526064016102f6565b60088101541561124e5760405162461bcd60e51b815260206004820152601f60248201527f54686520726573657276616c20697320616c7265616479206d6174636865640060448201526064016102f6565b61125782612362565b61129b5760405162461bcd60e51b8152602060048201526015602482015274139bdd08195b9bdd59da0818dbdb1b185d195c985b605a1b60448201526064016102f6565b6112a48261241f565b6112e55760405162461bcd60e51b815260206004820152601260248201527109cdee840c2d8d8deeecac840cadcdeeaced60731b60448201526064016102f6565b60005b600883015481101561136b578254600884018054611359926001600160a01b031691908490811061131b5761131b612eac565b6000918252602090912001546009860180546001600160a01b03909216918590811061134957611349612eac565b906000526020600020015461252a565b8061136381612ed9565b9150506112e8565b5060028201546003830154611389916001600160a01b0316906125be565b60088101839055600b8201805460ff191660011790556040517f4fa8395a7e1538f35ebecd3098e8984254465fad50ba7199ccac2cf34e6fcd73906113d19085815260200190565b60405180910390a1505050565b600081815260086020526040902080546001600160a01b03166114135760405162461bcd60e51b81526004016102f690612dfb565b600b81015460ff166114375760405162461bcd60e51b81526004016102f690612e29565b600b810154610100900460ff16156114875760405162461bcd60e51b8152602060048201526013602482015272105b1c9958591e481c185e54995cd95c9d9959606a1b60448201526064016102f6565b600181015460009081526007602052604090208154600583015460068401546114bd926001600160a01b0390811692169061252a565b60005b6008830154811015611543578254600884018054611531926001600160a01b03169190849081106114f3576114f3612eac565b6000918252602090912001546009860180546001600160a01b03909216918590811061152157611521612eac565b9060005260206000200154611f92565b8061153b81612ed9565b9150506114c0565b50600b8201805461ff0019166101001790556040517faf4469f7787856d3557cfe70c4d8db147d70f22e6be9964f40b7df8df3d67ce1906113d19085815260200190565b805161159a9060029060208401906128e7565b50805160035560005b600354811015611609576001600960008484815181106115c5576115c5612eac565b6020908102919091018101516001600160a01b03168252810191909152604001600020805460ff19169115159190911790558061160181612ed9565b9150506115a3565b5050565b6001600160a01b0381166000908152600a6020526040902060609061097390612201565b6001600160a01b03821660009081526009602052604090205460ff1661168b5760405162461bcd60e51b815260206004820152600f60248201526e2737ba103b30b4b632103a37b5b2b760891b60448201526064016102f6565b600083815260086020526040902080546001600160a01b03166116c05760405162461bcd60e51b81526004016102f690612dfb565b80546001600160a01b031633146116e95760405162461bcd60e51b81526004016102f690612ef4565b600b81015460ff1661170d5760405162461bcd60e51b81526004016102f690612e29565b600082116117595760405162461bcd60e51b8152602060048201526019602482015278125394d551919250d251539517d25394155517d05353d55395603a1b60448201526064016102f6565b60005b60088201548110156117b957836001600160a01b031682600801828154811061178757611787612eac565b6000918252602090912001546001600160a01b031614156117a7576117b9565b806117b181612ed9565b91505061175c565b600882015481141561180b57600882018054600180820183556000928352602080842090920180546001600160a01b0319166001600160a01b0389161790556009850180549182018155835290822001555b600b82015460ff161561182e57815461182e906001600160a01b0316858561252a565b8282600901828154811061184457611844612eac565b90600052602060002001600082825461185d9190612f20565b9091555050604080518681526001600160a01b0386166020820152908101849052600160608201527f2a88be962965895c4b957ab19d9efe6f6b3acc2a5de11dea4b8bb06e0dd718a19060800161110d565b600081815260086020526040902080546001600160a01b03166118e45760405162461bcd60e51b81526004016102f690612dfb565b80546001600160a01b0316331461190d5760405162461bcd60e51b81526004016102f690612ef4565b600b81015460ff16156119625760405162461bcd60e51b815260206004820152601960248201527f4f6666657220697320616c72656164792061636365707465640000000000000060448201526064016102f6565b8054611977906001600160a01b0316836121c7565b6119858160010154836121e9565b6000828152600860208190526040822080546001600160a01b03199081168255600182018490556002820180548216905560038201849055600482018490556005820180549091169055600681018390556007810183905591906119eb908301826128c6565b6119f96009830160006128c6565b506000600a820155600b01805461ffff1916905560408051338152602081018490527f24db3de7842f0b57478cb97bd44f7eb02df8b05c1ff03366bd7645220b7a578891016103cd565b60008115611b5e5750600081815260086020526040902080548291906001600160a01b0316611a845760405162461bcd60e51b81526004016102f690612dfb565b80546001600160a01b03163314611aad5760405162461bcd60e51b81526004016102f690612ef4565b8054611ac2906001600160a01b0316836121c7565b611ad08160010154836121e9565b6000828152600860208190526040822080546001600160a01b0319908116825560018201849055600282018054821690556003820184905560048201849055600582018054909116905560068101839055600781018390559190611b36908301826128c6565b611b446009830160006128c6565b506000600a820155600b01805461ffff1916905550611b79565b60018054906000611b6e83612ed9565b919050555060015490505b600089815260076020526040902080546001600160a01b0316611bae5760405162461bcd60e51b81526004016102f690612d95565b60018101546001600160a01b038a8116911614611c025760405162461bcd60e51b8152602060048201526012602482015271139195081a5cc81b9bdd081b585d18da195960721b60448201526064016102f6565b87816002015414611c555760405162461bcd60e51b815260206004820152601a60248201527f4e465420746f6b656e4944206973206e6f74206d61746368656400000000000060448201526064016102f6565b600060035467ffffffffffffffff811115611c7257611c72612c4b565b604051908082528060200260200182016040528015611c9b578160200160208202803683370190505b509050600060035467ffffffffffffffff811115611cbb57611cbb612c4b565b604051908082528060200260200182016040528015611ce4578160200160208202803683370190505b5090506000604051806101a00160405280336001600160a01b031681526020018e81526020018d6001600160a01b031681526020018c81526020018b81526020018a6001600160a01b03168152602001898152602001888152602001848152602001838152602001868152602001600015158152602001600015158152509050806008600087815260200190815260200160002060008201518160000160006101000a8154816001600160a01b0302191690836001600160a01b031602179055506020820151816001015560408201518160020160006101000a8154816001600160a01b0302191690836001600160a01b03160217905550606082015181600301556080820151816004015560a08201518160050160006101000a8154816001600160a01b0302191690836001600160a01b0316021790555060c0820151816006015560e08201518160070155610100820151816008019080519060200190611e4e9291906128e7565b506101208201518051611e6b91600984019160209091019061294c565b50610140820151600a820155610160820151600b90910180546101809093015115156101000261ff00199215159290921661ffff1990931692909217179055611eb48d8661262a565b8051611ec09086612642565b7f8e79a055b21eec041d42be44318e8c465a3e43b4cdaa9c2f4947cd1ebe21afab81600001518e8e8e8e8e8e8e8d604051611f53999897969594939291906001600160a01b03998a168152602081019890985295881660408801526060870194909452608086019290925290941660a084015260c083019390935260e08201929092526101008101919091526101200190565b60405180910390a15050505098975050505050505050565b6001600160a01b0382166000908152600a60205260409020611f8d9082612664565b505050565b604080518082018252601981527f7472616e7366657228616464726573732c75696e74323536290000000000000060209182015281516001600160a01b0386811660248301526044808301869052845180840390910181526064909201845291810180516001600160e01b031663a9059cbb60e01b1790529151600092839286169161201e9190612f38565b6000604051808303816000865af19150503d806000811461205b576040519150601f19603f3d011682016040523d82523d6000602084013e612060565b606091505b509150915081801561208a57508051158061208a57508080602001905181019061208a9190612f73565b6120cd5760405162461bcd60e51b81526020600482015260146024820152731053534e881514905394d1915497d1905253115160621b60448201526064016102f6565b5050505050565b60048054604051636978491560e11b81526001600160a01b038681169382019390935260248101859052838316604482015291169063d2f0922a90606401600060405180830381600087803b15801561212c57600080fd5b505af1158015612140573d6000803e3d6000fd5b50505050505050565b6005546040516315d5220f60e31b81526001600160a01b038381166004830152600092169063aea910789060240160206040518083038186803b15801561218f57600080fd5b505afa1580156121a3573d6000803e3d6000fd5b505050506040513d601f19601f820116820180604052508101906109739190612f95565b6001600160a01b0382166000908152600b60205260409020611f8d9082612664565b6000828152600c60205260409020611f8d9082612664565b60606000826000015467ffffffffffffffff81111561222257612222612c4b565b60405190808252806020026020018201604052801561224b578160200160208202803683370190505b5090506000805b600161225e86836126fe565b925090508015612298578184848151811061227b5761227b612eac565b60209081029190910101528261229081612ed9565b93505061229e565b506122a4565b50612252565b50909392505050565b600480546040516301b6835560e61b81526001600160a01b03858116938201939093526024810184905260009290911690636da0d54090604401602060405180830381600087803b15801561230157600080fd5b505af1158015612315573d6000803e3d6000fd5b505050506040513d601f19601f820116820180604052508101906123399190612fae565b9392505050565b6001600160a01b0382166000908152600a60205260409020611f8d9082612718565b600080805b60088401548110156123c95783600901818154811061238857612388612eac565b90600052602060002001546123ab85600801838154811061065757610657612eac565b6123b59190612e6b565b9150806123c181612ed9565b915050612367565b50600783015460068401546005850154600092620186a09290916123f5906001600160a01b0316612149565b6123ff9190612e6b565b6124099190612e6b565b6124139190612e8a565b91909111159392505050565b600080805b600884015481101561252057600084600801828154811061244757612447612eac565b6000918252602090912001548554600654604051636eb1769f60e11b81526001600160a01b039283166004820152908216602482015291169063dd62ed3e9060440160206040518083038186803b1580156124a157600080fd5b505afa1580156124b5573d6000803e3d6000fd5b505050506040513d601f19601f820116820180604052508101906124d99190612f95565b90508460090182815481106124f0576124f0612eac565b906000526020600020015481101561250d57506000949350505050565b508061251881612ed9565b915050612424565b5060019392505050565b6006546040516323b872dd60e01b81526001600160a01b038581166004830152918216602482015260448101839052908316906323b872dd90606401602060405180830381600087803b15801561258057600080fd5b505af1158015612594573d6000803e3d6000fd5b505050506040513d601f19601f820116820180604052508101906125b89190612f73565b50505050565b60048054604051633a40491760e01b81526001600160a01b038581169382019390935260248101849052911690633a40491790604401600060405180830381600087803b15801561260e57600080fd5b505af1158015612622573d6000803e3d6000fd5b505050505050565b6000828152600c60205260409020611f8d9082612718565b6001600160a01b0382166000908152600b60205260409020611f8d9082612718565b600081158061267a57506126788383612726565b155b1561268757506000610973565b6000828152600184810160209081526040808420848052909152808320548284529220546126b99286929091906127aa565b600082815260018481016020908152604080842084805290915280832083905581835282208290558454909185916126f2908490612ec2565b90915550919392505050565b60008061270d848460016127df565b915091509250929050565b600061233983836000612826565b6000818152600183016020908152604080832083805290915281205415801561276957506000828152600180850160209081526040808420928452919052902054155b156127a257600080805260018085016020908152604080842092845291905290205482141561279a57506001610973565b506000610973565b506001610973565b600082815260019094016020818152604080872093158088529382528087208690559486529081528385209115855252912055565b6000806127ec8585612726565b6127fb5750600090508061281e565b505060008281526001848101602090815260408084208515158552909152909120545b935093915050565b6000612835846000858561283d565b949350505050565b60006128498584612726565b15801561285b575061285b8585612726565b156128bb5760008481526001860160209081526040808320851515845290915290205461288a868686866127aa565b612896868583866127aa565b60018660000160008282546128ab9190612f20565b9091555060019250612835915050565b506000949350505050565b50805460008255906000526020600020908101906128e49190612987565b50565b82805482825590600052602060002090810192821561293c579160200282015b8281111561293c57825182546001600160a01b0319166001600160a01b03909116178255602090920191600190910190612907565b50612948929150612987565b5090565b82805482825590600052602060002090810192821561293c579160200282015b8281111561293c57825182559160200191906001019061296c565b5b808211156129485760008155600101612988565b6000602082840312156129ae57600080fd5b5035919050565b6001600160a01b03811681146128e457600080fd5b80356129d5816129b5565b919050565b6000602082840312156129ec57600080fd5b8135612339816129b5565b6020808252825182820181905260009190848201906040850190845b81811015612a2f57835183529284019291840191600101612a13565b50909695505050505050565b600081518084526020808501945080840160005b83811015612a745781516001600160a01b031687529582019590820190600101612a4f565b509495945050505050565b600081518084526020808501945080840160005b83811015612a7457815187529582019590820190600101612a93565b60208152612ac96020820183516001600160a01b03169052565b6020820151604082015260006040830151612aef60608401826001600160a01b03169052565b5060608301516080830152608083015160a083015260a0830151612b1e60c08401826001600160a01b03169052565b5060c083015160e083015260e08301516101008181850152808501519150506101a06101208181860152612b566101c0860184612a3b565b9250808601519050610140601f198685030181870152612b768483612a7f565b90870151610160878101919091528701519093509050610180612b9c8187018315159052565b90950151151593019290925250919050565b600080600080600080600060e0888a031215612bc957600080fd5b8735612bd4816129b5565b965060208801359550604088013594506060880135612bf2816129b5565b9699959850939660808101359560a0820135955060c0909101359350915050565b600080600060608486031215612c2857600080fd5b833592506020840135612c3a816129b5565b929592945050506040919091013590565b634e487b7160e01b600052604160045260246000fd5b60006020808385031215612c7457600080fd5b823567ffffffffffffffff80821115612c8c57600080fd5b818501915085601f830112612ca057600080fd5b813581811115612cb257612cb2612c4b565b8060051b604051601f19603f83011681018181108582111715612cd757612cd7612c4b565b604052918252848201925083810185019188831115612cf557600080fd5b938501935b82851015612d1a57612d0b856129ca565b84529385019392850192612cfa565b98975050505050505050565b600080600080600080600080610100898b031215612d4357600080fd5b883597506020890135612d55816129b5565b965060408901359550606089013594506080890135612d73816129b5565b979a969950949793969560a0850135955060c08501359460e001359350915050565b60208082526017908201527f4e6f207375636820726573657276616c20657869737473000000000000000000604082015260600190565b602080825260159082015274139bdd081bdddb995c881bd9881c995cd95c9d985b605a1b604082015260600190565b6020808252601490820152734e6f2073756368206f666665722065786973747360601b604082015260600190565b6020808252601290820152712737ba1030b1b1b2b83a32b21037b33332b960711b604082015260600190565b634e487b7160e01b600052601160045260246000fd5b6000816000190483118215151615612e8557612e85612e55565b500290565b600082612ea757634e487b7160e01b600052601260045260246000fd5b500490565b634e487b7160e01b600052603260045260246000fd5b600082821015612ed457612ed4612e55565b500390565b6000600019821415612eed57612eed612e55565b5060010190565b6020808252601290820152712737ba10313abcb2b91037b31037b33332b960711b604082015260600190565b60008219821115612f3357612f33612e55565b500190565b6000825160005b81811015612f595760208186018101518583015201612f3f565b81811115612f68576000828501525b509190910192915050565b600060208284031215612f8557600080fd5b8151801515811461233957600080fd5b600060208284031215612fa757600080fd5b5051919050565b600060208284031215612fc057600080fd5b8151612339816129b556fea26469706673582212205c4d73ce0b35612ce9df21072813e8f7a05aefd65481b26cb3f13690a7e1a73b64736f6c63430008090033608060405234801561001057600080fd5b506040516105e53803806105e583398101604081905261002f91610054565b600080546001600160a01b0319166001600160a01b0392909216919091179055610084565b60006020828403121561006657600080fd5b81516001600160a01b038116811461007d57600080fd5b9392505050565b610552806100936000396000f3fe608060405234801561001057600080fd5b506004361061004c5760003560e01c80632672c002146100515780633a404917146100665780636da0d54014610079578063d2f0922a146100a8575b600080fd5b61006461005f366004610491565b6100bb565b005b610064610074366004610491565b6101c7565b61008c610087366004610491565b6102ed565b6040516001600160a01b03909116815260200160405180910390f35b6100646100b63660046104bd565b61036f565b6001600160a01b03808316600090815260016020908152604080832085845290915290205416806101245760405162461bcd60e51b815260206004820152600e60248201526d1b9bdd081b1bd8dad9590813919560921b60448201526064015b60405180910390fd5b6000546040516323b872dd60e01b81526001600160a01b039182166004820152828216602482015260448101849052908416906323b872dd90606401600060405180830381600087803b15801561017a57600080fd5b505af115801561018e573d6000803e3d6000fd5b505050506001600160a01b039290921660009081526001602090815260408083209383529290522080546001600160a01b031916905550565b6040516331a9108f60e11b8152600481018290526000906001600160a01b03841690636352211e9060240160206040518083038186803b15801561020a57600080fd5b505afa15801561021e573d6000803e3d6000fd5b505050506040513d601f19601f8201168201806040525081019061024291906104ff565b6000546040516323b872dd60e01b81526001600160a01b0380841660048301529182166024820152604481018590529192508416906323b872dd90606401600060405180830381600087803b15801561029a57600080fd5b505af11580156102ae573d6000803e3d6000fd5b505050506001600160a01b0392831660009081526001602090815260408083209483529390529190912080546001600160a01b03191691909216179055565b6040516331a9108f60e11b8152600481018290526000906001600160a01b03841690636352211e9060240160206040518083038186803b15801561033057600080fd5b505afa158015610344573d6000803e3d6000fd5b505050506040513d601f19601f8201168201806040525081019061036891906104ff565b9392505050565b6001600160a01b03808416600090815260016020908152604080832086845290915290205416806103d35760405162461bcd60e51b815260206004820152600e60248201526d1b9bdd081b1bd8dad9590813919560921b604482015260640161011b565b6000546040516323b872dd60e01b81526001600160a01b039182166004820152838216602482015260448101859052908516906323b872dd90606401600060405180830381600087803b15801561042957600080fd5b505af115801561043d573d6000803e3d6000fd5b5050506001600160a01b0390941660009081526001602090815260408083209583529490529290922080546001600160a01b0319169055505050565b6001600160a01b038116811461048e57600080fd5b50565b600080604083850312156104a457600080fd5b82356104af81610479565b946020939093013593505050565b6000806000606084860312156104d257600080fd5b83356104dd81610479565b92506020840135915060408401356104f481610479565b809150509250925092565b60006020828403121561051157600080fd5b81516103688161047956fea26469706673582212204090fd2fee16a5cddec22e5e708809c3bf9849057320389a50b083ea687e6c5464736f6c63430008090033",
  "immutableReferences": {},
  "source": "// SPDX-License-Identifier: MIT\r\npragma solidity >=0.8.0 <0.9.0;\r\n\r\nimport {IERC721} from \"@openzeppelin/contracts/token/ERC721/IERC721.sol\";\r\nimport {IERC20} from \"@openzeppelin/contracts/token/ERC20/IERC20.sol\";\r\nimport {IERC721Metadata} from \"@openzeppelin/contracts/token/ERC721/extensions/IERC721Metadata.sol\";\r\nimport {IERC20Metadata} from \"@openzeppelin/contracts/token/ERC20/extensions/IERC20Metadata.sol\";\r\nimport \"@openzeppelin/contracts/token/ERC20/ERC20.sol\";\r\nimport \"solidity-linked-list/contracts/StructuredLinkedList.sol\";\r\nimport {IPriceOracle} from \"./interface/IPriceOracle.sol\";\r\nimport {INFTVault} from \"./interface/INFTVault.sol\";\r\nimport {NFTVault} from \"./NFTVault.sol\";\r\n\r\n\r\ncontract NFTReservalManager {\r\n  using StructuredLinkedList for StructuredLinkedList.List;\r\n  uint256 private constant PCT_DIVIDER = 100000;\r\n  bytes4 private constant SELECTOR = bytes4(keccak256(bytes('transfer(address,uint256)')));\r\n\r\n  event EReservalUpdated(\r\n    address owner,\r\n    address nft,\r\n    uint256 nftID,\r\n    uint256 expiry,\r\n    address token,\r\n    uint256 price,\r\n    uint256 pct,\r\n    uint256 reservalID\r\n  );\r\n\r\n  event EReservalCanceled(\r\n    address owner,\r\n    uint256 reservalID\r\n  );\r\n\r\n  event EOfferUpdated(\r\n    address buyer,\r\n    uint256 reservalID,\r\n    address nft,\r\n    uint256 nftID,\r\n    uint256 expiry,\r\n    address token,\r\n    uint256 price,\r\n    uint256 pct,\r\n    uint256 offerID\r\n  );\r\n\r\n  event EOfferCanceled(\r\n    address buyer,\r\n    uint256 offerID\r\n  );\r\n\r\n  event EOfferAccepted(\r\n    uint256 offerID\r\n  );\r\n\r\n  event EAssigned(\r\n    bool assigned,\r\n    uint256 reservalID,\r\n    uint256 offerID\r\n  );\r\n  \r\n  event ECollateralDeposit(\r\n    uint256 offerID,\r\n    address token,\r\n    uint256 amount,\r\n    bool isDeposit\r\n  );\r\n\r\n  event EReservePayed(\r\n    uint256 offerID\r\n  );\r\n  \r\n  struct NFTReserval {\r\n    address owner;\r\n    address nft;\r\n    uint256 nftID;\r\n    uint256 expiry;\r\n    address token;\r\n    uint256 price;\r\n    uint256 pct;\r\n    uint256 reservalID;\r\n    uint256 acceptedOfferID;\r\n  }\r\n\r\n  struct Offer {\r\n    address buyer;\r\n    uint256 reservalID;\r\n    address nft;\r\n    uint256 nftID;\r\n    uint256 expiry;\r\n    address token;\r\n    uint256 price;\r\n    uint256 pct;\r\n    address[] colTokens;\r\n    uint256[] colAmounts;\r\n    uint256 offerID;\r\n    bool accepted;\r\n    bool reservePayed;\r\n  }\r\n\r\n  uint256 cntReserval;\r\n  uint256 cntOffer;\r\n  address[] tokens;\r\n  uint256 TOKEN_CNT;\r\n  address nftVault;\r\n  address priceOracle;\r\n  address admin;\r\n\r\n  mapping(uint256 => NFTReserval) reservals;\r\n  mapping(uint256 => Offer) offers;\r\n\r\n  mapping(address => bool) validToken;\r\n\r\n  mapping(address => StructuredLinkedList.List) listReserval;\r\n  mapping(address => StructuredLinkedList.List) listOffer;\r\n  mapping(uint256 => StructuredLinkedList.List) listOfferReq;\r\n\r\n  constructor(\r\n    address _priceOracle\r\n  ) public {\r\n    tokens = new address[](0);\r\n    admin = address(this);\r\n    nftVault = address(new NFTVault(admin));\r\n    priceOracle = _priceOracle;\r\n    cntReserval = 0;\r\n    cntOffer = 0;\r\n  }\r\n\r\n  function registerValidToken(\r\n    address[] memory _tokens\r\n  ) external {\r\n    tokens = _tokens;\r\n    TOKEN_CNT = _tokens.length;\r\n    for (uint i = 0; i < TOKEN_CNT; i++) {\r\n        validToken[_tokens[i]] = true;\r\n    }\r\n  }\r\n  \r\n  function updateReserval(\r\n    address nft,\r\n    uint256 nftID,\r\n    uint256 expiry,\r\n    address token,\r\n    uint256 price,\r\n    uint256 pct,\r\n    uint256 id\r\n  ) external returns (uint256 reservalID) {\r\n    require(msg.sender == _nftOwner(nft, nftID), \"Not Owner of NFT\");\r\n    if (id != 0) {\r\n      reservalID = id;\r\n      NFTReserval storage reserval = _getReserval(reservalID);\r\n      require(reserval.owner != address(0), \"No such reserval exists\");\r\n      require(reserval.owner == msg.sender, \"Not owner of reserval\");\r\n\r\n      _reserval_remove(reserval.owner, reservalID);\r\n      delete reservals[reservalID];\r\n    }\r\n    else {\r\n      cntReserval++;\r\n      reservalID = cntReserval;\r\n    }\r\n    NFTReserval memory _reserval = NFTReserval(msg.sender, nft, nftID, expiry, token, price, pct, reservalID, 0);\r\n    _reserval_add(_reserval.owner, reservalID);\r\n    reservals[reservalID] = _reserval;\r\n    \r\n    emit EReservalUpdated(_reserval.owner, nft, nftID, expiry, token, price, pct, reservalID);\r\n  }\r\n  \r\n  function cancelReserval(\r\n    uint256 reservalID\r\n  ) external {\r\n    NFTReserval storage reserval = _getReserval(reservalID);\r\n    require(reserval.owner != address(0), \"No such reserval exists\");\r\n    require(reserval.owner == msg.sender, \"Not owner of reserval\");\r\n\r\n    _reserval_remove(reserval.owner, reservalID);\r\n    delete reservals[reservalID];\r\n    \r\n    emit EReservalCanceled(msg.sender, reservalID);\r\n  }\r\n  \r\n  function updateOffer(\r\n    uint256 reservalID,\r\n    address nft,\r\n    uint256 nftID,\r\n    uint256 expiry,\r\n    address token,\r\n    uint256 price,\r\n    uint256 pct,\r\n    uint256 id\r\n  ) external returns (uint256 offerID) {\r\n    if (id != 0) {\r\n      offerID = id;\r\n      Offer storage offer = _getOffer(offerID);\r\n      require(offer.buyer != address(0), \"No such offer exists\");\r\n      require(offer.buyer == msg.sender, \"Not buyer of offer\");\r\n\r\n      _offer_remove(offer.buyer, offerID);\r\n      _offerReq_remove(offer.reservalID, offerID);\r\n      delete offers[offerID];\r\n    }\r\n    else {\r\n      cntOffer++;\r\n      offerID = cntOffer;\r\n    }\r\n\r\n    NFTReserval storage reserval = _getReserval(reservalID);\r\n    require(reserval.owner != address(0), \"No such reserval exists\");\r\n    require(reserval.nft == nft, \"NFT is not matched\");\r\n    require(reserval.nftID == nftID, \"NFT tokenID is not matched\");\r\n\r\n    address[] memory colTokens = new address[](TOKEN_CNT);\r\n    uint256[] memory colAmounts = new uint256[](TOKEN_CNT);\r\n\r\n    Offer memory _offer = Offer(\r\n      msg.sender,\r\n      reservalID,\r\n      nft,\r\n      nftID,\r\n      expiry,\r\n      token,\r\n      price,\r\n      pct,\r\n      colTokens,\r\n      colAmounts,\r\n      offerID,\r\n      false,\r\n      false\r\n      );\r\n\r\n    offers[offerID] = _offer;\r\n    _offerReq_add(reservalID, offerID);\r\n    _offer_add(_offer.buyer, offerID);\r\n\r\n    emit EOfferUpdated(\r\n      _offer.buyer,\r\n      reservalID,\r\n      nft,\r\n      nftID,\r\n      expiry,\r\n      token,\r\n      price,\r\n      pct,\r\n      offerID\r\n      );\r\n  }\r\n\r\n  function cancelOffer(\r\n    uint256 offerID\r\n  ) external {\r\n    Offer storage offer = _getOffer(offerID);\r\n    require(offer.buyer != address(0), \"No such offer exists\");\r\n    require(offer.buyer == msg.sender, \"Not buyer of offer\");\r\n\r\n    require(!offer.accepted, \"Offer is already accepted\");\r\n\r\n    _offer_remove(offer.buyer, offerID);\r\n    _offerReq_remove(offer.reservalID, offerID);\r\n    delete offers[offerID];\r\n\r\n    emit EOfferCanceled(msg.sender, offerID);\r\n  }\r\n\r\n  function acceptOffer(\r\n    uint256 offerID\r\n  ) external {\r\n    Offer storage offer = _getOffer(offerID);\r\n    require(offer.buyer != address(0), \"No such offer exists\");\r\n    \r\n    NFTReserval storage reserval = _getReserval(offer.reservalID);\r\n    require(msg.sender == reserval.owner, \"Not owner of reserval\");\r\n    \r\n    require(!offer.accepted, \"The offer is already accepted\");\r\n    require(reserval.acceptedOfferID == 0, \"The reserval is already matched\");\r\n\r\n    require(_checkCollateral(offer), \"Not enough collateral\");\r\n    require(_checkAllowance(offer), \"Not allowed enough\");\r\n    for (uint i = 0; i < offer.colTokens.length; i++) {\r\n      _putIn(offer.buyer, offer.colTokens[i], offer.colAmounts[i]);\r\n    }\r\n    _lockNFT(offer.nft, offer.nftID);\r\n\r\n    reserval.acceptedOfferID = offerID;\r\n    offer.accepted = true;\r\n\r\n    emit EOfferAccepted(offerID);\r\n  }\r\n\r\n  function assignOffer(\r\n    uint256 offerID\r\n  ) external {\r\n    Offer storage offer = _getOffer(offerID);\r\n    require(offer.buyer != address(0), \"No such offer exists\");\r\n    require(offer.accepted, \"Not accepted offer\");\r\n    \r\n    NFTReserval storage reserval = _getReserval(offer.reservalID);\r\n    require(msg.sender == reserval.owner, \"Not owner of reserval\");\r\n\r\n    if (offer.reservePayed) {\r\n      _putOut(reserval.owner, offer.token, offer.price);\r\n      _transferNFT(offer.nft, offer.nftID, offer.buyer);\r\n    }\r\n    else {\r\n      uint256 unpayed = _tokenToUSD(offer.token) * offer.price * offer.pct / PCT_DIVIDER;\r\n      for (uint i = 0; i < offer.colTokens.length; i++) {\r\n        uint256 amountToOwner = unpayed / _tokenToUSD(offer.colTokens[i]);\r\n        if (amountToOwner > offer.colAmounts[i]) amountToOwner = offer.colAmounts[i];\r\n        uint256 amountToBuyer = offer.colAmounts[i] - amountToOwner;\r\n        if (amountToOwner > 0) {\r\n          unpayed = unpayed - _tokenToUSD(offer.colTokens[i]) * amountToOwner;\r\n          _putOut(reserval.owner, offer.colTokens[i], amountToOwner);\r\n        }\r\n        if (amountToBuyer > 0) {\r\n          _putOut(offer.buyer, offer.colTokens[i], amountToBuyer);\r\n        }\r\n      }\r\n    }\r\n\r\n    _reserval_remove(reserval.owner, reserval.reservalID);\r\n    _offer_remove(offer.buyer, offerID);\r\n    _offerReq_remove(offer.reservalID, offerID);\r\n    emit EAssigned(offer.reservePayed, offer.reservalID, offerID);\r\n\r\n    delete offers[offerID];\r\n    delete reservals[reserval.reservalID];\r\n  }\r\n\r\n  function payReserve(\r\n    uint256 offerID\r\n  ) external {\r\n    Offer storage offer = _getOffer(offerID);\r\n    require(offer.buyer != address(0), \"No such offer exists\");\r\n    require(offer.accepted, \"Not accepted offer\");\r\n    require(!offer.reservePayed, \"Already payReserved\");\r\n    \r\n    NFTReserval storage reserval = _getReserval(offer.reservalID);\r\n\r\n    _putIn(offer.buyer, offer.token, offer.price);\r\n    for (uint i = 0; i < offer.colTokens.length; i++) {\r\n      _putOut(offer.buyer, offer.colTokens[i], offer.colAmounts[i]);\r\n    }\r\n\r\n    offer.reservePayed = true;\r\n\r\n    emit EReservePayed(offerID);\r\n  }\r\n\r\n  function depositCollateral(\r\n    uint256 offerID,\r\n    address token,\r\n    uint256 amount\r\n  ) external {\r\n    require(validToken[token], \"Not vaild token\");\r\n    Offer storage offer = _getOffer(offerID);\r\n    require(offer.buyer != address(0), \"No such offer exists\");\r\n    require(msg.sender == offer.buyer, \"Not buyer of offer\");\r\n    require(offer.accepted, \"Not accepted offer\");\r\n\r\n    require(amount > 0, \"INSUFFICIENT_INPUT_AMOUNT\");\r\n\r\n    uint id = 0;\r\n    for (id = 0; id < offer.colTokens.length; id++) {\r\n      if (offer.colTokens[id] == token) break;\r\n    }\r\n    if (offer.colTokens.length == id) {\r\n      offer.colTokens.push(token);\r\n      offer.colAmounts.push(0);\r\n    }\r\n    if (offer.accepted) {\r\n      _putIn(offer.buyer, token, amount);\r\n    }\r\n    offer.colAmounts[id] += amount;\r\n\r\n    emit ECollateralDeposit(offerID, token, amount, true);\r\n  }\r\n\r\n  function withdrawCollateral(\r\n    uint256 offerID,\r\n    address token,\r\n    uint256 amount\r\n  ) external {\r\n    require(validToken[token], \"Not vaild token\");\r\n    Offer storage offer = _getOffer(offerID);\r\n    require(offer.buyer != address(0), \"No such offer exists\");\r\n    require(msg.sender == offer.buyer, \"Not buyer of offer\");\r\n    require(offer.accepted, \"Not accepted offer\");\r\n\r\n    require(amount > 0, \"INSUFFICIENT_INPUT_AMOUNT\");\r\n    \r\n    uint id = 0;\r\n    for (id = 0; id < offer.colTokens.length; id++) {\r\n      if (offer.colTokens[id] == token) break;\r\n    }\r\n    require((offer.colTokens.length > id) && (offer.colAmounts[id] >= amount), \"Not enough amount deposited\");\r\n\r\n    if (offer.accepted) {\r\n      _putOut(msg.sender, token, amount);\r\n    }\r\n    offer.colAmounts[id] -= amount;\r\n\r\n    emit ECollateralDeposit(offerID, token, amount, false);\r\n  }\r\n\r\n  function getNFTReservals(address owner) external returns (uint256[] memory) {\r\n    return _getFullList(listReserval[owner]);\r\n  }\r\n\r\n  function getOffers(address buyer) external returns (uint256[] memory) {\r\n    return _getFullList(listOffer[buyer]);\r\n  }\r\n\r\n  function getOfferReqs(uint256 reservalID) external returns (uint256[] memory) {\r\n    return _getFullList(listOfferReq[reservalID]);\r\n  }\r\n\r\n  function getReserval(uint256 reservalID) external returns (NFTReserval memory reserval) {\r\n    NFTReserval storage _reserval = _getReserval(reservalID);\r\n    require(_reserval.owner != address(0), \"No such reserval exists\");\r\n    reserval = _reserval;\r\n  }\r\n\r\n  function getOffer(uint256 offerID) external returns (Offer memory offer) {\r\n    Offer storage _offer = _getOffer(offerID);\r\n    require(_offer.buyer != address(0), \"No such offer exists\");\r\n    offer = _offer;\r\n  }\r\n\r\n  //-------------------------------------------------------------------------------//\r\n  //----------------------------- private functions -------------------------------//\r\n  //-------------------------------------------------------------------------------//\r\n  function _getReserval(uint256 reservalID) private returns (NFTReserval storage) {\r\n    return reservals[reservalID];\r\n  }\r\n\r\n  function _getOffer(uint256 offerID) private returns (Offer storage) {\r\n    return offers[offerID];\r\n  }\r\n\r\n  function _checkCollateral(Offer storage offer) private returns (bool) {\r\n    uint256 totalUSD = 0;\r\n    for (uint i = 0; i < offer.colTokens.length; i++) {\r\n      totalUSD = _tokenToUSD(offer.colTokens[i]) * offer.colAmounts[i];\r\n    }\r\n    uint256 requiredUSD = _tokenToUSD(offer.token) * offer.price * offer.pct / PCT_DIVIDER;\r\n    return requiredUSD <= totalUSD;\r\n  }\r\n\r\n  function _checkAllowance(Offer storage offer) private returns (bool) {\r\n    uint256 totalUSD = 0;\r\n    for (uint i = 0; i < offer.colTokens.length; i++) {\r\n      uint256 allownce = IERC20(offer.colTokens[i]).allowance(offer.buyer, admin);\r\n      if (allownce < offer.colAmounts[i]) return false;\r\n    }\r\n    return true;\r\n  }\r\n\r\n  function _putIn(address account, address token, uint256 amount) private {\r\n    IERC20(token).transferFrom(account, admin, amount);\r\n  }\r\n\r\n  function _putOut(address account, address token, uint256 amount) private {\r\n    (bool success, bytes memory data) = token.call(\r\n        abi.encodeWithSelector(SELECTOR, account, amount)\r\n    );\r\n    require(\r\n        success && (data.length == 0 || abi.decode(data, (bool))),\r\n        \"AMM: TRANSFER_FAILED\"\r\n    );\r\n  }\r\n  //-------------------------------------------------------------------------------//\r\n\r\n\r\n  //-------------------------------------------------------------------------------//\r\n  //---------------------------- Interface functions ------------------------------//\r\n  //-------------------------------------------------------------------------------//\r\n  function _nftOwner(address nft, uint256 nftID) private returns (address) {\r\n    return INFTVault(nftVault).owner(nft, nftID);\r\n  }\r\n\r\n  function _lockNFT(address nft, uint256 nftID) private {\r\n    INFTVault(nftVault).lockNFT(nft, nftID);\r\n  }\r\n\r\n  function _unlockNFT(address nft, uint256 nftID) private {\r\n    INFTVault(nftVault).unlockNFT(nft, nftID);\r\n  }\r\n\r\n  function _transferNFT(address nft, uint256 nftID, address to) private {\r\n    INFTVault(nftVault).transferNFT(nft, nftID, to);\r\n  }\r\n\r\n  function _tokenToUSD(address token) private returns (uint256) {\r\n    return IPriceOracle(priceOracle).price(token);\r\n  }\r\n  //-------------------------------------------------------------------------------//\r\n\r\n\r\n  //-------------------------------------------------------------------------------//\r\n  //--------------------------- Linked List functions -----------------------------//\r\n  //-------------------------------------------------------------------------------//\r\n  function _reserval_add(address owner, uint256 reservalID) private {\r\n    StructuredLinkedList.pushBack(listReserval[owner], reservalID);\r\n  }\r\n\r\n  function _reserval_remove(address owner, uint256 reservalID) private {\r\n    StructuredLinkedList.remove(listReserval[owner], reservalID);\r\n  }\r\n\r\n  function _offer_add(address buyer, uint256 offerID) private {\r\n    StructuredLinkedList.pushBack(listOffer[buyer], offerID);\r\n  }\r\n\r\n  function _offer_remove(address buyer, uint256 offerID) private {\r\n    StructuredLinkedList.remove(listOffer[buyer], offerID);\r\n  }\r\n\r\n  function _offerReq_add(uint256 reservalID, uint256 offerID) private {\r\n    StructuredLinkedList.pushBack(listOfferReq[reservalID], offerID);\r\n  }\r\n\r\n  function _offerReq_remove(uint256 reservalID, uint256 offerID) private {\r\n    StructuredLinkedList.remove(listOfferReq[reservalID], offerID);\r\n  }\r\n\r\n  function _getFullList(StructuredLinkedList.List storage list) private returns (uint256[] memory) {\r\n    uint256[] memory ids = new uint256[](list.size);\r\n    uint cnt = 0;\r\n    for (uint256 cur = 0; ; ) {\r\n      bool exists = true;\r\n      (exists, cur) = StructuredLinkedList.getNextNode(list, cur);\r\n      if (exists) {\r\n        ids[cnt] = cur;\r\n        cnt++;\r\n      }\r\n      else {\r\n        break;\r\n      }\r\n    }\r\n    return ids;\r\n  }\r\n  //-------------------------------------------------------------------------------//\r\n}\r\n",
  "sourcePath": "E:\\Projects\\Privi2\\PriviNFTOptions\\privi-NFT-buying\\contracts\\NFTReservalManager.sol",
  "compiler": {
    "name": "solc",
    "version": "0.8.9+commit.e5eed63a.Emscripten.clang"
  },
  "schemaVersion": "3.4.3",
  "updatedAt": "2021-11-13T20:06:37.592Z",
  "networkType": "ethereum",
  "devdoc": {
    "kind": "dev",
    "methods": {},
    "version": 1
  },
  "userdoc": {
    "kind": "user",
    "methods": {},
    "version": 1
  }
}