{
  "contractName": "NFTReservalManager",
  "abi": [
    {
      "inputs": [
        {
          "internalType": "address[]",
          "name": "_tokens",
          "type": "address[]"
        },
        {
          "internalType": "address",
          "name": "_nftVault",
          "type": "address"
        },
        {
          "internalType": "address",
          "name": "_priceOracle",
          "type": "address"
        }
      ],
      "stateMutability": "nonpayable",
      "type": "constructor"
    },
    {
      "anonymous": false,
      "inputs": [
        {
          "indexed": false,
          "internalType": "bool",
          "name": "assigned",
          "type": "bool"
        },
        {
          "indexed": false,
          "internalType": "uint256",
          "name": "reservalID",
          "type": "uint256"
        },
        {
          "indexed": false,
          "internalType": "uint256",
          "name": "offerID",
          "type": "uint256"
        }
      ],
      "name": "Assigned",
      "type": "event"
    },
    {
      "anonymous": false,
      "inputs": [
        {
          "indexed": false,
          "internalType": "address",
          "name": "buyer",
          "type": "address"
        },
        {
          "indexed": false,
          "internalType": "uint256",
          "name": "reservalID",
          "type": "uint256"
        },
        {
          "indexed": false,
          "internalType": "address",
          "name": "nft",
          "type": "address"
        },
        {
          "indexed": false,
          "internalType": "uint256",
          "name": "expiry",
          "type": "uint256"
        },
        {
          "indexed": false,
          "internalType": "address",
          "name": "token",
          "type": "address"
        },
        {
          "indexed": false,
          "internalType": "uint256",
          "name": "price",
          "type": "uint256"
        },
        {
          "indexed": false,
          "internalType": "uint256",
          "name": "pct",
          "type": "uint256"
        },
        {
          "indexed": false,
          "internalType": "uint256",
          "name": "offerID",
          "type": "uint256"
        }
      ],
      "name": "BOfferCreated",
      "type": "event"
    },
    {
      "anonymous": false,
      "inputs": [
        {
          "indexed": false,
          "internalType": "uint256",
          "name": "offerID",
          "type": "uint256"
        },
        {
          "indexed": false,
          "internalType": "address",
          "name": "token",
          "type": "address"
        },
        {
          "indexed": false,
          "internalType": "uint256",
          "name": "amount",
          "type": "uint256"
        },
        {
          "indexed": false,
          "internalType": "bool",
          "name": "isDeposit",
          "type": "bool"
        }
      ],
      "name": "CollateralDeposit",
      "type": "event"
    },
    {
      "anonymous": false,
      "inputs": [
        {
          "indexed": false,
          "internalType": "uint256",
          "name": "offerID",
          "type": "uint256"
        }
      ],
      "name": "OOfferAccepted",
      "type": "event"
    },
    {
      "anonymous": false,
      "inputs": [
        {
          "indexed": false,
          "internalType": "address",
          "name": "owner",
          "type": "address"
        },
        {
          "indexed": false,
          "internalType": "uint256",
          "name": "reservalID",
          "type": "uint256"
        }
      ],
      "name": "OReservalCanceled",
      "type": "event"
    },
    {
      "anonymous": false,
      "inputs": [
        {
          "indexed": false,
          "internalType": "address",
          "name": "owner",
          "type": "address"
        },
        {
          "indexed": false,
          "internalType": "address",
          "name": "nft",
          "type": "address"
        },
        {
          "indexed": false,
          "internalType": "uint256",
          "name": "expiry",
          "type": "uint256"
        },
        {
          "indexed": false,
          "internalType": "address",
          "name": "token",
          "type": "address"
        },
        {
          "indexed": false,
          "internalType": "uint256",
          "name": "price",
          "type": "uint256"
        },
        {
          "indexed": false,
          "internalType": "uint256",
          "name": "pct",
          "type": "uint256"
        },
        {
          "indexed": false,
          "internalType": "uint256",
          "name": "reservalID",
          "type": "uint256"
        }
      ],
      "name": "OReservalCreated",
      "type": "event"
    },
    {
      "anonymous": false,
      "inputs": [
        {
          "indexed": false,
          "internalType": "uint256",
          "name": "offerID",
          "type": "uint256"
        }
      ],
      "name": "ReservePayed",
      "type": "event"
    },
    {
      "inputs": [
        {
          "internalType": "address",
          "name": "nft",
          "type": "address"
        },
        {
          "internalType": "uint256",
          "name": "expiry",
          "type": "uint256"
        },
        {
          "internalType": "address",
          "name": "token",
          "type": "address"
        },
        {
          "internalType": "uint256",
          "name": "price",
          "type": "uint256"
        },
        {
          "internalType": "uint256",
          "name": "pct",
          "type": "uint256"
        }
      ],
      "name": "createReserval",
      "outputs": [
        {
          "internalType": "uint256",
          "name": "reservalID",
          "type": "uint256"
        }
      ],
      "stateMutability": "nonpayable",
      "type": "function"
    },
    {
      "inputs": [
        {
          "internalType": "uint256",
          "name": "reservalID",
          "type": "uint256"
        }
      ],
      "name": "cancelReserval",
      "outputs": [],
      "stateMutability": "nonpayable",
      "type": "function"
    },
    {
      "inputs": [
        {
          "internalType": "uint256",
          "name": "reservalID",
          "type": "uint256"
        }
      ],
      "name": "createOffer",
      "outputs": [
        {
          "internalType": "uint256",
          "name": "offerID",
          "type": "uint256"
        }
      ],
      "stateMutability": "nonpayable",
      "type": "function"
    },
    {
      "inputs": [
        {
          "internalType": "uint256",
          "name": "offerID",
          "type": "uint256"
        }
      ],
      "name": "acceptOffer",
      "outputs": [],
      "stateMutability": "nonpayable",
      "type": "function"
    },
    {
      "inputs": [
        {
          "internalType": "uint256",
          "name": "offerID",
          "type": "uint256"
        }
      ],
      "name": "assignOffer",
      "outputs": [],
      "stateMutability": "nonpayable",
      "type": "function"
    },
    {
      "inputs": [
        {
          "internalType": "uint256",
          "name": "offerID",
          "type": "uint256"
        }
      ],
      "name": "payReserve",
      "outputs": [],
      "stateMutability": "nonpayable",
      "type": "function"
    },
    {
      "inputs": [
        {
          "internalType": "uint256",
          "name": "offerID",
          "type": "uint256"
        },
        {
          "internalType": "address",
          "name": "token",
          "type": "address"
        },
        {
          "internalType": "uint256",
          "name": "amount",
          "type": "uint256"
        }
      ],
      "name": "depositCollateral",
      "outputs": [],
      "stateMutability": "nonpayable",
      "type": "function"
    },
    {
      "inputs": [
        {
          "internalType": "uint256",
          "name": "offerID",
          "type": "uint256"
        },
        {
          "internalType": "address",
          "name": "token",
          "type": "address"
        },
        {
          "internalType": "uint256",
          "name": "amount",
          "type": "uint256"
        }
      ],
      "name": "withdrawCollateral",
      "outputs": [],
      "stateMutability": "nonpayable",
      "type": "function"
    },
    {
      "inputs": [
        {
          "internalType": "address",
          "name": "owner",
          "type": "address"
        }
      ],
      "name": "getNFTReservals",
      "outputs": [
        {
          "internalType": "uint256[]",
          "name": "reservalIDs",
          "type": "uint256[]"
        }
      ],
      "stateMutability": "nonpayable",
      "type": "function"
    },
    {
      "inputs": [
        {
          "internalType": "address",
          "name": "buyer",
          "type": "address"
        }
      ],
      "name": "getOffers",
      "outputs": [
        {
          "internalType": "uint256[]",
          "name": "offerIDs",
          "type": "uint256[]"
        }
      ],
      "stateMutability": "nonpayable",
      "type": "function"
    },
    {
      "inputs": [
        {
          "internalType": "address",
          "name": "owner",
          "type": "address"
        }
      ],
      "name": "getOfferReqs",
      "outputs": [
        {
          "internalType": "uint256[]",
          "name": "offerIDs",
          "type": "uint256[]"
        }
      ],
      "stateMutability": "nonpayable",
      "type": "function"
    },
    {
      "inputs": [],
      "name": "checkAssign",
      "outputs": [],
      "stateMutability": "nonpayable",
      "type": "function"
    },
    {
      "inputs": [
        {
          "internalType": "uint256",
          "name": "reservalID",
          "type": "uint256"
        }
      ],
      "name": "getReserval",
      "outputs": [
        {
          "components": [
            {
              "internalType": "address",
              "name": "owner",
              "type": "address"
            },
            {
              "internalType": "address",
              "name": "nft",
              "type": "address"
            },
            {
              "internalType": "uint256",
              "name": "expiry",
              "type": "uint256"
            },
            {
              "internalType": "address",
              "name": "token",
              "type": "address"
            },
            {
              "internalType": "uint256",
              "name": "price",
              "type": "uint256"
            },
            {
              "internalType": "uint256",
              "name": "pct",
              "type": "uint256"
            },
            {
              "internalType": "uint256",
              "name": "reservalID",
              "type": "uint256"
            },
            {
              "internalType": "uint256",
              "name": "acceptedOfferID",
              "type": "uint256"
            }
          ],
          "internalType": "struct NFTReservalManager.NFTReserval",
          "name": "reserval",
          "type": "tuple"
        }
      ],
      "stateMutability": "nonpayable",
      "type": "function"
    },
    {
      "inputs": [
        {
          "internalType": "uint256",
          "name": "offerID",
          "type": "uint256"
        }
      ],
      "name": "getOffer",
      "outputs": [
        {
          "components": [
            {
              "internalType": "address",
              "name": "buyer",
              "type": "address"
            },
            {
              "internalType": "uint256",
              "name": "reservalID",
              "type": "uint256"
            },
            {
              "internalType": "address",
              "name": "nft",
              "type": "address"
            },
            {
              "internalType": "uint256",
              "name": "expiry",
              "type": "uint256"
            },
            {
              "internalType": "address",
              "name": "token",
              "type": "address"
            },
            {
              "internalType": "uint256",
              "name": "price",
              "type": "uint256"
            },
            {
              "internalType": "uint256",
              "name": "pct",
              "type": "uint256"
            },
            {
              "internalType": "address[]",
              "name": "colTokens",
              "type": "address[]"
            },
            {
              "internalType": "uint256[]",
              "name": "colAmounts",
              "type": "uint256[]"
            },
            {
              "internalType": "uint256",
              "name": "offerID",
              "type": "uint256"
            },
            {
              "internalType": "bool",
              "name": "accepted",
              "type": "bool"
            },
            {
              "internalType": "bool",
              "name": "reservePayed",
              "type": "bool"
            }
          ],
          "internalType": "struct NFTReservalManager.Offer",
          "name": "offer",
          "type": "tuple"
        }
      ],
      "stateMutability": "nonpayable",
      "type": "function"
    }
  ],
  "bytecode": "0x60806040523480156200001157600080fd5b50604051620025ba380380620025ba8339810160408190526200003491620001c1565b8251620000499060029060208601906200010d565b50600480546001600160a01b038085166001600160a01b03199283161790925560058054928416928216929092179091556006805490911630179055825160035560005b600354811015620000fa57600160096000868481518110620000b357620000b3620002b9565b6020908102919091018101516001600160a01b03168252810191909152604001600020805460ff191691151591909117905580620000f181620002cf565b9150506200008d565b5050600080805560015550620002f99050565b82805482825590600052602060002090810192821562000165579160200282015b828111156200016557825182546001600160a01b0319166001600160a01b039091161782556020909201916001909101906200012e565b506200017392915062000177565b5090565b5b8082111562000173576000815560010162000178565b634e487b7160e01b600052604160045260246000fd5b80516001600160a01b0381168114620001bc57600080fd5b919050565b600080600060608486031215620001d757600080fd5b83516001600160401b0380821115620001ef57600080fd5b818601915086601f8301126200020457600080fd5b81516020828211156200021b576200021b6200018e565b8160051b604051601f19603f830116810181811086821117156200024357620002436200018e565b60405292835281830193508481018201928a8411156200026257600080fd5b948201945b838610156200028b576200027b86620001a4565b8552948201949382019362000267565b97506200029c9050888201620001a4565b955050505050620002b060408501620001a4565b90509250925092565b634e487b7160e01b600052603260045260246000fd5b6000600019821415620002f257634e487b7160e01b600052601160045260246000fd5b5060010190565b6122b180620003096000396000f3fe608060405234801561001057600080fd5b50600436106100ea5760003560e01c8063a269993d1161008c578063c815729d11610066578063c815729d1461022a578063cbd322181461023d578063de9d62de146101a2578063ebea51b41461025057600080fd5b8063a269993d146101f6578063b13258e714610102578063c6f3ed8b1461021757600080fd5b80632a74aa95116100c85780632a74aa95146101a25780632d86c000146101a25780634579268a146101c357806399ea56b0146101e357600080fd5b806306a7ad64146100ef57806319752d251461010457806324af54b61461018f575b600080fd5b6101026100fd366004611dfd565b610263565b005b610117610112366004611dfd565b61037e565b604051610186919060006101008201905060018060a01b0380845116835280602085015116602084015260408401516040840152806060850151166060840152506080830151608083015260a083015160a083015260c083015160c083015260e083015160e083015292915050565b60405180910390f35b61010261019d366004611dfd565b610484565b6101b66101b0366004611e32565b50606090565b6040516101869190611e4d565b6101d66101d1366004611dfd565b61088e565b6040516101869190611f05565b6101026101f1366004611ff5565b610a90565b610209610204366004611dfd565b610d5f565b604051908152602001610186565b61020961022536600461202a565b610f56565b610102610238366004611dfd565b611111565b61010261024b366004611dfd565b61139c565b61010261025e366004611ff5565b61144e565b600081815260076020526040902080546001600160a01b03166102a15760405162461bcd60e51b815260040161029890612078565b60405180910390fd5b80546001600160a01b031633146102ca5760405162461bcd60e51b8152600401610298906120af565b80546102df906001600160a01b0316836116f1565b600082815260076020818152604080842080546001600160a01b031990811682556001820180548216905560028201869055600382018054909116905560048101859055600581018590556006810185905590920192909255825481516001600160a01b0390911681529182018490527fc54196fb89f0de06064e8350a77850230e5fc554d1d593a76d12c352deadcdde910160405180910390a15050565b6103e160405180610100016040528060006001600160a01b0316815260200160006001600160a01b031681526020016000815260200160006001600160a01b03168152602001600081526020016000815260200160008152602001600081525090565b600082815260076020526040902080546001600160a01b03166104165760405162461bcd60e51b815260040161029890612078565b604080516101008101825282546001600160a01b0390811682526001840154811660208301526002840154928201929092526003830154909116606082015260048201546080820152600582015460a0820152600682015460c082015260079091015460e082015292915050565b600081815260086020526040902080546001600160a01b03166104b95760405162461bcd60e51b8152600401610298906120de565b600a81015460ff166104dd5760405162461bcd60e51b81526004016102989061210c565b6001810154600090815260076020526040902080546001600160a01b031633146105195760405162461bcd60e51b8152600401610298906120af565b600a820154610100900460ff16156105535760038101548154600483015461054e926001600160a01b03908116921690611718565b61072b565b600682015460058301546004840154600092620186a092909161057e906001600160a01b031661185a565b610588919061214e565b610592919061214e565b61059c919061216d565b905060005b60078401548110156107285760006105e18560070183815481106105c7576105c761218f565b6000918252602090912001546001600160a01b031661185a565b6105eb908461216d565b90508460080182815481106106025761060261218f565b9060005260206000200154811115610637578460080182815481106106295761062961218f565b906000526020600020015490505b60008186600801848154811061064f5761064f61218f565b906000526020600020015461066491906121a5565b905081156106d457816106858760070185815481106105c7576105c761218f565b61068f919061214e565b61069990856121a5565b93506106d48660070184815481106106b3576106b361218f565b60009182526020909120015486546001600160a01b03918216911684611718565b8015610713576107138660070184815481106106f2576106f261218f565b60009182526020909120015487546001600160a01b03918216911683611718565b50508080610720906121bc565b9150506105a1565b50505b80546006820154610745916001600160a01b0316906116f1565b815461075a906001600160a01b0316846118de565b600a82015460018301546040805161010090930460ff1615158352602083019190915281018490527f7c9e91160ddf7baf7154c690eb878e3db5767822c1109de4b4fca9c864e479869060600160405180910390a1600083815260086020526040812080546001600160a01b03199081168255600182018390556002820180548216905560038201839055600482018054909116905560058101829055600681018290559061080c6007830182611dcb565b61081a600883016000611dcb565b50600060098201819055600a909101805461ffff191690556006918201548152600760208190526040822080546001600160a01b0319908116825560018201805482169055600282018490556003820180549091169055600481018390556005810183905592830182905591909101555050565b61091160405180610180016040528060006001600160a01b031681526020016000815260200160006001600160a01b031681526020016000815260200160006001600160a01b0316815260200160008152602001600081526020016060815260200160608152602001600081526020016000151581526020016000151581525090565b600082815260086020526040902080546001600160a01b03166109465760405162461bcd60e51b8152600401610298906120de565b604080516101808101825282546001600160a01b039081168252600184015460208084019190915260028501548216838501526003850154606084015260048501549091166080830152600584015460a0830152600684015460c08301526007840180548451818402810184019095528085529293859360e08601939192918301828280156109fe57602002820191906000526020600020905b81546001600160a01b031681526001909101906020018083116109e0575b5050505050815260200160088201805480602002602001604051908101604052809291908181526020018280548015610a5657602002820191906000526020600020905b815481526020019060010190808311610a42575b505050918352505060098201546020820152600a9091015460ff808216151560408401526101009091041615156060909101529392505050565b6001600160a01b03821660009081526009602052604090205460ff16610aea5760405162461bcd60e51b815260206004820152600f60248201526e2737ba103b30b4b632103a37b5b2b760891b6044820152606401610298565b600083815260086020526040902080546001600160a01b0316610b1f5760405162461bcd60e51b8152600401610298906120de565b80546001600160a01b03163314610b6d5760405162461bcd60e51b81526020600482015260126024820152712737ba10313abcb2b91037b31037b33332b960711b6044820152606401610298565b600a81015460ff16610b915760405162461bcd60e51b81526004016102989061210c565b60008211610bdd5760405162461bcd60e51b8152602060048201526019602482015278125394d551919250d251539517d25394155517d05353d55395603a1b6044820152606401610298565b60005b6007820154811015610c3d57836001600160a01b0316826007018281548110610c0b57610c0b61218f565b6000918252602090912001546001600160a01b03161415610c2b57610c3d565b80610c35816121bc565b915050610be0565b600782015481108015610c6f575082826008018281548110610c6157610c6161218f565b906000526020600020015410155b610cbb5760405162461bcd60e51b815260206004820152601b60248201527f4e6f7420656e6f75676820616d6f756e74206465706f736974656400000000006044820152606401610298565b600a82015460ff1615610cd357610cd3843385611900565b82826008018281548110610ce957610ce961218f565b906000526020600020016000828254610d0291906121a5565b9091555050604080518681526001600160a01b0386166020820152908101849052600060608201527f1dfdcce523ed63eed2c7395d37868b4f7a225655e2e6e7fcd0eb7133034adad5906080015b60405180910390a15050505050565b600081815260076020526040812080546001600160a01b0316610d945760405162461bcd60e51b815260040161029890612078565b60018054906000610da4836121bc565b91905055506001549150600060035467ffffffffffffffff811115610dcb57610dcb6121d7565b604051908082528060200260200182016040528015610df4578160200160208202803683370190505b509050600060035467ffffffffffffffff811115610e1457610e146121d7565b604051908082528060200260200182016040528015610e3d578160200160208202803683370190505b506040805161018081018252338082526020820189905260018701546001600160a01b0390811683850181905260028901546060850181905260038a01549092166080850181905260048a015460a0860181905260058b015460c0870181905260e087018b9052610100870189905261012087018d905260006101408801819052610160880152965197985094967fda307974aa86f27035cd8c81073664a91b815a537e36377f0f15965e277bfc3696610f45968e9593929091908e906001600160a01b0398891681526020810197909752948716604087015260608601939093529416608084015260a083019390935260c082019290925260e08101919091526101000190565b60405180910390a150505050919050565b60003315610f995760405162461bcd60e51b815260206004820152601060248201526f139bdd0813dddb995c881bd98813919560821b6044820152606401610298565b600080549080610fa8836121bc565b919050555060005490506000604051806101000160405280336001600160a01b03168152602001886001600160a01b03168152602001878152602001866001600160a01b031681526020018581526020018481526020018381526020016000815250905061101a816000015183611995565b600082815260076020818152604092839020845181546001600160a01b03199081166001600160a01b03928316908117845587850151600185018054841691851691909117905587870151600285015560608089015160038601805490941690851617909255608080890151600486015560a0808a0151600587015560c0808b0151600688015560e0808c0151979099019690965588519283528f8516968301969096529681018d9052918b169082015293840188905290830186905282018490527fc05e5aabf413dd21ad2fc2ddf043c7cf8b15fac2b9377e04eb257b24a2af3c12910160405180910390a15095945050505050565b600081815260086020526040902080546001600160a01b03166111465760405162461bcd60e51b8152600401610298906120de565b6001810154600090815260076020526040902080546001600160a01b031633146111825760405162461bcd60e51b8152600401610298906120af565b600a82015460ff16156111d75760405162461bcd60e51b815260206004820152601d60248201527f546865206f6666657220697320616c72656164792061636365707465640000006044820152606401610298565b6007810154156112295760405162461bcd60e51b815260206004820152601f60248201527f54686520726573657276616c20697320616c7265616479206d617463686564006044820152606401610298565b611232826119b7565b6112765760405162461bcd60e51b8152602060048201526015602482015274139bdd08195b9bdd59da0818dbdb1b185d195c985b605a1b6044820152606401610298565b61127f82611a74565b6112c05760405162461bcd60e51b815260206004820152601260248201527109cdee840c2d8d8deeecac840cadcdeeaced60731b6044820152606401610298565b60005b6007830154811015611346578254600784018054611334926001600160a01b03169190849081106112f6576112f661218f565b6000918252602090912001546008860180546001600160a01b0390921691859081106113245761132461218f565b9060005260206000200154611b7f565b8061133e816121bc565b9150506112c3565b5060078101839055600a8201805460ff191660011790556040517f849b9c9365baf4ef2403308ee92d15dd1da4de6add8ca2ffeacf4358cbe0a7579061138f9085815260200190565b60405180910390a1505050565b600081815260086020526040902080546001600160a01b03166113d15760405162461bcd60e51b8152600401610298906120de565b600a81015460ff166113f55760405162461bcd60e51b81526004016102989061210c565b60018101546000908152600760205260408120600a8301805461ff0019166101001790556040519091507f3ad5ff1b4352fbcb9c7e0967bf0cf2387cdd444e6c531f94ac7e411f7404625d9061138f9085815260200190565b6001600160a01b03821660009081526009602052604090205460ff166114a85760405162461bcd60e51b815260206004820152600f60248201526e2737ba103b30b4b632103a37b5b2b760891b6044820152606401610298565b600083815260086020526040902080546001600160a01b03166114dd5760405162461bcd60e51b8152600401610298906120de565b80546001600160a01b0316331461152b5760405162461bcd60e51b81526020600482015260126024820152712737ba10313abcb2b91037b31037b33332b960711b6044820152606401610298565b600a81015460ff1661154f5760405162461bcd60e51b81526004016102989061210c565b6000821161159b5760405162461bcd60e51b8152602060048201526019602482015278125394d551919250d251539517d25394155517d05353d55395603a1b6044820152606401610298565b60005b60078201548110156115fb57836001600160a01b03168260070182815481106115c9576115c961218f565b6000918252602090912001546001600160a01b031614156115e9576115fb565b806115f3816121bc565b91505061159e565b600782015481141561164d57600782018054600180820183556000928352602080842090920180546001600160a01b0319166001600160a01b0389161790556008850180549182018155835290822001555b600a82015460ff1615611670578154611670906001600160a01b03168585611b7f565b828260080182815481106116865761168661218f565b90600052602060002001600082825461169f91906121ed565b9091555050604080518681526001600160a01b0386166020820152908101849052600160608201527f1dfdcce523ed63eed2c7395d37868b4f7a225655e2e6e7fcd0eb7133034adad590608001610d50565b6001600160a01b0382166000908152600a602052604090206117139082611bc3565b505050565b604080518082018252601981527f7472616e7366657228616464726573732c75696e74323536290000000000000060209182015281516001600160a01b0385811660248301526044808301869052845180840390910181526064909201845291810180516001600160e01b031663a9059cbb60e01b179052915160009283928716916117a49190612205565b6000604051808303816000865af19150503d80600081146117e1576040519150601f19603f3d011682016040523d82523d6000602084013e6117e6565b606091505b50915091508180156118105750805115806118105750808060200190518101906118109190612240565b6118535760405162461bcd60e51b81526020600482015260146024820152731053534e881514905394d1915497d1905253115160621b6044820152606401610298565b5050505050565b6005546040516315d5220f60e31b81526001600160a01b038381166004830152600092169063aea910789060240160206040518083038186803b1580156118a057600080fd5b505afa1580156118b4573d6000803e3d6000fd5b505050506040513d601f19601f820116820180604052508101906118d89190612262565b92915050565b6001600160a01b0382166000908152600b602052604090206117139082611bc3565b6006546040516323b872dd60e01b81526001600160a01b039182166004820152848216602482015260448101839052908316906323b872dd906064015b602060405180830381600087803b15801561195757600080fd5b505af115801561196b573d6000803e3d6000fd5b505050506040513d601f19601f8201168201806040525081019061198f9190612240565b50505050565b6001600160a01b0382166000908152600a602052604090206117139082611c5d565b600080805b6007840154811015611a1e578360080181815481106119dd576119dd61218f565b9060005260206000200154611a008560070183815481106105c7576105c761218f565b611a0a919061214e565b915080611a16816121bc565b9150506119bc565b50600683015460058401546004850154600092620186a0929091611a4a906001600160a01b031661185a565b611a54919061214e565b611a5e919061214e565b611a68919061216d565b91909111159392505050565b600080805b6007840154811015611b75576000846007018281548110611a9c57611a9c61218f565b6000918252602090912001548554600654604051636eb1769f60e11b81526001600160a01b039283166004820152908216602482015291169063dd62ed3e9060440160206040518083038186803b158015611af657600080fd5b505afa158015611b0a573d6000803e3d6000fd5b505050506040513d601f19601f82011682018060405250810190611b2e9190612262565b9050846008018281548110611b4557611b4561218f565b9060005260206000200154811015611b6257506000949350505050565b5080611b6d816121bc565b915050611a79565b5060019392505050565b6006546040516323b872dd60e01b81526001600160a01b038581166004830152918216602482015260448101839052908316906323b872dd9060640161193d565b50565b6000811580611bd95750611bd78383611c72565b155b15611be6575060006118d8565b600082815260018481016020908152604080842084805290915280832054828452922054611c18928692909190611cf6565b60008281526001848101602090815260408084208480529091528083208390558183528220829055845490918591611c519084906121a5565b90915550919392505050565b6000611c6b83836000611d2b565b9392505050565b60008181526001830160209081526040808320838052909152812054158015611cb557506000828152600180850160209081526040808420928452919052902054155b15611cee576000808052600180850160209081526040808420928452919052902054821415611ce6575060016118d8565b5060006118d8565b5060016118d8565b600082815260019094016020818152604080872093158088529382528087208690559486529081528385209115855252912055565b6000611d3a8460008585611d42565b949350505050565b6000611d4e8584611c72565b158015611d605750611d608585611c72565b15611dc057600084815260018601602090815260408083208515158452909152902054611d8f86868686611cf6565b611d9b86858386611cf6565b6001866000016000828254611db091906121ed565b9091555060019250611d3a915050565b506000949350505050565b5080546000825590600052602060002090810190611bc091905b80821115611df95760008155600101611de5565b5090565b600060208284031215611e0f57600080fd5b5035919050565b80356001600160a01b0381168114611e2d57600080fd5b919050565b600060208284031215611e4457600080fd5b611c6b82611e16565b6020808252825182820181905260009190848201906040850190845b81811015611e8557835183529284019291840191600101611e69565b50909695505050505050565b600081518084526020808501945080840160005b83811015611eca5781516001600160a01b031687529582019590820190600101611ea5565b509495945050505050565b600081518084526020808501945080840160005b83811015611eca57815187529582019590820190600101611ee9565b60208152611f1f6020820183516001600160a01b03169052565b6020820151604082015260006040830151611f4560608401826001600160a01b03169052565b50606083015160808301526080830151611f6a60a08401826001600160a01b03169052565b5060a083015160c083015260c083015160e083015260e08301516101806101008181860152611f9d6101a0860184611e91565b9250808601519050610120601f198685030181870152611fbd8483611ed5565b90870151610140878101919091528701519093509050610160611fe38187018315159052565b90950151151593019290925250919050565b60008060006060848603121561200a57600080fd5b8335925061201a60208501611e16565b9150604084013590509250925092565b600080600080600060a0868803121561204257600080fd5b61204b86611e16565b94506020860135935061206060408701611e16565b94979396509394606081013594506080013592915050565b60208082526017908201527f4e6f207375636820726573657276616c20657869737473000000000000000000604082015260600190565b602080825260159082015274139bdd081bdddb995c881bd9881c995cd95c9d985b605a1b604082015260600190565b6020808252601490820152734e6f2073756368206f666665722065786973747360601b604082015260600190565b6020808252601290820152712737ba1030b1b1b2b83a32b21037b33332b960711b604082015260600190565b634e487b7160e01b600052601160045260246000fd5b600081600019048311821515161561216857612168612138565b500290565b60008261218a57634e487b7160e01b600052601260045260246000fd5b500490565b634e487b7160e01b600052603260045260246000fd5b6000828210156121b7576121b7612138565b500390565b60006000198214156121d0576121d0612138565b5060010190565b634e487b7160e01b600052604160045260246000fd5b6000821982111561220057612200612138565b500190565b6000825160005b81811015612226576020818601810151858301520161220c565b81811115612235576000828501525b509190910192915050565b60006020828403121561225257600080fd5b81518015158114611c6b57600080fd5b60006020828403121561227457600080fd5b505191905056fea2646970667358221220803a3f02e48e1a3e2fd2e8bb5a1980c4e21c24033ebbe101a71f909214f4a94364736f6c63430008090033",
  "immutableReferences": {},
  "source": "// SPDX-License-Identifier: MIT\r\npragma solidity >=0.8.0 <0.9.0;\r\n\r\nimport {IERC721} from \"@openzeppelin/contracts/token/ERC721/IERC721.sol\";\r\nimport {IERC20} from \"@openzeppelin/contracts/token/ERC20/IERC20.sol\";\r\nimport {IERC721Metadata} from \"@openzeppelin/contracts/token/ERC721/extensions/IERC721Metadata.sol\";\r\nimport {IERC20Metadata} from \"@openzeppelin/contracts/token/ERC20/extensions/IERC20Metadata.sol\";\r\nimport \"@openzeppelin/contracts/token/ERC20/ERC20.sol\";\r\nimport \"solidity-linked-list/contracts/StructuredLinkedList.sol\";\r\nimport {IPriceOracle} from \"./interface/IPriceOracle.sol\";\r\nimport {NFTVault} from \"./NFTVault.sol\";\r\n\r\n/*\r\nOWNER:\r\n-  Whitelist asset to be open to receive Reserval Offers. He may (start with his own initial offer). IMPORTANT: if the owner sets an offer you get only the approval of the Owner ffor the NFT to the contract but the NFT is NOT LOCKED at this stage\r\n-  Owner can remove from whitelist without any cost as long as no offer has been accepted first.\r\n-  Owner can accept an offer. At this stage NFT is locked on the contract\r\n-  (modified, can't withdraw) Owner can withdraw collateral deposited by the buyer at any moment\r\n-  If owner wants to cancel the Reserval (Reserval), he needs to payback what he withdrawn +a fee\r\nBUYER:\r\n-  Buyer can set offers for whitelisted NFTs. IMPORTANT: the offer does not lock the collateral of the buyer. It only gets the proposal for that toekns aand amoiunt to the contrract. For example if i propose 10K SHIB, I approve the contract but i do not lock them.\r\n-  Buyer can reserve NFT directly if the owner has some offer\r\n-  Buyer needs to keep a level of collateral. Otherwise can be liquidaated and lose it.\r\n-  If collateral goes below the ratio, buyer needs to deposit more collateral.\r\n-  At future (expiration) the buyer needs to pay the Reserve Price within a period of 5 days max. If not, he loses the Reserval of buying\r\n*/\r\n\r\ncontract NFTReservalManager {\r\n  using StructuredLinkedList for StructuredLinkedList.List;\r\n  uint256 private constant PCT_DIVIDER = 100000;\r\n  bytes4 private constant SELECTOR = bytes4(keccak256(bytes('transfer(address,uint256)')));\r\n\r\n  event OReservalCreated(\r\n    address owner,\r\n    address nft,\r\n    uint256 expiry,\r\n    address token,\r\n    uint256 price,\r\n    uint256 pct,\r\n    uint256 reservalID\r\n  );\r\n\r\n  event OReservalCanceled(\r\n    address owner,\r\n    uint256 reservalID\r\n  );\r\n\r\n  event BOfferCreated(\r\n    address buyer,\r\n    uint256 reservalID,\r\n    address nft,\r\n    uint256 expiry,\r\n    address token,\r\n    uint256 price,\r\n    uint256 pct,\r\n    uint256 offerID\r\n  );\r\n\r\n  event OOfferAccepted(\r\n    uint256 offerID\r\n  );\r\n\r\n  event Assigned(\r\n    bool assigned,\r\n    uint256 reservalID,\r\n    uint256 offerID\r\n  );\r\n  \r\n  event CollateralDeposit(\r\n    uint256 offerID,\r\n    address token,\r\n    uint256 amount,\r\n    bool isDeposit\r\n  );\r\n\r\n  event ReservePayed(\r\n    uint256 offerID\r\n  );\r\n  \r\n  struct NFTReserval {\r\n    address owner;\r\n    address nft;\r\n    uint256 expiry;\r\n    address token;\r\n    uint256 price;\r\n    uint256 pct;\r\n    uint256 reservalID;\r\n    uint256 acceptedOfferID;\r\n  }\r\n\r\n  struct Offer {\r\n    address buyer;\r\n    uint256 reservalID;\r\n    address nft;\r\n    uint256 expiry;\r\n    address token;\r\n    uint256 price;\r\n    uint256 pct;\r\n    address[] colTokens;\r\n    uint256[] colAmounts;\r\n    uint256 offerID;\r\n    bool accepted;\r\n    bool reservePayed;\r\n  }\r\n\r\n  uint256 cntReserval;\r\n  uint256 cntOffer;\r\n  address[] tokens;\r\n  uint256 TOKEN_CNT;\r\n  address nftVault;\r\n  address priceOracle;\r\n  address admin;\r\n\r\n  mapping(uint256 => NFTReserval) reservals;\r\n  mapping(uint256 => Offer) offers;\r\n\r\n  mapping(address => bool) validToken;\r\n\r\n  mapping(address => StructuredLinkedList.List) listReserval;\r\n  mapping(address => StructuredLinkedList.List) listOffer;\r\n  mapping(uint256 => StructuredLinkedList.List) listOfferReq;\r\n\r\n  constructor(\r\n    address[] memory _tokens,\r\n    address _nftVault,\r\n    address _priceOracle\r\n  ) public {\r\n    tokens = _tokens;\r\n    nftVault = _nftVault;\r\n    priceOracle = _priceOracle;\r\n    admin = address(this);\r\n    TOKEN_CNT = _tokens.length;\r\n    for (uint i = 0; i < TOKEN_CNT; i++) {\r\n        validToken[_tokens[i]] = true;\r\n    }\r\n    cntReserval = 0;\r\n    cntOffer = 0;\r\n  }\r\n  \r\n  function createReserval(\r\n    address nft,\r\n    uint256 expiry,\r\n    address token,\r\n    uint256 price,\r\n    uint256 pct\r\n  ) external returns (uint256 reservalID) {\r\n    require(msg.sender == _nftOwner(nft), \"Not Owner of NFT\");\r\n    cntReserval++;\r\n    reservalID = cntReserval;\r\n    NFTReserval memory reserval = NFTReserval(msg.sender, nft, expiry, token, price, pct, reservalID, 0);\r\n\r\n    _reserval_add(reserval.owner, reservalID);\r\n    reservals[reservalID] = reserval;\r\n    \r\n    emit OReservalCreated(reserval.owner, nft, expiry, token, price, pct, reservalID);\r\n  }\r\n  \r\n  function cancelReserval(\r\n    uint256 reservalID\r\n  ) external {\r\n    NFTReserval storage reserval = _getReserval(reservalID);\r\n    require(reserval.owner != address(0), \"No such reserval exists\");\r\n    require(reserval.owner == msg.sender, \"Not owner of reserval\");\r\n\r\n    _reserval_remove(reserval.owner, reservalID);\r\n    delete reservals[reservalID];\r\n    \r\n    emit OReservalCanceled(reserval.owner, reservalID);\r\n  }\r\n  \r\n  function createOffer(\r\n    uint256 reservalID\r\n  ) external returns (uint256 offerID) {\r\n    NFTReserval storage reserval = _getReserval(reservalID);\r\n    require(reserval.owner != address(0), \"No such reserval exists\");\r\n\r\n    cntOffer++;\r\n    offerID = cntOffer;\r\n    address[] memory colTokens = new address[](TOKEN_CNT);\r\n    uint256[] memory colAmounts = new uint256[](TOKEN_CNT);\r\n\r\n    Offer memory offer = Offer(\r\n      msg.sender,\r\n      reservalID,\r\n      reserval.nft,\r\n      reserval.expiry,\r\n      reserval.token,\r\n      reserval.price,\r\n      reserval.pct,\r\n      colTokens,\r\n      colAmounts,\r\n      offerID,\r\n      false,\r\n      false\r\n      );\r\n\r\n    emit BOfferCreated(\r\n      offer.buyer,\r\n      reservalID,\r\n      reserval.nft,\r\n      reserval.expiry,\r\n      reserval.token,\r\n      reserval.price,\r\n      reserval.pct,\r\n      offerID\r\n      );\r\n  }\r\n\r\n  function acceptOffer(\r\n    uint256 offerID\r\n  ) external {\r\n    Offer storage offer = _getOffer(offerID);\r\n    require(offer.buyer != address(0), \"No such offer exists\");\r\n    \r\n    NFTReserval storage reserval = _getReserval(offer.reservalID);\r\n    require(msg.sender == reserval.owner, \"Not owner of reserval\");\r\n    \r\n    require(!offer.accepted, \"The offer is already accepted\");\r\n    require(reserval.acceptedOfferID == 0, \"The reserval is already matched\");\r\n\r\n    require(_checkCollateral(offer), \"Not enough collateral\");\r\n    require(_checkAllowance(offer), \"Not allowed enough\");\r\n    for (uint i = 0; i < offer.colTokens.length; i++) {\r\n      _putInCollateral(offer.buyer, offer.colTokens[i], offer.colAmounts[i]);\r\n    }\r\n    _lockNFT(reserval.nft);\r\n\r\n    reserval.acceptedOfferID = offerID;\r\n    offer.accepted = true;\r\n\r\n    emit OOfferAccepted(offerID);\r\n  }\r\n\r\n  function assignOffer(\r\n    uint256 offerID\r\n  ) external {\r\n    Offer storage offer = _getOffer(offerID);\r\n    require(offer.buyer != address(0), \"No such offer exists\");\r\n    require(offer.accepted, \"Not accepted offer\");\r\n    \r\n    NFTReserval storage reserval = _getReserval(offer.reservalID);\r\n    require(msg.sender == reserval.owner, \"Not owner of reserval\");\r\n\r\n    if (offer.reservePayed) {\r\n      _safeTransfer(reserval.token, reserval.owner, reserval.price);\r\n      _transferNFT(reserval.nft, reserval.owner, offer.buyer);\r\n    }\r\n    else {\r\n      uint256 unpayed = _tokenToUSD(offer.token) * offer.price * offer.pct / PCT_DIVIDER;\r\n      for (uint i = 0; i < offer.colTokens.length; i++) {\r\n        uint256 amountToOwner = unpayed / _tokenToUSD(offer.colTokens[i]);\r\n        if (amountToOwner > offer.colAmounts[i]) amountToOwner = offer.colAmounts[i];\r\n        uint256 amountToBuyer = offer.colAmounts[i] - amountToOwner;\r\n        if (amountToOwner > 0) {\r\n          unpayed = unpayed - _tokenToUSD(offer.colTokens[i]) * amountToOwner;\r\n          _safeTransfer(offer.colTokens[i], reserval.owner, amountToOwner);\r\n        }\r\n        if (amountToBuyer > 0) {\r\n          _safeTransfer(offer.colTokens[i], offer.buyer, amountToBuyer);\r\n        }\r\n      }\r\n    }\r\n\r\n    _reserval_remove(reserval.owner, reserval.reservalID);\r\n    _offer_remove(offer.buyer, offerID);\r\n    emit Assigned(offer.reservePayed, offer.reservalID, offerID);\r\n\r\n    delete offers[offerID];\r\n    delete reservals[reserval.reservalID];\r\n\r\n  }\r\n\r\n  function payReserve(\r\n    uint256 offerID\r\n  ) external {\r\n    Offer storage offer = _getOffer(offerID);\r\n    require(offer.buyer != address(0), \"No such offer exists\");\r\n    require(offer.accepted, \"Not accepted offer\");\r\n    \r\n    NFTReserval storage reserval = _getReserval(offer.reservalID);\r\n\r\n    offer.reservePayed = true;\r\n\r\n    emit ReservePayed(offerID);\r\n  }\r\n\r\n  function depositCollateral(\r\n    uint256 offerID,\r\n    address token,\r\n    uint256 amount\r\n  ) external {\r\n    require(validToken[token], \"Not vaild token\");\r\n    Offer storage offer = _getOffer(offerID);\r\n    require(offer.buyer != address(0), \"No such offer exists\");\r\n    require(msg.sender == offer.buyer, \"Not buyer of offer\");\r\n    require(offer.accepted, \"Not accepted offer\");\r\n\r\n    require(amount > 0, \"INSUFFICIENT_INPUT_AMOUNT\");\r\n\r\n    uint id = 0;\r\n    for (id = 0; id < offer.colTokens.length; id++) {\r\n      if (offer.colTokens[id] == token) break;\r\n    }\r\n    if (offer.colTokens.length == id) {\r\n      offer.colTokens.push(token);\r\n      offer.colAmounts.push(0);\r\n    }\r\n    if (offer.accepted) {\r\n      _putInCollateral(offer.buyer, token, amount);\r\n    }\r\n    offer.colAmounts[id] += amount;\r\n\r\n    emit CollateralDeposit(offerID, token, amount, true);\r\n  }\r\n\r\n  function withdrawCollateral(\r\n    uint256 offerID,\r\n    address token,\r\n    uint256 amount\r\n  ) external {\r\n    require(validToken[token], \"Not vaild token\");\r\n    Offer storage offer = _getOffer(offerID);\r\n    require(offer.buyer != address(0), \"No such offer exists\");\r\n    require(msg.sender == offer.buyer, \"Not buyer of offer\");\r\n    require(offer.accepted, \"Not accepted offer\");\r\n\r\n    require(amount > 0, \"INSUFFICIENT_INPUT_AMOUNT\");\r\n    \r\n    uint id = 0;\r\n    for (id = 0; id < offer.colTokens.length; id++) {\r\n      if (offer.colTokens[id] == token) break;\r\n    }\r\n    require((offer.colTokens.length > id) && (offer.colAmounts[id] >= amount), \"Not enough amount deposited\");\r\n\r\n    if (offer.accepted) {\r\n      _putOutCollateral(token, msg.sender, amount);\r\n    }\r\n    offer.colAmounts[id] -= amount;\r\n\r\n    emit CollateralDeposit(offerID, token, amount, false);\r\n  }\r\n\r\n  function getNFTReservals(address owner) external returns (uint256[] memory reservalIDs) {\r\n\r\n  }\r\n\r\n  function getOffers(address buyer) external returns (uint256[] memory offerIDs) {\r\n\r\n  }\r\n\r\n  function getOfferReqs(address owner) external returns (uint256[] memory offerIDs) {\r\n\r\n  }\r\n\r\n  function checkAssign() external {\r\n  }\r\n\r\n  function getReserval(uint256 reservalID) external returns (NFTReserval memory reserval) {\r\n    NFTReserval storage _reserval = _getReserval(reservalID);\r\n    require(_reserval.owner != address(0), \"No such reserval exists\");\r\n    reserval = _reserval;\r\n  }\r\n\r\n  function getOffer(uint256 offerID) external returns (Offer memory offer) {\r\n    Offer storage _offer = _getOffer(offerID);\r\n    require(_offer.buyer != address(0), \"No such offer exists\");\r\n    offer = _offer;\r\n  }\r\n\r\n  function _getReserval(uint256 reservalID) private returns (NFTReserval storage) {\r\n    return reservals[reservalID];\r\n  }\r\n\r\n  function _getOffer(uint256 offerID) private returns (Offer storage) {\r\n    return offers[offerID];\r\n  }\r\n\r\n  function _nftOwner(address nft) private returns (address) {\r\n    // not completed yet\r\n\r\n    return address(0);\r\n  }\r\n\r\n  function _lockNFT(address nft) private {\r\n    // not completed yet\r\n  }\r\n\r\n  function _transferNFT(address nft, address from, address to) private {\r\n    // not completed yet\r\n  }\r\n\r\n  function _tokenToUSD(address token) private returns (uint256) {\r\n    // not completed yet\r\n    return IPriceOracle(priceOracle).price(token);\r\n  }\r\n\r\n  function _checkCollateral(Offer storage offer) private returns (bool) {\r\n    uint256 totalUSD = 0;\r\n    for (uint i = 0; i < offer.colTokens.length; i++) {\r\n      totalUSD = _tokenToUSD(offer.colTokens[i]) * offer.colAmounts[i];\r\n    }\r\n    uint256 requiredUSD = _tokenToUSD(offer.token) * offer.price * offer.pct / PCT_DIVIDER;\r\n    return requiredUSD <= totalUSD;\r\n  }\r\n\r\n  function _checkAllowance(Offer storage offer) private returns (bool) {\r\n    uint256 totalUSD = 0;\r\n    for (uint i = 0; i < offer.colTokens.length; i++) {\r\n      uint256 allownce = IERC20(offer.colTokens[i]).allowance(offer.buyer, admin);\r\n      if (allownce < offer.colAmounts[i]) return false;\r\n    }\r\n    return true;\r\n  }\r\n\r\n  function _putInCollateral(address account, address token, uint256 amount) private {\r\n    IERC20(token).transferFrom(account, admin, amount);\r\n  }\r\n\r\n  function _putOutCollateral(address account, address token, uint256 amount) private {\r\n    IERC20(token).transferFrom(admin, account, amount);\r\n  }\r\n\r\n  function _safeTransfer(\r\n      address token,\r\n      address to,\r\n      uint value\r\n  ) private {\r\n      (bool success, bytes memory data) = token.call(\r\n          abi.encodeWithSelector(SELECTOR, to, value)\r\n      );\r\n      require(\r\n          success && (data.length == 0 || abi.decode(data, (bool))),\r\n          \"AMM: TRANSFER_FAILED\"\r\n      );\r\n  }\r\n\r\n  //-------------------------------------------------------------------------------//\r\n  //--------------------------- Linked List functions -----------------------------//\r\n  //-------------------------------------------------------------------------------//\r\n  function _reserval_add(address owner, uint256 reservalID) private {\r\n    StructuredLinkedList.pushBack(listReserval[owner], reservalID);\r\n  }\r\n\r\n  function _reserval_remove(address owner, uint256 reservalID) private {\r\n    StructuredLinkedList.remove(listReserval[owner], reservalID);\r\n  }\r\n\r\n  function _offer_add(address buyer, uint256 offerID) private {\r\n    StructuredLinkedList.pushBack(listOffer[buyer], offerID);\r\n  }\r\n\r\n  function _offer_remove(address buyer, uint256 offerID) private {\r\n    StructuredLinkedList.remove(listOffer[buyer], offerID);\r\n  }\r\n\r\n  function _offerReq_add(uint256 reservalID, uint256 offerID) private {\r\n    StructuredLinkedList.pushBack(listOfferReq[reservalID], offerID);\r\n  }\r\n\r\n  function _offerReq_remove(uint256 reservalID, uint256 offerID) private {\r\n    StructuredLinkedList.remove(listOfferReq[reservalID], offerID);\r\n  }\r\n  //-------------------------------------------------------------------------------//\r\n}\r\n",
  "sourcePath": "E:\\Projects\\Privi2\\PriviNFTOptions\\privi-NFT-buying\\contracts\\NFTReservalManager.sol",
  "compiler": {
    "name": "solc",
    "version": "0.8.9+commit.e5eed63a.Emscripten.clang"
  },
  "schemaVersion": "3.4.3",
  "updatedAt": "2021-11-09T14:52:56.834Z",
  "networkType": "ethereum",
  "devdoc": {
    "kind": "dev",
    "methods": {},
    "version": 1
  },
  "userdoc": {
    "kind": "user",
    "methods": {},
    "version": 1
  }
}