{
  "contractName": "NFTReservalManager",
  "abi": [
    {
      "inputs": [
        {
          "internalType": "address",
          "name": "_nftVault",
          "type": "address"
        },
        {
          "internalType": "address",
          "name": "_priceOracle",
          "type": "address"
        }
      ],
      "stateMutability": "nonpayable",
      "type": "constructor"
    },
    {
      "anonymous": false,
      "inputs": [
        {
          "indexed": false,
          "internalType": "bool",
          "name": "assigned",
          "type": "bool"
        },
        {
          "indexed": false,
          "internalType": "uint256",
          "name": "reservalID",
          "type": "uint256"
        },
        {
          "indexed": false,
          "internalType": "uint256",
          "name": "offerID",
          "type": "uint256"
        }
      ],
      "name": "Assigned",
      "type": "event"
    },
    {
      "anonymous": false,
      "inputs": [
        {
          "indexed": false,
          "internalType": "address",
          "name": "buyer",
          "type": "address"
        },
        {
          "indexed": false,
          "internalType": "uint256",
          "name": "reservalID",
          "type": "uint256"
        },
        {
          "indexed": false,
          "internalType": "address",
          "name": "nft",
          "type": "address"
        },
        {
          "indexed": false,
          "internalType": "uint256",
          "name": "expiry",
          "type": "uint256"
        },
        {
          "indexed": false,
          "internalType": "address",
          "name": "token",
          "type": "address"
        },
        {
          "indexed": false,
          "internalType": "uint256",
          "name": "price",
          "type": "uint256"
        },
        {
          "indexed": false,
          "internalType": "uint256",
          "name": "pct",
          "type": "uint256"
        },
        {
          "indexed": false,
          "internalType": "uint256",
          "name": "offerID",
          "type": "uint256"
        }
      ],
      "name": "BOfferCreated",
      "type": "event"
    },
    {
      "anonymous": false,
      "inputs": [
        {
          "indexed": false,
          "internalType": "uint256",
          "name": "offerID",
          "type": "uint256"
        },
        {
          "indexed": false,
          "internalType": "address",
          "name": "token",
          "type": "address"
        },
        {
          "indexed": false,
          "internalType": "uint256",
          "name": "amount",
          "type": "uint256"
        },
        {
          "indexed": false,
          "internalType": "bool",
          "name": "isDeposit",
          "type": "bool"
        }
      ],
      "name": "CollateralDeposit",
      "type": "event"
    },
    {
      "anonymous": false,
      "inputs": [
        {
          "indexed": false,
          "internalType": "uint256",
          "name": "offerID",
          "type": "uint256"
        }
      ],
      "name": "OOfferAccepted",
      "type": "event"
    },
    {
      "anonymous": false,
      "inputs": [
        {
          "indexed": false,
          "internalType": "address",
          "name": "owner",
          "type": "address"
        },
        {
          "indexed": false,
          "internalType": "uint256",
          "name": "reservalID",
          "type": "uint256"
        }
      ],
      "name": "OReservalCanceled",
      "type": "event"
    },
    {
      "anonymous": false,
      "inputs": [
        {
          "indexed": false,
          "internalType": "address",
          "name": "owner",
          "type": "address"
        },
        {
          "indexed": false,
          "internalType": "address",
          "name": "nft",
          "type": "address"
        },
        {
          "indexed": false,
          "internalType": "uint256",
          "name": "expiry",
          "type": "uint256"
        },
        {
          "indexed": false,
          "internalType": "address",
          "name": "token",
          "type": "address"
        },
        {
          "indexed": false,
          "internalType": "uint256",
          "name": "price",
          "type": "uint256"
        },
        {
          "indexed": false,
          "internalType": "uint256",
          "name": "pct",
          "type": "uint256"
        },
        {
          "indexed": false,
          "internalType": "uint256",
          "name": "reservalID",
          "type": "uint256"
        }
      ],
      "name": "OReservalCreated",
      "type": "event"
    },
    {
      "anonymous": false,
      "inputs": [
        {
          "indexed": false,
          "internalType": "uint256",
          "name": "offerID",
          "type": "uint256"
        }
      ],
      "name": "ReservePayed",
      "type": "event"
    },
    {
      "inputs": [
        {
          "internalType": "address[]",
          "name": "_tokens",
          "type": "address[]"
        }
      ],
      "name": "registerValidToken",
      "outputs": [],
      "stateMutability": "nonpayable",
      "type": "function"
    },
    {
      "inputs": [
        {
          "internalType": "address",
          "name": "nft",
          "type": "address"
        },
        {
          "internalType": "uint256",
          "name": "expiry",
          "type": "uint256"
        },
        {
          "internalType": "address",
          "name": "token",
          "type": "address"
        },
        {
          "internalType": "uint256",
          "name": "price",
          "type": "uint256"
        },
        {
          "internalType": "uint256",
          "name": "pct",
          "type": "uint256"
        }
      ],
      "name": "createReserval",
      "outputs": [
        {
          "internalType": "uint256",
          "name": "reservalID",
          "type": "uint256"
        }
      ],
      "stateMutability": "nonpayable",
      "type": "function"
    },
    {
      "inputs": [
        {
          "internalType": "uint256",
          "name": "reservalID",
          "type": "uint256"
        }
      ],
      "name": "cancelReserval",
      "outputs": [],
      "stateMutability": "nonpayable",
      "type": "function"
    },
    {
      "inputs": [
        {
          "internalType": "uint256",
          "name": "reservalID",
          "type": "uint256"
        },
        {
          "internalType": "address",
          "name": "nft",
          "type": "address"
        },
        {
          "internalType": "uint256",
          "name": "expiry",
          "type": "uint256"
        },
        {
          "internalType": "address",
          "name": "token",
          "type": "address"
        },
        {
          "internalType": "uint256",
          "name": "price",
          "type": "uint256"
        },
        {
          "internalType": "uint256",
          "name": "pct",
          "type": "uint256"
        }
      ],
      "name": "createOffer",
      "outputs": [
        {
          "internalType": "uint256",
          "name": "offerID",
          "type": "uint256"
        }
      ],
      "stateMutability": "nonpayable",
      "type": "function"
    },
    {
      "inputs": [
        {
          "internalType": "uint256",
          "name": "offerID",
          "type": "uint256"
        }
      ],
      "name": "acceptOffer",
      "outputs": [],
      "stateMutability": "nonpayable",
      "type": "function"
    },
    {
      "inputs": [
        {
          "internalType": "uint256",
          "name": "offerID",
          "type": "uint256"
        }
      ],
      "name": "assignOffer",
      "outputs": [],
      "stateMutability": "nonpayable",
      "type": "function"
    },
    {
      "inputs": [
        {
          "internalType": "uint256",
          "name": "offerID",
          "type": "uint256"
        }
      ],
      "name": "payReserve",
      "outputs": [],
      "stateMutability": "nonpayable",
      "type": "function"
    },
    {
      "inputs": [
        {
          "internalType": "uint256",
          "name": "offerID",
          "type": "uint256"
        },
        {
          "internalType": "address",
          "name": "token",
          "type": "address"
        },
        {
          "internalType": "uint256",
          "name": "amount",
          "type": "uint256"
        }
      ],
      "name": "depositCollateral",
      "outputs": [],
      "stateMutability": "nonpayable",
      "type": "function"
    },
    {
      "inputs": [
        {
          "internalType": "uint256",
          "name": "offerID",
          "type": "uint256"
        },
        {
          "internalType": "address",
          "name": "token",
          "type": "address"
        },
        {
          "internalType": "uint256",
          "name": "amount",
          "type": "uint256"
        }
      ],
      "name": "withdrawCollateral",
      "outputs": [],
      "stateMutability": "nonpayable",
      "type": "function"
    },
    {
      "inputs": [
        {
          "internalType": "address",
          "name": "owner",
          "type": "address"
        }
      ],
      "name": "getNFTReservals",
      "outputs": [
        {
          "internalType": "uint256[]",
          "name": "",
          "type": "uint256[]"
        }
      ],
      "stateMutability": "nonpayable",
      "type": "function"
    },
    {
      "inputs": [
        {
          "internalType": "address",
          "name": "buyer",
          "type": "address"
        }
      ],
      "name": "getOffers",
      "outputs": [
        {
          "internalType": "uint256[]",
          "name": "",
          "type": "uint256[]"
        }
      ],
      "stateMutability": "nonpayable",
      "type": "function"
    },
    {
      "inputs": [
        {
          "internalType": "uint256",
          "name": "reservalID",
          "type": "uint256"
        }
      ],
      "name": "getOfferReqs",
      "outputs": [
        {
          "internalType": "uint256[]",
          "name": "",
          "type": "uint256[]"
        }
      ],
      "stateMutability": "nonpayable",
      "type": "function"
    },
    {
      "inputs": [
        {
          "internalType": "uint256",
          "name": "reservalID",
          "type": "uint256"
        }
      ],
      "name": "getReserval",
      "outputs": [
        {
          "components": [
            {
              "internalType": "address",
              "name": "owner",
              "type": "address"
            },
            {
              "internalType": "address",
              "name": "nft",
              "type": "address"
            },
            {
              "internalType": "uint256",
              "name": "expiry",
              "type": "uint256"
            },
            {
              "internalType": "address",
              "name": "token",
              "type": "address"
            },
            {
              "internalType": "uint256",
              "name": "price",
              "type": "uint256"
            },
            {
              "internalType": "uint256",
              "name": "pct",
              "type": "uint256"
            },
            {
              "internalType": "uint256",
              "name": "reservalID",
              "type": "uint256"
            },
            {
              "internalType": "uint256",
              "name": "acceptedOfferID",
              "type": "uint256"
            }
          ],
          "internalType": "struct NFTReservalManager.NFTReserval",
          "name": "reserval",
          "type": "tuple"
        }
      ],
      "stateMutability": "nonpayable",
      "type": "function"
    },
    {
      "inputs": [
        {
          "internalType": "uint256",
          "name": "offerID",
          "type": "uint256"
        }
      ],
      "name": "getOffer",
      "outputs": [
        {
          "components": [
            {
              "internalType": "address",
              "name": "buyer",
              "type": "address"
            },
            {
              "internalType": "uint256",
              "name": "reservalID",
              "type": "uint256"
            },
            {
              "internalType": "address",
              "name": "nft",
              "type": "address"
            },
            {
              "internalType": "uint256",
              "name": "expiry",
              "type": "uint256"
            },
            {
              "internalType": "address",
              "name": "token",
              "type": "address"
            },
            {
              "internalType": "uint256",
              "name": "price",
              "type": "uint256"
            },
            {
              "internalType": "uint256",
              "name": "pct",
              "type": "uint256"
            },
            {
              "internalType": "address[]",
              "name": "colTokens",
              "type": "address[]"
            },
            {
              "internalType": "uint256[]",
              "name": "colAmounts",
              "type": "uint256[]"
            },
            {
              "internalType": "uint256",
              "name": "offerID",
              "type": "uint256"
            },
            {
              "internalType": "bool",
              "name": "accepted",
              "type": "bool"
            },
            {
              "internalType": "bool",
              "name": "reservePayed",
              "type": "bool"
            }
          ],
          "internalType": "struct NFTReservalManager.Offer",
          "name": "offer",
          "type": "tuple"
        }
      ],
      "stateMutability": "nonpayable",
      "type": "function"
    }
  ],
  "bytecode": "0x60806040523480156200001157600080fd5b5060405162002c9938038062002c9983398101604081905262000034916200013c565b604080516000815260208101918290525162000053916002916200009e565b50600480546001600160a01b039384166001600160a01b0319918216179091556005805492909316918116919091179091556006805490911630179055600080805560015562000174565b828054828255906000526020600020908101928215620000f6579160200282015b82811115620000f657825182546001600160a01b0319166001600160a01b03909116178255602090920191600190910190620000bf565b506200010492915062000108565b5090565b5b8082111562000104576000815560010162000109565b80516001600160a01b03811681146200013757600080fd5b919050565b600080604083850312156200015057600080fd5b6200015b836200011f565b91506200016b602084016200011f565b90509250929050565b612b1580620001846000396000f3fe608060405234801561001057600080fd5b50600436106100ea5760003560e01c8063c6f3ed8b1161008c578063cbd3221811610066578063cbd322181461024f578063d2ac6c4414610262578063de9d62de14610275578063ebea51b41461028857600080fd5b8063c6f3ed8b14610208578063c815729d14610229578063ca7596411461023c57600080fd5b80632d86c000116100c85780632d86c000146101a25780634579268a146101c257806399ea56b0146101e2578063b0364b67146101f557600080fd5b806306a7ad64146100ef57806319752d251461010457806324af54b61461018f575b600080fd5b6101026100fd366004612511565b61029b565b005b610117610112366004612511565b6103b6565b604051610186919060006101008201905060018060a01b0380845116835280602085015116602084015260408401516040840152806060850151166060840152506080830151608083015260a083015160a083015260c083015160c083015260e083015160e083015292915050565b60405180910390f35b61010261019d366004612511565b6104bc565b6101b56101b036600461254f565b610905565b604051610186919061256c565b6101d56101d0366004612511565b61092f565b6040516101869190612624565b6101026101f0366004612714565b610b31565b6101b5610203366004612511565b610e00565b61021b61021636600461274c565b610e1a565b604051908152602001610186565b610102610237366004612511565b610ff0565b61021b61024a36600461279e565b611292565b61010261025d366004612511565b61160e565b610102610270366004612810565b6117b7565b6101b561028336600461254f565b61183d565b610102610296366004612714565b611861565b600081815260076020526040902080546001600160a01b03166102d95760405162461bcd60e51b81526004016102d0906128d5565b60405180910390fd5b80546001600160a01b031633146103025760405162461bcd60e51b81526004016102d09061290c565b8054610317906001600160a01b031683611b04565b600082815260076020818152604080842080546001600160a01b031990811682556001820180548216905560028201869055600382018054909116905560048101859055600581018590556006810185905590920192909255825481516001600160a01b0390911681529182018490527fc54196fb89f0de06064e8350a77850230e5fc554d1d593a76d12c352deadcdde910160405180910390a15050565b61041960405180610100016040528060006001600160a01b0316815260200160006001600160a01b031681526020016000815260200160006001600160a01b03168152602001600081526020016000815260200160008152602001600081525090565b600082815260076020526040902080546001600160a01b031661044e5760405162461bcd60e51b81526004016102d0906128d5565b604080516101008101825282546001600160a01b0390811682526001840154811660208301526002840154928201929092526003830154909116606082015260048201546080820152600582015460a0820152600682015460c082015260079091015460e082015292915050565b600081815260086020526040902080546001600160a01b03166104f15760405162461bcd60e51b81526004016102d09061293b565b600a81015460ff166105155760405162461bcd60e51b81526004016102d090612969565b6001810154600090815260076020526040902080546001600160a01b031633146105515760405162461bcd60e51b81526004016102d09061290c565b600a820154610100900460ff16156105a857805460048301546005840154610586926001600160a01b03908116921690611b2b565b600282015482546105a3916001600160a01b039081169116611c6d565b610794565b600682015460058301546004840154600092620186a09290916105d3906001600160a01b0316611cd8565b6105dd91906129ab565b6105e791906129ab565b6105f191906129ca565b905060005b600784015481101561079157600061063685600701838154811061061c5761061c6129ec565b6000918252602090912001546001600160a01b0316611cd8565b61064090846129ca565b9050846008018281548110610657576106576129ec565b906000526020600020015481111561068c5784600801828154811061067e5761067e6129ec565b906000526020600020015490505b6000818660080184815481106106a4576106a46129ec565b90600052602060002001546106b99190612a02565b9050811561073457816106da87600701858154811061061c5761061c6129ec565b6106e491906129ab565b6106ee9085612a02565b8554600788018054929650610734926001600160a01b039092169186908110610719576107196129ec565b6000918252602090912001546001600160a01b031684611b2b565b801561077c57855460078701805461077c926001600160a01b0316919086908110610761576107616129ec565b6000918252602090912001546001600160a01b031683611b2b565b5050808061078990612a19565b9150506105f6565b50505b805460068201546107ae916001600160a01b031690611b04565b81546107c3906001600160a01b031684611d56565b6107d1826001015484611d78565b600a82015460018301546040805161010090930460ff1615158352602083019190915281018490527f7c9e91160ddf7baf7154c690eb878e3db5767822c1109de4b4fca9c864e479869060600160405180910390a1600083815260086020526040812080546001600160a01b031990811682556001820183905560028201805482169055600382018390556004820180549091169055600581018290556006810182905590610883600783018261243b565b61089160088301600061243b565b50600060098201819055600a909101805461ffff191690556006918201548152600760208190526040822080546001600160a01b0319908116825560018201805482169055600282018490556003820180549091169055600481018390556005810183905592830182905591909101555050565b6001600160a01b0381166000908152600b6020526040902060609061092990611d90565b92915050565b6109b260405180610180016040528060006001600160a01b031681526020016000815260200160006001600160a01b031681526020016000815260200160006001600160a01b0316815260200160008152602001600081526020016060815260200160608152602001600081526020016000151581526020016000151581525090565b600082815260086020526040902080546001600160a01b03166109e75760405162461bcd60e51b81526004016102d09061293b565b604080516101808101825282546001600160a01b039081168252600184015460208084019190915260028501548216838501526003850154606084015260048501549091166080830152600584015460a0830152600684015460c08301526007840180548451818402810184019095528085529293859360e0860193919291830182828015610a9f57602002820191906000526020600020905b81546001600160a01b03168152600190910190602001808311610a81575b5050505050815260200160088201805480602002602001604051908101604052809291908181526020018280548015610af757602002820191906000526020600020905b815481526020019060010190808311610ae3575b505050918352505060098201546020820152600a9091015460ff808216151560408401526101009091041615156060909101529392505050565b6001600160a01b03821660009081526009602052604090205460ff16610b8b5760405162461bcd60e51b815260206004820152600f60248201526e2737ba103b30b4b632103a37b5b2b760891b60448201526064016102d0565b600083815260086020526040902080546001600160a01b0316610bc05760405162461bcd60e51b81526004016102d09061293b565b80546001600160a01b03163314610c0e5760405162461bcd60e51b81526020600482015260126024820152712737ba10313abcb2b91037b31037b33332b960711b60448201526064016102d0565b600a81015460ff16610c325760405162461bcd60e51b81526004016102d090612969565b60008211610c7e5760405162461bcd60e51b8152602060048201526019602482015278125394d551919250d251539517d25394155517d05353d55395603a1b60448201526064016102d0565b60005b6007820154811015610cde57836001600160a01b0316826007018281548110610cac57610cac6129ec565b6000918252602090912001546001600160a01b03161415610ccc57610cde565b80610cd681612a19565b915050610c81565b600782015481108015610d10575082826008018281548110610d0257610d026129ec565b906000526020600020015410155b610d5c5760405162461bcd60e51b815260206004820152601b60248201527f4e6f7420656e6f75676820616d6f756e74206465706f7369746564000000000060448201526064016102d0565b600a82015460ff1615610d7457610d74338585611b2b565b82826008018281548110610d8a57610d8a6129ec565b906000526020600020016000828254610da39190612a02565b9091555050604080518681526001600160a01b0386166020820152908101849052600060608201527f1dfdcce523ed63eed2c7395d37868b4f7a225655e2e6e7fcd0eb7133034adad5906080015b60405180910390a15050505050565b6000818152600c6020526040902060609061092990611d90565b6000610e2586611e3c565b6001600160a01b0316336001600160a01b031614610e785760405162461bcd60e51b815260206004820152601060248201526f139bdd0813dddb995c881bd98813919560821b60448201526064016102d0565b600080549080610e8783612a19565b919050555060005490506000604051806101000160405280336001600160a01b03168152602001886001600160a01b03168152602001878152602001866001600160a01b0316815260200185815260200184815260200183815260200160008152509050610ef9816000015183611ebf565b600082815260076020818152604092839020845181546001600160a01b03199081166001600160a01b03928316908117845587850151600185018054841691851691909117905587870151600285015560608089015160038601805490941690851617909255608080890151600486015560a0808a0151600587015560c0808b0151600688015560e0808c0151979099019690965588519283528f8516968301969096529681018d9052918b169082015293840188905290830186905282018490527fc05e5aabf413dd21ad2fc2ddf043c7cf8b15fac2b9377e04eb257b24a2af3c12910160405180910390a15095945050505050565b600081815260086020526040902080546001600160a01b03166110255760405162461bcd60e51b81526004016102d09061293b565b6001810154600090815260076020526040902080546001600160a01b031633146110615760405162461bcd60e51b81526004016102d09061290c565b600a82015460ff16156110b65760405162461bcd60e51b815260206004820152601d60248201527f546865206f6666657220697320616c726561647920616363657074656400000060448201526064016102d0565b6007810154156111085760405162461bcd60e51b815260206004820152601f60248201527f54686520726573657276616c20697320616c7265616479206d6174636865640060448201526064016102d0565b61111182611ee1565b6111555760405162461bcd60e51b8152602060048201526015602482015274139bdd08195b9bdd59da0818dbdb1b185d195c985b605a1b60448201526064016102d0565b61115e82611f9e565b61119f5760405162461bcd60e51b815260206004820152601260248201527109cdee840c2d8d8deeecac840cadcdeeaced60731b60448201526064016102d0565b60005b6007830154811015611225578254600784018054611213926001600160a01b03169190849081106111d5576111d56129ec565b6000918252602090912001546008860180546001600160a01b039092169185908110611203576112036129ec565b90600052602060002001546120a9565b8061121d81612a19565b9150506111a2565b50600282015461123d906001600160a01b031661213d565b60078101839055600a8201805460ff191660011790556040517f849b9c9365baf4ef2403308ee92d15dd1da4de6add8ca2ffeacf4358cbe0a757906112859085815260200190565b60405180910390a1505050565b600086815260076020526040812080546001600160a01b03166112c75760405162461bcd60e51b81526004016102d0906128d5565b60018101546001600160a01b0388811691161461131b5760405162461bcd60e51b8152602060048201526012602482015271139195081a5cc81b9bdd081b585d18da195960721b60448201526064016102d0565b6001805490600061132b83612a19565b91905055506001549150600060035467ffffffffffffffff811115611352576113526127fa565b60405190808252806020026020018201604052801561137b578160200160208202803683370190505b509050600060035467ffffffffffffffff81111561139b5761139b6127fa565b6040519080825280602002602001820160405280156113c4578160200160208202803683370190505b5090506000604051806101800160405280336001600160a01b031681526020018c81526020018b6001600160a01b031681526020018a8152602001896001600160a01b03168152602001888152602001878152602001848152602001838152602001868152602001600015158152602001600015158152509050806008600087815260200190815260200160002060008201518160000160006101000a8154816001600160a01b0302191690836001600160a01b031602179055506020820151816001015560408201518160020160006101000a8154816001600160a01b0302191690836001600160a01b031602179055506060820151816003015560808201518160040160006101000a8154816001600160a01b0302191690836001600160a01b0316021790555060a0820151816005015560c0820151816006015560e082015181600701908051906020019061151d92919061245c565b50610100820151805161153a9160088401916020909101906124c1565b506101208201516009820155610140820151600a90910180546101609093015115156101000261ff00199215159290921661ffff19909316929092171790556115838b86612198565b805161158f90866121b0565b8051604080516001600160a01b039283168152602081018e90528c831681830152606081018c9052918a16608083015260a0820189905260c0820188905260e08201879052517fda307974aa86f27035cd8c81073664a91b815a537e36377f0f15965e277bfc36918190036101000190a1505050509695505050505050565b600081815260086020526040902080546001600160a01b03166116435760405162461bcd60e51b81526004016102d09061293b565b600a81015460ff166116675760405162461bcd60e51b81526004016102d090612969565b600a810154610100900460ff16156116b75760405162461bcd60e51b8152602060048201526013602482015272105b1c9958591e481c185e54995cd95c9d9959606a1b60448201526064016102d0565b600181015460009081526007602052604090208154600483015460058401546116ed926001600160a01b039081169216906120a9565b60005b6007830154811015611773578254600784018054611761926001600160a01b0316919084908110611723576117236129ec565b6000918252602090912001546008860180546001600160a01b039092169185908110611751576117516129ec565b9060005260206000200154611b2b565b8061176b81612a19565b9150506116f0565b50600a8201805461ff0019166101001790556040517f3ad5ff1b4352fbcb9c7e0967bf0cf2387cdd444e6c531f94ac7e411f7404625d906112859085815260200190565b80516117ca90600290602084019061245c565b50805160035560005b600354811015611839576001600960008484815181106117f5576117f56129ec565b6020908102919091018101516001600160a01b03168252810191909152604001600020805460ff19169115159190911790558061183181612a19565b9150506117d3565b5050565b6001600160a01b0381166000908152600a6020526040902060609061092990611d90565b6001600160a01b03821660009081526009602052604090205460ff166118bb5760405162461bcd60e51b815260206004820152600f60248201526e2737ba103b30b4b632103a37b5b2b760891b60448201526064016102d0565b600083815260086020526040902080546001600160a01b03166118f05760405162461bcd60e51b81526004016102d09061293b565b80546001600160a01b0316331461193e5760405162461bcd60e51b81526020600482015260126024820152712737ba10313abcb2b91037b31037b33332b960711b60448201526064016102d0565b600a81015460ff166119625760405162461bcd60e51b81526004016102d090612969565b600082116119ae5760405162461bcd60e51b8152602060048201526019602482015278125394d551919250d251539517d25394155517d05353d55395603a1b60448201526064016102d0565b60005b6007820154811015611a0e57836001600160a01b03168260070182815481106119dc576119dc6129ec565b6000918252602090912001546001600160a01b031614156119fc57611a0e565b80611a0681612a19565b9150506119b1565b6007820154811415611a6057600782018054600180820183556000928352602080842090920180546001600160a01b0319166001600160a01b0389161790556008850180549182018155835290822001555b600a82015460ff1615611a83578154611a83906001600160a01b031685856120a9565b82826008018281548110611a9957611a996129ec565b906000526020600020016000828254611ab29190612a34565b9091555050604080518681526001600160a01b0386166020820152908101849052600160608201527f1dfdcce523ed63eed2c7395d37868b4f7a225655e2e6e7fcd0eb7133034adad590608001610df1565b6001600160a01b0382166000908152600a60205260409020611b2690826121d2565b505050565b604080518082018252601981527f7472616e7366657228616464726573732c75696e74323536290000000000000060209182015281516001600160a01b0386811660248301526044808301869052845180840390910181526064909201845291810180516001600160e01b031663a9059cbb60e01b17905291516000928392861691611bb79190612a4c565b6000604051808303816000865af19150503d8060008114611bf4576040519150601f19603f3d011682016040523d82523d6000602084013e611bf9565b606091505b5091509150818015611c23575080511580611c23575080806020019051810190611c239190612a87565b611c665760405162461bcd60e51b81526020600482015260146024820152731053534e881514905394d1915497d1905253115160621b60448201526064016102d0565b5050505050565b6004805460405163e1268d6f60e01b81526001600160a01b0385811693820193909352838316602482015291169063e1268d6f9060440160006040518083038186803b158015611cbc57600080fd5b505afa158015611cd0573d6000803e3d6000fd5b505050505050565b6005546040516315d5220f60e31b81526001600160a01b038381166004830152600092169063aea910789060240160206040518083038186803b158015611d1e57600080fd5b505afa158015611d32573d6000803e3d6000fd5b505050506040513d601f19601f820116820180604052508101906109299190612aa9565b6001600160a01b0382166000908152600b60205260409020611b2690826121d2565b6000828152600c60205260409020611b2690826121d2565b60606000826000015467ffffffffffffffff811115611db157611db16127fa565b604051908082528060200260200182016040528015611dda578160200160208202803683370190505b5090506000805b6001611ded868361226c565b925090508015611e275781848481518110611e0a57611e0a6129ec565b602090810291909101015282611e1f81612a19565b935050611e2d565b50611e33565b50611de1565b50909392505050565b6004805460405163666e1b3960e01b81526001600160a01b03848116938201939093526000929091169063666e1b399060240160206040518083038186803b158015611e8757600080fd5b505afa158015611e9b573d6000803e3d6000fd5b505050506040513d601f19601f820116820180604052508101906109299190612ac2565b6001600160a01b0382166000908152600a60205260409020611b269082612286565b600080805b6007840154811015611f4857836008018181548110611f0757611f076129ec565b9060005260206000200154611f2a85600701838154811061061c5761061c6129ec565b611f3491906129ab565b915080611f4081612a19565b915050611ee6565b50600683015460058401546004850154600092620186a0929091611f74906001600160a01b0316611cd8565b611f7e91906129ab565b611f8891906129ab565b611f9291906129ca565b91909111159392505050565b600080805b600784015481101561209f576000846007018281548110611fc657611fc66129ec565b6000918252602090912001548554600654604051636eb1769f60e11b81526001600160a01b039283166004820152908216602482015291169063dd62ed3e9060440160206040518083038186803b15801561202057600080fd5b505afa158015612034573d6000803e3d6000fd5b505050506040513d601f19601f820116820180604052508101906120589190612aa9565b905084600801828154811061206f5761206f6129ec565b906000526020600020015481101561208c57506000949350505050565b508061209781612a19565b915050611fa3565b5060019392505050565b6006546040516323b872dd60e01b81526001600160a01b038581166004830152918216602482015260448101839052908316906323b872dd90606401602060405180830381600087803b1580156120ff57600080fd5b505af1158015612113573d6000803e3d6000fd5b505050506040513d601f19601f820116820180604052508101906121379190612a87565b50505050565b6004805460405163206d827760e11b81526001600160a01b03848116938201939093529116906340db04ee9060240160006040518083038186803b15801561218457600080fd5b505afa158015611c66573d6000803e3d6000fd5b6000828152600c60205260409020611b269082612286565b6001600160a01b0382166000908152600b60205260409020611b269082612286565b60008115806121e857506121e6838361229b565b155b156121f557506000610929565b60008281526001848101602090815260408084208480529091528083205482845292205461222792869290919061231f565b60008281526001848101602090815260408084208480529091528083208390558183528220829055845490918591612260908490612a02565b90915550919392505050565b60008061227b84846001612354565b915091509250929050565b60006122948383600061239b565b9392505050565b600081815260018301602090815260408083208380529091528120541580156122de57506000828152600180850160209081526040808420928452919052902054155b1561231757600080805260018085016020908152604080842092845291905290205482141561230f57506001610929565b506000610929565b506001610929565b600082815260019094016020818152604080872093158088529382528087208690559486529081528385209115855252912055565b600080612361858561229b565b61237057506000905080612393565b505060008281526001848101602090815260408084208515158552909152909120545b935093915050565b60006123aa84600085856123b2565b949350505050565b60006123be858461229b565b1580156123d057506123d0858561229b565b15612430576000848152600186016020908152604080832085151584529091529020546123ff8686868661231f565b61240b8685838661231f565b60018660000160008282546124209190612a34565b90915550600192506123aa915050565b506000949350505050565b508054600082559060005260206000209081019061245991906124fc565b50565b8280548282559060005260206000209081019282156124b1579160200282015b828111156124b157825182546001600160a01b0319166001600160a01b0390911617825560209092019160019091019061247c565b506124bd9291506124fc565b5090565b8280548282559060005260206000209081019282156124b1579160200282015b828111156124b15782518255916020019190600101906124e1565b5b808211156124bd57600081556001016124fd565b60006020828403121561252357600080fd5b5035919050565b6001600160a01b038116811461245957600080fd5b803561254a8161252a565b919050565b60006020828403121561256157600080fd5b81356122948161252a565b6020808252825182820181905260009190848201906040850190845b818110156125a457835183529284019291840191600101612588565b50909695505050505050565b600081518084526020808501945080840160005b838110156125e95781516001600160a01b0316875295820195908201906001016125c4565b509495945050505050565b600081518084526020808501945080840160005b838110156125e957815187529582019590820190600101612608565b6020815261263e6020820183516001600160a01b03169052565b602082015160408201526000604083015161266460608401826001600160a01b03169052565b5060608301516080830152608083015161268960a08401826001600160a01b03169052565b5060a083015160c083015260c083015160e083015260e083015161018061010081818601526126bc6101a08601846125b0565b9250808601519050610120601f1986850301818701526126dc84836125f4565b908701516101408781019190915287015190935090506101606127028187018315159052565b90950151151593019290925250919050565b60008060006060848603121561272957600080fd5b83359250602084013561273b8161252a565b929592945050506040919091013590565b600080600080600060a0868803121561276457600080fd5b853561276f8161252a565b94506020860135935060408601356127868161252a565b94979396509394606081013594506080013592915050565b60008060008060008060c087890312156127b757600080fd5b8635955060208701356127c98161252a565b94506040870135935060608701356127e08161252a565b9598949750929560808101359460a0909101359350915050565b634e487b7160e01b600052604160045260246000fd5b6000602080838503121561282357600080fd5b823567ffffffffffffffff8082111561283b57600080fd5b818501915085601f83011261284f57600080fd5b813581811115612861576128616127fa565b8060051b604051601f19603f83011681018181108582111715612886576128866127fa565b6040529182528482019250838101850191888311156128a457600080fd5b938501935b828510156128c9576128ba8561253f565b845293850193928501926128a9565b98975050505050505050565b60208082526017908201527f4e6f207375636820726573657276616c20657869737473000000000000000000604082015260600190565b602080825260159082015274139bdd081bdddb995c881bd9881c995cd95c9d985b605a1b604082015260600190565b6020808252601490820152734e6f2073756368206f666665722065786973747360601b604082015260600190565b6020808252601290820152712737ba1030b1b1b2b83a32b21037b33332b960711b604082015260600190565b634e487b7160e01b600052601160045260246000fd5b60008160001904831182151516156129c5576129c5612995565b500290565b6000826129e757634e487b7160e01b600052601260045260246000fd5b500490565b634e487b7160e01b600052603260045260246000fd5b600082821015612a1457612a14612995565b500390565b6000600019821415612a2d57612a2d612995565b5060010190565b60008219821115612a4757612a47612995565b500190565b6000825160005b81811015612a6d5760208186018101518583015201612a53565b81811115612a7c576000828501525b509190910192915050565b600060208284031215612a9957600080fd5b8151801515811461229457600080fd5b600060208284031215612abb57600080fd5b5051919050565b600060208284031215612ad457600080fd5b81516122948161252a56fea26469706673582212201c33ef710a031d795ff567f165662be72efa90a05d17f32bdca3266e4638527d64736f6c63430008090033",
  "immutableReferences": {},
  "source": "// SPDX-License-Identifier: MIT\r\npragma solidity >=0.8.0 <0.9.0;\r\n\r\nimport {IERC721} from \"@openzeppelin/contracts/token/ERC721/IERC721.sol\";\r\nimport {IERC20} from \"@openzeppelin/contracts/token/ERC20/IERC20.sol\";\r\nimport {IERC721Metadata} from \"@openzeppelin/contracts/token/ERC721/extensions/IERC721Metadata.sol\";\r\nimport {IERC20Metadata} from \"@openzeppelin/contracts/token/ERC20/extensions/IERC20Metadata.sol\";\r\nimport \"@openzeppelin/contracts/token/ERC20/ERC20.sol\";\r\nimport \"solidity-linked-list/contracts/StructuredLinkedList.sol\";\r\nimport {IPriceOracle} from \"./interface/IPriceOracle.sol\";\r\nimport {INFTVault} from \"./interface/INFTVault.sol\";\r\n\r\n\r\ncontract NFTReservalManager {\r\n  using StructuredLinkedList for StructuredLinkedList.List;\r\n  uint256 private constant PCT_DIVIDER = 100000;\r\n  bytes4 private constant SELECTOR = bytes4(keccak256(bytes('transfer(address,uint256)')));\r\n\r\n  event OReservalCreated(\r\n    address owner,\r\n    address nft,\r\n    uint256 expiry,\r\n    address token,\r\n    uint256 price,\r\n    uint256 pct,\r\n    uint256 reservalID\r\n  );\r\n\r\n  event OReservalCanceled(\r\n    address owner,\r\n    uint256 reservalID\r\n  );\r\n\r\n  event BOfferCreated(\r\n    address buyer,\r\n    uint256 reservalID,\r\n    address nft,\r\n    uint256 expiry,\r\n    address token,\r\n    uint256 price,\r\n    uint256 pct,\r\n    uint256 offerID\r\n  );\r\n\r\n  event OOfferAccepted(\r\n    uint256 offerID\r\n  );\r\n\r\n  event Assigned(\r\n    bool assigned,\r\n    uint256 reservalID,\r\n    uint256 offerID\r\n  );\r\n  \r\n  event CollateralDeposit(\r\n    uint256 offerID,\r\n    address token,\r\n    uint256 amount,\r\n    bool isDeposit\r\n  );\r\n\r\n  event ReservePayed(\r\n    uint256 offerID\r\n  );\r\n  \r\n  struct NFTReserval {\r\n    address owner;\r\n    address nft;\r\n    uint256 expiry;\r\n    address token;\r\n    uint256 price;\r\n    uint256 pct;\r\n    uint256 reservalID;\r\n    uint256 acceptedOfferID;\r\n  }\r\n\r\n  struct Offer {\r\n    address buyer;\r\n    uint256 reservalID;\r\n    address nft;\r\n    uint256 expiry;\r\n    address token;\r\n    uint256 price;\r\n    uint256 pct;\r\n    address[] colTokens;\r\n    uint256[] colAmounts;\r\n    uint256 offerID;\r\n    bool accepted;\r\n    bool reservePayed;\r\n  }\r\n\r\n  uint256 cntReserval;\r\n  uint256 cntOffer;\r\n  address[] tokens;\r\n  uint256 TOKEN_CNT;\r\n  address nftVault;\r\n  address priceOracle;\r\n  address admin;\r\n\r\n  mapping(uint256 => NFTReserval) reservals;\r\n  mapping(uint256 => Offer) offers;\r\n\r\n  mapping(address => bool) validToken;\r\n\r\n  mapping(address => StructuredLinkedList.List) listReserval;\r\n  mapping(address => StructuredLinkedList.List) listOffer;\r\n  mapping(uint256 => StructuredLinkedList.List) listOfferReq;\r\n\r\n  constructor(\r\n    address _nftVault,\r\n    address _priceOracle\r\n  ) public {\r\n    tokens = new address[](0);\r\n    nftVault = _nftVault;\r\n    priceOracle = _priceOracle;\r\n    admin = address(this);\r\n    cntReserval = 0;\r\n    cntOffer = 0;\r\n  }\r\n\r\n  function registerValidToken(\r\n    address[] memory _tokens\r\n  ) external {\r\n    tokens = _tokens;\r\n    TOKEN_CNT = _tokens.length;\r\n    for (uint i = 0; i < TOKEN_CNT; i++) {\r\n        validToken[_tokens[i]] = true;\r\n    }\r\n  }\r\n  \r\n  function createReserval(\r\n    address nft,\r\n    uint256 expiry,\r\n    address token,\r\n    uint256 price,\r\n    uint256 pct\r\n  ) external returns (uint256 reservalID) {\r\n    require(msg.sender == _nftOwner(nft), \"Not Owner of NFT\");\r\n    cntReserval++;\r\n    reservalID = cntReserval;\r\n    NFTReserval memory reserval = NFTReserval(msg.sender, nft, expiry, token, price, pct, reservalID, 0);\r\n\r\n    _reserval_add(reserval.owner, reservalID);\r\n    reservals[reservalID] = reserval;\r\n    \r\n    emit OReservalCreated(reserval.owner, nft, expiry, token, price, pct, reservalID);\r\n  }\r\n  \r\n  function cancelReserval(\r\n    uint256 reservalID\r\n  ) external {\r\n    NFTReserval storage reserval = _getReserval(reservalID);\r\n    require(reserval.owner != address(0), \"No such reserval exists\");\r\n    require(reserval.owner == msg.sender, \"Not owner of reserval\");\r\n\r\n    _reserval_remove(reserval.owner, reservalID);\r\n    delete reservals[reservalID];\r\n    \r\n    emit OReservalCanceled(reserval.owner, reservalID);\r\n  }\r\n  \r\n  function createOffer(\r\n    uint256 reservalID,\r\n    address nft,\r\n    uint256 expiry,\r\n    address token,\r\n    uint256 price,\r\n    uint256 pct\r\n  ) external returns (uint256 offerID) {\r\n    NFTReserval storage reserval = _getReserval(reservalID);\r\n    require(reserval.owner != address(0), \"No such reserval exists\");\r\n    require(reserval.nft == nft, \"NFT is not matched\");\r\n\r\n    cntOffer++;\r\n    offerID = cntOffer;\r\n    address[] memory colTokens = new address[](TOKEN_CNT);\r\n    uint256[] memory colAmounts = new uint256[](TOKEN_CNT);\r\n\r\n    Offer memory offer = Offer(\r\n      msg.sender,\r\n      reservalID,\r\n      nft,\r\n      expiry,\r\n      token,\r\n      price,\r\n      pct,\r\n      colTokens,\r\n      colAmounts,\r\n      offerID,\r\n      false,\r\n      false\r\n      );\r\n\r\n    offers[offerID] = offer;\r\n    _offerReq_add(reservalID, offerID);\r\n    _offer_add(offer.buyer, offerID);\r\n\r\n    emit BOfferCreated(\r\n      offer.buyer,\r\n      reservalID,\r\n      nft,\r\n      expiry,\r\n      token,\r\n      price,\r\n      pct,\r\n      offerID\r\n      );\r\n  }\r\n\r\n  function acceptOffer(\r\n    uint256 offerID\r\n  ) external {\r\n    Offer storage offer = _getOffer(offerID);\r\n    require(offer.buyer != address(0), \"No such offer exists\");\r\n    \r\n    NFTReserval storage reserval = _getReserval(offer.reservalID);\r\n    require(msg.sender == reserval.owner, \"Not owner of reserval\");\r\n    \r\n    require(!offer.accepted, \"The offer is already accepted\");\r\n    require(reserval.acceptedOfferID == 0, \"The reserval is already matched\");\r\n\r\n    require(_checkCollateral(offer), \"Not enough collateral\");\r\n    require(_checkAllowance(offer), \"Not allowed enough\");\r\n    for (uint i = 0; i < offer.colTokens.length; i++) {\r\n      _putIn(offer.buyer, offer.colTokens[i], offer.colAmounts[i]);\r\n    }\r\n    _lockNFT(offer.nft);\r\n\r\n    reserval.acceptedOfferID = offerID;\r\n    offer.accepted = true;\r\n\r\n    emit OOfferAccepted(offerID);\r\n  }\r\n\r\n  function assignOffer(\r\n    uint256 offerID\r\n  ) external {\r\n    Offer storage offer = _getOffer(offerID);\r\n    require(offer.buyer != address(0), \"No such offer exists\");\r\n    require(offer.accepted, \"Not accepted offer\");\r\n    \r\n    NFTReserval storage reserval = _getReserval(offer.reservalID);\r\n    require(msg.sender == reserval.owner, \"Not owner of reserval\");\r\n\r\n    if (offer.reservePayed) {\r\n      _putOut(reserval.owner, offer.token, offer.price);\r\n      _transferNFT(offer.nft, offer.buyer);\r\n    }\r\n    else {\r\n      uint256 unpayed = _tokenToUSD(offer.token) * offer.price * offer.pct / PCT_DIVIDER;\r\n      for (uint i = 0; i < offer.colTokens.length; i++) {\r\n        uint256 amountToOwner = unpayed / _tokenToUSD(offer.colTokens[i]);\r\n        if (amountToOwner > offer.colAmounts[i]) amountToOwner = offer.colAmounts[i];\r\n        uint256 amountToBuyer = offer.colAmounts[i] - amountToOwner;\r\n        if (amountToOwner > 0) {\r\n          unpayed = unpayed - _tokenToUSD(offer.colTokens[i]) * amountToOwner;\r\n          _putOut(reserval.owner, offer.colTokens[i], amountToOwner);\r\n        }\r\n        if (amountToBuyer > 0) {\r\n          _putOut(offer.buyer, offer.colTokens[i], amountToBuyer);\r\n        }\r\n      }\r\n    }\r\n\r\n    _reserval_remove(reserval.owner, reserval.reservalID);\r\n    _offer_remove(offer.buyer, offerID);\r\n    _offerReq_remove(offer.reservalID, offerID);\r\n    emit Assigned(offer.reservePayed, offer.reservalID, offerID);\r\n\r\n    delete offers[offerID];\r\n    delete reservals[reserval.reservalID];\r\n  }\r\n\r\n  function payReserve(\r\n    uint256 offerID\r\n  ) external {\r\n    Offer storage offer = _getOffer(offerID);\r\n    require(offer.buyer != address(0), \"No such offer exists\");\r\n    require(offer.accepted, \"Not accepted offer\");\r\n    require(!offer.reservePayed, \"Already payReserved\");\r\n    \r\n    NFTReserval storage reserval = _getReserval(offer.reservalID);\r\n\r\n    _putIn(offer.buyer, offer.token, offer.price);\r\n    for (uint i = 0; i < offer.colTokens.length; i++) {\r\n      _putOut(offer.buyer, offer.colTokens[i], offer.colAmounts[i]);\r\n    }\r\n\r\n    offer.reservePayed = true;\r\n\r\n    emit ReservePayed(offerID);\r\n  }\r\n\r\n  function depositCollateral(\r\n    uint256 offerID,\r\n    address token,\r\n    uint256 amount\r\n  ) external {\r\n    require(validToken[token], \"Not vaild token\");\r\n    Offer storage offer = _getOffer(offerID);\r\n    require(offer.buyer != address(0), \"No such offer exists\");\r\n    require(msg.sender == offer.buyer, \"Not buyer of offer\");\r\n    require(offer.accepted, \"Not accepted offer\");\r\n\r\n    require(amount > 0, \"INSUFFICIENT_INPUT_AMOUNT\");\r\n\r\n    uint id = 0;\r\n    for (id = 0; id < offer.colTokens.length; id++) {\r\n      if (offer.colTokens[id] == token) break;\r\n    }\r\n    if (offer.colTokens.length == id) {\r\n      offer.colTokens.push(token);\r\n      offer.colAmounts.push(0);\r\n    }\r\n    if (offer.accepted) {\r\n      _putIn(offer.buyer, token, amount);\r\n    }\r\n    offer.colAmounts[id] += amount;\r\n\r\n    emit CollateralDeposit(offerID, token, amount, true);\r\n  }\r\n\r\n  function withdrawCollateral(\r\n    uint256 offerID,\r\n    address token,\r\n    uint256 amount\r\n  ) external {\r\n    require(validToken[token], \"Not vaild token\");\r\n    Offer storage offer = _getOffer(offerID);\r\n    require(offer.buyer != address(0), \"No such offer exists\");\r\n    require(msg.sender == offer.buyer, \"Not buyer of offer\");\r\n    require(offer.accepted, \"Not accepted offer\");\r\n\r\n    require(amount > 0, \"INSUFFICIENT_INPUT_AMOUNT\");\r\n    \r\n    uint id = 0;\r\n    for (id = 0; id < offer.colTokens.length; id++) {\r\n      if (offer.colTokens[id] == token) break;\r\n    }\r\n    require((offer.colTokens.length > id) && (offer.colAmounts[id] >= amount), \"Not enough amount deposited\");\r\n\r\n    if (offer.accepted) {\r\n      _putOut(msg.sender, token, amount);\r\n    }\r\n    offer.colAmounts[id] -= amount;\r\n\r\n    emit CollateralDeposit(offerID, token, amount, false);\r\n  }\r\n\r\n  function getNFTReservals(address owner) external returns (uint256[] memory) {\r\n    return _getFullList(listReserval[owner]);\r\n  }\r\n\r\n  function getOffers(address buyer) external returns (uint256[] memory) {\r\n    return _getFullList(listOffer[buyer]);\r\n  }\r\n\r\n  function getOfferReqs(uint256 reservalID) external returns (uint256[] memory) {\r\n    return _getFullList(listOfferReq[reservalID]);\r\n  }\r\n\r\n  function getReserval(uint256 reservalID) external returns (NFTReserval memory reserval) {\r\n    NFTReserval storage _reserval = _getReserval(reservalID);\r\n    require(_reserval.owner != address(0), \"No such reserval exists\");\r\n    reserval = _reserval;\r\n  }\r\n\r\n  function getOffer(uint256 offerID) external returns (Offer memory offer) {\r\n    Offer storage _offer = _getOffer(offerID);\r\n    require(_offer.buyer != address(0), \"No such offer exists\");\r\n    offer = _offer;\r\n  }\r\n\r\n  //-------------------------------------------------------------------------------//\r\n  //----------------------------- private functions -------------------------------//\r\n  //-------------------------------------------------------------------------------//\r\n  function _getReserval(uint256 reservalID) private returns (NFTReserval storage) {\r\n    return reservals[reservalID];\r\n  }\r\n\r\n  function _getOffer(uint256 offerID) private returns (Offer storage) {\r\n    return offers[offerID];\r\n  }\r\n\r\n  function _checkCollateral(Offer storage offer) private returns (bool) {\r\n    uint256 totalUSD = 0;\r\n    for (uint i = 0; i < offer.colTokens.length; i++) {\r\n      totalUSD = _tokenToUSD(offer.colTokens[i]) * offer.colAmounts[i];\r\n    }\r\n    uint256 requiredUSD = _tokenToUSD(offer.token) * offer.price * offer.pct / PCT_DIVIDER;\r\n    return requiredUSD <= totalUSD;\r\n  }\r\n\r\n  function _checkAllowance(Offer storage offer) private returns (bool) {\r\n    uint256 totalUSD = 0;\r\n    for (uint i = 0; i < offer.colTokens.length; i++) {\r\n      uint256 allownce = IERC20(offer.colTokens[i]).allowance(offer.buyer, admin);\r\n      if (allownce < offer.colAmounts[i]) return false;\r\n    }\r\n    return true;\r\n  }\r\n\r\n  function _putIn(address account, address token, uint256 amount) private {\r\n    IERC20(token).transferFrom(account, admin, amount);\r\n  }\r\n\r\n  function _putOut(address account, address token, uint256 amount) private {\r\n    (bool success, bytes memory data) = token.call(\r\n        abi.encodeWithSelector(SELECTOR, account, amount)\r\n    );\r\n    require(\r\n        success && (data.length == 0 || abi.decode(data, (bool))),\r\n        \"AMM: TRANSFER_FAILED\"\r\n    );\r\n  }\r\n  //-------------------------------------------------------------------------------//\r\n\r\n\r\n  //-------------------------------------------------------------------------------//\r\n  //---------------------------- Interface functions ------------------------------//\r\n  //-------------------------------------------------------------------------------//\r\n  function _nftOwner(address nft) private returns (address) {\r\n    return INFTVault(nftVault).owner(nft);\r\n  }\r\n\r\n  function _lockNFT(address nft) private {\r\n    INFTVault(nftVault).lockNFT(nft);\r\n  }\r\n\r\n  function _unlockNFT(address nft) private {\r\n    INFTVault(nftVault).unlockNFT(nft);\r\n  }\r\n\r\n  function _transferNFT(address nft, address to) private {\r\n    INFTVault(nftVault).transferNFT(nft, to);\r\n  }\r\n\r\n  function _tokenToUSD(address token) private returns (uint256) {\r\n    return IPriceOracle(priceOracle).price(token);\r\n  }\r\n  //-------------------------------------------------------------------------------//\r\n\r\n\r\n  //-------------------------------------------------------------------------------//\r\n  //--------------------------- Linked List functions -----------------------------//\r\n  //-------------------------------------------------------------------------------//\r\n  function _reserval_add(address owner, uint256 reservalID) private {\r\n    StructuredLinkedList.pushBack(listReserval[owner], reservalID);\r\n  }\r\n\r\n  function _reserval_remove(address owner, uint256 reservalID) private {\r\n    StructuredLinkedList.remove(listReserval[owner], reservalID);\r\n  }\r\n\r\n  function _offer_add(address buyer, uint256 offerID) private {\r\n    StructuredLinkedList.pushBack(listOffer[buyer], offerID);\r\n  }\r\n\r\n  function _offer_remove(address buyer, uint256 offerID) private {\r\n    StructuredLinkedList.remove(listOffer[buyer], offerID);\r\n  }\r\n\r\n  function _offerReq_add(uint256 reservalID, uint256 offerID) private {\r\n    StructuredLinkedList.pushBack(listOfferReq[reservalID], offerID);\r\n  }\r\n\r\n  function _offerReq_remove(uint256 reservalID, uint256 offerID) private {\r\n    StructuredLinkedList.remove(listOfferReq[reservalID], offerID);\r\n  }\r\n\r\n  function _getFullList(StructuredLinkedList.List storage list) private returns (uint256[] memory) {\r\n    uint256[] memory ids = new uint256[](list.size);\r\n    uint cnt = 0;\r\n    for (uint256 cur = 0; ; ) {\r\n      bool exists = true;\r\n      (exists, cur) = StructuredLinkedList.getNextNode(list, cur);\r\n      if (exists) {\r\n        ids[cnt] = cur;\r\n        cnt++;\r\n      }\r\n      else {\r\n        break;\r\n      }\r\n    }\r\n    return ids;\r\n  }\r\n  //-------------------------------------------------------------------------------//\r\n}\r\n",
  "sourcePath": "E:\\Projects\\Privi2\\PriviNFTOptions\\privi-NFT-buying\\contracts\\NFTReservalManager.sol",
  "compiler": {
    "name": "solc",
    "version": "0.8.9+commit.e5eed63a.Emscripten.clang"
  },
  "schemaVersion": "3.4.3",
  "updatedAt": "2021-11-10T20:10:07.270Z",
  "networkType": "ethereum",
  "devdoc": {
    "kind": "dev",
    "methods": {},
    "version": 1
  },
  "userdoc": {
    "kind": "user",
    "methods": {},
    "version": 1
  }
}