{
  "contractName": "NFTVault",
  "abi": [
    {
      "inputs": [],
      "stateMutability": "nonpayable",
      "type": "constructor"
    },
    {
      "inputs": [
        {
          "internalType": "address",
          "name": "",
          "type": "address"
        }
      ],
      "name": "lockNFT",
      "outputs": [],
      "stateMutability": "view",
      "type": "function"
    },
    {
      "inputs": [
        {
          "internalType": "address",
          "name": "",
          "type": "address"
        }
      ],
      "name": "unlockNFT",
      "outputs": [],
      "stateMutability": "view",
      "type": "function"
    },
    {
      "inputs": [
        {
          "internalType": "address",
          "name": "",
          "type": "address"
        },
        {
          "internalType": "address",
          "name": "",
          "type": "address"
        }
      ],
      "name": "transferNFT",
      "outputs": [],
      "stateMutability": "view",
      "type": "function"
    }
  ],
  "bytecode": "0x608060405234801561001057600080fd5b5060fe8061001f6000396000f3fe6080604052348015600f57600080fd5b5060043610603c5760003560e01c806340db04ee1460415780639c031be9146041578063e1268d6f146051575b600080fd5b604f604c366004607b565b50565b005b604f605c366004609a565b5050565b80356001600160a01b0381168114607657600080fd5b919050565b600060208284031215608c57600080fd5b6093826060565b9392505050565b6000806040838503121560ac57600080fd5b60b3836060565b915060bf602084016060565b9050925092905056fea2646970667358221220084cb57c5e4b78ede4eaffbd81d1a2d398c338b6c86d9f68fd088aded501f45764736f6c63430008090033",
  "immutableReferences": {},
  "source": "// SPDX-License-Identifier: MIT\r\npragma solidity >=0.8.0 <0.9.0;\r\n\r\nimport {INFTVault} from \"./interface/INFTVault.sol\";\r\n\r\ncontract NFTVault is INFTVault {\r\n  constructor() public {\r\n  }\r\n  function lockNFT(address) external view {\r\n\r\n  }\r\n\r\n  function unlockNFT(address) external view {\r\n\r\n  }\r\n\r\n  function transferNFT(address, address) external view {\r\n    \r\n  }\r\n}\r\n",
  "sourcePath": "E:\\Projects\\Privi2\\PriviNFTOptions\\privi-NFT-buying\\contracts\\NFTVault.sol",
  "compiler": {
    "name": "solc",
    "version": "0.8.9+commit.e5eed63a.Emscripten.clang"
  },
  "schemaVersion": "3.4.3",
  "updatedAt": "2021-11-04T14:35:07.070Z",
  "devdoc": {
    "kind": "dev",
    "methods": {},
    "version": 1
  },
  "userdoc": {
    "kind": "user",
    "methods": {},
    "version": 1
  }
}