{
  "contractName": "NFTVault",
  "abi": [
    {
      "inputs": [],
      "stateMutability": "nonpayable",
      "type": "constructor"
    },
    {
      "inputs": [
        {
          "internalType": "address",
          "name": "",
          "type": "address"
        }
      ],
      "name": "owner",
      "outputs": [
        {
          "internalType": "address",
          "name": "",
          "type": "address"
        }
      ],
      "stateMutability": "view",
      "type": "function"
    },
    {
      "inputs": [
        {
          "internalType": "address",
          "name": "",
          "type": "address"
        }
      ],
      "name": "lockNFT",
      "outputs": [],
      "stateMutability": "view",
      "type": "function"
    },
    {
      "inputs": [
        {
          "internalType": "address",
          "name": "",
          "type": "address"
        }
      ],
      "name": "unlockNFT",
      "outputs": [],
      "stateMutability": "view",
      "type": "function"
    },
    {
      "inputs": [
        {
          "internalType": "address",
          "name": "",
          "type": "address"
        },
        {
          "internalType": "address",
          "name": "",
          "type": "address"
        }
      ],
      "name": "transferNFT",
      "outputs": [],
      "stateMutability": "view",
      "type": "function"
    }
  ],
  "bytecode": "0x608060405234801561001057600080fd5b5061014d806100206000396000f3fe608060405234801561001057600080fd5b506004361061004c5760003560e01c806340db04ee14610051578063666e1b39146100645780639c031be914610051578063e1268d6f14610094575b600080fd5b61006261005f3660046100c2565b50565b005b6100786100723660046100c2565b50600090565b6040516001600160a01b03909116815260200160405180910390f35b6100626100a23660046100e4565b5050565b80356001600160a01b03811681146100bd57600080fd5b919050565b6000602082840312156100d457600080fd5b6100dd826100a6565b9392505050565b600080604083850312156100f757600080fd5b610100836100a6565b915061010e602084016100a6565b9050925092905056fea264697066735822122039345cc29f5fff5f1cbc57f01fc4a8685e6f054c9bf0f9420e4dedc3bc3b79bb64736f6c63430008090033",
  "immutableReferences": {},
  "source": "// SPDX-License-Identifier: MIT\r\npragma solidity >=0.8.0 <0.9.0;\r\n\r\nimport {INFTVault} from \"./interface/INFTVault.sol\";\r\n\r\ncontract NFTVault is INFTVault {\r\n  constructor() public {\r\n  }\r\n  \r\n  function owner(address) external view returns(address) {\r\n    return address(0);\r\n  }\r\n\r\n  function lockNFT(address) external view {\r\n\r\n  }\r\n\r\n  function unlockNFT(address) external view {\r\n\r\n  }\r\n\r\n  function transferNFT(address, address) external view {\r\n\r\n  }\r\n}\r\n",
  "sourcePath": "E:\\Projects\\Privi2\\PriviNFTOptions\\privi-NFT-buying\\contracts\\NFTVault.sol",
  "compiler": {
    "name": "solc",
    "version": "0.8.9+commit.e5eed63a.Emscripten.clang"
  },
  "schemaVersion": "3.4.3",
  "updatedAt": "2021-11-08T21:30:29.792Z",
  "devdoc": {
    "kind": "dev",
    "methods": {},
    "version": 1
  },
  "userdoc": {
    "kind": "user",
    "methods": {},
    "version": 1
  }
}