{
  "contractName": "NFTVault",
  "abi": [
    {
      "inputs": [
        {
          "internalType": "address",
          "name": "_admin",
          "type": "address"
        }
      ],
      "stateMutability": "nonpayable",
      "type": "constructor"
    },
    {
      "inputs": [
        {
          "internalType": "address",
          "name": "nft",
          "type": "address"
        },
        {
          "internalType": "uint256",
          "name": "nftID",
          "type": "uint256"
        }
      ],
      "name": "owner",
      "outputs": [
        {
          "internalType": "address",
          "name": "",
          "type": "address"
        }
      ],
      "stateMutability": "nonpayable",
      "type": "function"
    },
    {
      "inputs": [
        {
          "internalType": "address",
          "name": "nft",
          "type": "address"
        },
        {
          "internalType": "uint256",
          "name": "nftID",
          "type": "uint256"
        }
      ],
      "name": "lockNFT",
      "outputs": [],
      "stateMutability": "nonpayable",
      "type": "function"
    },
    {
      "inputs": [
        {
          "internalType": "address",
          "name": "nft",
          "type": "address"
        },
        {
          "internalType": "uint256",
          "name": "nftID",
          "type": "uint256"
        }
      ],
      "name": "unlockNFT",
      "outputs": [],
      "stateMutability": "nonpayable",
      "type": "function"
    },
    {
      "inputs": [
        {
          "internalType": "address",
          "name": "nft",
          "type": "address"
        },
        {
          "internalType": "uint256",
          "name": "nftID",
          "type": "uint256"
        },
        {
          "internalType": "address",
          "name": "to",
          "type": "address"
        }
      ],
      "name": "transferNFT",
      "outputs": [],
      "stateMutability": "nonpayable",
      "type": "function"
    }
  ],
  "bytecode": "0x608060405234801561001057600080fd5b506040516105e53803806105e583398101604081905261002f91610054565b600080546001600160a01b0319166001600160a01b0392909216919091179055610084565b60006020828403121561006657600080fd5b81516001600160a01b038116811461007d57600080fd5b9392505050565b610552806100936000396000f3fe608060405234801561001057600080fd5b506004361061004c5760003560e01c80632672c002146100515780633a404917146100665780636da0d54014610079578063d2f0922a146100a8575b600080fd5b61006461005f366004610491565b6100bb565b005b610064610074366004610491565b6101c7565b61008c610087366004610491565b6102ed565b6040516001600160a01b03909116815260200160405180910390f35b6100646100b63660046104bd565b61036f565b6001600160a01b03808316600090815260016020908152604080832085845290915290205416806101245760405162461bcd60e51b815260206004820152600e60248201526d1b9bdd081b1bd8dad9590813919560921b60448201526064015b60405180910390fd5b6000546040516323b872dd60e01b81526001600160a01b039182166004820152828216602482015260448101849052908416906323b872dd90606401600060405180830381600087803b15801561017a57600080fd5b505af115801561018e573d6000803e3d6000fd5b505050506001600160a01b039290921660009081526001602090815260408083209383529290522080546001600160a01b031916905550565b6040516331a9108f60e11b8152600481018290526000906001600160a01b03841690636352211e9060240160206040518083038186803b15801561020a57600080fd5b505afa15801561021e573d6000803e3d6000fd5b505050506040513d601f19601f8201168201806040525081019061024291906104ff565b6000546040516323b872dd60e01b81526001600160a01b0380841660048301529182166024820152604481018590529192508416906323b872dd90606401600060405180830381600087803b15801561029a57600080fd5b505af11580156102ae573d6000803e3d6000fd5b505050506001600160a01b0392831660009081526001602090815260408083209483529390529190912080546001600160a01b03191691909216179055565b6040516331a9108f60e11b8152600481018290526000906001600160a01b03841690636352211e9060240160206040518083038186803b15801561033057600080fd5b505afa158015610344573d6000803e3d6000fd5b505050506040513d601f19601f8201168201806040525081019061036891906104ff565b9392505050565b6001600160a01b03808416600090815260016020908152604080832086845290915290205416806103d35760405162461bcd60e51b815260206004820152600e60248201526d1b9bdd081b1bd8dad9590813919560921b604482015260640161011b565b6000546040516323b872dd60e01b81526001600160a01b039182166004820152838216602482015260448101859052908516906323b872dd90606401600060405180830381600087803b15801561042957600080fd5b505af115801561043d573d6000803e3d6000fd5b5050506001600160a01b0390941660009081526001602090815260408083209583529490529290922080546001600160a01b0319169055505050565b6001600160a01b038116811461048e57600080fd5b50565b600080604083850312156104a457600080fd5b82356104af81610479565b946020939093013593505050565b6000806000606084860312156104d257600080fd5b83356104dd81610479565b92506020840135915060408401356104f481610479565b809150509250925092565b60006020828403121561051157600080fd5b81516103688161047956fea26469706673582212204090fd2fee16a5cddec22e5e708809c3bf9849057320389a50b083ea687e6c5464736f6c63430008090033",
  "immutableReferences": {},
  "source": "// SPDX-License-Identifier: MIT\r\npragma solidity >=0.8.0 <0.9.0;\r\n\r\nimport {INFTVault} from \"./interface/INFTVault.sol\";\r\nimport {IERC721} from \"@openzeppelin/contracts/token/ERC721/IERC721.sol\";\r\nimport {ERC721} from \"@openzeppelin/contracts/token/ERC721/ERC721.sol\";\r\n\r\ncontract NFTVault is INFTVault {\r\n  address admin;\r\n  mapping(address => mapping(uint256 => address)) lockedNFTOwner;\r\n  constructor(address _admin) public {\r\n    admin = _admin;\r\n  }\r\n  \r\n  function owner(address nft, uint256 nftID) external returns(address) {\r\n    return IERC721(nft).ownerOf(nftID);\r\n  }\r\n\r\n  function lockNFT(address nft, uint256 nftID) external {\r\n    address owner = IERC721(nft).ownerOf(nftID);\r\n    IERC721(nft).transferFrom(owner, admin, nftID);\r\n    lockedNFTOwner[nft][nftID] = owner;\r\n  }\r\n\r\n  function unlockNFT(address nft, uint256 nftID) external {\r\n    address owner = lockedNFTOwner[nft][nftID];\r\n    require(owner != address(0), \"not locked NFT\");\r\n    IERC721(nft).transferFrom(admin, owner, nftID);\r\n    delete lockedNFTOwner[nft][nftID];\r\n  }\r\n\r\n  function transferNFT(address nft, uint256 nftID, address to) external {\r\n    address owner = lockedNFTOwner[nft][nftID];\r\n    require(owner != address(0), \"not locked NFT\");\r\n    IERC721(nft).transferFrom(admin, to, nftID);\r\n    delete lockedNFTOwner[nft][nftID];\r\n  }\r\n}\r\n",
  "sourcePath": "E:\\Projects\\Privi2\\PriviNFTOptions\\privi-NFT-buying\\contracts\\NFTVault.sol",
  "compiler": {
    "name": "solc",
    "version": "0.8.9+commit.e5eed63a.Emscripten.clang"
  },
  "schemaVersion": "3.4.3",
  "updatedAt": "2021-11-13T20:06:33.042Z",
  "devdoc": {
    "kind": "dev",
    "methods": {},
    "version": 1
  },
  "userdoc": {
    "kind": "user",
    "methods": {},
    "version": 1
  }
}