{
  "contractName": "PriceOracleMock",
  "abi": [
    {
      "inputs": [],
      "stateMutability": "nonpayable",
      "type": "constructor"
    },
    {
      "inputs": [
        {
          "internalType": "address",
          "name": "",
          "type": "address"
        }
      ],
      "name": "decimals",
      "outputs": [
        {
          "internalType": "uint256",
          "name": "_decimals",
          "type": "uint256"
        }
      ],
      "stateMutability": "view",
      "type": "function"
    },
    {
      "inputs": [
        {
          "internalType": "address",
          "name": "",
          "type": "address"
        }
      ],
      "name": "price",
      "outputs": [
        {
          "internalType": "uint256",
          "name": "price",
          "type": "uint256"
        }
      ],
      "stateMutability": "view",
      "type": "function"
    }
  ],
  "bytecode": "0x608060405234801561001057600080fd5b5060be8061001f6000396000f3fe6080604052348015600f57600080fd5b506004361060325760003560e01c8063aea91078146037578063d449a832146037575b600080fd5b60486042366004605a565b50600090565b60405190815260200160405180910390f35b600060208284031215606b57600080fd5b81356001600160a01b0381168114608157600080fd5b939250505056fea2646970667358221220e980d6887258db9e91785f2938f398b19fdee3d5844a2f5dcfaa29a45782a76064736f6c63430008090033",
  "immutableReferences": {},
  "source": "// SPDX-License-Identifier: MIT\r\npragma solidity >=0.8.0 <0.9.0;\r\n\r\nimport {IPriceOracle} from \"../interface/IPriceOracle.sol\";\r\n\r\ncontract PriceOracleMock is IPriceOracle {\r\n  constructor() public {\r\n  }\r\n  function decimals(address) external view returns (uint256 _decimals) {\r\n      _decimals = 0;\r\n  }\r\n\r\n  function price(address) external view returns (uint256 price) {\r\n      price = 0;\r\n  }\r\n}\r\n",
  "sourcePath": "E:\\Projects\\Privi2\\PriviNFTOptions\\privi-NFT-buying\\contracts\\mocks\\PriceOracleMock.sol",
  "compiler": {
    "name": "solc",
    "version": "0.8.9+commit.e5eed63a.Emscripten.clang"
  },
  "schemaVersion": "3.4.3",
  "updatedAt": "2021-11-12T13:59:57.433Z",
  "devdoc": {
    "kind": "dev",
    "methods": {},
    "version": 1
  },
  "userdoc": {
    "kind": "user",
    "methods": {},
    "version": 1
  }
}