{
  "contractName": "PriviNFTReserval",
  "abi": [
    {
      "inputs": [
        {
          "internalType": "address[]",
          "name": "_tokens",
          "type": "address[]"
        },
        {
          "internalType": "address",
          "name": "_nftPool",
          "type": "address"
        },
        {
          "internalType": "address",
          "name": "_priceOracle",
          "type": "address"
        }
      ],
      "stateMutability": "nonpayable",
      "type": "constructor"
    },
    {
      "anonymous": false,
      "inputs": [
        {
          "indexed": false,
          "internalType": "bool",
          "name": "assigned",
          "type": "bool"
        },
        {
          "indexed": false,
          "internalType": "uint256",
          "name": "reservalID",
          "type": "uint256"
        },
        {
          "indexed": false,
          "internalType": "uint256",
          "name": "offerID",
          "type": "uint256"
        }
      ],
      "name": "Assigned",
      "type": "event"
    },
    {
      "anonymous": false,
      "inputs": [
        {
          "indexed": false,
          "internalType": "address",
          "name": "buyer",
          "type": "address"
        },
        {
          "indexed": false,
          "internalType": "uint256",
          "name": "reservalID",
          "type": "uint256"
        },
        {
          "indexed": false,
          "internalType": "uint256",
          "name": "offerID",
          "type": "uint256"
        }
      ],
      "name": "BOfferCreated",
      "type": "event"
    },
    {
      "anonymous": false,
      "inputs": [
        {
          "indexed": false,
          "internalType": "address",
          "name": "account",
          "type": "address"
        },
        {
          "indexed": false,
          "internalType": "address",
          "name": "token",
          "type": "address"
        },
        {
          "indexed": false,
          "internalType": "uint256",
          "name": "amount",
          "type": "uint256"
        }
      ],
      "name": "Deposit",
      "type": "event"
    },
    {
      "anonymous": false,
      "inputs": [
        {
          "indexed": false,
          "internalType": "uint256",
          "name": "offerID",
          "type": "uint256"
        }
      ],
      "name": "OOfferAccepted",
      "type": "event"
    },
    {
      "anonymous": false,
      "inputs": [
        {
          "indexed": false,
          "internalType": "address",
          "name": "owner",
          "type": "address"
        },
        {
          "indexed": false,
          "internalType": "uint256",
          "name": "reservalID",
          "type": "uint256"
        }
      ],
      "name": "OReservalCanceled",
      "type": "event"
    },
    {
      "anonymous": false,
      "inputs": [
        {
          "indexed": false,
          "internalType": "address",
          "name": "owner",
          "type": "address"
        },
        {
          "indexed": false,
          "internalType": "address",
          "name": "nft",
          "type": "address"
        },
        {
          "indexed": false,
          "internalType": "uint256",
          "name": "expiry",
          "type": "uint256"
        },
        {
          "indexed": false,
          "internalType": "address",
          "name": "token",
          "type": "address"
        },
        {
          "indexed": false,
          "internalType": "uint256",
          "name": "price",
          "type": "uint256"
        },
        {
          "indexed": false,
          "internalType": "uint256",
          "name": "pct",
          "type": "uint256"
        },
        {
          "indexed": false,
          "internalType": "uint256",
          "name": "reservalID",
          "type": "uint256"
        }
      ],
      "name": "OReservalCreated",
      "type": "event"
    },
    {
      "anonymous": false,
      "inputs": [
        {
          "indexed": false,
          "internalType": "address",
          "name": "account",
          "type": "address"
        },
        {
          "indexed": false,
          "internalType": "address",
          "name": "token",
          "type": "address"
        },
        {
          "indexed": false,
          "internalType": "uint256",
          "name": "amount",
          "type": "uint256"
        }
      ],
      "name": "Withdraw",
      "type": "event"
    },
    {
      "inputs": [
        {
          "internalType": "address",
          "name": "nft",
          "type": "address"
        },
        {
          "internalType": "uint256",
          "name": "expiry",
          "type": "uint256"
        },
        {
          "internalType": "address",
          "name": "token",
          "type": "address"
        },
        {
          "internalType": "uint256",
          "name": "price",
          "type": "uint256"
        },
        {
          "internalType": "uint256",
          "name": "pct",
          "type": "uint256"
        }
      ],
      "name": "createReserval",
      "outputs": [
        {
          "internalType": "uint256",
          "name": "reservalID",
          "type": "uint256"
        }
      ],
      "stateMutability": "nonpayable",
      "type": "function"
    },
    {
      "inputs": [
        {
          "internalType": "uint256",
          "name": "reservalID",
          "type": "uint256"
        }
      ],
      "name": "cancelReserval",
      "outputs": [],
      "stateMutability": "nonpayable",
      "type": "function"
    },
    {
      "inputs": [
        {
          "internalType": "uint256",
          "name": "reservalID",
          "type": "uint256"
        }
      ],
      "name": "createOffer",
      "outputs": [
        {
          "internalType": "uint256",
          "name": "offerID",
          "type": "uint256"
        }
      ],
      "stateMutability": "nonpayable",
      "type": "function"
    },
    {
      "inputs": [
        {
          "internalType": "uint256",
          "name": "offerID",
          "type": "uint256"
        }
      ],
      "name": "acceptOffer",
      "outputs": [],
      "stateMutability": "nonpayable",
      "type": "function"
    },
    {
      "inputs": [
        {
          "internalType": "uint256",
          "name": "offerID",
          "type": "uint256"
        }
      ],
      "name": "assignOffer",
      "outputs": [],
      "stateMutability": "nonpayable",
      "type": "function"
    },
    {
      "inputs": [
        {
          "internalType": "address",
          "name": "token",
          "type": "address"
        },
        {
          "internalType": "uint256",
          "name": "amount",
          "type": "uint256"
        }
      ],
      "name": "deposit",
      "outputs": [],
      "stateMutability": "nonpayable",
      "type": "function"
    },
    {
      "inputs": [
        {
          "internalType": "address",
          "name": "token",
          "type": "address"
        },
        {
          "internalType": "uint256",
          "name": "amount",
          "type": "uint256"
        }
      ],
      "name": "withdraw",
      "outputs": [],
      "stateMutability": "nonpayable",
      "type": "function"
    },
    {
      "inputs": [],
      "name": "recover",
      "outputs": [],
      "stateMutability": "nonpayable",
      "type": "function"
    },
    {
      "inputs": [
        {
          "internalType": "address",
          "name": "user",
          "type": "address"
        }
      ],
      "name": "totalAssetUSD",
      "outputs": [
        {
          "internalType": "uint256",
          "name": "",
          "type": "uint256"
        }
      ],
      "stateMutability": "nonpayable",
      "type": "function"
    }
  ],
  "bytecode": "0x60806040523480156200001157600080fd5b5060405162001102380380620011028339810160408190526200003491620001bb565b82516200004990600290602086019062000107565b50600380546001600160a01b038085166001600160a01b0319928316179092556004805492841692821692909217909155600580549091163017905560005b8351811015620000f457600160096000868481518110620000ad57620000ad620002b3565b6020908102919091018101516001600160a01b03168252810191909152604001600020805460ff191691151591909117905580620000eb81620002c9565b91505062000088565b5050600080805560015550620002f39050565b8280548282559060005260206000209081019282156200015f579160200282015b828111156200015f57825182546001600160a01b0319166001600160a01b0390911617825560209092019160019091019062000128565b506200016d92915062000171565b5090565b5b808211156200016d576000815560010162000172565b634e487b7160e01b600052604160045260246000fd5b80516001600160a01b0381168114620001b657600080fd5b919050565b600080600060608486031215620001d157600080fd5b83516001600160401b0380821115620001e957600080fd5b818601915086601f830112620001fe57600080fd5b815160208282111562000215576200021562000188565b8160051b604051601f19603f830116810181811086821117156200023d576200023d62000188565b60405292835281830193508481018201928a8411156200025c57600080fd5b948201945b83861015620002855762000275866200019e565b8552948201949382019362000261565b97506200029690508882016200019e565b955050505050620002aa604085016200019e565b90509250925092565b634e487b7160e01b600052603260045260246000fd5b6000600019821415620002ec57634e487b7160e01b600052601160045260246000fd5b5060010190565b610dff80620003036000396000f3fe608060405234801561001057600080fd5b50600436106100935760003560e01c8063a269993d11610066578063a269993d146100f6578063c6f3ed8b14610109578063c815729d1461011c578063ce746024146100ab578063f3fef3a31461012f57600080fd5b806306a7ad641461009857806324af54b6146100ad57806328ec102c146100be57806347e7ef24146100e3575b600080fd5b6100ab6100a6366004610c45565b610142565b005b6100ab6100bb366004610c45565b50565b6100d16100cc366004610c7a565b6102ad565b60405190815260200160405180910390f35b6100ab6100f1366004610c95565b610335565b6100d1610104366004610c45565b610491565b6100d1610117366004610cbf565b610576565b6100ab61012a366004610c45565b610735565b6100ab61013d366004610c95565b61082d565b600081815260066020526040902080546001600160a01b03166101a65760405162461bcd60e51b81526020600482015260176024820152764e6f207375636820726573657276616c2065786973747360481b60448201526064015b60405180910390fd5b80546001600160a01b031633146101f75760405162461bcd60e51b8152602060048201526015602482015274139bdd081bdddb995c881bd9881c995cd95c9d985b605a1b604482015260640161019d565b805461020c906001600160a01b0316836109f1565b600082815260066020818152604080842080546001600160a01b03199081168255600182018054821690556002820186905560038201805490911690556004810185905560058101859055928301849055600790920192909255825481516001600160a01b0390911681529182018490527fc54196fb89f0de06064e8350a77850230e5fc554d1d593a76d12c352deadcdde91015b60405180910390a15050565b600080805b60025481101561032e576001600160a01b038416600090815260086020526040812060028054919291849081106102eb576102eb610d0d565b60009182526020808320909101546001600160a01b0316835282019290925260400190205461031a9083610d39565b91508061032681610d51565b9150506102b2565b5092915050565b600081116103815760405162461bcd60e51b8152602060048201526019602482015278125394d551919250d251539517d25394155517d05353d55395603a1b604482015260640161019d565b6005546040516323b872dd60e01b81526001600160a01b03808516926323b872dd926103b592339216908690600401610d6c565b602060405180830381600087803b1580156103cf57600080fd5b505af11580156103e3573d6000803e3d6000fd5b505050506040513d601f19601f820116820180604052508101906104079190610d90565b503360009081526008602090815260408083206001600160a01b0386168452909152902054610437908290610d39565b3360008181526008602090815260408083206001600160a01b0388168452909152908190209290925590517f5548c837ab068cf56a2c2479df0882a4922fd203edb7517321831d95078c5f62916102a19185908590610d6c565b600081815260066020526040812080546001600160a01b03166104f05760405162461bcd60e51b81526020600482015260176024820152764e6f207375636820726573657276616c2065786973747360481b604482015260640161019d565b6001805490600061050083610d51565b90915550506001546040805160808101825233808252602080830188905282840185905260006060808501919091528451928352908201889052928101849052929450917f92200c44dc64fa287c97ba38ac7fc49a52d1bd297b372ccd39e64cd5740f3f72910160405180910390a15050919050565b600033156105b95760405162461bcd60e51b815260206004820152601060248201526f139bdd0813dddb995c881bd98813919560821b604482015260640161019d565b6000805490806105c883610d51565b919050555060005490506000604051806101000160405280336001600160a01b03168152602001886001600160a01b03168152602001878152602001866001600160a01b031681526020018581526020018481526020018381526020016000815250905061063a816000015183610a18565b600082815260066020818152604092839020845181546001600160a01b03199081166001600160a01b03928316908117845587850151600185018054841691851691909117905587870151600285015560608089015160038601805490941690851617909255608080890151600486015560a0808a0151600587015560c0808b01519887019890985560e0808b015160079097019690965588519283528f8516968301969096529681018d9052918b16908201529384018890529083018690529082018490527fc05e5aabf413dd21ad2fc2ddf043c7cf8b15fac2b9377e04eb257b24a2af3c12910160405180910390a15095945050505050565b600081815260076020526040902080546001600160a01b03166107915760405162461bcd60e51b81526020600482015260146024820152734e6f2073756368206f666665722065786973747360601b604482015260640161019d565b6001810154600090815260066020526040902080546001600160a01b031633146107f55760405162461bcd60e51b8152602060048201526015602482015274139bdd081bdddb995c881bd9881c995cd95c9d985b605a1b604482015260640161019d565b6040518381527f849b9c9365baf4ef2403308ee92d15dd1da4de6add8ca2ffeacf4358cbe0a7579060200160405180910390a1505050565b600081116108795760405162461bcd60e51b8152602060048201526019602482015278125394d551919250d251539517d25394155517d05353d55395603a1b604482015260640161019d565b3360009081526008602090815260408083206001600160a01b03861684529091529020548111156108df5760405162461bcd60e51b815260206004820152601060248201526f139bdd08195b9bdd59da08185cdcd95d60821b604482015260640161019d565b6005546040516323b872dd60e01b81526001600160a01b03848116926323b872dd92610915929091169033908690600401610d6c565b602060405180830381600087803b15801561092f57600080fd5b505af1158015610943573d6000803e3d6000fd5b505050506040513d601f19601f820116820180604052508101906109679190610d90565b503360009081526008602090815260408083206001600160a01b0386168452909152902054610997908290610db2565b3360008181526008602090815260408083206001600160a01b0388168452909152908190209290925590517f9b1bfa7fa9ee420a16e124f794c35ac9f90472acc99140eb2f6447c714cad8eb916102a19185908590610d6c565b6001600160a01b0382166000908152600a60205260409020610a139082610a3a565b505050565b6001600160a01b0382166000908152600a60205260409020610a139082610ad7565b6000811580610a505750610a4e8383610aec565b155b15610a5d57506000610ad1565b600082815260018481016020908152604080842084805290915280832054828452922054610a8f928692909190610b70565b60008281526001848101602090815260408084208480529091528083208390558183528220829055845490918591610ac8908490610db2565b90915550829150505b92915050565b6000610ae583836000610ba5565b9392505050565b60008181526001830160209081526040808320838052909152812054158015610b2f57506000828152600180850160209081526040808420928452919052902054155b15610b68576000808052600180850160209081526040808420928452919052902054821415610b6057506001610ad1565b506000610ad1565b506001610ad1565b600082815260019094016020818152604080872093158088529382528087208690559486529081528385209115855252912055565b6000610bb48460008585610bbc565b949350505050565b6000610bc88584610aec565b158015610bda5750610bda8585610aec565b15610c3a57600084815260018601602090815260408083208515158452909152902054610c0986868686610b70565b610c1586858386610b70565b6001866000016000828254610c2a9190610d39565b9091555060019250610bb4915050565b506000949350505050565b600060208284031215610c5757600080fd5b5035919050565b80356001600160a01b0381168114610c7557600080fd5b919050565b600060208284031215610c8c57600080fd5b610ae582610c5e565b60008060408385031215610ca857600080fd5b610cb183610c5e565b946020939093013593505050565b600080600080600060a08688031215610cd757600080fd5b610ce086610c5e565b945060208601359350610cf560408701610c5e565b94979396509394606081013594506080013592915050565b634e487b7160e01b600052603260045260246000fd5b634e487b7160e01b600052601160045260246000fd5b60008219821115610d4c57610d4c610d23565b500190565b6000600019821415610d6557610d65610d23565b5060010190565b6001600160a01b039384168152919092166020820152604081019190915260600190565b600060208284031215610da257600080fd5b81518015158114610ae557600080fd5b600082821015610dc457610dc4610d23565b50039056fea264697066735822122024160f58dde12c7fb64e73f2d62dc85f95a529cc09ef2328a21c58236230db0564736f6c63430008090033",
  "immutableReferences": {},
  "source": "// SPDX-License-Identifier: MIT\r\npragma solidity >=0.8.0 <0.9.0;\r\n\r\nimport {IERC721} from \"@openzeppelin/contracts/token/ERC721/IERC721.sol\";\r\nimport {IERC20} from \"@openzeppelin/contracts/token/ERC20/IERC20.sol\";\r\nimport {IERC721Metadata} from \"@openzeppelin/contracts/token/ERC721/extensions/IERC721Metadata.sol\";\r\nimport {IERC20Metadata} from \"@openzeppelin/contracts/token/ERC20/extensions/IERC20Metadata.sol\";\r\nimport \"@openzeppelin/contracts/token/ERC20/ERC20.sol\";\r\nimport \"solidity-linked-list/contracts/StructuredLinkedList.sol\";\r\nimport {IPriceOracle} from \"./interface/IPriceOracle.sol\";\r\n\r\n/*\r\nOWNER:\r\n-  Whitelist asset to be open to receive Reserval Offers. He may (start with his own initial offer). IMPORTANT: if the owner sets an offer you get only the approval of the Owner ffor the NFT to the contract but the NFT is NOT LOCKED at this stage\r\n-  Owner can remove from whitelist without any cost as long as no offer has been accepted first.\r\n-  Owner can accept an offer. At this stage NFT is locked on the contract\r\n-  Owner can withdraw collateral deposited by the buyer at any moment\r\n-  If owner wants to cancel the Reserval (Reserval), he needs to payback what he withdrawn +a fee\r\nBUYER:\r\n-  Buyer can set offers for whitelisted NFTs. IMPORTANT: the offer does not lock the collateraal of the buyer. It only gets the proposal for that toekns aand amoiunt to the contrract. For example if i propose 10K SHIB, I approve the contract but i do not lock them.\r\n-  Buyer can reserve NFT directly if the owner has some offer\r\n-  Buyer needs to keep a level of collateral. Otherwise can be liquidaated and lose it.\r\n-  If collateral goes below the ratio, buyer needs to deposit more collateral.\r\n-  At future (expiration) the buyer needs to pay the Reserve Price within a period of 5 days max. If not, he loses the Reserval of buying\r\n*/\r\n\r\ncontract PriviNFTReserval {\r\n  using StructuredLinkedList for StructuredLinkedList.List;\r\n\r\n  event OReservalCreated(\r\n    address owner,\r\n    address nft,\r\n    uint256 expiry,\r\n    address token,\r\n    uint256 price,\r\n    uint256 pct,\r\n    uint256 reservalID\r\n  );\r\n\r\n  event OReservalCanceled(\r\n    address owner,\r\n    uint256 reservalID\r\n  );\r\n\r\n  event BOfferCreated(\r\n    address buyer,\r\n    uint256 reservalID,\r\n    uint256 offerID\r\n  );\r\n\r\n  event OOfferAccepted(\r\n    uint256 offerID\r\n  );\r\n\r\n  event Assigned(\r\n    bool assigned,\r\n    uint256 reservalID,\r\n    uint256 offerID\r\n  );\r\n  \r\n  event Deposit(\r\n    address account,\r\n    address token,\r\n    uint256 amount\r\n  );\r\n\r\n  event Withdraw(\r\n    address account,\r\n    address token,\r\n    uint256 amount\r\n  );\r\n  \r\n  struct NFTReserval {\r\n    address owner;\r\n    address nft;\r\n    uint256 expiry;\r\n    address token;\r\n    uint256 price;\r\n    uint256 pct;\r\n    uint256 reservalID;\r\n    uint256 accetedOfferID;\r\n  }\r\n\r\n  struct Offer {\r\n    address buyer;\r\n    uint256 reservalID;\r\n    uint256 offerID;\r\n    bool accepted;\r\n  }\r\n\r\n  uint256 cntReserval;\r\n  uint256 cntOffer;\r\n  address[] tokens;\r\n  address nftPool;\r\n  address priceOracle;\r\n  address admin;\r\n\r\n  mapping(uint256 => NFTReserval) reservals;\r\n  mapping(uint256 => Offer) offers;\r\n\r\n  mapping(address => mapping (address => uint256)) reserves;\r\n  mapping(address => bool) validToken;\r\n\r\n  mapping(address => StructuredLinkedList.List) listReserval;\r\n  mapping(address => StructuredLinkedList.List) listOffer;\r\n  mapping(uint256 => StructuredLinkedList.List) listOfferReq;\r\n\r\n  constructor(\r\n    address[] memory _tokens,\r\n    address _nftPool,\r\n    address _priceOracle\r\n  ) public {\r\n    tokens = _tokens;\r\n    nftPool = _nftPool;\r\n    priceOracle = _priceOracle;\r\n    admin = address(this);\r\n    for (uint i = 0; i < _tokens.length; i++) {\r\n        validToken[_tokens[i]] = true;\r\n    }\r\n    cntReserval = 0;\r\n    cntOffer = 0;\r\n  }\r\n  \r\n  function createReserval(\r\n    address nft,\r\n    uint256 expiry,\r\n    address token,\r\n    uint256 price,\r\n    uint256 pct\r\n  ) external returns (uint256 reservalID) {\r\n    require(msg.sender == _nftOwner(nft), \"Not Owner of NFT\");\r\n    cntReserval++;\r\n    reservalID = cntReserval;\r\n    NFTReserval memory reserval = NFTReserval(msg.sender, nft, expiry, token, price, pct, reservalID, 0);\r\n\r\n    _reserval_add(reserval.owner, reservalID);\r\n    reservals[reservalID] = reserval;\r\n    \r\n    emit OReservalCreated(reserval.owner, nft, expiry, token, price, pct, reservalID);\r\n  }\r\n  \r\n  function cancelReserval(\r\n    uint256 reservalID\r\n  ) external {\r\n    NFTReserval storage reserval = _getReserval(reservalID);\r\n    require(reserval.owner != address(0), \"No such reserval exists\");\r\n    require(reserval.owner == msg.sender, \"Not owner of reserval\");\r\n\r\n    _reserval_remove(reserval.owner, reservalID);\r\n    delete reservals[reservalID];\r\n    \r\n    emit OReservalCanceled(reserval.owner, reservalID);\r\n  }\r\n  \r\n  function createOffer(\r\n    uint256 reservalID\r\n  ) external returns (uint256 offerID) {\r\n    NFTReserval storage reserval = _getReserval(reservalID);\r\n    require(reserval.owner != address(0), \"No such reserval exists\");\r\n\r\n    cntOffer++;\r\n    offerID = cntOffer;\r\n    Offer memory offer = Offer(msg.sender, reservalID, offerID, false);\r\n\r\n    emit BOfferCreated(offer.buyer, reservalID, offerID);\r\n  }\r\n\r\n  function acceptOffer(\r\n    uint256 offerID\r\n  ) external {\r\n    Offer storage offer = _getOffer(offerID);\r\n    require(offer.buyer != address(0), \"No such offer exists\");\r\n    \r\n    NFTReserval storage reserval = _getReserval(offer.reservalID);\r\n    require(msg.sender == reserval.owner, \"Not owner of reserval\");\r\n\r\n    emit OOfferAccepted(offerID);\r\n  }\r\n\r\n  function assignOffer(\r\n    uint256 offerID\r\n  ) external {\r\n  }\r\n\r\n  function deposit(\r\n    address token,\r\n    uint256 amount\r\n  ) external {\r\n    require(amount > 0, \"INSUFFICIENT_INPUT_AMOUNT\");\r\n    IERC20(token).transferFrom(msg.sender, admin, amount);\r\n    reserves[msg.sender][token] = reserves[msg.sender][token] + amount;\r\n\r\n    emit Deposit(msg.sender, token, amount);\r\n  }\r\n\r\n  function withdraw(\r\n    address token,\r\n    uint256 amount\r\n  ) external {\r\n    require(amount > 0, \"INSUFFICIENT_INPUT_AMOUNT\");\r\n\r\n    require(reserves[msg.sender][token] >= amount, \"Not enough asset\");\r\n    IERC20(token).transferFrom(admin, msg.sender, amount);\r\n    reserves[msg.sender][token] = reserves[msg.sender][token] - amount;\r\n\r\n    emit Withdraw(msg.sender, token, amount);\r\n  }\r\n\r\n  function recover(\r\n  ) external {\r\n  }\r\n\r\n  function totalAssetUSD(\r\n    address user\r\n  ) external returns (uint256) {\r\n    uint256 total = 0;\r\n    for (uint i = 0; i < tokens.length; i++) {\r\n      total += reserves[user][tokens[i]];\r\n    }\r\n    return total;\r\n  }\r\n\r\n  function _getReserval(uint256 reservalID) private returns (NFTReserval storage) {\r\n    return reservals[reservalID];\r\n  }\r\n\r\n  function _getOffer(uint256 offerID) private returns (Offer storage) {\r\n    return offers[offerID];\r\n  }\r\n\r\n  function _nftOwner(address nft) private returns (address) {\r\n    // not completed yet\r\n\r\n    return address(0);\r\n  }\r\n\r\n  function _tokenToUSD(address token) private returns (uint256) {\r\n    // not completed yet\r\n    return IPriceOracle(priceOracle).price(token);\r\n  }\r\n\r\n  //-------------------------------------------------------------------------------//\r\n  //--------------------------- Linked List functions -----------------------------//\r\n  //-------------------------------------------------------------------------------//\r\n  function _reserval_add(address owner, uint256 reservalID) private {\r\n    StructuredLinkedList.pushBack(listReserval[owner], reservalID);\r\n  }\r\n\r\n  function _reserval_remove(address owner, uint256 reservalID) private {\r\n    StructuredLinkedList.remove(listReserval[owner], reservalID);\r\n  }\r\n\r\n  function _offer_add(address buyer, uint256 offerID) private {\r\n    StructuredLinkedList.pushBack(listOffer[buyer], offerID);\r\n  }\r\n\r\n  function _offer_remove(address buyer, uint256 offerID) private {\r\n    StructuredLinkedList.remove(listOffer[buyer], offerID);\r\n  }\r\n\r\n  function _offerReq_add(uint256 reservalID, uint256 offerID) private {\r\n    StructuredLinkedList.pushBack(listOfferReq[reservalID], offerID);\r\n  }\r\n\r\n  function _offerReq_remove(uint256 reservalID, uint256 offerID) private {\r\n    StructuredLinkedList.remove(listOfferReq[reservalID], offerID);\r\n  }\r\n  //-------------------------------------------------------------------------------//\r\n}\r\n",
  "sourcePath": "E:\\Projects\\Privi2\\PriviNFTOptions\\privi-NFT-buying\\contracts\\PriviNFTReserval.sol",
  "compiler": {
    "name": "solc",
    "version": "0.8.9+commit.e5eed63a.Emscripten.clang"
  },
  "schemaVersion": "3.4.3",
  "updatedAt": "2021-11-02T04:28:10.178Z",
  "devdoc": {
    "kind": "dev",
    "methods": {},
    "version": 1
  },
  "userdoc": {
    "kind": "user",
    "methods": {},
    "version": 1
  }
}