{
  "contractName": "PriviNFTBuying",
  "abi": [
    {
      "inputs": [
        {
          "internalType": "address[]",
          "name": "_tokens",
          "type": "address[]"
        },
        {
          "internalType": "address",
          "name": "_nftPool",
          "type": "address"
        },
        {
          "internalType": "address",
          "name": "_priceOracle",
          "type": "address"
        }
      ],
      "stateMutability": "nonpayable",
      "type": "constructor"
    },
    {
      "anonymous": false,
      "inputs": [
        {
          "indexed": false,
          "internalType": "address",
          "name": "owner",
          "type": "address"
        },
        {
          "indexed": false,
          "internalType": "address",
          "name": "token",
          "type": "address"
        },
        {
          "indexed": false,
          "internalType": "uint256",
          "name": "amount",
          "type": "uint256"
        }
      ],
      "name": "Depoist",
      "type": "event"
    },
    {
      "anonymous": false,
      "inputs": [
        {
          "indexed": false,
          "internalType": "address",
          "name": "owner",
          "type": "address"
        },
        {
          "indexed": false,
          "internalType": "uint256",
          "name": "optionID",
          "type": "uint256"
        }
      ],
      "name": "OptionCanceled",
      "type": "event"
    },
    {
      "anonymous": false,
      "inputs": [
        {
          "indexed": false,
          "internalType": "address",
          "name": "owner",
          "type": "address"
        },
        {
          "indexed": false,
          "internalType": "address",
          "name": "nft",
          "type": "address"
        },
        {
          "indexed": false,
          "internalType": "uint256",
          "name": "expiry",
          "type": "uint256"
        },
        {
          "indexed": false,
          "internalType": "uint256",
          "name": "price",
          "type": "uint256"
        },
        {
          "indexed": false,
          "internalType": "uint256",
          "name": "pct",
          "type": "uint256"
        },
        {
          "indexed": false,
          "internalType": "uint256",
          "name": "optionID",
          "type": "uint256"
        }
      ],
      "name": "OptionCreated",
      "type": "event"
    },
    {
      "anonymous": false,
      "inputs": [
        {
          "indexed": false,
          "internalType": "address",
          "name": "owner",
          "type": "address"
        },
        {
          "indexed": false,
          "internalType": "address",
          "name": "buyer",
          "type": "address"
        },
        {
          "indexed": false,
          "internalType": "uint256",
          "name": "optionID",
          "type": "uint256"
        }
      ],
      "name": "OptionSold",
      "type": "event"
    },
    {
      "anonymous": false,
      "inputs": [
        {
          "indexed": false,
          "internalType": "address",
          "name": "owner",
          "type": "address"
        },
        {
          "indexed": false,
          "internalType": "address",
          "name": "token",
          "type": "address"
        },
        {
          "indexed": false,
          "internalType": "uint256",
          "name": "amount",
          "type": "uint256"
        }
      ],
      "name": "Withdraw",
      "type": "event"
    },
    {
      "inputs": [
        {
          "internalType": "address",
          "name": "nft",
          "type": "address"
        },
        {
          "internalType": "uint256",
          "name": "expiry",
          "type": "uint256"
        },
        {
          "internalType": "uint256",
          "name": "price",
          "type": "uint256"
        },
        {
          "internalType": "uint256",
          "name": "pct",
          "type": "uint256"
        }
      ],
      "name": "createOption",
      "outputs": [
        {
          "internalType": "uint256",
          "name": "optionID",
          "type": "uint256"
        }
      ],
      "stateMutability": "nonpayable",
      "type": "function"
    },
    {
      "inputs": [
        {
          "internalType": "uint256",
          "name": "optionID",
          "type": "uint256"
        },
        {
          "internalType": "address",
          "name": "nft",
          "type": "address"
        },
        {
          "internalType": "uint256",
          "name": "expiry",
          "type": "uint256"
        },
        {
          "internalType": "uint256",
          "name": "price",
          "type": "uint256"
        },
        {
          "internalType": "uint256",
          "name": "pct",
          "type": "uint256"
        }
      ],
      "name": "moidfyOption",
      "outputs": [],
      "stateMutability": "nonpayable",
      "type": "function"
    },
    {
      "inputs": [
        {
          "internalType": "uint256",
          "name": "optionID",
          "type": "uint256"
        }
      ],
      "name": "cancelOption",
      "outputs": [],
      "stateMutability": "nonpayable",
      "type": "function"
    },
    {
      "inputs": [
        {
          "internalType": "uint256",
          "name": "optionID",
          "type": "uint256"
        }
      ],
      "name": "buyOption",
      "outputs": [],
      "stateMutability": "nonpayable",
      "type": "function"
    },
    {
      "inputs": [
        {
          "internalType": "address",
          "name": "nft",
          "type": "address"
        }
      ],
      "name": "depositNFT",
      "outputs": [],
      "stateMutability": "nonpayable",
      "type": "function"
    },
    {
      "inputs": [
        {
          "internalType": "address",
          "name": "token",
          "type": "address"
        },
        {
          "internalType": "uint256",
          "name": "amount",
          "type": "uint256"
        }
      ],
      "name": "depositToken",
      "outputs": [],
      "stateMutability": "nonpayable",
      "type": "function"
    },
    {
      "inputs": [
        {
          "internalType": "address",
          "name": "token",
          "type": "address"
        },
        {
          "internalType": "uint256",
          "name": "amount",
          "type": "uint256"
        }
      ],
      "name": "withdrawToken",
      "outputs": [],
      "stateMutability": "nonpayable",
      "type": "function"
    },
    {
      "inputs": [
        {
          "internalType": "uint256",
          "name": "optionID",
          "type": "uint256"
        }
      ],
      "name": "assign",
      "outputs": [],
      "stateMutability": "nonpayable",
      "type": "function"
    },
    {
      "inputs": [],
      "name": "recover",
      "outputs": [],
      "stateMutability": "nonpayable",
      "type": "function"
    },
    {
      "inputs": [
        {
          "internalType": "address",
          "name": "user",
          "type": "address"
        }
      ],
      "name": "totalAsset",
      "outputs": [],
      "stateMutability": "nonpayable",
      "type": "function"
    }
  ],
  "bytecode": "0x608060405234801561001057600080fd5b5060405161092a38038061092a83398101604081905261002f91610131565b8251610042906001906020860190610085565b50600280546001600160a01b039384166001600160a01b031991821617909155600380549290931691811691909117909155600480549091163017905550610217565b8280548282559060005260206000209081019282156100da579160200282015b828111156100da57825182546001600160a01b0319166001600160a01b039091161782556020909201916001909101906100a5565b506100e69291506100ea565b5090565b5b808211156100e657600081556001016100eb565b634e487b7160e01b600052604160045260246000fd5b80516001600160a01b038116811461012c57600080fd5b919050565b60008060006060848603121561014657600080fd5b83516001600160401b038082111561015d57600080fd5b818601915086601f83011261017157600080fd5b8151602082821115610185576101856100ff565b8160051b604051601f19603f830116810181811086821117156101aa576101aa6100ff565b60405292835281830193508481018201928a8411156101c857600080fd5b948201945b838610156101ed576101de86610115565b855294820194938201936101cd565b97506101fc9050888201610115565b95505050505061020e60408501610115565b90509250925092565b610704806102266000396000f3fe608060405234801561001057600080fd5b506004361061009e5760003560e01c806384a64bf71161006657806384a64bf7146100fc5780639e281a9814610111578063ce746024146100d9578063de6bf63514610124578063fba225b91461013757600080fd5b80630cbca658146100a35780630d8707aa146100c8578063338b5dea146100db57806335e147b8146100c85780634c081138146100ee575b600080fd5b6100b66100b136600461057f565b61014a565b60405190815260200160405180910390f35b6100d96100d63660046105b8565b50565b005b6100d96100e93660046105da565b610289565b6100d96100d6366004610604565b6100d961010a36600461061d565b5050505050565b6100d961011f3660046105da565b610375565b6100d9610132366004610604565b6103df565b6100d9610145366004610604565b610506565b600033156101925760405162461bcd60e51b815260206004820152601060248201526f139bdd0813dddb995c881bd98813919560821b60448201526064015b60405180910390fd5b5060008054908190806101a483610679565b90915550506040805160a08082018352338083526001600160a01b0389811660208086018281528688018c815260608089018c81526080808b018d815260008e8152600588528d90208c518154908b166001600160a01b0319918216178255965160018201805491909b1697169690961790985592516002850155516003840155945160049092019190915587519485529084019190915294820189905281018790529283018590528201839052907fa2af0d1750ac3f92fbaeb824aa17d8962d72f3759bde8620f9c415831d8884909060c00160405180910390a150949350505050565b600480546040516323b872dd60e01b815233928101929092526001600160a01b039081166024830152604482018390528316906323b872dd90606401602060405180830381600087803b1580156102df57600080fd5b505af11580156102f3573d6000803e3d6000fd5b505050506040513d601f19601f820116820180604052508101906103179190610694565b503360009081526006602090815260408083206001600160a01b03861684529091529020546103479082906106b6565b3360009081526006602090815260408083206001600160a01b03969096168352949052929092209190915550565b3360009081526006602090815260408083206001600160a01b03861684529091529020548111156103db5760405162461bcd60e51b815260206004820152601060248201526f139bdd08195b9bdd59da08185cdcd95d60821b6044820152606401610189565b5050565b600081815260056020526040902080546001600160a01b031661043c5760405162461bcd60e51b81526020600482015260156024820152744e6f2073756368206f7074696f6e2065786973747360581b6044820152606401610189565b80546001600160a01b0316331461048b5760405162461bcd60e51b81526020600482015260136024820152722737ba1037bbb732b91037b31037b83a34b7b760691b6044820152606401610189565b600082815260056020908152604080832080546001600160a01b03199081168255600182018054909116905560028101849055600381018490556004019290925581513381529081018490527f28da767dde1690557746867b8708e58d9eb3fecee8e1b39147cd179450add25f910160405180910390a15050565b600081815260056020526040902080546001600160a01b03166103db5760405162461bcd60e51b81526020600482015260156024820152744e6f2073756368206f7074696f6e2065786973747360581b6044820152606401610189565b80356001600160a01b038116811461057a57600080fd5b919050565b6000806000806080858703121561059557600080fd5b61059e85610563565b966020860135965060408601359560600135945092505050565b6000602082840312156105ca57600080fd5b6105d382610563565b9392505050565b600080604083850312156105ed57600080fd5b6105f683610563565b946020939093013593505050565b60006020828403121561061657600080fd5b5035919050565b600080600080600060a0868803121561063557600080fd5b8535945061064560208701610563565b94979496505050506040830135926060810135926080909101359150565b634e487b7160e01b600052601160045260246000fd5b600060001982141561068d5761068d610663565b5060010190565b6000602082840312156106a657600080fd5b815180151581146105d357600080fd5b600082198211156106c9576106c9610663565b50019056fea264697066735822122044674a02e2bceec35ef10420b1f36770c18efb8a611badbb3be194b8a2e66f2764736f6c63430008090033",
  "immutableReferences": {},
  "source": "// SPDX-License-Identifier: MIT\npragma solidity >=0.8.0 <0.9.0;\n\nimport {IERC721} from \"@openzeppelin/contracts/token/ERC721/IERC721.sol\";\nimport {IERC20} from \"@openzeppelin/contracts/token/ERC20/IERC20.sol\";\nimport {IERC721Metadata} from \"@openzeppelin/contracts/token/ERC721/extensions/IERC721Metadata.sol\";\nimport {IERC20Metadata} from \"@openzeppelin/contracts/token/ERC20/extensions/IERC20Metadata.sol\";\nimport \"@openzeppelin/contracts/token/ERC20/ERC20.sol\";\nimport {IPriceOracle} from \"./interface/IPriceOracle.sol\";\n\ncontract PriviNFTBuying {\n  event OptionCreated(\n    address owner,\n    address nft,\n    uint256 expiry,\n    uint256 price,\n    uint256 pct,\n    uint256 optionID\n  );\n\n  event OptionCanceled(\n    address owner,\n    uint256 optionID\n  );\n\n  event OptionSold(\n    address owner,\n    address buyer,\n    uint256 optionID\n  );\n\n  event Depoist(\n    address owner,\n    address token,\n    uint256 amount\n  );\n\n  event Withdraw(\n    address owner,\n    address token,\n    uint256 amount\n  );\n  \n  struct NFTOption {\n    address owner;\n    address nft;\n    uint256 expiry;\n    uint256 pct;\n    uint256 optionID;\n  }\n\n  uint256 counter;\n  address[] tokens;\n  address nftPool;\n  address priceOracle;\n  address admin;\n\n  mapping(uint256 => NFTOption) options;\n  mapping(address => mapping (address => uint256)) reserves;\n\n  constructor(\n    address[] memory _tokens,\n    address _nftPool,\n    address _priceOracle\n  ) public {\n    tokens = _tokens;\n    nftPool = _nftPool;\n    priceOracle = _priceOracle;\n    admin = address(this);\n  }\n  \n  function createOption(\n    address nft,\n    uint256 expiry,\n    uint256 price,\n    uint256 pct\n  ) external returns (uint256 optionID) {\n    require(msg.sender == _nftOwner(nft), \"Not Owner of NFT\");\n    optionID = counter;\n    counter++;\n    NFTOption memory option = NFTOption(msg.sender, nft, expiry, pct, optionID);\n    options[optionID] = option;\n    emit OptionCreated(msg.sender, nft, expiry, price, pct, optionID);\n  }\n\n  function moidfyOption(\n    uint256 optionID,\n    address nft,\n    uint256 expiry,\n    uint256 price,\n    uint256 pct\n  ) external {\n  }\n  \n  function cancelOption(\n    uint256 optionID\n  ) external {\n    NFTOption storage option = _getOption(optionID);\n    require(option.owner != address(0), \"No such option exists\");\n    require(option.owner == msg.sender, \"Not owner of option\");\n\n    delete options[optionID];\n    emit OptionCanceled(msg.sender, optionID);\n  }\n\n  function buyOption(\n    uint256 optionID\n  ) external {\n    NFTOption storage option = _getOption(optionID);\n    require(option.owner != address(0), \"No such option exists\");\n\n  }\n\n  function depositNFT(\n    address nft\n  ) external {\n  }\n\n  function depositToken(\n    address token,\n    uint256 amount\n  ) external {\n    IERC20(token).transferFrom(msg.sender, admin, amount);\n    reserves[msg.sender][token] = reserves[msg.sender][token] + amount;\n  }\n\n  function withdrawToken(\n    address token,\n    uint256 amount\n  ) external {\n    require(reserves[msg.sender][token] >= amount, \"Not enough asset\");\n  }\n\n  function assign(\n    uint256 optionID\n  ) external {\n  }\n\n  function recover(\n  ) external {\n  }\n\n  function totalAsset(\n    address user\n  ) external {\n\n  }\n\n  function _getOption(uint256 optionID) private returns (NFTOption storage) {\n    return options[optionID];\n  }\n\n  function _nftOwner(address nft) private returns (address) {\n    // not completed yet\n\n    return address(0);\n  }\n\n  function _tokenToUSD(address token) private returns (uint256) {\n    // not completed yet\n    return IPriceOracle(priceOracle).price(token);\n  }\n\n  /*\n  - person holds an NFT, may want to sell it. Set it into sale with conditions. The NFT is locked\n    Future time when this will be sold\n    Price at which it will be sold\n    Pct of collateral required by the buyer to get this option of buying\n  - buyers can come there and make accept that by giving the collateral and adquiring that option of buying it. Lets make them receive an NFT which will be that option to buying and can be tradeable\n  - buyers can make their counterproposal, with the 3 parameters 1,2,3 before.\n  - owner can withdraw the NFT if not buyer came yet.\n  - owner can withdraw and use the collateral whenever he wants.\n  - owner can recover the NFT during that period by repaying the collateral he withdraw + some fee as penalty\n  - buyer can deposit collateral with different tokens (for example with ETH, DAI.. or maybe even JOTs)\n  - buyer needs to deposit more collateral if the LTV goes below the pct collateral required\n  - If it goes bellow, he gots liquidated and lose the option off buying.\n  */\n}\n",
  "sourcePath": "E:\\Projects\\Privi2\\PriviNFTOptions\\privi-NFT-buying\\contracts\\PriviNFTBuying.sol",
  "compiler": {
    "name": "solc",
    "version": "0.8.9+commit.e5eed63a.Emscripten.clang"
  },
  "schemaVersion": "3.4.3",
  "updatedAt": "2021-10-27T14:53:01.345Z",
  "devdoc": {
    "kind": "dev",
    "methods": {},
    "version": 1
  },
  "userdoc": {
    "kind": "user",
    "methods": {},
    "version": 1
  }
}