{
  "contractName": "PriviNFTBuying",
  "abi": [
    {
      "inputs": [],
      "stateMutability": "nonpayable",
      "type": "constructor"
    },
    {
      "anonymous": false,
      "inputs": [
        {
          "indexed": false,
          "internalType": "address",
          "name": "owner",
          "type": "address"
        },
        {
          "indexed": false,
          "internalType": "uint256",
          "name": "id",
          "type": "uint256"
        }
      ],
      "name": "OptionCanceled",
      "type": "event"
    },
    {
      "anonymous": false,
      "inputs": [
        {
          "indexed": false,
          "internalType": "address",
          "name": "owner",
          "type": "address"
        },
        {
          "indexed": false,
          "internalType": "address",
          "name": "nft",
          "type": "address"
        },
        {
          "indexed": false,
          "internalType": "uint256",
          "name": "expiry",
          "type": "uint256"
        },
        {
          "indexed": false,
          "internalType": "uint256",
          "name": "price",
          "type": "uint256"
        },
        {
          "indexed": false,
          "internalType": "uint256",
          "name": "pct",
          "type": "uint256"
        },
        {
          "indexed": false,
          "internalType": "uint256",
          "name": "id",
          "type": "uint256"
        }
      ],
      "name": "OptionCreated",
      "type": "event"
    },
    {
      "anonymous": false,
      "inputs": [
        {
          "indexed": false,
          "internalType": "address",
          "name": "owner",
          "type": "address"
        },
        {
          "indexed": false,
          "internalType": "address",
          "name": "buyer",
          "type": "address"
        },
        {
          "indexed": false,
          "internalType": "uint256",
          "name": "id",
          "type": "uint256"
        }
      ],
      "name": "OptionSold",
      "type": "event"
    },
    {
      "inputs": [
        {
          "internalType": "address",
          "name": "nft",
          "type": "address"
        },
        {
          "internalType": "uint256",
          "name": "expiry",
          "type": "uint256"
        },
        {
          "internalType": "uint256",
          "name": "price",
          "type": "uint256"
        },
        {
          "internalType": "uint256",
          "name": "pct",
          "type": "uint256"
        }
      ],
      "name": "createOption",
      "outputs": [
        {
          "internalType": "uint256",
          "name": "id",
          "type": "uint256"
        }
      ],
      "stateMutability": "nonpayable",
      "type": "function"
    },
    {
      "inputs": [
        {
          "internalType": "uint256",
          "name": "id",
          "type": "uint256"
        }
      ],
      "name": "cancelOption",
      "outputs": [
        {
          "internalType": "bool",
          "name": "success",
          "type": "bool"
        }
      ],
      "stateMutability": "nonpayable",
      "type": "function"
    },
    {
      "inputs": [
        {
          "internalType": "uint256",
          "name": "id",
          "type": "uint256"
        }
      ],
      "name": "buyOption",
      "outputs": [
        {
          "internalType": "bool",
          "name": "success",
          "type": "bool"
        }
      ],
      "stateMutability": "nonpayable",
      "type": "function"
    }
  ],
  "bytecode": "0x608060405234801561001057600080fd5b506101cb806100206000396000f3fe608060405234801561001057600080fd5b50600436106100415760003560e01c80630cbca65814610046578063de6bf6351461006c578063fba225b91461006c575b600080fd5b61005961005436600461010c565b610090565b6040519081526020015b60405180910390f35b61008061007a366004610153565b50600090565b6040519015158152602001610063565b60008054908190806100a18361016c565b9091555050604080513381526001600160a01b0387166020820152908101859052606081018490526080810183905260a081018290527fa2af0d1750ac3f92fbaeb824aa17d8962d72f3759bde8620f9c415831d8884909060c00160405180910390a1949350505050565b6000806000806080858703121561012257600080fd5b84356001600160a01b038116811461013957600080fd5b966020860135965060408601359560600135945092505050565b60006020828403121561016557600080fd5b5035919050565b600060001982141561018e57634e487b7160e01b600052601160045260246000fd5b506001019056fea26469706673582212207144dddd0ab99b8d6bfa7da9f66027aab06cfef5589afa091dbfffc51244950764736f6c63430008090033",
  "immutableReferences": {},
  "source": "// SPDX-License-Identifier: MIT\npragma solidity >=0.8.0 <0.9.0;\n\ncontract PriviNFTBuying {\n  event OptionCreated(\n    address owner,\n    address nft,\n    uint256 expiry,\n    uint256 price,\n    uint256 pct,\n    uint256 id\n  );\n\n  event OptionCanceled(\n    address owner,\n    uint256 id\n  );\n\n  event OptionSold(\n    address owner,\n    address buyer,\n    uint256 id\n  );\n  \n  struct NFTOption {\n    address owner;\n    address nft;\n    uint256 expiry;\n    uint256 pct;\n    uint256 id;\n  }\n\n\n  uint256 counter;\n\n  mapping(uint256 => NFTOption) options;\n\n  constructor() public {\n  }\n  \n  function createOption(\n    address nft,\n    uint256 expiry,\n    uint256 price,\n    uint256 pct\n  ) external returns (uint256 id) {\n    id = counter;\n    counter++;\n    emit OptionCreated(msg.sender, nft, expiry, price, pct, id);\n  }\n  \n  function cancelOption(\n    uint256 id\n  ) external returns (bool success) {\n\n  }\n\n  function buyOption(\n    uint256 id\n  ) external returns (bool success) {\n\n  }\n}\n",
  "sourcePath": "E:\\Projects\\Privi2\\PriviNFTOptions\\privi-NFT-buying\\contracts\\PriviNFTBuying.sol",
  "compiler": {
    "name": "solc",
    "version": "0.8.9+commit.e5eed63a.Emscripten.clang"
  },
  "schemaVersion": "3.4.3",
  "updatedAt": "2021-10-27T09:03:25.873Z",
  "devdoc": {
    "kind": "dev",
    "methods": {},
    "version": 1
  },
  "userdoc": {
    "kind": "user",
    "methods": {},
    "version": 1
  }
}