{
  "contractName": "PriviNFTReserval",
  "abi": [
    {
      "inputs": [
        {
          "internalType": "address[]",
          "name": "_tokens",
          "type": "address[]"
        },
        {
          "internalType": "address",
          "name": "_nftPool",
          "type": "address"
        },
        {
          "internalType": "address",
          "name": "_priceOracle",
          "type": "address"
        }
      ],
      "stateMutability": "nonpayable",
      "type": "constructor"
    },
    {
      "anonymous": false,
      "inputs": [
        {
          "indexed": false,
          "internalType": "bool",
          "name": "assigned",
          "type": "bool"
        },
        {
          "indexed": false,
          "internalType": "uint256",
          "name": "reservalID",
          "type": "uint256"
        },
        {
          "indexed": false,
          "internalType": "uint256",
          "name": "offerID",
          "type": "uint256"
        }
      ],
      "name": "Assigned",
      "type": "event"
    },
    {
      "anonymous": false,
      "inputs": [
        {
          "indexed": false,
          "internalType": "address",
          "name": "buyer",
          "type": "address"
        },
        {
          "indexed": false,
          "internalType": "address",
          "name": "token",
          "type": "address"
        },
        {
          "indexed": false,
          "internalType": "address",
          "name": "price",
          "type": "address"
        },
        {
          "indexed": false,
          "internalType": "uint256",
          "name": "reservalID",
          "type": "uint256"
        },
        {
          "indexed": false,
          "internalType": "uint256",
          "name": "offerID",
          "type": "uint256"
        }
      ],
      "name": "BOfferCreated",
      "type": "event"
    },
    {
      "anonymous": false,
      "inputs": [
        {
          "indexed": false,
          "internalType": "address",
          "name": "account",
          "type": "address"
        },
        {
          "indexed": false,
          "internalType": "address",
          "name": "token",
          "type": "address"
        },
        {
          "indexed": false,
          "internalType": "uint256",
          "name": "amount",
          "type": "uint256"
        }
      ],
      "name": "Deposit",
      "type": "event"
    },
    {
      "anonymous": false,
      "inputs": [
        {
          "indexed": false,
          "internalType": "address",
          "name": "owner",
          "type": "address"
        },
        {
          "indexed": false,
          "internalType": "address",
          "name": "buyer",
          "type": "address"
        },
        {
          "indexed": false,
          "internalType": "uint256",
          "name": "reservalID",
          "type": "uint256"
        },
        {
          "indexed": false,
          "internalType": "uint256",
          "name": "offerID",
          "type": "uint256"
        }
      ],
      "name": "OOfferAccepted",
      "type": "event"
    },
    {
      "anonymous": false,
      "inputs": [
        {
          "indexed": false,
          "internalType": "address",
          "name": "owner",
          "type": "address"
        },
        {
          "indexed": false,
          "internalType": "uint256",
          "name": "reservalID",
          "type": "uint256"
        }
      ],
      "name": "OReservalCanceled",
      "type": "event"
    },
    {
      "anonymous": false,
      "inputs": [
        {
          "indexed": false,
          "internalType": "address",
          "name": "owner",
          "type": "address"
        },
        {
          "indexed": false,
          "internalType": "address",
          "name": "nft",
          "type": "address"
        },
        {
          "indexed": false,
          "internalType": "uint256",
          "name": "expiry",
          "type": "uint256"
        },
        {
          "indexed": false,
          "internalType": "uint256",
          "name": "price",
          "type": "uint256"
        },
        {
          "indexed": false,
          "internalType": "uint256",
          "name": "pct",
          "type": "uint256"
        },
        {
          "indexed": false,
          "internalType": "uint256",
          "name": "reservalID",
          "type": "uint256"
        }
      ],
      "name": "OReservalCreated",
      "type": "event"
    },
    {
      "anonymous": false,
      "inputs": [
        {
          "indexed": false,
          "internalType": "address",
          "name": "account",
          "type": "address"
        },
        {
          "indexed": false,
          "internalType": "address",
          "name": "token",
          "type": "address"
        },
        {
          "indexed": false,
          "internalType": "uint256",
          "name": "amount",
          "type": "uint256"
        }
      ],
      "name": "Withdraw",
      "type": "event"
    },
    {
      "inputs": [
        {
          "internalType": "address",
          "name": "nft",
          "type": "address"
        },
        {
          "internalType": "uint256",
          "name": "expiry",
          "type": "uint256"
        },
        {
          "internalType": "address",
          "name": "token",
          "type": "address"
        },
        {
          "internalType": "uint256",
          "name": "price",
          "type": "uint256"
        },
        {
          "internalType": "uint256",
          "name": "pct",
          "type": "uint256"
        }
      ],
      "name": "createReserval",
      "outputs": [
        {
          "internalType": "uint256",
          "name": "reservalID",
          "type": "uint256"
        }
      ],
      "stateMutability": "nonpayable",
      "type": "function"
    },
    {
      "inputs": [
        {
          "internalType": "uint256",
          "name": "reservalID",
          "type": "uint256"
        },
        {
          "internalType": "address",
          "name": "nft",
          "type": "address"
        },
        {
          "internalType": "uint256",
          "name": "expiry",
          "type": "uint256"
        },
        {
          "internalType": "uint256",
          "name": "price",
          "type": "uint256"
        },
        {
          "internalType": "uint256",
          "name": "pct",
          "type": "uint256"
        }
      ],
      "name": "moidfyReserval",
      "outputs": [],
      "stateMutability": "nonpayable",
      "type": "function"
    },
    {
      "inputs": [
        {
          "internalType": "uint256",
          "name": "reservalID",
          "type": "uint256"
        }
      ],
      "name": "cancelReserval",
      "outputs": [],
      "stateMutability": "nonpayable",
      "type": "function"
    },
    {
      "inputs": [
        {
          "internalType": "uint256",
          "name": "reservalID",
          "type": "uint256"
        }
      ],
      "name": "createOffer",
      "outputs": [],
      "stateMutability": "nonpayable",
      "type": "function"
    },
    {
      "inputs": [
        {
          "internalType": "uint256",
          "name": "offerID",
          "type": "uint256"
        }
      ],
      "name": "acceptOffer",
      "outputs": [],
      "stateMutability": "nonpayable",
      "type": "function"
    },
    {
      "inputs": [
        {
          "internalType": "uint256",
          "name": "offerID",
          "type": "uint256"
        }
      ],
      "name": "assignOffer",
      "outputs": [],
      "stateMutability": "nonpayable",
      "type": "function"
    },
    {
      "inputs": [
        {
          "internalType": "address",
          "name": "token",
          "type": "address"
        },
        {
          "internalType": "uint256",
          "name": "amount",
          "type": "uint256"
        }
      ],
      "name": "deposit",
      "outputs": [],
      "stateMutability": "nonpayable",
      "type": "function"
    },
    {
      "inputs": [
        {
          "internalType": "address",
          "name": "token",
          "type": "address"
        },
        {
          "internalType": "uint256",
          "name": "amount",
          "type": "uint256"
        }
      ],
      "name": "withdraw",
      "outputs": [],
      "stateMutability": "nonpayable",
      "type": "function"
    },
    {
      "inputs": [],
      "name": "recover",
      "outputs": [],
      "stateMutability": "nonpayable",
      "type": "function"
    },
    {
      "inputs": [
        {
          "internalType": "address",
          "name": "user",
          "type": "address"
        }
      ],
      "name": "totalAssetUSD",
      "outputs": [
        {
          "internalType": "uint256",
          "name": "",
          "type": "uint256"
        }
      ],
      "stateMutability": "nonpayable",
      "type": "function"
    }
  ],
  "bytecode": "0x60806040523480156200001157600080fd5b5060405162000c5638038062000c568339810160408190526200003491620001b2565b825162000049906001906020860190620000fe565b50600280546001600160a01b038085166001600160a01b0319928316179092556003805492841692821692909217909155600480549091163017905560005b8351811015620000f457600160076000868481518110620000ad57620000ad620002aa565b6020908102919091018101516001600160a01b03168252810191909152604001600020805460ff191691151591909117905580620000eb81620002c0565b91505062000088565b50505050620002ea565b82805482825590600052602060002090810192821562000156579160200282015b828111156200015657825182546001600160a01b0319166001600160a01b039091161782556020909201916001909101906200011f565b506200016492915062000168565b5090565b5b8082111562000164576000815560010162000169565b634e487b7160e01b600052604160045260246000fd5b80516001600160a01b0381168114620001ad57600080fd5b919050565b600080600060608486031215620001c857600080fd5b83516001600160401b0380821115620001e057600080fd5b818601915086601f830112620001f557600080fd5b81516020828211156200020c576200020c6200017f565b8160051b604051601f19603f830116810181811086821117156200023457620002346200017f565b60405292835281830193508481018201928a8411156200025357600080fd5b948201945b838610156200027c576200026c8662000195565b8552948201949382019362000258565b97506200028d905088820162000195565b955050505050620002a16040850162000195565b90509250925092565b634e487b7160e01b600052603260045260246000fd5b6000600019821415620002e357634e487b7160e01b600052601160045260246000fd5b5060010190565b61095c80620002fa6000396000f3fe608060405234801561001057600080fd5b506004361061009e5760003560e01c8063c6f3ed8b11610066578063c6f3ed8b14610101578063c815729d146100b8578063ce746024146100b6578063f3fef3a314610114578063fc2ee8401461012757600080fd5b806306a7ad64146100a357806324af54b6146100b857806328ec102c146100c957806347e7ef24146100ee578063a269993d146100b8575b600080fd5b6100b66100b1366004610755565b61013c565b005b6100b66100c6366004610755565b50565b6100dc6100d736600461078a565b610273565b60405190815260200160405180910390f35b6100b66100fc3660046107ac565b6102fb565b6100dc61010f3660046107d6565b610458565b6100b66101223660046107ac565b610593565b6100b6610135366004610824565b5050505050565b600081815260056020526040902080546001600160a01b03166101a65760405162461bcd60e51b815260206004820152601760248201527f4e6f207375636820726573657276616c2065786973747300000000000000000060448201526064015b60405180910390fd5b80546001600160a01b031633146101f75760405162461bcd60e51b8152602060048201526015602482015274139bdd081bdddb995c881bd9881c995cd95c9d985b605a1b604482015260640161019d565b600082815260056020908152604080832080546001600160a01b03199081168255600182018054909116905560028101849055600381018490556004019290925581513381529081018490527fc54196fb89f0de06064e8350a77850230e5fc554d1d593a76d12c352deadcdde91015b60405180910390a15050565b600080805b6001548110156102f4576001600160a01b038416600090815260066020526040812060018054919291849081106102b1576102b161086a565b60009182526020808320909101546001600160a01b031683528201929092526040019020546102e09083610896565b9150806102ec816108ae565b915050610278565b5092915050565b600081116103475760405162461bcd60e51b8152602060048201526019602482015278125394d551919250d251539517d25394155517d05353d55395603a1b604482015260640161019d565b600480546040516323b872dd60e01b81526001600160a01b03858116936323b872dd9361037c933393909116918791016108c9565b602060405180830381600087803b15801561039657600080fd5b505af11580156103aa573d6000803e3d6000fd5b505050506040513d601f19601f820116820180604052508101906103ce91906108ed565b503360009081526006602090815260408083206001600160a01b03861684529091529020546103fe908290610896565b3360008181526006602090815260408083206001600160a01b0388168452909152908190209290925590517f5548c837ab068cf56a2c2479df0882a4922fd203edb7517321831d95078c5f629161026791859085906108c9565b6000331561049b5760405162461bcd60e51b815260206004820152601060248201526f139bdd0813dddb995c881bd98813919560821b604482015260640161019d565b5060008054908190806104ad836108ae565b90915550506040805160a08082018352338083526001600160a01b038a811660208086018281528688018d815260608089018c81526080808b018d815260008e8152600588528d90208c518154908b166001600160a01b0319918216178255965160018201805491909b169716969096179098559251600285015551600384015594516004909201919091558751948552908401919091529482018a905281018790529283018590528201839052907fb0407313cb1ed310ff8a0d462089257133cb1fa263fcb134f078faf5cdbf0ae09060c00160405180910390a15095945050505050565b600081116105df5760405162461bcd60e51b8152602060048201526019602482015278125394d551919250d251539517d25394155517d05353d55395603a1b604482015260640161019d565b3360009081526006602090815260408083206001600160a01b03861684529091529020548111156106455760405162461bcd60e51b815260206004820152601060248201526f139bdd08195b9bdd59da08185cdcd95d60821b604482015260640161019d565b600480546040516323b872dd60e01b81526001600160a01b03808616936323b872dd936106799392169133918791016108c9565b602060405180830381600087803b15801561069357600080fd5b505af11580156106a7573d6000803e3d6000fd5b505050506040513d601f19601f820116820180604052508101906106cb91906108ed565b503360009081526006602090815260408083206001600160a01b03861684529091529020546106fb90829061090f565b3360008181526006602090815260408083206001600160a01b0388168452909152908190209290925590517f9b1bfa7fa9ee420a16e124f794c35ac9f90472acc99140eb2f6447c714cad8eb9161026791859085906108c9565b60006020828403121561076757600080fd5b5035919050565b80356001600160a01b038116811461078557600080fd5b919050565b60006020828403121561079c57600080fd5b6107a58261076e565b9392505050565b600080604083850312156107bf57600080fd5b6107c88361076e565b946020939093013593505050565b600080600080600060a086880312156107ee57600080fd5b6107f78661076e565b94506020860135935061080c6040870161076e565b94979396509394606081013594506080013592915050565b600080600080600060a0868803121561083c57600080fd5b8535945061084c6020870161076e565b94979496505050506040830135926060810135926080909101359150565b634e487b7160e01b600052603260045260246000fd5b634e487b7160e01b600052601160045260246000fd5b600082198211156108a9576108a9610880565b500190565b60006000198214156108c2576108c2610880565b5060010190565b6001600160a01b039384168152919092166020820152604081019190915260600190565b6000602082840312156108ff57600080fd5b815180151581146107a557600080fd5b60008282101561092157610921610880565b50039056fea2646970667358221220058b09020bc233baf44991605fe8c36593119774742e42cb24566a93d7abfc8564736f6c63430008090033",
  "immutableReferences": {},
  "source": "// SPDX-License-Identifier: MIT\r\npragma solidity >=0.8.0 <0.9.0;\r\n\r\nimport {IERC721} from \"@openzeppelin/contracts/token/ERC721/IERC721.sol\";\r\nimport {IERC20} from \"@openzeppelin/contracts/token/ERC20/IERC20.sol\";\r\nimport {IERC721Metadata} from \"@openzeppelin/contracts/token/ERC721/extensions/IERC721Metadata.sol\";\r\nimport {IERC20Metadata} from \"@openzeppelin/contracts/token/ERC20/extensions/IERC20Metadata.sol\";\r\nimport \"@openzeppelin/contracts/token/ERC20/ERC20.sol\";\r\nimport {IPriceOracle} from \"./interface/IPriceOracle.sol\";\r\n\r\n/*\r\nOWNER:\r\n-  Whitelist asset to be open to receive Reserval Offers. He may (start with his own initial offer). IMPORTANT: if the owner sets an offer you get only the approval of the Owner ffor the NFT to the contract but the NFT is NOT LOCKED at this stage\r\n-  Owner can remove from whitelist without any cost as long as no offer has been accepted first.\r\n-  Owner can accept an offer. At this stage NFT is locked on the contract\r\n-  Owner can withdraw collateral deposited by the buyer at any moment\r\n-  If owner wants to cancel the Reserval (Reserval), he needs to payback what he withdrawn +a fee\r\nBUYER:\r\n-  Buyer can set offers for whitelisted NFTs. IMPORTANT: the offer does not lock the collateraal of the buyer. It only gets the proposal for that toekns aand amoiunt to the contrract. For example if i propose 10K SHIB, I approve the contract but i do not lock them.\r\n-  Buyer can reserve NFT directly if the owner has some offer\r\n-  Buyer needs to keep a level of collateral. Otherwise can be liquidaated and lose it.\r\n-  If collateral goes below the ratio, buyer needs to deposit more collateral.\r\n-  At future (expiration) the buyer needs to pay the Reserve Price within a period of 5 days max. If not, he loses the Reserval of buying\r\n*/\r\n\r\ncontract PriviNFTReserval {\r\n  event OReservalCreated(\r\n    address owner,\r\n    address nft,\r\n    uint256 expiry,\r\n    uint256 price,\r\n    uint256 pct,\r\n    uint256 reservalID\r\n  );\r\n\r\n  event OReservalCanceled(\r\n    address owner,\r\n    uint256 reservalID\r\n  );\r\n\r\n  event BOfferCreated(\r\n    address buyer,\r\n    address token,\r\n    address price,\r\n    uint256 reservalID,\r\n    uint256 offerID\r\n  );\r\n\r\n  event OOfferAccepted(\r\n    address owner,\r\n    address buyer,\r\n    uint256 reservalID,\r\n    uint256 offerID\r\n  );\r\n\r\n  event Assigned(\r\n    bool assigned,\r\n    uint256 reservalID,\r\n    uint256 offerID\r\n  );\r\n  \r\n  event Deposit(\r\n    address account,\r\n    address token,\r\n    uint256 amount\r\n  );\r\n\r\n  event Withdraw(\r\n    address account,\r\n    address token,\r\n    uint256 amount\r\n  );\r\n  \r\n  struct NFTReserval {\r\n    address owner;\r\n    address nft;\r\n    uint256 expiry;\r\n    uint256 pct;\r\n    uint256 reservalID;\r\n  }\r\n\r\n  struct Offer {\r\n    address buyer;\r\n    address owner;\r\n    uint256 reservalID;\r\n    uint256 offerID;\r\n  }\r\n\r\n  uint256 counter;\r\n  address[] tokens;\r\n  address nftPool;\r\n  address priceOracle;\r\n  address admin;\r\n\r\n  mapping(uint256 => NFTReserval) reservals;\r\n  mapping(address => mapping (address => uint256)) reserves;\r\n  mapping(address => bool) validToken;\r\n\r\n  constructor(\r\n    address[] memory _tokens,\r\n    address _nftPool,\r\n    address _priceOracle\r\n  ) public {\r\n    tokens = _tokens;\r\n    nftPool = _nftPool;\r\n    priceOracle = _priceOracle;\r\n    admin = address(this);\r\n    for (uint i = 0; i < _tokens.length; i++) {\r\n        validToken[_tokens[i]] = true;\r\n    }\r\n  }\r\n  \r\n  function createReserval(\r\n    address nft,\r\n    uint256 expiry,\r\n    address token,\r\n    uint256 price,\r\n    uint256 pct\r\n  ) external returns (uint256 reservalID) {\r\n    require(msg.sender == _nftOwner(nft), \"Not Owner of NFT\");\r\n    reservalID = counter;\r\n    counter++;\r\n    NFTReserval memory reserval = NFTReserval(msg.sender, nft, expiry, pct, reservalID);\r\n    reservals[reservalID] = reserval;\r\n    emit OReservalCreated(msg.sender, nft, expiry, price, pct, reservalID);\r\n  }\r\n\r\n  function moidfyReserval(\r\n    uint256 reservalID,\r\n    address nft,\r\n    uint256 expiry,\r\n    uint256 price,\r\n    uint256 pct\r\n  ) external {\r\n  }\r\n  \r\n  function cancelReserval(\r\n    uint256 reservalID\r\n  ) external {\r\n    NFTReserval storage reserval = _getReserval(reservalID);\r\n    require(reserval.owner != address(0), \"No such reserval exists\");\r\n    require(reserval.owner == msg.sender, \"Not owner of reserval\");\r\n\r\n    delete reservals[reservalID];\r\n    emit OReservalCanceled(msg.sender, reservalID);\r\n  }\r\n  \r\n  function createOffer(\r\n    uint256 reservalID\r\n  ) external {\r\n  }\r\n\r\n  function acceptOffer(\r\n    uint256 offerID\r\n  ) external {\r\n  }\r\n\r\n  function assignOffer(\r\n    uint256 offerID\r\n  ) external {\r\n  }\r\n\r\n  function deposit(\r\n    address token,\r\n    uint256 amount\r\n  ) external {\r\n    require(amount > 0, \"INSUFFICIENT_INPUT_AMOUNT\");\r\n    IERC20(token).transferFrom(msg.sender, admin, amount);\r\n    reserves[msg.sender][token] = reserves[msg.sender][token] + amount;\r\n\r\n    emit Deposit(msg.sender, token, amount);\r\n  }\r\n\r\n  function withdraw(\r\n    address token,\r\n    uint256 amount\r\n  ) external {\r\n    require(amount > 0, \"INSUFFICIENT_INPUT_AMOUNT\");\r\n\r\n    require(reserves[msg.sender][token] >= amount, \"Not enough asset\");\r\n    IERC20(token).transferFrom(admin, msg.sender, amount);\r\n    reserves[msg.sender][token] = reserves[msg.sender][token] - amount;\r\n\r\n    emit Withdraw(msg.sender, token, amount);\r\n  }\r\n\r\n  function recover(\r\n  ) external {\r\n  }\r\n\r\n  function totalAssetUSD(\r\n    address user\r\n  ) external returns (uint256) {\r\n    uint256 total = 0;\r\n    for (uint i = 0; i < tokens.length; i++) {\r\n      total += reserves[user][tokens[i]];\r\n    }\r\n    return total;\r\n  }\r\n\r\n  function _getReserval(uint256 reservalID) private returns (NFTReserval storage) {\r\n    return reservals[reservalID];\r\n  }\r\n\r\n  function _nftOwner(address nft) private returns (address) {\r\n    // not completed yet\r\n\r\n    return address(0);\r\n  }\r\n\r\n  function _tokenToUSD(address token) private returns (uint256) {\r\n    // not completed yet\r\n    return IPriceOracle(priceOracle).price(token);\r\n  }\r\n}\r\n",
  "sourcePath": "E:\\Projects\\Privi2\\PriviNFTOptions\\privi-NFT-buying\\contracts\\PriviNFTReserval.sol",
  "compiler": {
    "name": "solc",
    "version": "0.8.9+commit.e5eed63a.Emscripten.clang"
  },
  "schemaVersion": "3.4.3",
  "updatedAt": "2021-11-01T13:42:01.486Z",
  "devdoc": {
    "kind": "dev",
    "methods": {},
    "version": 1
  },
  "userdoc": {
    "kind": "user",
    "methods": {},
    "version": 1
  }
}