{
  "contractName": "PriviNFTReserval",
  "abi": [
    {
      "inputs": [
        {
          "internalType": "address[]",
          "name": "_tokens",
          "type": "address[]"
        },
        {
          "internalType": "address",
          "name": "_nftPool",
          "type": "address"
        },
        {
          "internalType": "address",
          "name": "_priceOracle",
          "type": "address"
        }
      ],
      "stateMutability": "nonpayable",
      "type": "constructor"
    },
    {
      "anonymous": false,
      "inputs": [
        {
          "indexed": false,
          "internalType": "bool",
          "name": "assigned",
          "type": "bool"
        },
        {
          "indexed": false,
          "internalType": "uint256",
          "name": "reservalID",
          "type": "uint256"
        },
        {
          "indexed": false,
          "internalType": "uint256",
          "name": "offerID",
          "type": "uint256"
        }
      ],
      "name": "Assigned",
      "type": "event"
    },
    {
      "anonymous": false,
      "inputs": [
        {
          "indexed": false,
          "internalType": "address",
          "name": "buyer",
          "type": "address"
        },
        {
          "indexed": false,
          "internalType": "uint256",
          "name": "reservalID",
          "type": "uint256"
        },
        {
          "indexed": false,
          "internalType": "uint256",
          "name": "offerID",
          "type": "uint256"
        }
      ],
      "name": "BOfferCreated",
      "type": "event"
    },
    {
      "anonymous": false,
      "inputs": [
        {
          "indexed": false,
          "internalType": "address",
          "name": "account",
          "type": "address"
        },
        {
          "indexed": false,
          "internalType": "address",
          "name": "token",
          "type": "address"
        },
        {
          "indexed": false,
          "internalType": "uint256",
          "name": "amount",
          "type": "uint256"
        }
      ],
      "name": "Deposit",
      "type": "event"
    },
    {
      "anonymous": false,
      "inputs": [
        {
          "indexed": false,
          "internalType": "uint256",
          "name": "offerID",
          "type": "uint256"
        }
      ],
      "name": "OOfferAccepted",
      "type": "event"
    },
    {
      "anonymous": false,
      "inputs": [
        {
          "indexed": false,
          "internalType": "address",
          "name": "owner",
          "type": "address"
        },
        {
          "indexed": false,
          "internalType": "uint256",
          "name": "reservalID",
          "type": "uint256"
        }
      ],
      "name": "OReservalCanceled",
      "type": "event"
    },
    {
      "anonymous": false,
      "inputs": [
        {
          "indexed": false,
          "internalType": "address",
          "name": "owner",
          "type": "address"
        },
        {
          "indexed": false,
          "internalType": "address",
          "name": "nft",
          "type": "address"
        },
        {
          "indexed": false,
          "internalType": "uint256",
          "name": "expiry",
          "type": "uint256"
        },
        {
          "indexed": false,
          "internalType": "address",
          "name": "token",
          "type": "address"
        },
        {
          "indexed": false,
          "internalType": "uint256",
          "name": "price",
          "type": "uint256"
        },
        {
          "indexed": false,
          "internalType": "uint256",
          "name": "pct",
          "type": "uint256"
        },
        {
          "indexed": false,
          "internalType": "uint256",
          "name": "reservalID",
          "type": "uint256"
        }
      ],
      "name": "OReservalCreated",
      "type": "event"
    },
    {
      "anonymous": false,
      "inputs": [
        {
          "indexed": false,
          "internalType": "address",
          "name": "account",
          "type": "address"
        },
        {
          "indexed": false,
          "internalType": "address",
          "name": "token",
          "type": "address"
        },
        {
          "indexed": false,
          "internalType": "uint256",
          "name": "amount",
          "type": "uint256"
        }
      ],
      "name": "Withdraw",
      "type": "event"
    },
    {
      "inputs": [
        {
          "internalType": "address",
          "name": "nft",
          "type": "address"
        },
        {
          "internalType": "uint256",
          "name": "expiry",
          "type": "uint256"
        },
        {
          "internalType": "address",
          "name": "token",
          "type": "address"
        },
        {
          "internalType": "uint256",
          "name": "price",
          "type": "uint256"
        },
        {
          "internalType": "uint256",
          "name": "pct",
          "type": "uint256"
        }
      ],
      "name": "createReserval",
      "outputs": [
        {
          "internalType": "uint256",
          "name": "reservalID",
          "type": "uint256"
        }
      ],
      "stateMutability": "nonpayable",
      "type": "function"
    },
    {
      "inputs": [
        {
          "internalType": "uint256",
          "name": "reservalID",
          "type": "uint256"
        }
      ],
      "name": "cancelReserval",
      "outputs": [],
      "stateMutability": "nonpayable",
      "type": "function"
    },
    {
      "inputs": [
        {
          "internalType": "uint256",
          "name": "reservalID",
          "type": "uint256"
        }
      ],
      "name": "createOffer",
      "outputs": [
        {
          "internalType": "uint256",
          "name": "offerID",
          "type": "uint256"
        }
      ],
      "stateMutability": "nonpayable",
      "type": "function"
    },
    {
      "inputs": [
        {
          "internalType": "uint256",
          "name": "offerID",
          "type": "uint256"
        }
      ],
      "name": "acceptOffer",
      "outputs": [],
      "stateMutability": "nonpayable",
      "type": "function"
    },
    {
      "inputs": [
        {
          "internalType": "uint256",
          "name": "offerID",
          "type": "uint256"
        }
      ],
      "name": "assignOffer",
      "outputs": [],
      "stateMutability": "nonpayable",
      "type": "function"
    },
    {
      "inputs": [
        {
          "internalType": "uint256",
          "name": "offerID",
          "type": "uint256"
        }
      ],
      "name": "unassignOffer",
      "outputs": [],
      "stateMutability": "nonpayable",
      "type": "function"
    },
    {
      "inputs": [
        {
          "internalType": "address",
          "name": "token",
          "type": "address"
        },
        {
          "internalType": "uint256",
          "name": "amount",
          "type": "uint256"
        }
      ],
      "name": "deposit",
      "outputs": [],
      "stateMutability": "nonpayable",
      "type": "function"
    },
    {
      "inputs": [
        {
          "internalType": "address",
          "name": "token",
          "type": "address"
        },
        {
          "internalType": "uint256",
          "name": "amount",
          "type": "uint256"
        }
      ],
      "name": "withdraw",
      "outputs": [],
      "stateMutability": "nonpayable",
      "type": "function"
    },
    {
      "inputs": [],
      "name": "recover",
      "outputs": [],
      "stateMutability": "nonpayable",
      "type": "function"
    },
    {
      "inputs": [
        {
          "internalType": "address",
          "name": "user",
          "type": "address"
        }
      ],
      "name": "totalAssetUSD",
      "outputs": [
        {
          "internalType": "uint256",
          "name": "",
          "type": "uint256"
        }
      ],
      "stateMutability": "nonpayable",
      "type": "function"
    },
    {
      "inputs": [
        {
          "internalType": "address",
          "name": "owner",
          "type": "address"
        }
      ],
      "name": "getNFTReservals",
      "outputs": [
        {
          "internalType": "uint256[]",
          "name": "reservalIDs",
          "type": "uint256[]"
        }
      ],
      "stateMutability": "nonpayable",
      "type": "function"
    },
    {
      "inputs": [
        {
          "internalType": "address",
          "name": "buyer",
          "type": "address"
        }
      ],
      "name": "getOffers",
      "outputs": [
        {
          "internalType": "uint256[]",
          "name": "offerIDs",
          "type": "uint256[]"
        }
      ],
      "stateMutability": "nonpayable",
      "type": "function"
    },
    {
      "inputs": [
        {
          "internalType": "address",
          "name": "owner",
          "type": "address"
        }
      ],
      "name": "getOfferReqs",
      "outputs": [
        {
          "internalType": "uint256[]",
          "name": "offerIDs",
          "type": "uint256[]"
        }
      ],
      "stateMutability": "nonpayable",
      "type": "function"
    },
    {
      "inputs": [],
      "name": "checkAssign",
      "outputs": [],
      "stateMutability": "nonpayable",
      "type": "function"
    }
  ],
  "bytecode": "0x60806040523480156200001157600080fd5b506040516200133d3803806200133d8339810160408190526200003491620001bb565b82516200004990600290602086019062000107565b50600380546001600160a01b038085166001600160a01b0319928316179092556004805492841692821692909217909155600580549091163017905560005b8351811015620000f457600160096000868481518110620000ad57620000ad620002b3565b6020908102919091018101516001600160a01b03168252810191909152604001600020805460ff191691151591909117905580620000eb81620002c9565b91505062000088565b5050600080805560015550620002f39050565b8280548282559060005260206000209081019282156200015f579160200282015b828111156200015f57825182546001600160a01b0319166001600160a01b0390911617825560209092019160019091019062000128565b506200016d92915062000171565b5090565b5b808211156200016d576000815560010162000172565b634e487b7160e01b600052604160045260246000fd5b80516001600160a01b0381168114620001b657600080fd5b919050565b600080600060608486031215620001d157600080fd5b83516001600160401b0380821115620001e957600080fd5b818601915086601f830112620001fe57600080fd5b815160208282111562000215576200021562000188565b8160051b604051601f19603f830116810181811086821117156200023d576200023d62000188565b60405292835281830193508481018201928a8411156200025c57600080fd5b948201945b83861015620002855762000275866200019e565b8552948201949382019362000261565b97506200029690508882016200019e565b955050505050620002aa604085016200019e565b90509250925092565b634e487b7160e01b600052603260045260246000fd5b6000600019821415620002ec57634e487b7160e01b600052601160045260246000fd5b5060010190565b61103a80620003036000396000f3fe608060405234801561001057600080fd5b50600436106100ea5760003560e01c8063a93e1f581161008c578063c815729d11610066578063c815729d146101aa578063ce74602414610102578063de9d62de1461013d578063f3fef3a3146101bd57600080fd5b8063a93e1f5814610184578063b13258e714610102578063c6f3ed8b1461019757600080fd5b80632a74aa95116100c85780632a74aa951461013d5780632d86c0001461013d57806347e7ef241461015e578063a269993d1461017157600080fd5b806306a7ad64146100ef57806324af54b61461010457806328ec102c14610117575b600080fd5b6101026100fd366004610ddf565b6101d0565b005b610102610112366004610ddf565b610313565b61012a610125366004610e14565b6103d1565b6040519081526020015b60405180910390f35b61015161014b366004610e14565b50606090565b6040516101349190610e2f565b61010261016c366004610e73565b610459565b61012a61017f366004610ddf565b6105b5565b610102610192366004610ddf565b61069a565b61012a6101a5366004610e9d565b61074f565b6101026101b8366004610ddf565b61090e565b6101026101cb366004610e73565b6109c7565b600081815260066020526040902080546001600160a01b03166102345760405162461bcd60e51b81526020600482015260176024820152764e6f207375636820726573657276616c2065786973747360481b60448201526064015b60405180910390fd5b80546001600160a01b0316331461025d5760405162461bcd60e51b815260040161022b90610eeb565b8054610272906001600160a01b031683610b8b565b600082815260066020818152604080842080546001600160a01b03199081168255600182018054821690556002820186905560038201805490911690556004810185905560058101859055928301849055600790920192909255825481516001600160a01b0390911681529182018490527fc54196fb89f0de06064e8350a77850230e5fc554d1d593a76d12c352deadcdde91015b60405180910390a15050565b600081815260076020526040902080546001600160a01b03166103485760405162461bcd60e51b815260040161022b90610f1a565b6001810154600090815260066020526040902080546001600160a01b031633146103845760405162461bcd60e51b815260040161022b90610eeb565b60018281015460408051928352602083019190915281018490527f7c9e91160ddf7baf7154c690eb878e3db5767822c1109de4b4fca9c864e47986906060015b60405180910390a1505050565b600080805b600254811015610452576001600160a01b0384166000908152600860205260408120600280549192918490811061040f5761040f610f48565b60009182526020808320909101546001600160a01b0316835282019290925260400190205461043e9083610f74565b91508061044a81610f8c565b9150506103d6565b5092915050565b600081116104a55760405162461bcd60e51b8152602060048201526019602482015278125394d551919250d251539517d25394155517d05353d55395603a1b604482015260640161022b565b6005546040516323b872dd60e01b81526001600160a01b03808516926323b872dd926104d992339216908690600401610fa7565b602060405180830381600087803b1580156104f357600080fd5b505af1158015610507573d6000803e3d6000fd5b505050506040513d601f19601f8201168201806040525081019061052b9190610fcb565b503360009081526008602090815260408083206001600160a01b038616845290915290205461055b908290610f74565b3360008181526008602090815260408083206001600160a01b0388168452909152908190209290925590517f5548c837ab068cf56a2c2479df0882a4922fd203edb7517321831d95078c5f62916103079185908590610fa7565b600081815260066020526040812080546001600160a01b03166106145760405162461bcd60e51b81526020600482015260176024820152764e6f207375636820726573657276616c2065786973747360481b604482015260640161022b565b6001805490600061062483610f8c565b90915550506001546040805160808101825233808252602080830188905282840185905260006060808501919091528451928352908201889052928101849052929450917f92200c44dc64fa287c97ba38ac7fc49a52d1bd297b372ccd39e64cd5740f3f72910160405180910390a15050919050565b600081815260076020526040902080546001600160a01b03166106cf5760405162461bcd60e51b815260040161022b90610f1a565b6001810154600090815260066020526040902080546001600160a01b0316331461070b5760405162461bcd60e51b815260040161022b90610eeb565b60018201546040805160008152602081019290925281018490527f7c9e91160ddf7baf7154c690eb878e3db5767822c1109de4b4fca9c864e47986906060016103c4565b600033156107925760405162461bcd60e51b815260206004820152601060248201526f139bdd0813dddb995c881bd98813919560821b604482015260640161022b565b6000805490806107a183610f8c565b919050555060005490506000604051806101000160405280336001600160a01b03168152602001886001600160a01b03168152602001878152602001866001600160a01b0316815260200185815260200184815260200183815260200160008152509050610813816000015183610bb2565b600082815260066020818152604092839020845181546001600160a01b03199081166001600160a01b03928316908117845587850151600185018054841691851691909117905587870151600285015560608089015160038601805490941690851617909255608080890151600486015560a0808a0151600587015560c0808b01519887019890985560e0808b015160079097019690965588519283528f8516968301969096529681018d9052918b16908201529384018890529083018690529082018490527fc05e5aabf413dd21ad2fc2ddf043c7cf8b15fac2b9377e04eb257b24a2af3c12910160405180910390a15095945050505050565b600081815260076020526040902080546001600160a01b03166109435760405162461bcd60e51b815260040161022b90610f1a565b6001810154600090815260066020526040902080546001600160a01b0316331461097f5760405162461bcd60e51b815260040161022b90610eeb565b6007810183905560038201805460ff191660011790556040517f849b9c9365baf4ef2403308ee92d15dd1da4de6add8ca2ffeacf4358cbe0a757906103c49085815260200190565b60008111610a135760405162461bcd60e51b8152602060048201526019602482015278125394d551919250d251539517d25394155517d05353d55395603a1b604482015260640161022b565b3360009081526008602090815260408083206001600160a01b0386168452909152902054811115610a795760405162461bcd60e51b815260206004820152601060248201526f139bdd08195b9bdd59da08185cdcd95d60821b604482015260640161022b565b6005546040516323b872dd60e01b81526001600160a01b03848116926323b872dd92610aaf929091169033908690600401610fa7565b602060405180830381600087803b158015610ac957600080fd5b505af1158015610add573d6000803e3d6000fd5b505050506040513d601f19601f82011682018060405250810190610b019190610fcb565b503360009081526008602090815260408083206001600160a01b0386168452909152902054610b31908290610fed565b3360008181526008602090815260408083206001600160a01b0388168452909152908190209290925590517f9b1bfa7fa9ee420a16e124f794c35ac9f90472acc99140eb2f6447c714cad8eb916103079185908590610fa7565b6001600160a01b0382166000908152600a60205260409020610bad9082610bd4565b505050565b6001600160a01b0382166000908152600a60205260409020610bad9082610c71565b6000811580610bea5750610be88383610c86565b155b15610bf757506000610c6b565b600082815260018481016020908152604080842084805290915280832054828452922054610c29928692909190610d0a565b60008281526001848101602090815260408084208480529091528083208390558183528220829055845490918591610c62908490610fed565b90915550829150505b92915050565b6000610c7f83836000610d3f565b9392505050565b60008181526001830160209081526040808320838052909152812054158015610cc957506000828152600180850160209081526040808420928452919052902054155b15610d02576000808052600180850160209081526040808420928452919052902054821415610cfa57506001610c6b565b506000610c6b565b506001610c6b565b600082815260019094016020818152604080872093158088529382528087208690559486529081528385209115855252912055565b6000610d4e8460008585610d56565b949350505050565b6000610d628584610c86565b158015610d745750610d748585610c86565b15610dd457600084815260018601602090815260408083208515158452909152902054610da386868686610d0a565b610daf86858386610d0a565b6001866000016000828254610dc49190610f74565b9091555060019250610d4e915050565b506000949350505050565b600060208284031215610df157600080fd5b5035919050565b80356001600160a01b0381168114610e0f57600080fd5b919050565b600060208284031215610e2657600080fd5b610c7f82610df8565b6020808252825182820181905260009190848201906040850190845b81811015610e6757835183529284019291840191600101610e4b565b50909695505050505050565b60008060408385031215610e8657600080fd5b610e8f83610df8565b946020939093013593505050565b600080600080600060a08688031215610eb557600080fd5b610ebe86610df8565b945060208601359350610ed360408701610df8565b94979396509394606081013594506080013592915050565b602080825260159082015274139bdd081bdddb995c881bd9881c995cd95c9d985b605a1b604082015260600190565b6020808252601490820152734e6f2073756368206f666665722065786973747360601b604082015260600190565b634e487b7160e01b600052603260045260246000fd5b634e487b7160e01b600052601160045260246000fd5b60008219821115610f8757610f87610f5e565b500190565b6000600019821415610fa057610fa0610f5e565b5060010190565b6001600160a01b039384168152919092166020820152604081019190915260600190565b600060208284031215610fdd57600080fd5b81518015158114610c7f57600080fd5b600082821015610fff57610fff610f5e565b50039056fea2646970667358221220ac752a6e96629c9080bce51a65c7ccdd649d4c1ce9e5416e213ae1b12795b5d364736f6c63430008090033",
  "immutableReferences": {},
  "source": "// SPDX-License-Identifier: MIT\r\npragma solidity >=0.8.0 <0.9.0;\r\n\r\nimport {IERC721} from \"@openzeppelin/contracts/token/ERC721/IERC721.sol\";\r\nimport {IERC20} from \"@openzeppelin/contracts/token/ERC20/IERC20.sol\";\r\nimport {IERC721Metadata} from \"@openzeppelin/contracts/token/ERC721/extensions/IERC721Metadata.sol\";\r\nimport {IERC20Metadata} from \"@openzeppelin/contracts/token/ERC20/extensions/IERC20Metadata.sol\";\r\nimport \"@openzeppelin/contracts/token/ERC20/ERC20.sol\";\r\nimport \"solidity-linked-list/contracts/StructuredLinkedList.sol\";\r\nimport {IPriceOracle} from \"./interface/IPriceOracle.sol\";\r\n\r\n/*\r\nOWNER:\r\n-  Whitelist asset to be open to receive Reserval Offers. He may (start with his own initial offer). IMPORTANT: if the owner sets an offer you get only the approval of the Owner ffor the NFT to the contract but the NFT is NOT LOCKED at this stage\r\n-  Owner can remove from whitelist without any cost as long as no offer has been accepted first.\r\n-  Owner can accept an offer. At this stage NFT is locked on the contract\r\n-  Owner can withdraw collateral deposited by the buyer at any moment\r\n-  If owner wants to cancel the Reserval (Reserval), he needs to payback what he withdrawn +a fee\r\nBUYER:\r\n-  Buyer can set offers for whitelisted NFTs. IMPORTANT: the offer does not lock the collateraal of the buyer. It only gets the proposal for that toekns aand amoiunt to the contrract. For example if i propose 10K SHIB, I approve the contract but i do not lock them.\r\n-  Buyer can reserve NFT directly if the owner has some offer\r\n-  Buyer needs to keep a level of collateral. Otherwise can be liquidaated and lose it.\r\n-  If collateral goes below the ratio, buyer needs to deposit more collateral.\r\n-  At future (expiration) the buyer needs to pay the Reserve Price within a period of 5 days max. If not, he loses the Reserval of buying\r\n*/\r\n\r\ncontract PriviNFTReserval {\r\n  using StructuredLinkedList for StructuredLinkedList.List;\r\n\r\n  event OReservalCreated(\r\n    address owner,\r\n    address nft,\r\n    uint256 expiry,\r\n    address token,\r\n    uint256 price,\r\n    uint256 pct,\r\n    uint256 reservalID\r\n  );\r\n\r\n  event OReservalCanceled(\r\n    address owner,\r\n    uint256 reservalID\r\n  );\r\n\r\n  event BOfferCreated(\r\n    address buyer,\r\n    uint256 reservalID,\r\n    uint256 offerID\r\n  );\r\n\r\n  event OOfferAccepted(\r\n    uint256 offerID\r\n  );\r\n\r\n  event Assigned(\r\n    bool assigned,\r\n    uint256 reservalID,\r\n    uint256 offerID\r\n  );\r\n  \r\n  event Deposit(\r\n    address account,\r\n    address token,\r\n    uint256 amount\r\n  );\r\n\r\n  event Withdraw(\r\n    address account,\r\n    address token,\r\n    uint256 amount\r\n  );\r\n  \r\n  struct NFTReserval {\r\n    address owner;\r\n    address nft;\r\n    uint256 expiry;\r\n    address token;\r\n    uint256 price;\r\n    uint256 pct;\r\n    uint256 reservalID;\r\n    uint256 accetedOfferID;\r\n  }\r\n\r\n  struct Offer {\r\n    address buyer;\r\n    uint256 reservalID;\r\n    uint256 offerID;\r\n    bool accepted;\r\n  }\r\n\r\n  uint256 cntReserval;\r\n  uint256 cntOffer;\r\n  address[] tokens;\r\n  address nftPool;\r\n  address priceOracle;\r\n  address admin;\r\n\r\n  mapping(uint256 => NFTReserval) reservals;\r\n  mapping(uint256 => Offer) offers;\r\n\r\n  mapping(address => mapping (address => uint256)) reserves;\r\n  mapping(address => bool) validToken;\r\n\r\n  mapping(address => StructuredLinkedList.List) listReserval;\r\n  mapping(address => StructuredLinkedList.List) listOffer;\r\n  mapping(uint256 => StructuredLinkedList.List) listOfferReq;\r\n\r\n  constructor(\r\n    address[] memory _tokens,\r\n    address _nftPool,\r\n    address _priceOracle\r\n  ) public {\r\n    tokens = _tokens;\r\n    nftPool = _nftPool;\r\n    priceOracle = _priceOracle;\r\n    admin = address(this);\r\n    for (uint i = 0; i < _tokens.length; i++) {\r\n        validToken[_tokens[i]] = true;\r\n    }\r\n    cntReserval = 0;\r\n    cntOffer = 0;\r\n  }\r\n  \r\n  function createReserval(\r\n    address nft,\r\n    uint256 expiry,\r\n    address token,\r\n    uint256 price,\r\n    uint256 pct\r\n  ) external returns (uint256 reservalID) {\r\n    require(msg.sender == _nftOwner(nft), \"Not Owner of NFT\");\r\n    cntReserval++;\r\n    reservalID = cntReserval;\r\n    NFTReserval memory reserval = NFTReserval(msg.sender, nft, expiry, token, price, pct, reservalID, 0);\r\n\r\n    _reserval_add(reserval.owner, reservalID);\r\n    reservals[reservalID] = reserval;\r\n    \r\n    emit OReservalCreated(reserval.owner, nft, expiry, token, price, pct, reservalID);\r\n  }\r\n  \r\n  function cancelReserval(\r\n    uint256 reservalID\r\n  ) external {\r\n    NFTReserval storage reserval = _getReserval(reservalID);\r\n    require(reserval.owner != address(0), \"No such reserval exists\");\r\n    require(reserval.owner == msg.sender, \"Not owner of reserval\");\r\n\r\n    _reserval_remove(reserval.owner, reservalID);\r\n    delete reservals[reservalID];\r\n    \r\n    emit OReservalCanceled(reserval.owner, reservalID);\r\n  }\r\n  \r\n  function createOffer(\r\n    uint256 reservalID\r\n  ) external returns (uint256 offerID) {\r\n    NFTReserval storage reserval = _getReserval(reservalID);\r\n    require(reserval.owner != address(0), \"No such reserval exists\");\r\n\r\n    cntOffer++;\r\n    offerID = cntOffer;\r\n    Offer memory offer = Offer(msg.sender, reservalID, offerID, false);\r\n\r\n    emit BOfferCreated(offer.buyer, reservalID, offerID);\r\n  }\r\n\r\n  function acceptOffer(\r\n    uint256 offerID\r\n  ) external {\r\n    Offer storage offer = _getOffer(offerID);\r\n    require(offer.buyer != address(0), \"No such offer exists\");\r\n    \r\n    NFTReserval storage reserval = _getReserval(offer.reservalID);\r\n    require(msg.sender == reserval.owner, \"Not owner of reserval\");\r\n\r\n    _lockNFT(reserval.nft);\r\n\r\n    reserval.accetedOfferID = offerID;\r\n    offer.accepted = true;\r\n\r\n    emit OOfferAccepted(offerID);\r\n  }\r\n\r\n  function assignOffer(\r\n    uint256 offerID\r\n  ) external {\r\n    Offer storage offer = _getOffer(offerID);\r\n    require(offer.buyer != address(0), \"No such offer exists\");\r\n    \r\n    NFTReserval storage reserval = _getReserval(offer.reservalID);\r\n    require(msg.sender == reserval.owner, \"Not owner of reserval\");\r\n\r\n    //_processAssign(true);\r\n\r\n    emit Assigned(true, offer.reservalID, offerID);\r\n  }\r\n\r\n  function unassignOffer(\r\n    uint256 offerID\r\n  ) external {\r\n    Offer storage offer = _getOffer(offerID);\r\n    require(offer.buyer != address(0), \"No such offer exists\");\r\n    \r\n    NFTReserval storage reserval = _getReserval(offer.reservalID);\r\n    require(msg.sender == reserval.owner, \"Not owner of reserval\");\r\n\r\n    //_processAssign(false);\r\n\r\n    emit Assigned(false, offer.reservalID, offerID);\r\n  }\r\n\r\n  function deposit(\r\n    address token,\r\n    uint256 amount\r\n  ) external {\r\n    require(amount > 0, \"INSUFFICIENT_INPUT_AMOUNT\");\r\n    IERC20(token).transferFrom(msg.sender, admin, amount);\r\n    reserves[msg.sender][token] = reserves[msg.sender][token] + amount;\r\n\r\n    emit Deposit(msg.sender, token, amount);\r\n  }\r\n\r\n  function withdraw(\r\n    address token,\r\n    uint256 amount\r\n  ) external {\r\n    require(amount > 0, \"INSUFFICIENT_INPUT_AMOUNT\");\r\n\r\n    require(reserves[msg.sender][token] >= amount, \"Not enough asset\");\r\n    IERC20(token).transferFrom(admin, msg.sender, amount);\r\n    reserves[msg.sender][token] = reserves[msg.sender][token] - amount;\r\n\r\n    emit Withdraw(msg.sender, token, amount);\r\n  }\r\n\r\n  function recover(\r\n  ) external {\r\n  }\r\n\r\n  function totalAssetUSD(\r\n    address user\r\n  ) external returns (uint256) {\r\n    uint256 total = 0;\r\n    for (uint i = 0; i < tokens.length; i++) {\r\n      total += reserves[user][tokens[i]];\r\n    }\r\n    return total;\r\n  }\r\n\r\n  function getNFTReservals(address owner) external returns (uint256[] memory reservalIDs) {\r\n\r\n  }\r\n\r\n  function getOffers(address buyer) external returns (uint256[] memory offerIDs) {\r\n\r\n  }\r\n\r\n  function getOfferReqs(address owner) external returns (uint256[] memory offerIDs) {\r\n\r\n  }\r\n\r\n  function checkAssign() external {\r\n  }\r\n\r\n  function _getReserval(uint256 reservalID) private returns (NFTReserval storage) {\r\n    return reservals[reservalID];\r\n  }\r\n\r\n  function _getOffer(uint256 offerID) private returns (Offer storage) {\r\n    return offers[offerID];\r\n  }\r\n\r\n  function _nftOwner(address nft) private returns (address) {\r\n    // not completed yet\r\n\r\n    return address(0);\r\n  }\r\n\r\n  function _lockNFT(address nft) private {\r\n    // not completed yet\r\n  }\r\n\r\n  function _tokenToUSD(address token) private returns (uint256) {\r\n    // not completed yet\r\n    return IPriceOracle(priceOracle).price(token);\r\n  }\r\n\r\n  //-------------------------------------------------------------------------------//\r\n  //--------------------------- Linked List functions -----------------------------//\r\n  //-------------------------------------------------------------------------------//\r\n  function _reserval_add(address owner, uint256 reservalID) private {\r\n    StructuredLinkedList.pushBack(listReserval[owner], reservalID);\r\n  }\r\n\r\n  function _reserval_remove(address owner, uint256 reservalID) private {\r\n    StructuredLinkedList.remove(listReserval[owner], reservalID);\r\n  }\r\n\r\n  function _offer_add(address buyer, uint256 offerID) private {\r\n    StructuredLinkedList.pushBack(listOffer[buyer], offerID);\r\n  }\r\n\r\n  function _offer_remove(address buyer, uint256 offerID) private {\r\n    StructuredLinkedList.remove(listOffer[buyer], offerID);\r\n  }\r\n\r\n  function _offerReq_add(uint256 reservalID, uint256 offerID) private {\r\n    StructuredLinkedList.pushBack(listOfferReq[reservalID], offerID);\r\n  }\r\n\r\n  function _offerReq_remove(uint256 reservalID, uint256 offerID) private {\r\n    StructuredLinkedList.remove(listOfferReq[reservalID], offerID);\r\n  }\r\n  //-------------------------------------------------------------------------------//\r\n}\r\n",
  "sourcePath": "E:\\Projects\\Privi2\\PriviNFTOptions\\privi-NFT-buying\\contracts\\PriviNFTReserval.sol",
  "compiler": {
    "name": "solc",
    "version": "0.8.9+commit.e5eed63a.Emscripten.clang"
  },
  "schemaVersion": "3.4.3",
  "updatedAt": "2021-11-02T10:21:00.249Z",
  "devdoc": {
    "kind": "dev",
    "methods": {},
    "version": 1
  },
  "userdoc": {
    "kind": "user",
    "methods": {},
    "version": 1
  }
}