{
  "contractName": "PriviNFTBuying",
  "abi": [
    {
      "inputs": [],
      "stateMutability": "nonpayable",
      "type": "constructor"
    },
    {
      "anonymous": false,
      "inputs": [
        {
          "indexed": false,
          "internalType": "address",
          "name": "owner",
          "type": "address"
        },
        {
          "indexed": false,
          "internalType": "uint256",
          "name": "optionID",
          "type": "uint256"
        }
      ],
      "name": "OptionCanceled",
      "type": "event"
    },
    {
      "anonymous": false,
      "inputs": [
        {
          "indexed": false,
          "internalType": "address",
          "name": "owner",
          "type": "address"
        },
        {
          "indexed": false,
          "internalType": "address",
          "name": "nft",
          "type": "address"
        },
        {
          "indexed": false,
          "internalType": "uint256",
          "name": "expiry",
          "type": "uint256"
        },
        {
          "indexed": false,
          "internalType": "uint256",
          "name": "price",
          "type": "uint256"
        },
        {
          "indexed": false,
          "internalType": "uint256",
          "name": "pct",
          "type": "uint256"
        },
        {
          "indexed": false,
          "internalType": "uint256",
          "name": "optionID",
          "type": "uint256"
        }
      ],
      "name": "OptionCreated",
      "type": "event"
    },
    {
      "anonymous": false,
      "inputs": [
        {
          "indexed": false,
          "internalType": "address",
          "name": "owner",
          "type": "address"
        },
        {
          "indexed": false,
          "internalType": "address",
          "name": "buyer",
          "type": "address"
        },
        {
          "indexed": false,
          "internalType": "uint256",
          "name": "optionID",
          "type": "uint256"
        }
      ],
      "name": "OptionSold",
      "type": "event"
    },
    {
      "inputs": [
        {
          "internalType": "address",
          "name": "nft",
          "type": "address"
        },
        {
          "internalType": "uint256",
          "name": "expiry",
          "type": "uint256"
        },
        {
          "internalType": "uint256",
          "name": "price",
          "type": "uint256"
        },
        {
          "internalType": "uint256",
          "name": "pct",
          "type": "uint256"
        }
      ],
      "name": "createOption",
      "outputs": [
        {
          "internalType": "uint256",
          "name": "optionID",
          "type": "uint256"
        }
      ],
      "stateMutability": "nonpayable",
      "type": "function"
    },
    {
      "inputs": [
        {
          "internalType": "uint256",
          "name": "optionID",
          "type": "uint256"
        }
      ],
      "name": "cancelOption",
      "outputs": [
        {
          "internalType": "bool",
          "name": "success",
          "type": "bool"
        }
      ],
      "stateMutability": "nonpayable",
      "type": "function"
    },
    {
      "inputs": [
        {
          "internalType": "uint256",
          "name": "optionID",
          "type": "uint256"
        }
      ],
      "name": "buyOption",
      "outputs": [
        {
          "internalType": "bool",
          "name": "success",
          "type": "bool"
        }
      ],
      "stateMutability": "nonpayable",
      "type": "function"
    }
  ],
  "bytecode": "0x608060405234801561001057600080fd5b50610245806100206000396000f3fe608060405234801561001057600080fd5b50600436106100415760003560e01c80630cbca65814610046578063de6bf6351461006c578063fba225b91461006c575b600080fd5b610059610054366004610186565b610090565b6040519081526020015b60405180910390f35b61008061007a3660046101cd565b50600090565b6040519015158152602001610063565b60008054908190806100a1836101e6565b90915550506040805160a08082018352338083526001600160a01b0389811660208086018281528688018c815260608089018c81526080808b018d815260008e81526001808952908e90208d518154908c166001600160a01b03199182161782559751918101805492909b16919097161790985592516002850155516003840155945160049092019190915587519485529084019190915294820189905281018790529283018590528201839052907fa2af0d1750ac3f92fbaeb824aa17d8962d72f3759bde8620f9c415831d8884909060c00160405180910390a150949350505050565b6000806000806080858703121561019c57600080fd5b84356001600160a01b03811681146101b357600080fd5b966020860135965060408601359560600135945092505050565b6000602082840312156101df57600080fd5b5035919050565b600060001982141561020857634e487b7160e01b600052601160045260246000fd5b506001019056fea26469706673582212207e7d09bbe66eeacaf007fad4b27584164a31bd3e88886fc8832f864516c9464c64736f6c63430008090033",
  "immutableReferences": {},
  "source": "// SPDX-License-Identifier: MIT\npragma solidity >=0.8.0 <0.9.0;\n\ncontract PriviNFTBuying {\n  event OptionCreated(\n    address owner,\n    address nft,\n    uint256 expiry,\n    uint256 price,\n    uint256 pct,\n    uint256 optionID\n  );\n\n  event OptionCanceled(\n    address owner,\n    uint256 optionID\n  );\n\n  event OptionSold(\n    address owner,\n    address buyer,\n    uint256 optionID\n  );\n  \n  struct NFTOption {\n    address owner;\n    address nft;\n    uint256 expiry;\n    uint256 pct;\n    uint256 optionID;\n  }\n\n  uint256 counter;\n\n  mapping(uint256 => NFTOption) options;\n\n  constructor() public {\n  }\n  \n  function createOption(\n    address nft,\n    uint256 expiry,\n    uint256 price,\n    uint256 pct\n  ) external returns (uint256 optionID) {\n    optionID = counter;\n    counter++;\n    NFTOption memory option = NFTOption(msg.sender, nft, expiry, pct, optionID);\n    options[optionID] = option;\n    emit OptionCreated(msg.sender, nft, expiry, price, pct, optionID);\n  }\n  \n  function cancelOption(\n    uint256 optionID\n  ) external returns (bool success) {\n\n  }\n\n  function buyOption(\n    uint256 optionID\n  ) external returns (bool success) {\n\n  }\n\n  function _getOption(uint256 optionID) private returns (NFTOption storage) {\n    return options[optionID];\n  }\n}\n",
  "sourcePath": "E:\\Projects\\Privi2\\PriviNFTOptions\\privi-NFT-buying\\contracts\\PriviNFTBuying.sol",
  "compiler": {
    "name": "solc",
    "version": "0.8.9+commit.e5eed63a.Emscripten.clang"
  },
  "schemaVersion": "3.4.3",
  "updatedAt": "2021-10-27T09:16:11.241Z",
  "devdoc": {
    "kind": "dev",
    "methods": {},
    "version": 1
  },
  "userdoc": {
    "kind": "user",
    "methods": {},
    "version": 1
  }
}